{
  "transactions": [
    {
      "hash": "0x11d430f829c2cd20237db0507330d5f80f1f312b3c5e34ca0c75adb10a6b9e81",
      "transactionType": "CREATE",
      "contractName": "ERC20Mock",
      "contractAddress": "0x35b425bfbd1c269cf9a249fbadfc9bc053aade51",
      "function": null,
      "arguments": null,
      "transaction": {
        "from": "0x8c9c001f821c04513616fd7962b2d8c62f925fd2",
        "gas": "0xa2ef2",
        "value": "0x0",
        "input": "0x60806040523461031357604080519081016001600160401b03811182821017610226576040908152600982526845524332304d6f636b60b81b602083015280519081016001600160401b038111828210176102265760405260048152634532304d60e01b602082015281516001600160401b03811161022657600354600181811c91168015610309575b602082101461020857601f81116102a6575b50602092601f821160011461024557928192935f9261023a575b50508160011b915f199060031b1c1916176003555b80516001600160401b03811161022657600454600181811c9116801561021c575b602082101461020857601f81116101a5575b50602091601f8211600114610145579181925f9261013a575b50508160011b915f199060031b1c1916176004555b60405161074890816103188239f35b015190505f80610116565b601f1982169260045f52805f20915f5b85811061018d57508360019510610175575b505050811b0160045561012b565b01515f1960f88460031b161c191690555f8080610167565b91926020600181928685015181550194019201610155565b60045f527f8a35acfbc15ff81a39ae7d344fd709f28e8600b4aa8c65c6b64bfe7fe36bd19b601f830160051c810191602084106101fe575b601f0160051c01905b8181106101f357506100fd565b5f81556001016101e6565b90915081906101dd565b634e487b7160e01b5f52602260045260245ffd5b90607f16906100eb565b634e487b7160e01b5f52604160045260245ffd5b015190505f806100b5565b601f1982169360035f52805f20915f5b86811061028e5750836001959610610276575b505050811b016003556100ca565b01515f1960f88460031b161c191690555f8080610268565b91926020600181928685015181550194019201610255565b60035f527fc2575a0e9e593c00f959f8c92f12db2869c3395a3b0502d05e2516446f71f85b601f830160051c810191602084106102ff575b601f0160051c01905b8181106102f4575061009b565b5f81556001016102e7565b90915081906102de565b90607f1690610089565b5f80fdfe6080806040526004361015610012575f80fd5b5f3560e01c90816306fdde031461055657508063095ea7b3146104d457806318160ddd146104b757806323b872dd146103d8578063313ce567146103bd57806340c10f191461031b57806370a08231146102e457806395d89b41146101c95780639dc29fac1461011a578063a9059cbb146100e95763dd62ed3e14610095575f80fd5b346100e55760403660031901126100e5576100ae61064f565b6100b6610665565b6001600160a01b039182165f908152600160209081526040808320949093168252928352819020549051908152f35b5f80fd5b346100e55760403660031901126100e55761010f61010561064f565b602435903361067b565b602060405160018152f35b346100e55760403660031901126100e55761013361064f565b602435906001600160a01b031680156101b657805f525f60205260405f205482811061019d576020835f947fddf252ad1be2c89b69c2b068fc378daa952ba7f163c4a11628f55a4df523b3ef938587528684520360408620558060025403600255604051908152a3005b9063391434e360e21b5f5260045260245260445260645ffd5b634b637e8f60e11b5f525f60045260245ffd5b346100e5575f3660031901126100e5576040515f6004548060011c906001811680156102da575b6020831081146102c6578285529081156102aa5750600114610255575b50819003601f01601f191681019067ffffffffffffffff8211818310176102415761023d82918260405282610625565b0390f35b634e487b7160e01b5f52604160045260245ffd5b905060045f527f8a35acfbc15ff81a39ae7d344fd709f28e8600b4aa8c65c6b64bfe7fe36bd19b5f905b8282106102945750602091508201018261020d565b600181602092548385880101520191019061027f565b90506020925060ff191682840152151560051b8201018261020d565b634e487b7160e01b5f52602260045260245ffd5b91607f16916101f0565b346100e55760203660031901126100e5576001600160a01b0361030561064f565b165f525f602052602060405f2054604051908152f35b346100e55760403660031901126100e55761033461064f565b6001600160a01b031660243581156103aa57600254908082018092116103965760207fddf252ad1be2c89b69c2b068fc378daa952ba7f163c4a11628f55a4df523b3ef915f9360025584845283825260408420818154019055604051908152a3005b634e487b7160e01b5f52601160045260245ffd5b63ec442f0560e01b5f525f60045260245ffd5b346100e5575f3660031901126100e557602060405160128152f35b346100e55760603660031901126100e5576103f161064f565b6103f9610665565b6001600160a01b0382165f818152600160209081526040808320338452909152902054909260443592915f198110610437575b5061010f935061067b565b83811061049c5784156104895733156104765761010f945f52600160205260405f2060018060a01b0333165f526020528360405f20910390558461042c565b634a1406b160e11b5f525f60045260245ffd5b63e602df0560e01b5f525f60045260245ffd5b8390637dc7a0d960e11b5f523360045260245260445260645ffd5b346100e5575f3660031901126100e5576020600254604051908152f35b346100e55760403660031901126100e5576104ed61064f565b602435903315610489576001600160a01b031690811561047657335f52600160205260405f20825f526020528060405f20556040519081527f8c5be1e5ebec7d5bd14f71427d1e84f3dd0314c0f7b2291e5b200ac8c7c3b92560203392a3602060405160018152f35b346100e5575f3660031901126100e5575f6003548060011c9060018116801561061b575b6020831081146102c6578285529081156102aa57506001146105c65750819003601f01601f191681019067ffffffffffffffff8211818310176102415761023d82918260405282610625565b905060035f527fc2575a0e9e593c00f959f8c92f12db2869c3395a3b0502d05e2516446f71f85b5f905b8282106106055750602091508201018261020d565b60018160209254838588010152019101906105f0565b91607f169161057a565b602060409281835280519182918282860152018484015e5f828201840152601f01601f1916010190565b600435906001600160a01b03821682036100e557565b602435906001600160a01b03821682036100e557565b6001600160a01b03169081156101b6576001600160a01b03169182156103aa57815f525f60205260405f20548181106106f957817fddf252ad1be2c89b69c2b068fc378daa952ba7f163c4a11628f55a4df523b3ef92602092855f525f84520360405f2055845f525f825260405f20818154019055604051908152a3565b8263391434e360e21b5f5260045260245260445260645ffdfea2646970667358221220159c0c565e3196380fa40e909de780140d904e90c23aa68d85eb68a5f8b9fa6164736f6c634300081a0033",
        "nonce": "0xcf",
        "chainId": "0x14a34"
      },
      "additionalContracts": [],
      "isFixedGasLimit": false
    },
    {
      "hash": "0x9a8829acec2c771e0a9a04d2bb946546d16264a1767f7036fc584a407f6f7d32",
      "transactionType": "CALL",
      "contractName": "ERC20Mock",
      "contractAddress": "0x35b425bfbd1c269cf9a249fbadfc9bc053aade51",
      "function": "mint(address,uint256)",
      "arguments": [
        "0x8C9C001F821c04513616fd7962B2D8c62f925fD2",
        "90000000000000000000"
      ],
      "transaction": {
        "from": "0x8c9c001f821c04513616fd7962b2d8c62f925fd2",
        "to": "0x35b425bfbd1c269cf9a249fbadfc9bc053aade51",
        "gas": "0x16f5a",
        "value": "0x0",
        "input": "0x40c10f190000000000000000000000008c9c001f821c04513616fd7962b2d8c62f925fd2000000000000000000000000000000000000000000000004e1003b28d9280000",
        "nonce": "0xd0",
        "chainId": "0x14a34"
      },
      "additionalContracts": [],
      "isFixedGasLimit": false
    },
    {
      "hash": "0x8c3834cbbc8e87b2be9e87d8e2dd5c7c4bb7d5ba2b75c2a5e8cc44b619f0268c",
      "transactionType": "CALL",
      "contractName": "ERC20Mock",
      "contractAddress": "0x35b425bfbd1c269cf9a249fbadfc9bc053aade51",
      "function": "approve(address,uint256)",
      "arguments": [
        "0xfE5F4B9d510C80EA13Ecf4be9B9Df00FA9bD28D4",
        "90000000000000000000"
      ],
      "transaction": {
        "from": "0x8c9c001f821c04513616fd7962b2d8c62f925fd2",
        "to": "0x35b425bfbd1c269cf9a249fbadfc9bc053aade51",
        "gas": "0xf7f5",
        "value": "0x0",
        "input": "0x095ea7b3000000000000000000000000fe5f4b9d510c80ea13ecf4be9b9df00fa9bd28d4000000000000000000000000000000000000000000000004e1003b28d9280000",
        "nonce": "0xd1",
        "chainId": "0x14a34"
      },
      "additionalContracts": [],
      "isFixedGasLimit": false
    },
    {
      "hash": "0xd2ac90d4b34c94e715a26e9338ea6410c55a87e7e1e8b53c168ce22bd19091fb",
      "transactionType": "CALL",
      "contractName": null,
      "contractAddress": "0x4902da6825d1e77efacecaad764c74b01100e4a7",
      "function": "setupDistribution(uint256,uint256,uint256,uint256,uint256,uint32,bytes32)",
      "arguments": [
        "1",
        "1741685148",
        "1749461148",
        "1000000000000000000",
        "1000000000000000000",
        "30184",
        "0x00000000000000000000000035b425bfbd1c269cf9a249fbadfc9bc053aade51"
      ],
      "transaction": {
        "from": "0x8c9c001f821c04513616fd7962b2d8c62f925fd2",
        "to": "0x4902da6825d1e77efacecaad764c74b01100e4a7",
        "gas": "0x61c75",
        "value": "0x0",
        "input": "0x0b6d6c9900000000000000000000000000000000000000000000000000000000000000010000000000000000000000000000000000000000000000000000000067d0019c000000000000000000000000000000000000000000000000000000006846a89c0000000000000000000000000000000000000000000000000de0b6b3a76400000000000000000000000000000000000000000000000000000de0b6b3a764000000000000000000000000000000000000000000000000000000000000000075e800000000000000000000000035b425bfbd1c269cf9a249fbadfc9bc053aade51",
        "nonce": "0xd2",
        "chainId": "0x14a34"
      },
      "additionalContracts": [],
      "isFixedGasLimit": false
    },
    {
      "hash": "0x682085e3b1e41e41728bac24b4624d2be4402eb47e4914bf25acf958c159db8b",
      "transactionType": "CALL",
      "contractName": null,
      "contractAddress": "0xfe5f4b9d510c80ea13ecf4be9b9df00fa9bd28d4",
      "function": "deposit(uint256,uint256,address)",
      "arguments": [
        "1",
        "90000000000000000000",
        "0x8C9C001F821c04513616fd7962B2D8c62f925fD2"
      ],
      "transaction": {
        "from": "0x8c9c001f821c04513616fd7962b2d8c62f925fd2",
        "to": "0xfe5f4b9d510c80ea13ecf4be9b9df00fa9bd28d4",
        "gas": "0x1dfd6",
        "value": "0x0",
        "input": "0x8dbdbe6d0000000000000000000000000000000000000000000000000000000000000001000000000000000000000000000000000000000000000004e1003b28d92800000000000000000000000000008c9c001f821c04513616fd7962b2d8c62f925fd2",
        "nonce": "0xd3",
        "chainId": "0x14a34"
      },
      "additionalContracts": [],
      "isFixedGasLimit": false
    }
  ],
  "receipts": [
    {
      "status": "0x1",
      "cumulativeGasUsed": "0x433d24",
      "logs": [],
      "logsBloom": "0x00000000000000000000000000000000000000000000000000000000000000000000000000000000000000000000000000000000000000000000000000000000000000000000000000000000000000000000000000000000000000000000000000000000000000000000000000000000000000000000000000000000000000000000000000000000000000000000000000000000000000000000000000000000000000000000000000000000000000000000000000000000000000000000000000000000000000000000000000000000000000000000000000000000000000000000000000000000000000000000000000000000000000000000000000000000",
      "type": "0x2",
      "transactionHash": "0x11d430f829c2cd20237db0507330d5f80f1f312b3c5e34ca0c75adb10a6b9e81",
      "transactionIndex": "0x1f",
      "blockHash": "0x80680bcf923d7cb59deab5e07945b1b467928edf927d884f42747cd57f6524d3",
      "blockNumber": "0x15e5108",
      "gasUsed": "0x7d558",
      "effectiveGasPrice": "0xe9d15",
      "from": "0x8c9c001f821c04513616fd7962b2d8c62f925fd2",
      "to": null,
      "contractAddress": "0x35b425bfbd1c269cf9a249fbadfc9bc053aade51",
      "l1BaseFeeScalar": "0x44d",
      "l1BlobBaseFee": "0x1",
      "l1BlobBaseFeeScalar": "0xa118b",
      "l1Fee": "0x4dcb592bd",
      "l1GasPrice": "0x2e27c4ea",
      "l1GasUsed": "0x5fad"
    },
    {
      "status": "0x1",
      "cumulativeGasUsed": "0x444719",
      "logs": [
        {
          "address": "0x35b425bfbd1c269cf9a249fbadfc9bc053aade51",
          "topics": [
            "0xddf252ad1be2c89b69c2b068fc378daa952ba7f163c4a11628f55a4df523b3ef",
            "0x0000000000000000000000000000000000000000000000000000000000000000",
            "0x0000000000000000000000008c9c001f821c04513616fd7962b2d8c62f925fd2"
          ],
          "data": "0x000000000000000000000000000000000000000000000004e1003b28d9280000",
          "blockHash": "0x80680bcf923d7cb59deab5e07945b1b467928edf927d884f42747cd57f6524d3",
          "blockNumber": "0x15e5108",
          "transactionHash": "0x9a8829acec2c771e0a9a04d2bb946546d16264a1767f7036fc584a407f6f7d32",
          "transactionIndex": "0x20",
          "logIndex": "0x55",
          "removed": false
        }
      ],
      "logsBloom": "0x00000000000000000000000000000800000000000000000000000000000000000000000000000000000000000000000000000000000000000002000000000000000000000000000000000008004000000000000000000000000000000000000000000000020000000000000000000800000000000000000000000010000000000000000000000000000000000000000000000000000000000000000000000000000000000000000000000000000000000000000020000000000080000000000000000002000000000000000000000000000000000000000000000000000020800000000000000000000000000000000000000000000000000000000000000000",
      "type": "0x2",
      "transactionHash": "0x9a8829acec2c771e0a9a04d2bb946546d16264a1767f7036fc584a407f6f7d32",
      "transactionIndex": "0x20",
      "blockHash": "0x80680bcf923d7cb59deab5e07945b1b467928edf927d884f42747cd57f6524d3",
      "blockNumber": "0x15e5108",
      "gasUsed": "0x109f5",
      "effectiveGasPrice": "0xe9d15",
      "from": "0x8c9c001f821c04513616fd7962b2d8c62f925fd2",
      "to": "0x35b425bfbd1c269cf9a249fbadfc9bc053aade51",
      "contractAddress": null,
      "l1BaseFeeScalar": "0x44d",
      "l1BlobBaseFee": "0x1",
      "l1BlobBaseFeeScalar": "0xa118b",
      "l1Fee": "0x514ea8f7",
      "l1GasPrice": "0x2e27c4ea",
      "l1GasUsed": "0x640"
    },
    {
      "status": "0x1",
      "cumulativeGasUsed": "0x44fa9e",
      "logs": [
        {
          "address": "0x35b425bfbd1c269cf9a249fbadfc9bc053aade51",
          "topics": [
            "0x8c5be1e5ebec7d5bd14f71427d1e84f3dd0314c0f7b2291e5b200ac8c7c3b925",
            "0x0000000000000000000000008c9c001f821c04513616fd7962b2d8c62f925fd2",
            "0x000000000000000000000000fe5f4b9d510c80ea13ecf4be9b9df00fa9bd28d4"
          ],
          "data": "0x000000000000000000000000000000000000000000000004e1003b28d9280000",
          "blockHash": "0x80680bcf923d7cb59deab5e07945b1b467928edf927d884f42747cd57f6524d3",
          "blockNumber": "0x15e5108",
          "transactionHash": "0x8c3834cbbc8e87b2be9e87d8e2dd5c7c4bb7d5ba2b75c2a5e8cc44b619f0268c",
          "transactionIndex": "0x21",
          "logIndex": "0x56",
          "removed": false
        }
      ],
      "logsBloom": "0x00000000000000000000000000000800000000000000000000000000000000000800000000000000000000000000000000000000000000000002000000200000000000000000000000000000004000000000000000000000000000000000000000000000000000000000000000000000000000000000000000000000000000000000000000020000000000000000000000000000000000000000000000000000020000000000000000000000000000000000000020000000000080000000000000000000000000000000000000000000000000000000000000000000000000800010000000000000000000000000000000000000001000000000000000000000",
      "type": "0x2",
      "transactionHash": "0x8c3834cbbc8e87b2be9e87d8e2dd5c7c4bb7d5ba2b75c2a5e8cc44b619f0268c",
      "transactionIndex": "0x21",
      "blockHash": "0x80680bcf923d7cb59deab5e07945b1b467928edf927d884f42747cd57f6524d3",
      "blockNumber": "0x15e5108",
      "gasUsed": "0xb385",
      "effectiveGasPrice": "0xe9d15",
      "from": "0x8c9c001f821c04513616fd7962b2d8c62f925fd2",
      "to": "0x35b425bfbd1c269cf9a249fbadfc9bc053aade51",
      "contractAddress": null,
      "l1BaseFeeScalar": "0x44d",
      "l1BlobBaseFee": "0x1",
      "l1BlobBaseFeeScalar": "0xa118b",
      "l1Fee": "0x514ea8f7",
      "l1GasPrice": "0x2e27c4ea",
      "l1GasUsed": "0x640"
    },
    {
      "status": "0x1",
      "cumulativeGasUsed": "0x496742",
      "logs": [
        {
          "address": "0x4902da6825d1e77efacecaad764c74b01100e4a7",
          "topics": [
            "0x764e98ff8f133fd79086bf24b413507d9b7e83977b31f35a16b80680f38f7072",
            "0x0000000000000000000000000000000000000000000000000000000000000001"
          ],
          "data": "0x0000000000000000000000000000000000000000000000000000000067d0019c000000000000000000000000000000000000000000000000000000006846a89c0000000000000000000000000000000000000000000000000de0b6b3a76400000000000000000000000000000000000000000000000000000de0b6b3a7640000",
          "blockHash": "0x80680bcf923d7cb59deab5e07945b1b467928edf927d884f42747cd57f6524d3",
          "blockNumber": "0x15e5108",
          "transactionHash": "0xd2ac90d4b34c94e715a26e9338ea6410c55a87e7e1e8b53c168ce22bd19091fb",
          "transactionIndex": "0x22",
          "logIndex": "0x57",
          "removed": false
        },
        {
          "address": "0xfe5f4b9d510c80ea13ecf4be9b9df00fa9bd28d4",
          "topics": [
            "0x554c94cb64d410104e2b06cc56052e30bc29a1307df890d30eb124045d4ae680",
            "0x0000000000000000000000000000000000000000000000000000000000000001"
          ],
          "data": "0x00000000000000000000000000000000000000000000000000000000000075e800000000000000000000000035b425bfbd1c269cf9a249fbadfc9bc053aade51",
          "blockHash": "0x80680bcf923d7cb59deab5e07945b1b467928edf927d884f42747cd57f6524d3",
          "blockNumber": "0x15e5108",
          "transactionHash": "0xd2ac90d4b34c94e715a26e9338ea6410c55a87e7e1e8b53c168ce22bd19091fb",
          "transactionIndex": "0x22",
          "logIndex": "0x58",
          "removed": false
        }
      ],
      "logsBloom": "0x00000000000000000000000000000000000000800000000000000000000000000000000800000000100000000000000002000000000000000000000000240000000000000000000000000002000000000000000000040000000000008000000000000000000000000000000000000000000000000000020000000000000000000000000000000000000000000000000000000000000000000000000000000000000000200000000000000000000000000000000000000000000000000000000000000000000000020000000000000000000004000000000000000000000040000000000000000000080000000000000000000000000000000000000000000000",
      "type": "0x2",
      "transactionHash": "0xd2ac90d4b34c94e715a26e9338ea6410c55a87e7e1e8b53c168ce22bd19091fb",
      "transactionIndex": "0x22",
      "blockHash": "0x80680bcf923d7cb59deab5e07945b1b467928edf927d884f42747cd57f6524d3",
      "blockNumber": "0x15e5108",
      "gasUsed": "0x46ca4",
      "effectiveGasPrice": "0xe9d15",
      "from": "0x8c9c001f821c04513616fd7962b2d8c62f925fd2",
      "to": "0x4902da6825d1e77efacecaad764c74b01100e4a7",
      "contractAddress": null,
      "l1BaseFeeScalar": "0x44d",
      "l1BlobBaseFee": "0x1",
      "l1BlobBaseFeeScalar": "0xa118b",
      "l1Fee": "0x5deb9e0e",
      "l1GasPrice": "0x2e27c4ea",
      "l1GasUsed": "0x738"
    },
    {
      "status": "0x1",
      "cumulativeGasUsed": "0x4ac2a7",
      "logs": [
        {
          "address": "0x35b425bfbd1c269cf9a249fbadfc9bc053aade51",
          "topics": [
            "0xddf252ad1be2c89b69c2b068fc378daa952ba7f163c4a11628f55a4df523b3ef",
            "0x0000000000000000000000008c9c001f821c04513616fd7962b2d8c62f925fd2",
            "0x000000000000000000000000fe5f4b9d510c80ea13ecf4be9b9df00fa9bd28d4"
          ],
          "data": "0x000000000000000000000000000000000000000000000004e1003b28d9280000",
          "blockHash": "0x80680bcf923d7cb59deab5e07945b1b467928edf927d884f42747cd57f6524d3",
          "blockNumber": "0x15e5108",
          "transactionHash": "0x682085e3b1e41e41728bac24b4624d2be4402eb47e4914bf25acf958c159db8b",
          "transactionIndex": "0x23",
          "logIndex": "0x59",
          "removed": false
        },
        {
          "address": "0xfe5f4b9d510c80ea13ecf4be9b9df00fa9bd28d4",
          "topics": [
            "0x90e9c021de092ced915ba783260374f129aeeedec753ab3fb564631601ff9589",
            "0x0000000000000000000000000000000000000000000000000000000000000001",
            "0x0000000000000000000000008c9c001f821c04513616fd7962b2d8c62f925fd2"
          ],
          "data": "0x00000000000000000000000000000000000000000000000000000000000075e8000000000000000000000000000000000000000000000004e1003b28d9280000",
          "blockHash": "0x80680bcf923d7cb59deab5e07945b1b467928edf927d884f42747cd57f6524d3",
          "blockNumber": "0x15e5108",
          "transactionHash": "0x682085e3b1e41e41728bac24b4624d2be4402eb47e4914bf25acf958c159db8b",
          "transactionIndex": "0x23",
          "logIndex": "0x5a",
          "removed": false
        }
      ],
      "logsBloom": "0x00000000000000000000000000000800000000800000000000000000000000000800000000000000000000000000000000000000000000000002000000040000000000000000000000000008004000000000000000040000000000008000000000000000000000000000000000000000000000000000000000000010020000000000000000020000000000000000000000000000000000000000000000400000000000000000000000000000000000000000000020000000000080000000000000000002000000000000000000000000000004000000000000000000000040800000000000000000000000000000000000000000009000000000000000000000",
      "type": "0x2",
      "transactionHash": "0x682085e3b1e41e41728bac24b4624d2be4402eb47e4914bf25acf958c159db8b",
      "transactionIndex": "0x23",
      "blockHash": "0x80680bcf923d7cb59deab5e07945b1b467928edf927d884f42747cd57f6524d3",
      "blockNumber": "0x15e5108",
      "gasUsed": "0x15b65",
      "effectiveGasPrice": "0xe9d15",
      "from": "0x8c9c001f821c04513616fd7962b2d8c62f925fd2",
      "to": "0xfe5f4b9d510c80ea13ecf4be9b9df00fa9bd28d4",
      "contractAddress": null,
      "l1BaseFeeScalar": "0x44d",
      "l1BlobBaseFee": "0x1",
      "l1BlobBaseFeeScalar": "0xa118b",
      "l1Fee": "0x514ea8f7",
      "l1GasPrice": "0x2e27c4ea",
      "l1GasUsed": "0x640"
    }
  ],
  "libraries": [],
  "pending": [],
  "returns": {},
  "timestamp": 1741684996,
  "chain": 84532,
  "commit": "6409bd9"
}