{
  "transactions": [
    {
      "hash": "0x773f5a7375b1e00c9dcbc60f3c5122ada176c7f63c566aab562bd2c99c49516d",
      "transactionType": "CALL",
      "contractName": "StakingPro",
      "contractAddress": "0x14f2a22c97ae2890e73cb15b1c0e42a8a0821223",
      "function": "stakeTokens(bytes32,uint256)",
      "arguments": [
        "0x5611645c7b7387fb8499426a4c76a74c7241f751aca035dcabb5e9b0ed7cf68b",
        "90000000000000000000"
      ],
      "transaction": {
        "from": "0x8c9c001f821c04513616fd7962b2d8c62f925fd2",
        "to": "0x14f2a22c97ae2890e73cb15b1c0e42a8a0821223",
        "gas": "0x1cee91",
        "value": "0x0",
        "input": "0xe6587ea25611645c7b7387fb8499426a4c76a74c7241f751aca035dcabb5e9b0ed7cf68b000000000000000000000000000000000000000000000004e1003b28d9280000",
        "nonce": "0x77",
        "chainId": "0x14a34"
      },
      "additionalContracts": [],
      "isFixedGasLimit": false
    },
    {
      "hash": "0x91f0ed2e4201b52d9c01b37f29186c3fb8953374b91717f7e487cfd3769085c6",
      "transactionType": "CALL",
      "contractName": "StakingPro",
      "contractAddress": "0x14f2a22c97ae2890e73cb15b1c0e42a8a0821223",
      "function": "setupDistribution(uint256,uint256,uint256,uint256,uint256,uint32,bytes32)",
      "arguments": [
        "11",
        "1738222142",
        "1745998142",
        "1000000000000000000",
        "1000000000000000000",
        "30184",
        "0x00000000000000000000000058bde6071db4a9b006fdabe75a2eeb43decb779b"
      ],
      "transaction": {
        "from": "0x8c9c001f821c04513616fd7962b2d8c62f925fd2",
        "to": "0x14f2a22c97ae2890e73cb15b1c0e42a8a0821223",
        "gas": "0x63c3c",
        "value": "0x0",
        "input": "0x0b6d6c99000000000000000000000000000000000000000000000000000000000000000b00000000000000000000000000000000000000000000000000000000679b2a3e000000000000000000000000000000000000000000000000000000006811d13e0000000000000000000000000000000000000000000000000de0b6b3a76400000000000000000000000000000000000000000000000000000de0b6b3a764000000000000000000000000000000000000000000000000000000000000000075e800000000000000000000000058bde6071db4a9b006fdabe75a2eeb43decb779b",
        "nonce": "0x78",
        "chainId": "0x14a34"
      },
      "additionalContracts": [],
      "isFixedGasLimit": false
    },
    {
      "hash": "0xeb7678719d041387f0b0d60784ccea9831e85fd9dc6eccb5af4ac090db938e39",
      "transactionType": "CALL",
      "contractName": "RewardsVaultV1",
      "contractAddress": "0x264541e2dc34875943a746174e862ac594164aa2",
      "function": "deposit(uint256,uint256,address)",
      "arguments": [
        "11",
        "90000000000000000000",
        "0x8C9C001F821c04513616fd7962B2D8c62f925fD2"
      ],
      "transaction": {
        "from": "0x8c9c001f821c04513616fd7962b2d8c62f925fd2",
        "to": "0x264541e2dc34875943a746174e862ac594164aa2",
        "gas": "0x1abcb",
        "value": "0x0",
        "input": "0x8dbdbe6d000000000000000000000000000000000000000000000000000000000000000b000000000000000000000000000000000000000000000004e1003b28d92800000000000000000000000000008c9c001f821c04513616fd7962b2d8c62f925fd2",
        "nonce": "0x79",
        "chainId": "0x14a34"
      },
      "additionalContracts": [],
      "isFixedGasLimit": false
    }
  ],
  "receipts": [
    {
      "status": "0x1",
      "cumulativeGasUsed": "0x4db51e",
      "logs": [
        {
          "address": "0x14f2a22c97ae2890e73cb15b1c0e42a8a0821223",
          "topics": [
            "0x949314518006833d597b4acd80e6cc367fa5461d9a4f80373e136688b6aad142",
            "0x0000000000000000000000008c9c001f821c04513616fd7962b2d8c62f925fd2",
            "0x5611645c7b7387fb8499426a4c76a74c7241f751aca035dcabb5e9b0ed7cf68b",
            "0x0000000000000000000000000000000000000000000000000000000000000000"
          ],
          "data": "0x000000000000000000000000000000000000000000000000000000000000000000000000000000000000000000000000000000000000000000000000000000000000000000000000000000000000000000000000000000000000000000000000",
          "blockHash": "0x47cae55c4184e6945a121c78e7005c1a1b31e16e2ca22d3cec596b7d6e6b18b2",
          "blockNumber": "0x143e5a3",
          "transactionHash": "0x773f5a7375b1e00c9dcbc60f3c5122ada176c7f63c566aab562bd2c99c49516d",
          "transactionIndex": "0x1a",
          "logIndex": "0x47",
          "removed": false
        },
        {
          "address": "0x14f2a22c97ae2890e73cb15b1c0e42a8a0821223",
          "topics": [
            "0xc2ec7dd88a6dab4eecfd7a57fb0879a881a03e12b94dc49c5fec5d5faa8792ce",
            "0x0000000000000000000000000000000000000000000000000000000000000001"
          ],
          "data": "0x00000000000000000000000000000000000000000000000000000000679b2a2600000000000000000000000000000000000000000000000362e98889339b6ac400000000000000000000000000000000000000000000000362e98889339b6ac4",
          "blockHash": "0x47cae55c4184e6945a121c78e7005c1a1b31e16e2ca22d3cec596b7d6e6b18b2",
          "blockNumber": "0x143e5a3",
          "transactionHash": "0x773f5a7375b1e00c9dcbc60f3c5122ada176c7f63c566aab562bd2c99c49516d",
          "transactionIndex": "0x1a",
          "logIndex": "0x48",
          "removed": false
        },
        {
          "address": "0x14f2a22c97ae2890e73cb15b1c0e42a8a0821223",
          "topics": [
            "0x2bbaa179fabbdbc2ed8c301faf6fca674ce9b4db55373c36bda89901d2fcfb6c",
            "0x5611645c7b7387fb8499426a4c76a74c7241f751aca035dcabb5e9b0ed7cf68b",
            "0x0000000000000000000000000000000000000000000000000000000000000001"
          ],
          "data": "0x0000000000000000000000000000000000000000000000199650db3ca05ffeca0000000000000000000000000000000000000000000000028f0815ec766fffe100000000000000000000000000000000000000000000000000000000000000000000000000000000000000000000000000000000000000000000000000000000",
          "blockHash": "0x47cae55c4184e6945a121c78e7005c1a1b31e16e2ca22d3cec596b7d6e6b18b2",
          "blockNumber": "0x143e5a3",
          "transactionHash": "0x773f5a7375b1e00c9dcbc60f3c5122ada176c7f63c566aab562bd2c99c49516d",
          "transactionIndex": "0x1a",
          "logIndex": "0x49",
          "removed": false
        },
        {
          "address": "0x14f2a22c97ae2890e73cb15b1c0e42a8a0821223",
          "topics": [
            "0x949314518006833d597b4acd80e6cc367fa5461d9a4f80373e136688b6aad142",
            "0x0000000000000000000000008c9c001f821c04513616fd7962b2d8c62f925fd2",
            "0x5611645c7b7387fb8499426a4c76a74c7241f751aca035dcabb5e9b0ed7cf68b",
            "0x0000000000000000000000000000000000000000000000000000000000000001"
          ],
          "data": "0x000000000000000000000000000000000000000000000000000000000000000000000000000000000000000000000000000000000000000000000000000000000000000000000000000000000000000000000000000000000000000000000000",
          "blockHash": "0x47cae55c4184e6945a121c78e7005c1a1b31e16e2ca22d3cec596b7d6e6b18b2",
          "blockNumber": "0x143e5a3",
          "transactionHash": "0x773f5a7375b1e00c9dcbc60f3c5122ada176c7f63c566aab562bd2c99c49516d",
          "transactionIndex": "0x1a",
          "logIndex": "0x4a",
          "removed": false
        },
        {
          "address": "0x14f2a22c97ae2890e73cb15b1c0e42a8a0821223",
          "topics": [
            "0xc2ec7dd88a6dab4eecfd7a57fb0879a881a03e12b94dc49c5fec5d5faa8792ce",
            "0x0000000000000000000000000000000000000000000000000000000000000002"
          ],
          "data": "0x00000000000000000000000000000000000000000000000000000000679b2a26000000000000000000000000000000000000000000000000a9038288904bdc8b000000000000000000000000000000000000000000000000a9038288904bdc8b",
          "blockHash": "0x47cae55c4184e6945a121c78e7005c1a1b31e16e2ca22d3cec596b7d6e6b18b2",
          "blockNumber": "0x143e5a3",
          "transactionHash": "0x773f5a7375b1e00c9dcbc60f3c5122ada176c7f63c566aab562bd2c99c49516d",
          "transactionIndex": "0x1a",
          "logIndex": "0x4b",
          "removed": false
        },
        {
          "address": "0x14f2a22c97ae2890e73cb15b1c0e42a8a0821223",
          "topics": [
            "0x2bbaa179fabbdbc2ed8c301faf6fca674ce9b4db55373c36bda89901d2fcfb6c",
            "0x5611645c7b7387fb8499426a4c76a74c7241f751aca035dcabb5e9b0ed7cf68b",
            "0x0000000000000000000000000000000000000000000000000000000000000002"
          ],
          "data": "0x0000000000000000000000000000000000000000000000199650db3ca05ffeca0000000000000000000000000000000000000000000000028f0815ec766fffe100000000000000000000000000000000000000000000000000000000000000000000000000000000000000000000000000000000000000000000000000000000",
          "blockHash": "0x47cae55c4184e6945a121c78e7005c1a1b31e16e2ca22d3cec596b7d6e6b18b2",
          "blockNumber": "0x143e5a3",
          "transactionHash": "0x773f5a7375b1e00c9dcbc60f3c5122ada176c7f63c566aab562bd2c99c49516d",
          "transactionIndex": "0x1a",
          "logIndex": "0x4c",
          "removed": false
        },
        {
          "address": "0x14f2a22c97ae2890e73cb15b1c0e42a8a0821223",
          "topics": [
            "0x949314518006833d597b4acd80e6cc367fa5461d9a4f80373e136688b6aad142",
            "0x0000000000000000000000008c9c001f821c04513616fd7962b2d8c62f925fd2",
            "0x5611645c7b7387fb8499426a4c76a74c7241f751aca035dcabb5e9b0ed7cf68b",
            "0x0000000000000000000000000000000000000000000000000000000000000002"
          ],
          "data": "0x000000000000000000000000000000000000000000000000000000000000000000000000000000000000000000000000000000000000000000000000000000000000000000000000000000000000000000000000000000000000000000000000",
          "blockHash": "0x47cae55c4184e6945a121c78e7005c1a1b31e16e2ca22d3cec596b7d6e6b18b2",
          "blockNumber": "0x143e5a3",
          "transactionHash": "0x773f5a7375b1e00c9dcbc60f3c5122ada176c7f63c566aab562bd2c99c49516d",
          "transactionIndex": "0x1a",
          "logIndex": "0x4d",
          "removed": false
        },
        {
          "address": "0x14f2a22c97ae2890e73cb15b1c0e42a8a0821223",
          "topics": [
            "0xc2ec7dd88a6dab4eecfd7a57fb0879a881a03e12b94dc49c5fec5d5faa8792ce",
            "0x0000000000000000000000000000000000000000000000000000000000000003"
          ],
          "data": "0x00000000000000000000000000000000000000000000000000000000679b2a260000000000000000000000000000000000000000000000007131b4bba50ef8fe0000000000000000000000000000000000000000000000007131b4bba50ef8fe",
          "blockHash": "0x47cae55c4184e6945a121c78e7005c1a1b31e16e2ca22d3cec596b7d6e6b18b2",
          "blockNumber": "0x143e5a3",
          "transactionHash": "0x773f5a7375b1e00c9dcbc60f3c5122ada176c7f63c566aab562bd2c99c49516d",
          "transactionIndex": "0x1a",
          "logIndex": "0x4e",
          "removed": false
        },
        {
          "address": "0x14f2a22c97ae2890e73cb15b1c0e42a8a0821223",
          "topics": [
            "0x2bbaa179fabbdbc2ed8c301faf6fca674ce9b4db55373c36bda89901d2fcfb6c",
            "0x5611645c7b7387fb8499426a4c76a74c7241f751aca035dcabb5e9b0ed7cf68b",
            "0x0000000000000000000000000000000000000000000000000000000000000003"
          ],
          "data": "0x0000000000000000000000000000000000000000000000199650db3ca05ffeca0000000000000000000000000000000000000000000000028f0815ec766fffe100000000000000000000000000000000000000000000000000000000000000000000000000000000000000000000000000000000000000000000000000000000",
          "blockHash": "0x47cae55c4184e6945a121c78e7005c1a1b31e16e2ca22d3cec596b7d6e6b18b2",
          "blockNumber": "0x143e5a3",
          "transactionHash": "0x773f5a7375b1e00c9dcbc60f3c5122ada176c7f63c566aab562bd2c99c49516d",
          "transactionIndex": "0x1a",
          "logIndex": "0x4f",
          "removed": false
        },
        {
          "address": "0x14f2a22c97ae2890e73cb15b1c0e42a8a0821223",
          "topics": [
            "0x949314518006833d597b4acd80e6cc367fa5461d9a4f80373e136688b6aad142",
            "0x0000000000000000000000008c9c001f821c04513616fd7962b2d8c62f925fd2",
            "0x5611645c7b7387fb8499426a4c76a74c7241f751aca035dcabb5e9b0ed7cf68b",
            "0x0000000000000000000000000000000000000000000000000000000000000003"
          ],
          "data": "0x000000000000000000000000000000000000000000000000000000000000000000000000000000000000000000000000000000000000000000000000000000000000000000000000000000000000000000000000000000000000000000000000",
          "blockHash": "0x47cae55c4184e6945a121c78e7005c1a1b31e16e2ca22d3cec596b7d6e6b18b2",
          "blockNumber": "0x143e5a3",
          "transactionHash": "0x773f5a7375b1e00c9dcbc60f3c5122ada176c7f63c566aab562bd2c99c49516d",
          "transactionIndex": "0x1a",
          "logIndex": "0x50",
          "removed": false
        },
        {
          "address": "0x14f2a22c97ae2890e73cb15b1c0e42a8a0821223",
          "topics": [
            "0xc2ec7dd88a6dab4eecfd7a57fb0879a881a03e12b94dc49c5fec5d5faa8792ce",
            "0x0000000000000000000000000000000000000000000000000000000000000004"
          ],
          "data": "0x00000000000000000000000000000000000000000000000000000000679b2a2600000000000000000000000000000000000000000000000060212f1985b0744000000000000000000000000000000000000000000000000060212f1985b07440",
          "blockHash": "0x47cae55c4184e6945a121c78e7005c1a1b31e16e2ca22d3cec596b7d6e6b18b2",
          "blockNumber": "0x143e5a3",
          "transactionHash": "0x773f5a7375b1e00c9dcbc60f3c5122ada176c7f63c566aab562bd2c99c49516d",
          "transactionIndex": "0x1a",
          "logIndex": "0x51",
          "removed": false
        },
        {
          "address": "0x14f2a22c97ae2890e73cb15b1c0e42a8a0821223",
          "topics": [
            "0x2bbaa179fabbdbc2ed8c301faf6fca674ce9b4db55373c36bda89901d2fcfb6c",
            "0x5611645c7b7387fb8499426a4c76a74c7241f751aca035dcabb5e9b0ed7cf68b",
            "0x0000000000000000000000000000000000000000000000000000000000000004"
          ],
          "data": "0x0000000000000000000000000000000000000000000000199650db3ca05ffeca0000000000000000000000000000000000000000000000028f0815ec766fffe100000000000000000000000000000000000000000000000000000000000000000000000000000000000000000000000000000000000000000000000000000000",
          "blockHash": "0x47cae55c4184e6945a121c78e7005c1a1b31e16e2ca22d3cec596b7d6e6b18b2",
          "blockNumber": "0x143e5a3",
          "transactionHash": "0x773f5a7375b1e00c9dcbc60f3c5122ada176c7f63c566aab562bd2c99c49516d",
          "transactionIndex": "0x1a",
          "logIndex": "0x52",
          "removed": false
        },
        {
          "address": "0x14f2a22c97ae2890e73cb15b1c0e42a8a0821223",
          "topics": [
            "0x949314518006833d597b4acd80e6cc367fa5461d9a4f80373e136688b6aad142",
            "0x0000000000000000000000008c9c001f821c04513616fd7962b2d8c62f925fd2",
            "0x5611645c7b7387fb8499426a4c76a74c7241f751aca035dcabb5e9b0ed7cf68b",
            "0x0000000000000000000000000000000000000000000000000000000000000004"
          ],
          "data": "0x000000000000000000000000000000000000000000000000000000000000000000000000000000000000000000000000000000000000000000000000000000000000000000000000000000000000000000000000000000000000000000000000",
          "blockHash": "0x47cae55c4184e6945a121c78e7005c1a1b31e16e2ca22d3cec596b7d6e6b18b2",
          "blockNumber": "0x143e5a3",
          "transactionHash": "0x773f5a7375b1e00c9dcbc60f3c5122ada176c7f63c566aab562bd2c99c49516d",
          "transactionIndex": "0x1a",
          "logIndex": "0x53",
          "removed": false
        },
        {
          "address": "0x14f2a22c97ae2890e73cb15b1c0e42a8a0821223",
          "topics": [
            "0xc2ec7dd88a6dab4eecfd7a57fb0879a881a03e12b94dc49c5fec5d5faa8792ce",
            "0x0000000000000000000000000000000000000000000000000000000000000005"
          ],
          "data": "0x00000000000000000000000000000000000000000000000000000000679b2a2600000000000000000000000000000000000000000000000045b5deaadcd5a3a900000000000000000000000000000000000000000000000045b5deaadcd5a3a9",
          "blockHash": "0x47cae55c4184e6945a121c78e7005c1a1b31e16e2ca22d3cec596b7d6e6b18b2",
          "blockNumber": "0x143e5a3",
          "transactionHash": "0x773f5a7375b1e00c9dcbc60f3c5122ada176c7f63c566aab562bd2c99c49516d",
          "transactionIndex": "0x1a",
          "logIndex": "0x54",
          "removed": false
        },
        {
          "address": "0x14f2a22c97ae2890e73cb15b1c0e42a8a0821223",
          "topics": [
            "0x2bbaa179fabbdbc2ed8c301faf6fca674ce9b4db55373c36bda89901d2fcfb6c",
            "0x5611645c7b7387fb8499426a4c76a74c7241f751aca035dcabb5e9b0ed7cf68b",
            "0x0000000000000000000000000000000000000000000000000000000000000005"
          ],
          "data": "0x0000000000000000000000000000000000000000000000199650db3ca05ffeca0000000000000000000000000000000000000000000000028f0815ec766fffe100000000000000000000000000000000000000000000000000000000000000000000000000000000000000000000000000000000000000000000000000000000",
          "blockHash": "0x47cae55c4184e6945a121c78e7005c1a1b31e16e2ca22d3cec596b7d6e6b18b2",
          "blockNumber": "0x143e5a3",
          "transactionHash": "0x773f5a7375b1e00c9dcbc60f3c5122ada176c7f63c566aab562bd2c99c49516d",
          "transactionIndex": "0x1a",
          "logIndex": "0x55",
          "removed": false
        },
        {
          "address": "0x14f2a22c97ae2890e73cb15b1c0e42a8a0821223",
          "topics": [
            "0x949314518006833d597b4acd80e6cc367fa5461d9a4f80373e136688b6aad142",
            "0x0000000000000000000000008c9c001f821c04513616fd7962b2d8c62f925fd2",
            "0x5611645c7b7387fb8499426a4c76a74c7241f751aca035dcabb5e9b0ed7cf68b",
            "0x0000000000000000000000000000000000000000000000000000000000000005"
          ],
          "data": "0x000000000000000000000000000000000000000000000000000000000000000000000000000000000000000000000000000000000000000000000000000000000000000000000000000000000000000000000000000000000000000000000000",
          "blockHash": "0x47cae55c4184e6945a121c78e7005c1a1b31e16e2ca22d3cec596b7d6e6b18b2",
          "blockNumber": "0x143e5a3",
          "transactionHash": "0x773f5a7375b1e00c9dcbc60f3c5122ada176c7f63c566aab562bd2c99c49516d",
          "transactionIndex": "0x1a",
          "logIndex": "0x56",
          "removed": false
        },
        {
          "address": "0x14f2a22c97ae2890e73cb15b1c0e42a8a0821223",
          "topics": [
            "0xc2ec7dd88a6dab4eecfd7a57fb0879a881a03e12b94dc49c5fec5d5faa8792ce",
            "0x0000000000000000000000000000000000000000000000000000000000000006"
          ],
          "data": "0x00000000000000000000000000000000000000000000000000000000679b2a2600000000000000000000000000000000000000000000000036c0d57d2594873700000000000000000000000000000000000000000000000036c0d57d25948737",
          "blockHash": "0x47cae55c4184e6945a121c78e7005c1a1b31e16e2ca22d3cec596b7d6e6b18b2",
          "blockNumber": "0x143e5a3",
          "transactionHash": "0x773f5a7375b1e00c9dcbc60f3c5122ada176c7f63c566aab562bd2c99c49516d",
          "transactionIndex": "0x1a",
          "logIndex": "0x57",
          "removed": false
        },
        {
          "address": "0x14f2a22c97ae2890e73cb15b1c0e42a8a0821223",
          "topics": [
            "0x2bbaa179fabbdbc2ed8c301faf6fca674ce9b4db55373c36bda89901d2fcfb6c",
            "0x5611645c7b7387fb8499426a4c76a74c7241f751aca035dcabb5e9b0ed7cf68b",
            "0x0000000000000000000000000000000000000000000000000000000000000006"
          ],
          "data": "0x0000000000000000000000000000000000000000000000199650db3ca05ffeca0000000000000000000000000000000000000000000000028f0815ec766fffe100000000000000000000000000000000000000000000000000000000000000000000000000000000000000000000000000000000000000000000000000000000",
          "blockHash": "0x47cae55c4184e6945a121c78e7005c1a1b31e16e2ca22d3cec596b7d6e6b18b2",
          "blockNumber": "0x143e5a3",
          "transactionHash": "0x773f5a7375b1e00c9dcbc60f3c5122ada176c7f63c566aab562bd2c99c49516d",
          "transactionIndex": "0x1a",
          "logIndex": "0x58",
          "removed": false
        },
        {
          "address": "0x14f2a22c97ae2890e73cb15b1c0e42a8a0821223",
          "topics": [
            "0x949314518006833d597b4acd80e6cc367fa5461d9a4f80373e136688b6aad142",
            "0x0000000000000000000000008c9c001f821c04513616fd7962b2d8c62f925fd2",
            "0x5611645c7b7387fb8499426a4c76a74c7241f751aca035dcabb5e9b0ed7cf68b",
            "0x0000000000000000000000000000000000000000000000000000000000000006"
          ],
          "data": "0x000000000000000000000000000000000000000000000000000000000000000000000000000000000000000000000000000000000000000000000000000000000000000000000000000000000000000000000000000000000000000000000000",
          "blockHash": "0x47cae55c4184e6945a121c78e7005c1a1b31e16e2ca22d3cec596b7d6e6b18b2",
          "blockNumber": "0x143e5a3",
          "transactionHash": "0x773f5a7375b1e00c9dcbc60f3c5122ada176c7f63c566aab562bd2c99c49516d",
          "transactionIndex": "0x1a",
          "logIndex": "0x59",
          "removed": false
        },
        {
          "address": "0x14f2a22c97ae2890e73cb15b1c0e42a8a0821223",
          "topics": [
            "0xc2ec7dd88a6dab4eecfd7a57fb0879a881a03e12b94dc49c5fec5d5faa8792ce",
            "0x0000000000000000000000000000000000000000000000000000000000000007"
          ],
          "data": "0x00000000000000000000000000000000000000000000000000000000679b2a260000000000000000000000000000000000000000000000002149f859a0f9dc8d0000000000000000000000000000000000000000000000002149f859a0f9dc8d",
          "blockHash": "0x47cae55c4184e6945a121c78e7005c1a1b31e16e2ca22d3cec596b7d6e6b18b2",
          "blockNumber": "0x143e5a3",
          "transactionHash": "0x773f5a7375b1e00c9dcbc60f3c5122ada176c7f63c566aab562bd2c99c49516d",
          "transactionIndex": "0x1a",
          "logIndex": "0x5a",
          "removed": false
        },
        {
          "address": "0x14f2a22c97ae2890e73cb15b1c0e42a8a0821223",
          "topics": [
            "0x2bbaa179fabbdbc2ed8c301faf6fca674ce9b4db55373c36bda89901d2fcfb6c",
            "0x5611645c7b7387fb8499426a4c76a74c7241f751aca035dcabb5e9b0ed7cf68b",
            "0x0000000000000000000000000000000000000000000000000000000000000007"
          ],
          "data": "0x0000000000000000000000000000000000000000000000199650db3ca05ffeca0000000000000000000000000000000000000000000000028f0815ec766fffe100000000000000000000000000000000000000000000000000000000000000000000000000000000000000000000000000000000000000000000000000000000",
          "blockHash": "0x47cae55c4184e6945a121c78e7005c1a1b31e16e2ca22d3cec596b7d6e6b18b2",
          "blockNumber": "0x143e5a3",
          "transactionHash": "0x773f5a7375b1e00c9dcbc60f3c5122ada176c7f63c566aab562bd2c99c49516d",
          "transactionIndex": "0x1a",
          "logIndex": "0x5b",
          "removed": false
        },
        {
          "address": "0x14f2a22c97ae2890e73cb15b1c0e42a8a0821223",
          "topics": [
            "0x949314518006833d597b4acd80e6cc367fa5461d9a4f80373e136688b6aad142",
            "0x0000000000000000000000008c9c001f821c04513616fd7962b2d8c62f925fd2",
            "0x5611645c7b7387fb8499426a4c76a74c7241f751aca035dcabb5e9b0ed7cf68b",
            "0x0000000000000000000000000000000000000000000000000000000000000007"
          ],
          "data": "0x000000000000000000000000000000000000000000000000000000000000000000000000000000000000000000000000000000000000000000000000000000000000000000000000000000000000000000000000000000000000000000000000",
          "blockHash": "0x47cae55c4184e6945a121c78e7005c1a1b31e16e2ca22d3cec596b7d6e6b18b2",
          "blockNumber": "0x143e5a3",
          "transactionHash": "0x773f5a7375b1e00c9dcbc60f3c5122ada176c7f63c566aab562bd2c99c49516d",
          "transactionIndex": "0x1a",
          "logIndex": "0x5c",
          "removed": false
        },
        {
          "address": "0x14f2a22c97ae2890e73cb15b1c0e42a8a0821223",
          "topics": [
            "0xc2ec7dd88a6dab4eecfd7a57fb0879a881a03e12b94dc49c5fec5d5faa8792ce",
            "0x0000000000000000000000000000000000000000000000000000000000000008"
          ],
          "data": "0x00000000000000000000000000000000000000000000000000000000679b2a260000000000000000000000000000000000000000000000001405466bc3d93cb90000000000000000000000000000000000000000000000001405466bc3d93cb9",
          "blockHash": "0x47cae55c4184e6945a121c78e7005c1a1b31e16e2ca22d3cec596b7d6e6b18b2",
          "blockNumber": "0x143e5a3",
          "transactionHash": "0x773f5a7375b1e00c9dcbc60f3c5122ada176c7f63c566aab562bd2c99c49516d",
          "transactionIndex": "0x1a",
          "logIndex": "0x5d",
          "removed": false
        },
        {
          "address": "0x14f2a22c97ae2890e73cb15b1c0e42a8a0821223",
          "topics": [
            "0x2bbaa179fabbdbc2ed8c301faf6fca674ce9b4db55373c36bda89901d2fcfb6c",
            "0x5611645c7b7387fb8499426a4c76a74c7241f751aca035dcabb5e9b0ed7cf68b",
            "0x0000000000000000000000000000000000000000000000000000000000000008"
          ],
          "data": "0x0000000000000000000000000000000000000000000000199650db3ca05ffeca0000000000000000000000000000000000000000000000028f0815ec766fffe100000000000000000000000000000000000000000000000000000000000000000000000000000000000000000000000000000000000000000000000000000000",
          "blockHash": "0x47cae55c4184e6945a121c78e7005c1a1b31e16e2ca22d3cec596b7d6e6b18b2",
          "blockNumber": "0x143e5a3",
          "transactionHash": "0x773f5a7375b1e00c9dcbc60f3c5122ada176c7f63c566aab562bd2c99c49516d",
          "transactionIndex": "0x1a",
          "logIndex": "0x5e",
          "removed": false
        },
        {
          "address": "0x14f2a22c97ae2890e73cb15b1c0e42a8a0821223",
          "topics": [
            "0x949314518006833d597b4acd80e6cc367fa5461d9a4f80373e136688b6aad142",
            "0x0000000000000000000000008c9c001f821c04513616fd7962b2d8c62f925fd2",
            "0x5611645c7b7387fb8499426a4c76a74c7241f751aca035dcabb5e9b0ed7cf68b",
            "0x0000000000000000000000000000000000000000000000000000000000000008"
          ],
          "data": "0x000000000000000000000000000000000000000000000000000000000000000000000000000000000000000000000000000000000000000000000000000000000000000000000000000000000000000000000000000000000000000000000000",
          "blockHash": "0x47cae55c4184e6945a121c78e7005c1a1b31e16e2ca22d3cec596b7d6e6b18b2",
          "blockNumber": "0x143e5a3",
          "transactionHash": "0x773f5a7375b1e00c9dcbc60f3c5122ada176c7f63c566aab562bd2c99c49516d",
          "transactionIndex": "0x1a",
          "logIndex": "0x5f",
          "removed": false
        },
        {
          "address": "0x14f2a22c97ae2890e73cb15b1c0e42a8a0821223",
          "topics": [
            "0xc2ec7dd88a6dab4eecfd7a57fb0879a881a03e12b94dc49c5fec5d5faa8792ce",
            "0x0000000000000000000000000000000000000000000000000000000000000009"
          ],
          "data": "0x00000000000000000000000000000000000000000000000000000000679b2a2600000000000000000000000000000000000000000000000010c2ab5920feb29100000000000000000000000000000000000000000000000010c2ab5920feb291",
          "blockHash": "0x47cae55c4184e6945a121c78e7005c1a1b31e16e2ca22d3cec596b7d6e6b18b2",
          "blockNumber": "0x143e5a3",
          "transactionHash": "0x773f5a7375b1e00c9dcbc60f3c5122ada176c7f63c566aab562bd2c99c49516d",
          "transactionIndex": "0x1a",
          "logIndex": "0x60",
          "removed": false
        },
        {
          "address": "0x14f2a22c97ae2890e73cb15b1c0e42a8a0821223",
          "topics": [
            "0x2bbaa179fabbdbc2ed8c301faf6fca674ce9b4db55373c36bda89901d2fcfb6c",
            "0x5611645c7b7387fb8499426a4c76a74c7241f751aca035dcabb5e9b0ed7cf68b",
            "0x0000000000000000000000000000000000000000000000000000000000000009"
          ],
          "data": "0x0000000000000000000000000000000000000000000000199650db3ca05ffeca0000000000000000000000000000000000000000000000028f0815ec766fffe100000000000000000000000000000000000000000000000000000000000000000000000000000000000000000000000000000000000000000000000000000000",
          "blockHash": "0x47cae55c4184e6945a121c78e7005c1a1b31e16e2ca22d3cec596b7d6e6b18b2",
          "blockNumber": "0x143e5a3",
          "transactionHash": "0x773f5a7375b1e00c9dcbc60f3c5122ada176c7f63c566aab562bd2c99c49516d",
          "transactionIndex": "0x1a",
          "logIndex": "0x61",
          "removed": false
        },
        {
          "address": "0x14f2a22c97ae2890e73cb15b1c0e42a8a0821223",
          "topics": [
            "0x949314518006833d597b4acd80e6cc367fa5461d9a4f80373e136688b6aad142",
            "0x0000000000000000000000008c9c001f821c04513616fd7962b2d8c62f925fd2",
            "0x5611645c7b7387fb8499426a4c76a74c7241f751aca035dcabb5e9b0ed7cf68b",
            "0x0000000000000000000000000000000000000000000000000000000000000009"
          ],
          "data": "0x000000000000000000000000000000000000000000000000000000000000000000000000000000000000000000000000000000000000000000000000000000000000000000000000000000000000000000000000000000000000000000000000",
          "blockHash": "0x47cae55c4184e6945a121c78e7005c1a1b31e16e2ca22d3cec596b7d6e6b18b2",
          "blockNumber": "0x143e5a3",
          "transactionHash": "0x773f5a7375b1e00c9dcbc60f3c5122ada176c7f63c566aab562bd2c99c49516d",
          "transactionIndex": "0x1a",
          "logIndex": "0x62",
          "removed": false
        },
        {
          "address": "0x14f2a22c97ae2890e73cb15b1c0e42a8a0821223",
          "topics": [
            "0xc2ec7dd88a6dab4eecfd7a57fb0879a881a03e12b94dc49c5fec5d5faa8792ce",
            "0x000000000000000000000000000000000000000000000000000000000000000a"
          ],
          "data": "0x00000000000000000000000000000000000000000000000000000000679b2a26000000000000000000000000000000000000000000000000078118d6b76ef684000000000000000000000000000000000000000000000000078118d6b76ef684",
          "blockHash": "0x47cae55c4184e6945a121c78e7005c1a1b31e16e2ca22d3cec596b7d6e6b18b2",
          "blockNumber": "0x143e5a3",
          "transactionHash": "0x773f5a7375b1e00c9dcbc60f3c5122ada176c7f63c566aab562bd2c99c49516d",
          "transactionIndex": "0x1a",
          "logIndex": "0x63",
          "removed": false
        },
        {
          "address": "0x14f2a22c97ae2890e73cb15b1c0e42a8a0821223",
          "topics": [
            "0x2bbaa179fabbdbc2ed8c301faf6fca674ce9b4db55373c36bda89901d2fcfb6c",
            "0x5611645c7b7387fb8499426a4c76a74c7241f751aca035dcabb5e9b0ed7cf68b",
            "0x000000000000000000000000000000000000000000000000000000000000000a"
          ],
          "data": "0x000000000000000000000000000000000000000000000017be7897606517fda80000000000000000000000000000000000000000000000025fd8dbf00a1bffc400000000000000000000000000000000000000000000000000000000000000000000000000000000000000000000000000000000000000000000000000000000",
          "blockHash": "0x47cae55c4184e6945a121c78e7005c1a1b31e16e2ca22d3cec596b7d6e6b18b2",
          "blockNumber": "0x143e5a3",
          "transactionHash": "0x773f5a7375b1e00c9dcbc60f3c5122ada176c7f63c566aab562bd2c99c49516d",
          "transactionIndex": "0x1a",
          "logIndex": "0x64",
          "removed": false
        },
        {
          "address": "0x14f2a22c97ae2890e73cb15b1c0e42a8a0821223",
          "topics": [
            "0x949314518006833d597b4acd80e6cc367fa5461d9a4f80373e136688b6aad142",
            "0x0000000000000000000000008c9c001f821c04513616fd7962b2d8c62f925fd2",
            "0x5611645c7b7387fb8499426a4c76a74c7241f751aca035dcabb5e9b0ed7cf68b",
            "0x000000000000000000000000000000000000000000000000000000000000000a"
          ],
          "data": "0x000000000000000000000000000000000000000000000000000000000000000000000000000000000000000000000000000000000000000000000000000000000000000000000000000000000000000000000000000000000000000000000000",
          "blockHash": "0x47cae55c4184e6945a121c78e7005c1a1b31e16e2ca22d3cec596b7d6e6b18b2",
          "blockNumber": "0x143e5a3",
          "transactionHash": "0x773f5a7375b1e00c9dcbc60f3c5122ada176c7f63c566aab562bd2c99c49516d",
          "transactionIndex": "0x1a",
          "logIndex": "0x65",
          "removed": false
        },
        {
          "address": "0x14f2a22c97ae2890e73cb15b1c0e42a8a0821223",
          "topics": [
            "0x4e7bac5695f40fad0768f0f3b8c118c3d4d29e043511b9fa823003fe60027275",
            "0x0000000000000000000000008c9c001f821c04513616fd7962b2d8c62f925fd2",
            "0x5611645c7b7387fb8499426a4c76a74c7241f751aca035dcabb5e9b0ed7cf68b"
          ],
          "data": "0x000000000000000000000000000000000000000000000004e1003b28d9280000",
          "blockHash": "0x47cae55c4184e6945a121c78e7005c1a1b31e16e2ca22d3cec596b7d6e6b18b2",
          "blockNumber": "0x143e5a3",
          "transactionHash": "0x773f5a7375b1e00c9dcbc60f3c5122ada176c7f63c566aab562bd2c99c49516d",
          "transactionIndex": "0x1a",
          "logIndex": "0x66",
          "removed": false
        },
        {
          "address": "0x8528c2df4ed0cf397a31b3f0ff0b96719a1be2c6",
          "topics": [
            "0xddf252ad1be2c89b69c2b068fc378daa952ba7f163c4a11628f55a4df523b3ef",
            "0x0000000000000000000000008c9c001f821c04513616fd7962b2d8c62f925fd2",
            "0x00000000000000000000000014f2a22c97ae2890e73cb15b1c0e42a8a0821223"
          ],
          "data": "0x000000000000000000000000000000000000000000000004e1003b28d9280000",
          "blockHash": "0x47cae55c4184e6945a121c78e7005c1a1b31e16e2ca22d3cec596b7d6e6b18b2",
          "blockNumber": "0x143e5a3",
          "transactionHash": "0x773f5a7375b1e00c9dcbc60f3c5122ada176c7f63c566aab562bd2c99c49516d",
          "transactionIndex": "0x1a",
          "logIndex": "0x67",
          "removed": false
        }
      ],
      "logsBloom": "0x040000080000000000000000000008000000000000000000000000000000000000000008000000000000000000000400080010000606800000200000002400000000300000004000000000080040000000000000000400000000000000000000080000000200000010000000000008000000000000100000000000180000000000a0000400000004010000000000001000001800000000001000000000000000000000000200000000000100000020001000000042800000002080480000408040000002000000000000000000000000000200008000010000000100000060000000000000000000000000000000000000000000008000000000000000800000",
      "type": "0x2",
      "transactionHash": "0x773f5a7375b1e00c9dcbc60f3c5122ada176c7f63c566aab562bd2c99c49516d",
      "transactionIndex": "0x1a",
      "blockHash": "0x47cae55c4184e6945a121c78e7005c1a1b31e16e2ca22d3cec596b7d6e6b18b2",
      "blockNumber": "0x143e5a3",
      "gasUsed": "0x13c852",
      "effectiveGasPrice": "0x123f238",
      "from": "0x8c9c001f821c04513616fd7962b2d8c62f925fd2",
      "to": "0x14f2a22c97ae2890e73cb15b1c0e42a8a0821223",
      "contractAddress": null,
      "l1BaseFeeScalar": "0x44d",
      "l1BlobBaseFee": "0x1",
      "l1BlobBaseFeeScalar": "0xa118b",
      "l1Fee": "0x6e214e93",
      "l1GasPrice": "0x3e845fd8",
      "l1GasUsed": "0x640"
    },
    {
      "status": "0x1",
      "cumulativeGasUsed": "0x51f890",
      "logs": [
        {
          "address": "0x14f2a22c97ae2890e73cb15b1c0e42a8a0821223",
          "topics": [
            "0x764e98ff8f133fd79086bf24b413507d9b7e83977b31f35a16b80680f38f7072",
            "0x000000000000000000000000000000000000000000000000000000000000000b"
          ],
          "data": "0x00000000000000000000000000000000000000000000000000000000679b2a3e000000000000000000000000000000000000000000000000000000006811d13e0000000000000000000000000000000000000000000000000de0b6b3a76400000000000000000000000000000000000000000000000000000de0b6b3a7640000",
          "blockHash": "0x47cae55c4184e6945a121c78e7005c1a1b31e16e2ca22d3cec596b7d6e6b18b2",
          "blockNumber": "0x143e5a3",
          "transactionHash": "0x91f0ed2e4201b52d9c01b37f29186c3fb8953374b91717f7e487cfd3769085c6",
          "transactionIndex": "0x1b",
          "logIndex": "0x68",
          "removed": false
        },
        {
          "address": "0x264541e2dc34875943a746174e862ac594164aa2",
          "topics": [
            "0x554c94cb64d410104e2b06cc56052e30bc29a1307df890d30eb124045d4ae680",
            "0x000000000000000000000000000000000000000000000000000000000000000b"
          ],
          "data": "0x00000000000000000000000000000000000000000000000000000000000075e800000000000000000000000058bde6071db4a9b006fdabe75a2eeb43decb779b",
          "blockHash": "0x47cae55c4184e6945a121c78e7005c1a1b31e16e2ca22d3cec596b7d6e6b18b2",
          "blockNumber": "0x143e5a3",
          "transactionHash": "0x91f0ed2e4201b52d9c01b37f29186c3fb8953374b91717f7e487cfd3769085c6",
          "transactionIndex": "0x1b",
          "logIndex": "0x69",
          "removed": false
        }
      ],
      "logsBloom": "0x00000000000000000000004000000000000000000000000000000000000000000000000800000000100000000000000000000000000400000000000000000000000000000000000000000002000000000000000000400000000000000000000000000000000000000000000000000000000000000000020000000000000000000000000000000000000000000000000000000000000000000000000000000000000000200000000000000000000020000000000000000000000000000000000000000000000000020000000000000000002000000000000000000000000020000000000000000000000000000000000000000020000000040000001000000000",
      "type": "0x2",
      "transactionHash": "0x91f0ed2e4201b52d9c01b37f29186c3fb8953374b91717f7e487cfd3769085c6",
      "transactionIndex": "0x1b",
      "blockHash": "0x47cae55c4184e6945a121c78e7005c1a1b31e16e2ca22d3cec596b7d6e6b18b2",
      "blockNumber": "0x143e5a3",
      "gasUsed": "0x44372",
      "effectiveGasPrice": "0x123f238",
      "from": "0x8c9c001f821c04513616fd7962b2d8c62f925fd2",
      "to": "0x14f2a22c97ae2890e73cb15b1c0e42a8a0821223",
      "contractAddress": null,
      "l1BaseFeeScalar": "0x44d",
      "l1BlobBaseFee": "0x1",
      "l1BlobBaseFeeScalar": "0xa118b",
      "l1Fee": "0x7f36e80c",
      "l1GasPrice": "0x3e845fd8",
      "l1GasUsed": "0x738"
    },
    {
      "status": "0x1",
      "cumulativeGasUsed": "0x532e48",
      "logs": [
        {
          "address": "0x58bde6071db4a9b006fdabe75a2eeb43decb779b",
          "topics": [
            "0xddf252ad1be2c89b69c2b068fc378daa952ba7f163c4a11628f55a4df523b3ef",
            "0x0000000000000000000000008c9c001f821c04513616fd7962b2d8c62f925fd2",
            "0x000000000000000000000000264541e2dc34875943a746174e862ac594164aa2"
          ],
          "data": "0x000000000000000000000000000000000000000000000004e1003b28d9280000",
          "blockHash": "0x47cae55c4184e6945a121c78e7005c1a1b31e16e2ca22d3cec596b7d6e6b18b2",
          "blockNumber": "0x143e5a3",
          "transactionHash": "0xeb7678719d041387f0b0d60784ccea9831e85fd9dc6eccb5af4ac090db938e39",
          "transactionIndex": "0x1c",
          "logIndex": "0x6a",
          "removed": false
        },
        {
          "address": "0x264541e2dc34875943a746174e862ac594164aa2",
          "topics": [
            "0x90e9c021de092ced915ba783260374f129aeeedec753ab3fb564631601ff9589",
            "0x000000000000000000000000000000000000000000000000000000000000000b",
            "0x0000000000000000000000008c9c001f821c04513616fd7962b2d8c62f925fd2"
          ],
          "data": "0x00000000000000000000000000000000000000000000000000000000000075e8000000000000000000000000000000000000000000000004e1003b28d9280000",
          "blockHash": "0x47cae55c4184e6945a121c78e7005c1a1b31e16e2ca22d3cec596b7d6e6b18b2",
          "blockNumber": "0x143e5a3",
          "transactionHash": "0xeb7678719d041387f0b0d60784ccea9831e85fd9dc6eccb5af4ac090db938e39",
          "transactionIndex": "0x1c",
          "logIndex": "0x6b",
          "removed": false
        }
      ],
      "logsBloom": "0x00000000000000000000004000001800000000000000000000000000000000000000000000000000000000000000000000000000000000000000000000000000000000200000000000000008004000000000000000400000000000000000000000000000000000000000000000000000000000000000000000000010020000000000000000000000000000000000000000000000000000000000000000400020000000000000000000000000000000000000000000000000000080000000000000000002000000000000000000000000002000000000100000000000000000000000000000000000000000008000000800000020008000040000001000000000",
      "type": "0x2",
      "transactionHash": "0xeb7678719d041387f0b0d60784ccea9831e85fd9dc6eccb5af4ac090db938e39",
      "transactionIndex": "0x1c",
      "blockHash": "0x47cae55c4184e6945a121c78e7005c1a1b31e16e2ca22d3cec596b7d6e6b18b2",
      "blockNumber": "0x143e5a3",
      "gasUsed": "0x135b8",
      "effectiveGasPrice": "0x123f238",
      "from": "0x8c9c001f821c04513616fd7962b2d8c62f925fd2",
      "to": "0x264541e2dc34875943a746174e862ac594164aa2",
      "contractAddress": null,
      "l1BaseFeeScalar": "0x44d",
      "l1BlobBaseFee": "0x1",
      "l1BlobBaseFeeScalar": "0xa118b",
      "l1Fee": "0x6e214e93",
      "l1GasPrice": "0x3e845fd8",
      "l1GasUsed": "0x640"
    }
  ],
  "libraries": [],
  "pending": [],
  "returns": {},
  "timestamp": 1738222117,
  "chain": 84532,
  "commit": "786270f"
}