{
  "transactions": [
    {
      "hash": "0x68d8ad368d9356b51469ba6d8c7fa1b6de99c2ec9a24c9add9b655309f4e8857",
      "transactionType": "CALL",
      "contractName": "StakingPro",
      "contractAddress": "0x14f2a22c97ae2890e73cb15b1c0e42a8a0821223",
      "function": "stakeTokens(bytes32,uint256)",
      "arguments": [
        "0x5611645c7b7387fb8499426a4c76a74c7241f751aca035dcabb5e9b0ed7cf68b",
        "90000000000000000000"
      ],
      "transaction": {
        "from": "0x8c9c001f821c04513616fd7962b2d8c62f925fd2",
        "to": "0x14f2a22c97ae2890e73cb15b1c0e42a8a0821223",
        "gas": "0x14ff00",
        "value": "0x0",
        "input": "0xe6587ea25611645c7b7387fb8499426a4c76a74c7241f751aca035dcabb5e9b0ed7cf68b000000000000000000000000000000000000000000000004e1003b28d9280000",
        "nonce": "0x6e",
        "chainId": "0x14a34"
      },
      "additionalContracts": [],
      "isFixedGasLimit": false
    },
    {
      "hash": "0x1477d9615df7fd37e6ac6d0a7ddac754d8602e88ca0c7994d68c5ec534999ddc",
      "transactionType": "CALL",
      "contractName": "StakingPro",
      "contractAddress": "0x14f2a22c97ae2890e73cb15b1c0e42a8a0821223",
      "function": "setupDistribution(uint256,uint256,uint256,uint256,uint256,uint32,bytes32)",
      "arguments": [
        "8",
        "1738221046",
        "1745997046",
        "1000000000000000000",
        "1000000000000000000",
        "30184",
        "0x00000000000000000000000058bde6071db4a9b006fdabe75a2eeb43decb779b"
      ],
      "transaction": {
        "from": "0x8c9c001f821c04513616fd7962b2d8c62f925fd2",
        "to": "0x14f2a22c97ae2890e73cb15b1c0e42a8a0821223",
        "gas": "0x63c3c",
        "value": "0x0",
        "input": "0x0b6d6c99000000000000000000000000000000000000000000000000000000000000000800000000000000000000000000000000000000000000000000000000679b25f6000000000000000000000000000000000000000000000000000000006811ccf60000000000000000000000000000000000000000000000000de0b6b3a76400000000000000000000000000000000000000000000000000000de0b6b3a764000000000000000000000000000000000000000000000000000000000000000075e800000000000000000000000058bde6071db4a9b006fdabe75a2eeb43decb779b",
        "nonce": "0x6f",
        "chainId": "0x14a34"
      },
      "additionalContracts": [],
      "isFixedGasLimit": false
    },
    {
      "hash": "0x017bf3267506bd953888f94ef089d9df3b1bd292b28fd5e4bdf53d856e37d9ae",
      "transactionType": "CALL",
      "contractName": "RewardsVaultV1",
      "contractAddress": "0x264541e2dc34875943a746174e862ac594164aa2",
      "function": "deposit(uint256,uint256,address)",
      "arguments": [
        "8",
        "90000000000000000000",
        "0x8C9C001F821c04513616fd7962B2D8c62f925fD2"
      ],
      "transaction": {
        "from": "0x8c9c001f821c04513616fd7962b2d8c62f925fd2",
        "to": "0x264541e2dc34875943a746174e862ac594164aa2",
        "gas": "0x1abcb",
        "value": "0x0",
        "input": "0x8dbdbe6d0000000000000000000000000000000000000000000000000000000000000008000000000000000000000000000000000000000000000004e1003b28d92800000000000000000000000000008c9c001f821c04513616fd7962b2d8c62f925fd2",
        "nonce": "0x70",
        "chainId": "0x14a34"
      },
      "additionalContracts": [],
      "isFixedGasLimit": false
    }
  ],
  "receipts": [
    {
      "status": "0x1",
      "cumulativeGasUsed": "0x58d13e",
      "logs": [
        {
          "address": "0x14f2a22c97ae2890e73cb15b1c0e42a8a0821223",
          "topics": [
            "0x949314518006833d597b4acd80e6cc367fa5461d9a4f80373e136688b6aad142",
            "0x0000000000000000000000008c9c001f821c04513616fd7962b2d8c62f925fd2",
            "0x5611645c7b7387fb8499426a4c76a74c7241f751aca035dcabb5e9b0ed7cf68b",
            "0x0000000000000000000000000000000000000000000000000000000000000000"
          ],
          "data": "0x000000000000000000000000000000000000000000000000000000000000000000000000000000000000000000000000000000000000000000000000000000000000000000000000000000000000000000000000000000000000000000000000",
          "blockHash": "0xb7c9d6dbf8d2d2a89ff3460032ee29e75c1998388186042838db0d0a946742d7",
          "blockNumber": "0x143e37e",
          "transactionHash": "0x68d8ad368d9356b51469ba6d8c7fa1b6de99c2ec9a24c9add9b655309f4e8857",
          "transactionIndex": "0x2e",
          "logIndex": "0x64",
          "removed": false
        },
        {
          "address": "0x14f2a22c97ae2890e73cb15b1c0e42a8a0821223",
          "topics": [
            "0xc2ec7dd88a6dab4eecfd7a57fb0879a881a03e12b94dc49c5fec5d5faa8792ce",
            "0x0000000000000000000000000000000000000000000000000000000000000001"
          ],
          "data": "0x00000000000000000000000000000000000000000000000000000000679b25dc0000000000000000000000000000000000000000000000034e51a369baeed0950000000000000000000000000000000000000000000000034e51a369baeed095",
          "blockHash": "0xb7c9d6dbf8d2d2a89ff3460032ee29e75c1998388186042838db0d0a946742d7",
          "blockNumber": "0x143e37e",
          "transactionHash": "0x68d8ad368d9356b51469ba6d8c7fa1b6de99c2ec9a24c9add9b655309f4e8857",
          "transactionIndex": "0x2e",
          "logIndex": "0x65",
          "removed": false
        },
        {
          "address": "0x14f2a22c97ae2890e73cb15b1c0e42a8a0821223",
          "topics": [
            "0x2bbaa179fabbdbc2ed8c301faf6fca674ce9b4db55373c36bda89901d2fcfb6c",
            "0x5611645c7b7387fb8499426a4c76a74c7241f751aca035dcabb5e9b0ed7cf68b",
            "0x0000000000000000000000000000000000000000000000000000000000000001"
          ],
          "data": "0x00000000000000000000000000000000000000000000001ac7a08ead02f7fe48000000000000000000000000000000000000000000000002ad900e44804bffd400000000000000000000000000000000000000000000000000000000000000000000000000000000000000000000000000000000000000000000000000000000",
          "blockHash": "0xb7c9d6dbf8d2d2a89ff3460032ee29e75c1998388186042838db0d0a946742d7",
          "blockNumber": "0x143e37e",
          "transactionHash": "0x68d8ad368d9356b51469ba6d8c7fa1b6de99c2ec9a24c9add9b655309f4e8857",
          "transactionIndex": "0x2e",
          "logIndex": "0x66",
          "removed": false
        },
        {
          "address": "0x14f2a22c97ae2890e73cb15b1c0e42a8a0821223",
          "topics": [
            "0x949314518006833d597b4acd80e6cc367fa5461d9a4f80373e136688b6aad142",
            "0x0000000000000000000000008c9c001f821c04513616fd7962b2d8c62f925fd2",
            "0x5611645c7b7387fb8499426a4c76a74c7241f751aca035dcabb5e9b0ed7cf68b",
            "0x0000000000000000000000000000000000000000000000000000000000000001"
          ],
          "data": "0x000000000000000000000000000000000000000000000000000000000000000000000000000000000000000000000000000000000000000000000000000000000000000000000000000000000000000000000000000000000000000000000000",
          "blockHash": "0xb7c9d6dbf8d2d2a89ff3460032ee29e75c1998388186042838db0d0a946742d7",
          "blockNumber": "0x143e37e",
          "transactionHash": "0x68d8ad368d9356b51469ba6d8c7fa1b6de99c2ec9a24c9add9b655309f4e8857",
          "transactionIndex": "0x2e",
          "logIndex": "0x67",
          "removed": false
        },
        {
          "address": "0x14f2a22c97ae2890e73cb15b1c0e42a8a0821223",
          "topics": [
            "0xc2ec7dd88a6dab4eecfd7a57fb0879a881a03e12b94dc49c5fec5d5faa8792ce",
            "0x0000000000000000000000000000000000000000000000000000000000000002"
          ],
          "data": "0x00000000000000000000000000000000000000000000000000000000679b25dc000000000000000000000000000000000000000000000000946b9d69179f425c000000000000000000000000000000000000000000000000946b9d69179f425c",
          "blockHash": "0xb7c9d6dbf8d2d2a89ff3460032ee29e75c1998388186042838db0d0a946742d7",
          "blockNumber": "0x143e37e",
          "transactionHash": "0x68d8ad368d9356b51469ba6d8c7fa1b6de99c2ec9a24c9add9b655309f4e8857",
          "transactionIndex": "0x2e",
          "logIndex": "0x68",
          "removed": false
        },
        {
          "address": "0x14f2a22c97ae2890e73cb15b1c0e42a8a0821223",
          "topics": [
            "0x2bbaa179fabbdbc2ed8c301faf6fca674ce9b4db55373c36bda89901d2fcfb6c",
            "0x5611645c7b7387fb8499426a4c76a74c7241f751aca035dcabb5e9b0ed7cf68b",
            "0x0000000000000000000000000000000000000000000000000000000000000002"
          ],
          "data": "0x00000000000000000000000000000000000000000000001ac7a08ead02f7fe48000000000000000000000000000000000000000000000002ad900e44804bffd400000000000000000000000000000000000000000000000000000000000000000000000000000000000000000000000000000000000000000000000000000000",
          "blockHash": "0xb7c9d6dbf8d2d2a89ff3460032ee29e75c1998388186042838db0d0a946742d7",
          "blockNumber": "0x143e37e",
          "transactionHash": "0x68d8ad368d9356b51469ba6d8c7fa1b6de99c2ec9a24c9add9b655309f4e8857",
          "transactionIndex": "0x2e",
          "logIndex": "0x69",
          "removed": false
        },
        {
          "address": "0x14f2a22c97ae2890e73cb15b1c0e42a8a0821223",
          "topics": [
            "0x949314518006833d597b4acd80e6cc367fa5461d9a4f80373e136688b6aad142",
            "0x0000000000000000000000008c9c001f821c04513616fd7962b2d8c62f925fd2",
            "0x5611645c7b7387fb8499426a4c76a74c7241f751aca035dcabb5e9b0ed7cf68b",
            "0x0000000000000000000000000000000000000000000000000000000000000002"
          ],
          "data": "0x000000000000000000000000000000000000000000000000000000000000000000000000000000000000000000000000000000000000000000000000000000000000000000000000000000000000000000000000000000000000000000000000",
          "blockHash": "0xb7c9d6dbf8d2d2a89ff3460032ee29e75c1998388186042838db0d0a946742d7",
          "blockNumber": "0x143e37e",
          "transactionHash": "0x68d8ad368d9356b51469ba6d8c7fa1b6de99c2ec9a24c9add9b655309f4e8857",
          "transactionIndex": "0x2e",
          "logIndex": "0x6a",
          "removed": false
        },
        {
          "address": "0x14f2a22c97ae2890e73cb15b1c0e42a8a0821223",
          "topics": [
            "0xc2ec7dd88a6dab4eecfd7a57fb0879a881a03e12b94dc49c5fec5d5faa8792ce",
            "0x0000000000000000000000000000000000000000000000000000000000000003"
          ],
          "data": "0x00000000000000000000000000000000000000000000000000000000679b25dc0000000000000000000000000000000000000000000000005c99cf9c2c625ecf0000000000000000000000000000000000000000000000005c99cf9c2c625ecf",
          "blockHash": "0xb7c9d6dbf8d2d2a89ff3460032ee29e75c1998388186042838db0d0a946742d7",
          "blockNumber": "0x143e37e",
          "transactionHash": "0x68d8ad368d9356b51469ba6d8c7fa1b6de99c2ec9a24c9add9b655309f4e8857",
          "transactionIndex": "0x2e",
          "logIndex": "0x6b",
          "removed": false
        },
        {
          "address": "0x14f2a22c97ae2890e73cb15b1c0e42a8a0821223",
          "topics": [
            "0x2bbaa179fabbdbc2ed8c301faf6fca674ce9b4db55373c36bda89901d2fcfb6c",
            "0x5611645c7b7387fb8499426a4c76a74c7241f751aca035dcabb5e9b0ed7cf68b",
            "0x0000000000000000000000000000000000000000000000000000000000000003"
          ],
          "data": "0x00000000000000000000000000000000000000000000001ac7a08ead02f7fe48000000000000000000000000000000000000000000000002ad900e44804bffd400000000000000000000000000000000000000000000000000000000000000000000000000000000000000000000000000000000000000000000000000000000",
          "blockHash": "0xb7c9d6dbf8d2d2a89ff3460032ee29e75c1998388186042838db0d0a946742d7",
          "blockNumber": "0x143e37e",
          "transactionHash": "0x68d8ad368d9356b51469ba6d8c7fa1b6de99c2ec9a24c9add9b655309f4e8857",
          "transactionIndex": "0x2e",
          "logIndex": "0x6c",
          "removed": false
        },
        {
          "address": "0x14f2a22c97ae2890e73cb15b1c0e42a8a0821223",
          "topics": [
            "0x949314518006833d597b4acd80e6cc367fa5461d9a4f80373e136688b6aad142",
            "0x0000000000000000000000008c9c001f821c04513616fd7962b2d8c62f925fd2",
            "0x5611645c7b7387fb8499426a4c76a74c7241f751aca035dcabb5e9b0ed7cf68b",
            "0x0000000000000000000000000000000000000000000000000000000000000003"
          ],
          "data": "0x000000000000000000000000000000000000000000000000000000000000000000000000000000000000000000000000000000000000000000000000000000000000000000000000000000000000000000000000000000000000000000000000",
          "blockHash": "0xb7c9d6dbf8d2d2a89ff3460032ee29e75c1998388186042838db0d0a946742d7",
          "blockNumber": "0x143e37e",
          "transactionHash": "0x68d8ad368d9356b51469ba6d8c7fa1b6de99c2ec9a24c9add9b655309f4e8857",
          "transactionIndex": "0x2e",
          "logIndex": "0x6d",
          "removed": false
        },
        {
          "address": "0x14f2a22c97ae2890e73cb15b1c0e42a8a0821223",
          "topics": [
            "0xc2ec7dd88a6dab4eecfd7a57fb0879a881a03e12b94dc49c5fec5d5faa8792ce",
            "0x0000000000000000000000000000000000000000000000000000000000000004"
          ],
          "data": "0x00000000000000000000000000000000000000000000000000000000679b25dc0000000000000000000000000000000000000000000000004b8949fa0d03da110000000000000000000000000000000000000000000000004b8949fa0d03da11",
          "blockHash": "0xb7c9d6dbf8d2d2a89ff3460032ee29e75c1998388186042838db0d0a946742d7",
          "blockNumber": "0x143e37e",
          "transactionHash": "0x68d8ad368d9356b51469ba6d8c7fa1b6de99c2ec9a24c9add9b655309f4e8857",
          "transactionIndex": "0x2e",
          "logIndex": "0x6e",
          "removed": false
        },
        {
          "address": "0x14f2a22c97ae2890e73cb15b1c0e42a8a0821223",
          "topics": [
            "0x2bbaa179fabbdbc2ed8c301faf6fca674ce9b4db55373c36bda89901d2fcfb6c",
            "0x5611645c7b7387fb8499426a4c76a74c7241f751aca035dcabb5e9b0ed7cf68b",
            "0x0000000000000000000000000000000000000000000000000000000000000004"
          ],
          "data": "0x00000000000000000000000000000000000000000000001ac7a08ead02f7fe48000000000000000000000000000000000000000000000002ad900e44804bffd400000000000000000000000000000000000000000000000000000000000000000000000000000000000000000000000000000000000000000000000000000000",
          "blockHash": "0xb7c9d6dbf8d2d2a89ff3460032ee29e75c1998388186042838db0d0a946742d7",
          "blockNumber": "0x143e37e",
          "transactionHash": "0x68d8ad368d9356b51469ba6d8c7fa1b6de99c2ec9a24c9add9b655309f4e8857",
          "transactionIndex": "0x2e",
          "logIndex": "0x6f",
          "removed": false
        },
        {
          "address": "0x14f2a22c97ae2890e73cb15b1c0e42a8a0821223",
          "topics": [
            "0x949314518006833d597b4acd80e6cc367fa5461d9a4f80373e136688b6aad142",
            "0x0000000000000000000000008c9c001f821c04513616fd7962b2d8c62f925fd2",
            "0x5611645c7b7387fb8499426a4c76a74c7241f751aca035dcabb5e9b0ed7cf68b",
            "0x0000000000000000000000000000000000000000000000000000000000000004"
          ],
          "data": "0x000000000000000000000000000000000000000000000000000000000000000000000000000000000000000000000000000000000000000000000000000000000000000000000000000000000000000000000000000000000000000000000000",
          "blockHash": "0xb7c9d6dbf8d2d2a89ff3460032ee29e75c1998388186042838db0d0a946742d7",
          "blockNumber": "0x143e37e",
          "transactionHash": "0x68d8ad368d9356b51469ba6d8c7fa1b6de99c2ec9a24c9add9b655309f4e8857",
          "transactionIndex": "0x2e",
          "logIndex": "0x70",
          "removed": false
        },
        {
          "address": "0x14f2a22c97ae2890e73cb15b1c0e42a8a0821223",
          "topics": [
            "0xc2ec7dd88a6dab4eecfd7a57fb0879a881a03e12b94dc49c5fec5d5faa8792ce",
            "0x0000000000000000000000000000000000000000000000000000000000000005"
          ],
          "data": "0x00000000000000000000000000000000000000000000000000000000679b25dc000000000000000000000000000000000000000000000000311df98b6429097a000000000000000000000000000000000000000000000000311df98b6429097a",
          "blockHash": "0xb7c9d6dbf8d2d2a89ff3460032ee29e75c1998388186042838db0d0a946742d7",
          "blockNumber": "0x143e37e",
          "transactionHash": "0x68d8ad368d9356b51469ba6d8c7fa1b6de99c2ec9a24c9add9b655309f4e8857",
          "transactionIndex": "0x2e",
          "logIndex": "0x71",
          "removed": false
        },
        {
          "address": "0x14f2a22c97ae2890e73cb15b1c0e42a8a0821223",
          "topics": [
            "0x2bbaa179fabbdbc2ed8c301faf6fca674ce9b4db55373c36bda89901d2fcfb6c",
            "0x5611645c7b7387fb8499426a4c76a74c7241f751aca035dcabb5e9b0ed7cf68b",
            "0x0000000000000000000000000000000000000000000000000000000000000005"
          ],
          "data": "0x00000000000000000000000000000000000000000000001ac7a08ead02f7fe48000000000000000000000000000000000000000000000002ad900e44804bffd400000000000000000000000000000000000000000000000000000000000000000000000000000000000000000000000000000000000000000000000000000000",
          "blockHash": "0xb7c9d6dbf8d2d2a89ff3460032ee29e75c1998388186042838db0d0a946742d7",
          "blockNumber": "0x143e37e",
          "transactionHash": "0x68d8ad368d9356b51469ba6d8c7fa1b6de99c2ec9a24c9add9b655309f4e8857",
          "transactionIndex": "0x2e",
          "logIndex": "0x72",
          "removed": false
        },
        {
          "address": "0x14f2a22c97ae2890e73cb15b1c0e42a8a0821223",
          "topics": [
            "0x949314518006833d597b4acd80e6cc367fa5461d9a4f80373e136688b6aad142",
            "0x0000000000000000000000008c9c001f821c04513616fd7962b2d8c62f925fd2",
            "0x5611645c7b7387fb8499426a4c76a74c7241f751aca035dcabb5e9b0ed7cf68b",
            "0x0000000000000000000000000000000000000000000000000000000000000005"
          ],
          "data": "0x000000000000000000000000000000000000000000000000000000000000000000000000000000000000000000000000000000000000000000000000000000000000000000000000000000000000000000000000000000000000000000000000",
          "blockHash": "0xb7c9d6dbf8d2d2a89ff3460032ee29e75c1998388186042838db0d0a946742d7",
          "blockNumber": "0x143e37e",
          "transactionHash": "0x68d8ad368d9356b51469ba6d8c7fa1b6de99c2ec9a24c9add9b655309f4e8857",
          "transactionIndex": "0x2e",
          "logIndex": "0x73",
          "removed": false
        },
        {
          "address": "0x14f2a22c97ae2890e73cb15b1c0e42a8a0821223",
          "topics": [
            "0xc2ec7dd88a6dab4eecfd7a57fb0879a881a03e12b94dc49c5fec5d5faa8792ce",
            "0x0000000000000000000000000000000000000000000000000000000000000006"
          ],
          "data": "0x00000000000000000000000000000000000000000000000000000000679b25dc0000000000000000000000000000000000000000000000002228f05dace7ed080000000000000000000000000000000000000000000000002228f05dace7ed08",
          "blockHash": "0xb7c9d6dbf8d2d2a89ff3460032ee29e75c1998388186042838db0d0a946742d7",
          "blockNumber": "0x143e37e",
          "transactionHash": "0x68d8ad368d9356b51469ba6d8c7fa1b6de99c2ec9a24c9add9b655309f4e8857",
          "transactionIndex": "0x2e",
          "logIndex": "0x74",
          "removed": false
        },
        {
          "address": "0x14f2a22c97ae2890e73cb15b1c0e42a8a0821223",
          "topics": [
            "0x2bbaa179fabbdbc2ed8c301faf6fca674ce9b4db55373c36bda89901d2fcfb6c",
            "0x5611645c7b7387fb8499426a4c76a74c7241f751aca035dcabb5e9b0ed7cf68b",
            "0x0000000000000000000000000000000000000000000000000000000000000006"
          ],
          "data": "0x00000000000000000000000000000000000000000000001ac7a08ead02f7fe48000000000000000000000000000000000000000000000002ad900e44804bffd400000000000000000000000000000000000000000000000000000000000000000000000000000000000000000000000000000000000000000000000000000000",
          "blockHash": "0xb7c9d6dbf8d2d2a89ff3460032ee29e75c1998388186042838db0d0a946742d7",
          "blockNumber": "0x143e37e",
          "transactionHash": "0x68d8ad368d9356b51469ba6d8c7fa1b6de99c2ec9a24c9add9b655309f4e8857",
          "transactionIndex": "0x2e",
          "logIndex": "0x75",
          "removed": false
        },
        {
          "address": "0x14f2a22c97ae2890e73cb15b1c0e42a8a0821223",
          "topics": [
            "0x949314518006833d597b4acd80e6cc367fa5461d9a4f80373e136688b6aad142",
            "0x0000000000000000000000008c9c001f821c04513616fd7962b2d8c62f925fd2",
            "0x5611645c7b7387fb8499426a4c76a74c7241f751aca035dcabb5e9b0ed7cf68b",
            "0x0000000000000000000000000000000000000000000000000000000000000006"
          ],
          "data": "0x000000000000000000000000000000000000000000000000000000000000000000000000000000000000000000000000000000000000000000000000000000000000000000000000000000000000000000000000000000000000000000000000",
          "blockHash": "0xb7c9d6dbf8d2d2a89ff3460032ee29e75c1998388186042838db0d0a946742d7",
          "blockNumber": "0x143e37e",
          "transactionHash": "0x68d8ad368d9356b51469ba6d8c7fa1b6de99c2ec9a24c9add9b655309f4e8857",
          "transactionIndex": "0x2e",
          "logIndex": "0x76",
          "removed": false
        },
        {
          "address": "0x14f2a22c97ae2890e73cb15b1c0e42a8a0821223",
          "topics": [
            "0xc2ec7dd88a6dab4eecfd7a57fb0879a881a03e12b94dc49c5fec5d5faa8792ce",
            "0x0000000000000000000000000000000000000000000000000000000000000007"
          ],
          "data": "0x00000000000000000000000000000000000000000000000000000000679b25dc0000000000000000000000000000000000000000000000000cb2133a284d425e0000000000000000000000000000000000000000000000000cb2133a284d425e",
          "blockHash": "0xb7c9d6dbf8d2d2a89ff3460032ee29e75c1998388186042838db0d0a946742d7",
          "blockNumber": "0x143e37e",
          "transactionHash": "0x68d8ad368d9356b51469ba6d8c7fa1b6de99c2ec9a24c9add9b655309f4e8857",
          "transactionIndex": "0x2e",
          "logIndex": "0x77",
          "removed": false
        },
        {
          "address": "0x14f2a22c97ae2890e73cb15b1c0e42a8a0821223",
          "topics": [
            "0x2bbaa179fabbdbc2ed8c301faf6fca674ce9b4db55373c36bda89901d2fcfb6c",
            "0x5611645c7b7387fb8499426a4c76a74c7241f751aca035dcabb5e9b0ed7cf68b",
            "0x0000000000000000000000000000000000000000000000000000000000000007"
          ],
          "data": "0x00000000000000000000000000000000000000000000001ac7a08ead02f7fe48000000000000000000000000000000000000000000000002ad900e44804bffd400000000000000000000000000000000000000000000000000000000000000000000000000000000000000000000000000000000000000000000000000000000",
          "blockHash": "0xb7c9d6dbf8d2d2a89ff3460032ee29e75c1998388186042838db0d0a946742d7",
          "blockNumber": "0x143e37e",
          "transactionHash": "0x68d8ad368d9356b51469ba6d8c7fa1b6de99c2ec9a24c9add9b655309f4e8857",
          "transactionIndex": "0x2e",
          "logIndex": "0x78",
          "removed": false
        },
        {
          "address": "0x14f2a22c97ae2890e73cb15b1c0e42a8a0821223",
          "topics": [
            "0x949314518006833d597b4acd80e6cc367fa5461d9a4f80373e136688b6aad142",
            "0x0000000000000000000000008c9c001f821c04513616fd7962b2d8c62f925fd2",
            "0x5611645c7b7387fb8499426a4c76a74c7241f751aca035dcabb5e9b0ed7cf68b",
            "0x0000000000000000000000000000000000000000000000000000000000000007"
          ],
          "data": "0x000000000000000000000000000000000000000000000000000000000000000000000000000000000000000000000000000000000000000000000000000000000000000000000000000000000000000000000000000000000000000000000000",
          "blockHash": "0xb7c9d6dbf8d2d2a89ff3460032ee29e75c1998388186042838db0d0a946742d7",
          "blockNumber": "0x143e37e",
          "transactionHash": "0x68d8ad368d9356b51469ba6d8c7fa1b6de99c2ec9a24c9add9b655309f4e8857",
          "transactionIndex": "0x2e",
          "logIndex": "0x79",
          "removed": false
        },
        {
          "address": "0x14f2a22c97ae2890e73cb15b1c0e42a8a0821223",
          "topics": [
            "0x4e7bac5695f40fad0768f0f3b8c118c3d4d29e043511b9fa823003fe60027275",
            "0x0000000000000000000000008c9c001f821c04513616fd7962b2d8c62f925fd2",
            "0x5611645c7b7387fb8499426a4c76a74c7241f751aca035dcabb5e9b0ed7cf68b"
          ],
          "data": "0x000000000000000000000000000000000000000000000004e1003b28d9280000",
          "blockHash": "0xb7c9d6dbf8d2d2a89ff3460032ee29e75c1998388186042838db0d0a946742d7",
          "blockNumber": "0x143e37e",
          "transactionHash": "0x68d8ad368d9356b51469ba6d8c7fa1b6de99c2ec9a24c9add9b655309f4e8857",
          "transactionIndex": "0x2e",
          "logIndex": "0x7a",
          "removed": false
        },
        {
          "address": "0x8528c2df4ed0cf397a31b3f0ff0b96719a1be2c6",
          "topics": [
            "0xddf252ad1be2c89b69c2b068fc378daa952ba7f163c4a11628f55a4df523b3ef",
            "0x0000000000000000000000008c9c001f821c04513616fd7962b2d8c62f925fd2",
            "0x00000000000000000000000014f2a22c97ae2890e73cb15b1c0e42a8a0821223"
          ],
          "data": "0x000000000000000000000000000000000000000000000004e1003b28d9280000",
          "blockHash": "0xb7c9d6dbf8d2d2a89ff3460032ee29e75c1998388186042838db0d0a946742d7",
          "blockNumber": "0x143e37e",
          "transactionHash": "0x68d8ad368d9356b51469ba6d8c7fa1b6de99c2ec9a24c9add9b655309f4e8857",
          "transactionIndex": "0x2e",
          "logIndex": "0x7b",
          "removed": false
        }
      ],
      "logsBloom": "0x04000008000000000000000000000800000000000000000000000000000000000000000800000000000000000000040008001000020600000000000000040000000030000000400000000008004000000000000000040000000000000000000008000000020000001000000000000800000000000010000000000018000000000020000400000004000000000000001000000800000000001000000000000000000000000200000000000100000020001000000042800000002080480000408000000002000000000000000000000000000200008000010000000100000060000000000000000000000000000000000000000000008000000000000000000000",
      "type": "0x2",
      "transactionHash": "0x68d8ad368d9356b51469ba6d8c7fa1b6de99c2ec9a24c9add9b655309f4e8857",
      "transactionIndex": "0x2e",
      "blockHash": "0xb7c9d6dbf8d2d2a89ff3460032ee29e75c1998388186042838db0d0a946742d7",
      "blockNumber": "0x143e37e",
      "gasUsed": "0xf3368",
      "effectiveGasPrice": "0x12fb597",
      "from": "0x8c9c001f821c04513616fd7962b2d8c62f925fd2",
      "to": "0x14f2a22c97ae2890e73cb15b1c0e42a8a0821223",
      "contractAddress": null,
      "l1BaseFeeScalar": "0x44d",
      "l1BlobBaseFee": "0x1",
      "l1BlobBaseFeeScalar": "0xa118b",
      "l1Fee": "0x68139682",
      "l1GasPrice": "0x3b14a6e8",
      "l1GasUsed": "0x640"
    },
    {
      "status": "0x1",
      "cumulativeGasUsed": "0x5d14b0",
      "logs": [
        {
          "address": "0x14f2a22c97ae2890e73cb15b1c0e42a8a0821223",
          "topics": [
            "0x764e98ff8f133fd79086bf24b413507d9b7e83977b31f35a16b80680f38f7072",
            "0x0000000000000000000000000000000000000000000000000000000000000008"
          ],
          "data": "0x00000000000000000000000000000000000000000000000000000000679b25f6000000000000000000000000000000000000000000000000000000006811ccf60000000000000000000000000000000000000000000000000de0b6b3a76400000000000000000000000000000000000000000000000000000de0b6b3a7640000",
          "blockHash": "0xb7c9d6dbf8d2d2a89ff3460032ee29e75c1998388186042838db0d0a946742d7",
          "blockNumber": "0x143e37e",
          "transactionHash": "0x1477d9615df7fd37e6ac6d0a7ddac754d8602e88ca0c7994d68c5ec534999ddc",
          "transactionIndex": "0x2f",
          "logIndex": "0x7c",
          "removed": false
        },
        {
          "address": "0x264541e2dc34875943a746174e862ac594164aa2",
          "topics": [
            "0x554c94cb64d410104e2b06cc56052e30bc29a1307df890d30eb124045d4ae680",
            "0x0000000000000000000000000000000000000000000000000000000000000008"
          ],
          "data": "0x00000000000000000000000000000000000000000000000000000000000075e800000000000000000000000058bde6071db4a9b006fdabe75a2eeb43decb779b",
          "blockHash": "0xb7c9d6dbf8d2d2a89ff3460032ee29e75c1998388186042838db0d0a946742d7",
          "blockNumber": "0x143e37e",
          "transactionHash": "0x1477d9615df7fd37e6ac6d0a7ddac754d8602e88ca0c7994d68c5ec534999ddc",
          "transactionIndex": "0x2f",
          "logIndex": "0x7d",
          "removed": false
        }
      ],
      "logsBloom": "0x00000000000000000000000000000000000000000000000000000000000000000000000800000000100000000000000000000000000480000000000000000000000000000000000000000002000000000000000000400000000000000000000000000000000000000000000000000000000000000000020000000000000000000080000000000000000000000000000000000000000000000000000000000000000000200000000000000000000020000000000000000000000000000000000040000000000000020000000000000000000000000000000000000000000020000000000000000000000000000000000000000020000000000000001000000000",
      "type": "0x2",
      "transactionHash": "0x1477d9615df7fd37e6ac6d0a7ddac754d8602e88ca0c7994d68c5ec534999ddc",
      "transactionIndex": "0x2f",
      "blockHash": "0xb7c9d6dbf8d2d2a89ff3460032ee29e75c1998388186042838db0d0a946742d7",
      "blockNumber": "0x143e37e",
      "gasUsed": "0x44372",
      "effectiveGasPrice": "0x12fb597",
      "from": "0x8c9c001f821c04513616fd7962b2d8c62f925fd2",
      "to": "0x14f2a22c97ae2890e73cb15b1c0e42a8a0821223",
      "contractAddress": null,
      "l1BaseFeeScalar": "0x44d",
      "l1BlobBaseFee": "0x1",
      "l1BlobBaseFeeScalar": "0xa118b",
      "l1Fee": "0x7838c7f5",
      "l1GasPrice": "0x3b14a6e8",
      "l1GasUsed": "0x738"
    },
    {
      "status": "0x1",
      "cumulativeGasUsed": "0x5e4a68",
      "logs": [
        {
          "address": "0x58bde6071db4a9b006fdabe75a2eeb43decb779b",
          "topics": [
            "0xddf252ad1be2c89b69c2b068fc378daa952ba7f163c4a11628f55a4df523b3ef",
            "0x0000000000000000000000008c9c001f821c04513616fd7962b2d8c62f925fd2",
            "0x000000000000000000000000264541e2dc34875943a746174e862ac594164aa2"
          ],
          "data": "0x000000000000000000000000000000000000000000000004e1003b28d9280000",
          "blockHash": "0xb7c9d6dbf8d2d2a89ff3460032ee29e75c1998388186042838db0d0a946742d7",
          "blockNumber": "0x143e37e",
          "transactionHash": "0x017bf3267506bd953888f94ef089d9df3b1bd292b28fd5e4bdf53d856e37d9ae",
          "transactionIndex": "0x30",
          "logIndex": "0x7e",
          "removed": false
        },
        {
          "address": "0x264541e2dc34875943a746174e862ac594164aa2",
          "topics": [
            "0x90e9c021de092ced915ba783260374f129aeeedec753ab3fb564631601ff9589",
            "0x0000000000000000000000000000000000000000000000000000000000000008",
            "0x0000000000000000000000008c9c001f821c04513616fd7962b2d8c62f925fd2"
          ],
          "data": "0x00000000000000000000000000000000000000000000000000000000000075e8000000000000000000000000000000000000000000000004e1003b28d9280000",
          "blockHash": "0xb7c9d6dbf8d2d2a89ff3460032ee29e75c1998388186042838db0d0a946742d7",
          "blockNumber": "0x143e37e",
          "transactionHash": "0x017bf3267506bd953888f94ef089d9df3b1bd292b28fd5e4bdf53d856e37d9ae",
          "transactionIndex": "0x30",
          "logIndex": "0x7f",
          "removed": false
        }
      ],
      "logsBloom": "0x00000000000000000000000000001800000000000000000000000000000000000000000000000000000000000000000000000000000080000000000000000000000000200000000000000008004000000000000000400000000000000000000000000000000000000000000000000000000000000000000000000010020000000080000000000000000000000000000000000000000000000000000000400020000000000000000000000000000000000000000000000000000080000000000040000002000000000000000000000000000000000000100000000000000000000000000000000000000000008000000800000020008000000000001000000000",
      "type": "0x2",
      "transactionHash": "0x017bf3267506bd953888f94ef089d9df3b1bd292b28fd5e4bdf53d856e37d9ae",
      "transactionIndex": "0x30",
      "blockHash": "0xb7c9d6dbf8d2d2a89ff3460032ee29e75c1998388186042838db0d0a946742d7",
      "blockNumber": "0x143e37e",
      "gasUsed": "0x135b8",
      "effectiveGasPrice": "0x12fb597",
      "from": "0x8c9c001f821c04513616fd7962b2d8c62f925fd2",
      "to": "0x264541e2dc34875943a746174e862ac594164aa2",
      "contractAddress": null,
      "l1BaseFeeScalar": "0x44d",
      "l1BlobBaseFee": "0x1",
      "l1BlobBaseFeeScalar": "0xa118b",
      "l1Fee": "0x68139682",
      "l1GasPrice": "0x3b14a6e8",
      "l1GasUsed": "0x640"
    }
  ],
  "libraries": [],
  "pending": [],
  "returns": {},
  "timestamp": 1738221019,
  "chain": 84532,
  "commit": "5415508"
}