{
  "transactions": [
    {
      "hash": "0x04a1e3956fc7cd8e269b936d6bdca9ba0ef0f51fd156d9450077af8c34d765eb",
      "transactionType": "CALL",
      "contractName": "StakingPro",
      "contractAddress": "0x14f2a22c97ae2890e73cb15b1c0e42a8a0821223",
      "function": "stakeTokens(bytes32,uint256)",
      "arguments": [
        "0x5611645c7b7387fb8499426a4c76a74c7241f751aca035dcabb5e9b0ed7cf68b",
        "90000000000000000000"
      ],
      "transaction": {
        "from": "0x8c9c001f821c04513616fd7962b2d8c62f925fd2",
        "to": "0x14f2a22c97ae2890e73cb15b1c0e42a8a0821223",
        "gas": "0x1876cb",
        "value": "0x0",
        "input": "0xe6587ea25611645c7b7387fb8499426a4c76a74c7241f751aca035dcabb5e9b0ed7cf68b000000000000000000000000000000000000000000000004e1003b28d9280000",
        "nonce": "0x71",
        "chainId": "0x14a34"
      },
      "additionalContracts": [],
      "isFixedGasLimit": false
    },
    {
      "hash": "0xc41b8d1bd1b16200276e6dd6e6ad665594251841796fe5c43f500101e2e83e21",
      "transactionType": "CALL",
      "contractName": "StakingPro",
      "contractAddress": "0x14f2a22c97ae2890e73cb15b1c0e42a8a0821223",
      "function": "setupDistribution(uint256,uint256,uint256,uint256,uint256,uint32,bytes32)",
      "arguments": [
        "9",
        "1738221196",
        "1745997196",
        "1000000000000000000",
        "1000000000000000000",
        "30184",
        "0x00000000000000000000000058bde6071db4a9b006fdabe75a2eeb43decb779b"
      ],
      "transaction": {
        "from": "0x8c9c001f821c04513616fd7962b2d8c62f925fd2",
        "to": "0x14f2a22c97ae2890e73cb15b1c0e42a8a0821223",
        "gas": "0x63c3c",
        "value": "0x0",
        "input": "0x0b6d6c99000000000000000000000000000000000000000000000000000000000000000900000000000000000000000000000000000000000000000000000000679b268c000000000000000000000000000000000000000000000000000000006811cd8c0000000000000000000000000000000000000000000000000de0b6b3a76400000000000000000000000000000000000000000000000000000de0b6b3a764000000000000000000000000000000000000000000000000000000000000000075e800000000000000000000000058bde6071db4a9b006fdabe75a2eeb43decb779b",
        "nonce": "0x72",
        "chainId": "0x14a34"
      },
      "additionalContracts": [],
      "isFixedGasLimit": false
    },
    {
      "hash": "0x2be16d9a92e491020585bff0f94990b1a5c3c93645fc802c95a7789783936194",
      "transactionType": "CALL",
      "contractName": "RewardsVaultV1",
      "contractAddress": "0x264541e2dc34875943a746174e862ac594164aa2",
      "function": "deposit(uint256,uint256,address)",
      "arguments": [
        "9",
        "90000000000000000000",
        "0x8C9C001F821c04513616fd7962B2D8c62f925fD2"
      ],
      "transaction": {
        "from": "0x8c9c001f821c04513616fd7962b2d8c62f925fd2",
        "to": "0x264541e2dc34875943a746174e862ac594164aa2",
        "gas": "0x1abcb",
        "value": "0x0",
        "input": "0x8dbdbe6d0000000000000000000000000000000000000000000000000000000000000009000000000000000000000000000000000000000000000004e1003b28d92800000000000000000000000000008c9c001f821c04513616fd7962b2d8c62f925fd2",
        "nonce": "0x73",
        "chainId": "0x14a34"
      },
      "additionalContracts": [],
      "isFixedGasLimit": false
    }
  ],
  "receipts": [
    {
      "status": "0x1",
      "cumulativeGasUsed": "0x4a1556",
      "logs": [
        {
          "address": "0x14f2a22c97ae2890e73cb15b1c0e42a8a0821223",
          "topics": [
            "0x949314518006833d597b4acd80e6cc367fa5461d9a4f80373e136688b6aad142",
            "0x0000000000000000000000008c9c001f821c04513616fd7962b2d8c62f925fd2",
            "0x5611645c7b7387fb8499426a4c76a74c7241f751aca035dcabb5e9b0ed7cf68b",
            "0x0000000000000000000000000000000000000000000000000000000000000000"
          ],
          "data": "0x000000000000000000000000000000000000000000000000000000000000000000000000000000000000000000000000000000000000000000000000000000000000000000000000000000000000000000000000000000000000000000000000",
          "blockHash": "0x38400843a59ec957dffe5e1a5734fa4c5d1c1319d95f18258174030c697b4c6b",
          "blockNumber": "0x143e3ce",
          "transactionHash": "0x04a1e3956fc7cd8e269b936d6bdca9ba0ef0f51fd156d9450077af8c34d765eb",
          "transactionIndex": "0x1f",
          "logIndex": "0x44",
          "removed": false
        },
        {
          "address": "0x14f2a22c97ae2890e73cb15b1c0e42a8a0821223",
          "topics": [
            "0xc2ec7dd88a6dab4eecfd7a57fb0879a881a03e12b94dc49c5fec5d5faa8792ce",
            "0x0000000000000000000000000000000000000000000000000000000000000001"
          ],
          "data": "0x00000000000000000000000000000000000000000000000000000000679b267c00000000000000000000000000000000000000000000000351d7ea31c4efd4a500000000000000000000000000000000000000000000000351d7ea31c4efd4a5",
          "blockHash": "0x38400843a59ec957dffe5e1a5734fa4c5d1c1319d95f18258174030c697b4c6b",
          "blockNumber": "0x143e3ce",
          "transactionHash": "0x04a1e3956fc7cd8e269b936d6bdca9ba0ef0f51fd156d9450077af8c34d765eb",
          "transactionIndex": "0x1f",
          "logIndex": "0x45",
          "removed": false
        },
        {
          "address": "0x14f2a22c97ae2890e73cb15b1c0e42a8a0821223",
          "topics": [
            "0x2bbaa179fabbdbc2ed8c301faf6fca674ce9b4db55373c36bda89901d2fcfb6c",
            "0x5611645c7b7387fb8499426a4c76a74c7241f751aca035dcabb5e9b0ed7cf68b",
            "0x0000000000000000000000000000000000000000000000000000000000000001"
          ],
          "data": "0x000000000000000000000000000000000000000000000008ac7230489e7fff60000000000000000000000000000000000000000000000000de0b6b3a763ffff000000000000000000000000000000000000000000000000000000000000000000000000000000000000000000000000000000000000000000000000000000000",
          "blockHash": "0x38400843a59ec957dffe5e1a5734fa4c5d1c1319d95f18258174030c697b4c6b",
          "blockNumber": "0x143e3ce",
          "transactionHash": "0x04a1e3956fc7cd8e269b936d6bdca9ba0ef0f51fd156d9450077af8c34d765eb",
          "transactionIndex": "0x1f",
          "logIndex": "0x46",
          "removed": false
        },
        {
          "address": "0x14f2a22c97ae2890e73cb15b1c0e42a8a0821223",
          "topics": [
            "0x949314518006833d597b4acd80e6cc367fa5461d9a4f80373e136688b6aad142",
            "0x0000000000000000000000008c9c001f821c04513616fd7962b2d8c62f925fd2",
            "0x5611645c7b7387fb8499426a4c76a74c7241f751aca035dcabb5e9b0ed7cf68b",
            "0x0000000000000000000000000000000000000000000000000000000000000001"
          ],
          "data": "0x000000000000000000000000000000000000000000000000000000000000000000000000000000000000000000000000000000000000000000000000000000000000000000000000000000000000000000000000000000000000000000000000",
          "blockHash": "0x38400843a59ec957dffe5e1a5734fa4c5d1c1319d95f18258174030c697b4c6b",
          "blockNumber": "0x143e3ce",
          "transactionHash": "0x04a1e3956fc7cd8e269b936d6bdca9ba0ef0f51fd156d9450077af8c34d765eb",
          "transactionIndex": "0x1f",
          "logIndex": "0x47",
          "removed": false
        },
        {
          "address": "0x14f2a22c97ae2890e73cb15b1c0e42a8a0821223",
          "topics": [
            "0xc2ec7dd88a6dab4eecfd7a57fb0879a881a03e12b94dc49c5fec5d5faa8792ce",
            "0x0000000000000000000000000000000000000000000000000000000000000002"
          ],
          "data": "0x00000000000000000000000000000000000000000000000000000000679b267c00000000000000000000000000000000000000000000000097f1e43121a0466c00000000000000000000000000000000000000000000000097f1e43121a0466c",
          "blockHash": "0x38400843a59ec957dffe5e1a5734fa4c5d1c1319d95f18258174030c697b4c6b",
          "blockNumber": "0x143e3ce",
          "transactionHash": "0x04a1e3956fc7cd8e269b936d6bdca9ba0ef0f51fd156d9450077af8c34d765eb",
          "transactionIndex": "0x1f",
          "logIndex": "0x48",
          "removed": false
        },
        {
          "address": "0x14f2a22c97ae2890e73cb15b1c0e42a8a0821223",
          "topics": [
            "0x2bbaa179fabbdbc2ed8c301faf6fca674ce9b4db55373c36bda89901d2fcfb6c",
            "0x5611645c7b7387fb8499426a4c76a74c7241f751aca035dcabb5e9b0ed7cf68b",
            "0x0000000000000000000000000000000000000000000000000000000000000002"
          ],
          "data": "0x000000000000000000000000000000000000000000000008ac7230489e7fff60000000000000000000000000000000000000000000000000de0b6b3a763ffff000000000000000000000000000000000000000000000000000000000000000000000000000000000000000000000000000000000000000000000000000000000",
          "blockHash": "0x38400843a59ec957dffe5e1a5734fa4c5d1c1319d95f18258174030c697b4c6b",
          "blockNumber": "0x143e3ce",
          "transactionHash": "0x04a1e3956fc7cd8e269b936d6bdca9ba0ef0f51fd156d9450077af8c34d765eb",
          "transactionIndex": "0x1f",
          "logIndex": "0x49",
          "removed": false
        },
        {
          "address": "0x14f2a22c97ae2890e73cb15b1c0e42a8a0821223",
          "topics": [
            "0x949314518006833d597b4acd80e6cc367fa5461d9a4f80373e136688b6aad142",
            "0x0000000000000000000000008c9c001f821c04513616fd7962b2d8c62f925fd2",
            "0x5611645c7b7387fb8499426a4c76a74c7241f751aca035dcabb5e9b0ed7cf68b",
            "0x0000000000000000000000000000000000000000000000000000000000000002"
          ],
          "data": "0x000000000000000000000000000000000000000000000000000000000000000000000000000000000000000000000000000000000000000000000000000000000000000000000000000000000000000000000000000000000000000000000000",
          "blockHash": "0x38400843a59ec957dffe5e1a5734fa4c5d1c1319d95f18258174030c697b4c6b",
          "blockNumber": "0x143e3ce",
          "transactionHash": "0x04a1e3956fc7cd8e269b936d6bdca9ba0ef0f51fd156d9450077af8c34d765eb",
          "transactionIndex": "0x1f",
          "logIndex": "0x4a",
          "removed": false
        },
        {
          "address": "0x14f2a22c97ae2890e73cb15b1c0e42a8a0821223",
          "topics": [
            "0xc2ec7dd88a6dab4eecfd7a57fb0879a881a03e12b94dc49c5fec5d5faa8792ce",
            "0x0000000000000000000000000000000000000000000000000000000000000003"
          ],
          "data": "0x00000000000000000000000000000000000000000000000000000000679b267c00000000000000000000000000000000000000000000000060201664366362df00000000000000000000000000000000000000000000000060201664366362df",
          "blockHash": "0x38400843a59ec957dffe5e1a5734fa4c5d1c1319d95f18258174030c697b4c6b",
          "blockNumber": "0x143e3ce",
          "transactionHash": "0x04a1e3956fc7cd8e269b936d6bdca9ba0ef0f51fd156d9450077af8c34d765eb",
          "transactionIndex": "0x1f",
          "logIndex": "0x4b",
          "removed": false
        },
        {
          "address": "0x14f2a22c97ae2890e73cb15b1c0e42a8a0821223",
          "topics": [
            "0x2bbaa179fabbdbc2ed8c301faf6fca674ce9b4db55373c36bda89901d2fcfb6c",
            "0x5611645c7b7387fb8499426a4c76a74c7241f751aca035dcabb5e9b0ed7cf68b",
            "0x0000000000000000000000000000000000000000000000000000000000000003"
          ],
          "data": "0x000000000000000000000000000000000000000000000008ac7230489e7fff60000000000000000000000000000000000000000000000000de0b6b3a763ffff000000000000000000000000000000000000000000000000000000000000000000000000000000000000000000000000000000000000000000000000000000000",
          "blockHash": "0x38400843a59ec957dffe5e1a5734fa4c5d1c1319d95f18258174030c697b4c6b",
          "blockNumber": "0x143e3ce",
          "transactionHash": "0x04a1e3956fc7cd8e269b936d6bdca9ba0ef0f51fd156d9450077af8c34d765eb",
          "transactionIndex": "0x1f",
          "logIndex": "0x4c",
          "removed": false
        },
        {
          "address": "0x14f2a22c97ae2890e73cb15b1c0e42a8a0821223",
          "topics": [
            "0x949314518006833d597b4acd80e6cc367fa5461d9a4f80373e136688b6aad142",
            "0x0000000000000000000000008c9c001f821c04513616fd7962b2d8c62f925fd2",
            "0x5611645c7b7387fb8499426a4c76a74c7241f751aca035dcabb5e9b0ed7cf68b",
            "0x0000000000000000000000000000000000000000000000000000000000000003"
          ],
          "data": "0x000000000000000000000000000000000000000000000000000000000000000000000000000000000000000000000000000000000000000000000000000000000000000000000000000000000000000000000000000000000000000000000000",
          "blockHash": "0x38400843a59ec957dffe5e1a5734fa4c5d1c1319d95f18258174030c697b4c6b",
          "blockNumber": "0x143e3ce",
          "transactionHash": "0x04a1e3956fc7cd8e269b936d6bdca9ba0ef0f51fd156d9450077af8c34d765eb",
          "transactionIndex": "0x1f",
          "logIndex": "0x4d",
          "removed": false
        },
        {
          "address": "0x14f2a22c97ae2890e73cb15b1c0e42a8a0821223",
          "topics": [
            "0xc2ec7dd88a6dab4eecfd7a57fb0879a881a03e12b94dc49c5fec5d5faa8792ce",
            "0x0000000000000000000000000000000000000000000000000000000000000004"
          ],
          "data": "0x00000000000000000000000000000000000000000000000000000000679b267c0000000000000000000000000000000000000000000000004f0f90c21704de210000000000000000000000000000000000000000000000004f0f90c21704de21",
          "blockHash": "0x38400843a59ec957dffe5e1a5734fa4c5d1c1319d95f18258174030c697b4c6b",
          "blockNumber": "0x143e3ce",
          "transactionHash": "0x04a1e3956fc7cd8e269b936d6bdca9ba0ef0f51fd156d9450077af8c34d765eb",
          "transactionIndex": "0x1f",
          "logIndex": "0x4e",
          "removed": false
        },
        {
          "address": "0x14f2a22c97ae2890e73cb15b1c0e42a8a0821223",
          "topics": [
            "0x2bbaa179fabbdbc2ed8c301faf6fca674ce9b4db55373c36bda89901d2fcfb6c",
            "0x5611645c7b7387fb8499426a4c76a74c7241f751aca035dcabb5e9b0ed7cf68b",
            "0x0000000000000000000000000000000000000000000000000000000000000004"
          ],
          "data": "0x000000000000000000000000000000000000000000000008ac7230489e7fff60000000000000000000000000000000000000000000000000de0b6b3a763ffff000000000000000000000000000000000000000000000000000000000000000000000000000000000000000000000000000000000000000000000000000000000",
          "blockHash": "0x38400843a59ec957dffe5e1a5734fa4c5d1c1319d95f18258174030c697b4c6b",
          "blockNumber": "0x143e3ce",
          "transactionHash": "0x04a1e3956fc7cd8e269b936d6bdca9ba0ef0f51fd156d9450077af8c34d765eb",
          "transactionIndex": "0x1f",
          "logIndex": "0x4f",
          "removed": false
        },
        {
          "address": "0x14f2a22c97ae2890e73cb15b1c0e42a8a0821223",
          "topics": [
            "0x949314518006833d597b4acd80e6cc367fa5461d9a4f80373e136688b6aad142",
            "0x0000000000000000000000008c9c001f821c04513616fd7962b2d8c62f925fd2",
            "0x5611645c7b7387fb8499426a4c76a74c7241f751aca035dcabb5e9b0ed7cf68b",
            "0x0000000000000000000000000000000000000000000000000000000000000004"
          ],
          "data": "0x000000000000000000000000000000000000000000000000000000000000000000000000000000000000000000000000000000000000000000000000000000000000000000000000000000000000000000000000000000000000000000000000",
          "blockHash": "0x38400843a59ec957dffe5e1a5734fa4c5d1c1319d95f18258174030c697b4c6b",
          "blockNumber": "0x143e3ce",
          "transactionHash": "0x04a1e3956fc7cd8e269b936d6bdca9ba0ef0f51fd156d9450077af8c34d765eb",
          "transactionIndex": "0x1f",
          "logIndex": "0x50",
          "removed": false
        },
        {
          "address": "0x14f2a22c97ae2890e73cb15b1c0e42a8a0821223",
          "topics": [
            "0xc2ec7dd88a6dab4eecfd7a57fb0879a881a03e12b94dc49c5fec5d5faa8792ce",
            "0x0000000000000000000000000000000000000000000000000000000000000005"
          ],
          "data": "0x00000000000000000000000000000000000000000000000000000000679b267c00000000000000000000000000000000000000000000000034a440536e2a0d8a00000000000000000000000000000000000000000000000034a440536e2a0d8a",
          "blockHash": "0x38400843a59ec957dffe5e1a5734fa4c5d1c1319d95f18258174030c697b4c6b",
          "blockNumber": "0x143e3ce",
          "transactionHash": "0x04a1e3956fc7cd8e269b936d6bdca9ba0ef0f51fd156d9450077af8c34d765eb",
          "transactionIndex": "0x1f",
          "logIndex": "0x51",
          "removed": false
        },
        {
          "address": "0x14f2a22c97ae2890e73cb15b1c0e42a8a0821223",
          "topics": [
            "0x2bbaa179fabbdbc2ed8c301faf6fca674ce9b4db55373c36bda89901d2fcfb6c",
            "0x5611645c7b7387fb8499426a4c76a74c7241f751aca035dcabb5e9b0ed7cf68b",
            "0x0000000000000000000000000000000000000000000000000000000000000005"
          ],
          "data": "0x000000000000000000000000000000000000000000000008ac7230489e7fff60000000000000000000000000000000000000000000000000de0b6b3a763ffff000000000000000000000000000000000000000000000000000000000000000000000000000000000000000000000000000000000000000000000000000000000",
          "blockHash": "0x38400843a59ec957dffe5e1a5734fa4c5d1c1319d95f18258174030c697b4c6b",
          "blockNumber": "0x143e3ce",
          "transactionHash": "0x04a1e3956fc7cd8e269b936d6bdca9ba0ef0f51fd156d9450077af8c34d765eb",
          "transactionIndex": "0x1f",
          "logIndex": "0x52",
          "removed": false
        },
        {
          "address": "0x14f2a22c97ae2890e73cb15b1c0e42a8a0821223",
          "topics": [
            "0x949314518006833d597b4acd80e6cc367fa5461d9a4f80373e136688b6aad142",
            "0x0000000000000000000000008c9c001f821c04513616fd7962b2d8c62f925fd2",
            "0x5611645c7b7387fb8499426a4c76a74c7241f751aca035dcabb5e9b0ed7cf68b",
            "0x0000000000000000000000000000000000000000000000000000000000000005"
          ],
          "data": "0x000000000000000000000000000000000000000000000000000000000000000000000000000000000000000000000000000000000000000000000000000000000000000000000000000000000000000000000000000000000000000000000000",
          "blockHash": "0x38400843a59ec957dffe5e1a5734fa4c5d1c1319d95f18258174030c697b4c6b",
          "blockNumber": "0x143e3ce",
          "transactionHash": "0x04a1e3956fc7cd8e269b936d6bdca9ba0ef0f51fd156d9450077af8c34d765eb",
          "transactionIndex": "0x1f",
          "logIndex": "0x53",
          "removed": false
        },
        {
          "address": "0x14f2a22c97ae2890e73cb15b1c0e42a8a0821223",
          "topics": [
            "0xc2ec7dd88a6dab4eecfd7a57fb0879a881a03e12b94dc49c5fec5d5faa8792ce",
            "0x0000000000000000000000000000000000000000000000000000000000000006"
          ],
          "data": "0x00000000000000000000000000000000000000000000000000000000679b267c00000000000000000000000000000000000000000000000025af3725b6e8f11800000000000000000000000000000000000000000000000025af3725b6e8f118",
          "blockHash": "0x38400843a59ec957dffe5e1a5734fa4c5d1c1319d95f18258174030c697b4c6b",
          "blockNumber": "0x143e3ce",
          "transactionHash": "0x04a1e3956fc7cd8e269b936d6bdca9ba0ef0f51fd156d9450077af8c34d765eb",
          "transactionIndex": "0x1f",
          "logIndex": "0x54",
          "removed": false
        },
        {
          "address": "0x14f2a22c97ae2890e73cb15b1c0e42a8a0821223",
          "topics": [
            "0x2bbaa179fabbdbc2ed8c301faf6fca674ce9b4db55373c36bda89901d2fcfb6c",
            "0x5611645c7b7387fb8499426a4c76a74c7241f751aca035dcabb5e9b0ed7cf68b",
            "0x0000000000000000000000000000000000000000000000000000000000000006"
          ],
          "data": "0x000000000000000000000000000000000000000000000008ac7230489e7fff60000000000000000000000000000000000000000000000000de0b6b3a763ffff000000000000000000000000000000000000000000000000000000000000000000000000000000000000000000000000000000000000000000000000000000000",
          "blockHash": "0x38400843a59ec957dffe5e1a5734fa4c5d1c1319d95f18258174030c697b4c6b",
          "blockNumber": "0x143e3ce",
          "transactionHash": "0x04a1e3956fc7cd8e269b936d6bdca9ba0ef0f51fd156d9450077af8c34d765eb",
          "transactionIndex": "0x1f",
          "logIndex": "0x55",
          "removed": false
        },
        {
          "address": "0x14f2a22c97ae2890e73cb15b1c0e42a8a0821223",
          "topics": [
            "0x949314518006833d597b4acd80e6cc367fa5461d9a4f80373e136688b6aad142",
            "0x0000000000000000000000008c9c001f821c04513616fd7962b2d8c62f925fd2",
            "0x5611645c7b7387fb8499426a4c76a74c7241f751aca035dcabb5e9b0ed7cf68b",
            "0x0000000000000000000000000000000000000000000000000000000000000006"
          ],
          "data": "0x000000000000000000000000000000000000000000000000000000000000000000000000000000000000000000000000000000000000000000000000000000000000000000000000000000000000000000000000000000000000000000000000",
          "blockHash": "0x38400843a59ec957dffe5e1a5734fa4c5d1c1319d95f18258174030c697b4c6b",
          "blockNumber": "0x143e3ce",
          "transactionHash": "0x04a1e3956fc7cd8e269b936d6bdca9ba0ef0f51fd156d9450077af8c34d765eb",
          "transactionIndex": "0x1f",
          "logIndex": "0x56",
          "removed": false
        },
        {
          "address": "0x14f2a22c97ae2890e73cb15b1c0e42a8a0821223",
          "topics": [
            "0xc2ec7dd88a6dab4eecfd7a57fb0879a881a03e12b94dc49c5fec5d5faa8792ce",
            "0x0000000000000000000000000000000000000000000000000000000000000007"
          ],
          "data": "0x00000000000000000000000000000000000000000000000000000000679b267c00000000000000000000000000000000000000000000000010385a02324e466e00000000000000000000000000000000000000000000000010385a02324e466e",
          "blockHash": "0x38400843a59ec957dffe5e1a5734fa4c5d1c1319d95f18258174030c697b4c6b",
          "blockNumber": "0x143e3ce",
          "transactionHash": "0x04a1e3956fc7cd8e269b936d6bdca9ba0ef0f51fd156d9450077af8c34d765eb",
          "transactionIndex": "0x1f",
          "logIndex": "0x57",
          "removed": false
        },
        {
          "address": "0x14f2a22c97ae2890e73cb15b1c0e42a8a0821223",
          "topics": [
            "0x2bbaa179fabbdbc2ed8c301faf6fca674ce9b4db55373c36bda89901d2fcfb6c",
            "0x5611645c7b7387fb8499426a4c76a74c7241f751aca035dcabb5e9b0ed7cf68b",
            "0x0000000000000000000000000000000000000000000000000000000000000007"
          ],
          "data": "0x000000000000000000000000000000000000000000000008ac7230489e7fff60000000000000000000000000000000000000000000000000de0b6b3a763ffff000000000000000000000000000000000000000000000000000000000000000000000000000000000000000000000000000000000000000000000000000000000",
          "blockHash": "0x38400843a59ec957dffe5e1a5734fa4c5d1c1319d95f18258174030c697b4c6b",
          "blockNumber": "0x143e3ce",
          "transactionHash": "0x04a1e3956fc7cd8e269b936d6bdca9ba0ef0f51fd156d9450077af8c34d765eb",
          "transactionIndex": "0x1f",
          "logIndex": "0x58",
          "removed": false
        },
        {
          "address": "0x14f2a22c97ae2890e73cb15b1c0e42a8a0821223",
          "topics": [
            "0x949314518006833d597b4acd80e6cc367fa5461d9a4f80373e136688b6aad142",
            "0x0000000000000000000000008c9c001f821c04513616fd7962b2d8c62f925fd2",
            "0x5611645c7b7387fb8499426a4c76a74c7241f751aca035dcabb5e9b0ed7cf68b",
            "0x0000000000000000000000000000000000000000000000000000000000000007"
          ],
          "data": "0x000000000000000000000000000000000000000000000000000000000000000000000000000000000000000000000000000000000000000000000000000000000000000000000000000000000000000000000000000000000000000000000000",
          "blockHash": "0x38400843a59ec957dffe5e1a5734fa4c5d1c1319d95f18258174030c697b4c6b",
          "blockNumber": "0x143e3ce",
          "transactionHash": "0x04a1e3956fc7cd8e269b936d6bdca9ba0ef0f51fd156d9450077af8c34d765eb",
          "transactionIndex": "0x1f",
          "logIndex": "0x59",
          "removed": false
        },
        {
          "address": "0x14f2a22c97ae2890e73cb15b1c0e42a8a0821223",
          "topics": [
            "0xc2ec7dd88a6dab4eecfd7a57fb0879a881a03e12b94dc49c5fec5d5faa8792ce",
            "0x0000000000000000000000000000000000000000000000000000000000000008"
          ],
          "data": "0x00000000000000000000000000000000000000000000000000000000679b267c00000000000000000000000000000000000000000000000002f3a814552da69a00000000000000000000000000000000000000000000000002f3a814552da69a",
          "blockHash": "0x38400843a59ec957dffe5e1a5734fa4c5d1c1319d95f18258174030c697b4c6b",
          "blockNumber": "0x143e3ce",
          "transactionHash": "0x04a1e3956fc7cd8e269b936d6bdca9ba0ef0f51fd156d9450077af8c34d765eb",
          "transactionIndex": "0x1f",
          "logIndex": "0x5a",
          "removed": false
        },
        {
          "address": "0x14f2a22c97ae2890e73cb15b1c0e42a8a0821223",
          "topics": [
            "0x2bbaa179fabbdbc2ed8c301faf6fca674ce9b4db55373c36bda89901d2fcfb6c",
            "0x5611645c7b7387fb8499426a4c76a74c7241f751aca035dcabb5e9b0ed7cf68b",
            "0x0000000000000000000000000000000000000000000000000000000000000008"
          ],
          "data": "0x000000000000000000000000000000000000000000000007439fa2099e57fefc000000000000000000000000000000000000000000000000b9f65d00f63bffe600000000000000000000000000000000000000000000000000000000000000000000000000000000000000000000000000000000000000000000000000000000",
          "blockHash": "0x38400843a59ec957dffe5e1a5734fa4c5d1c1319d95f18258174030c697b4c6b",
          "blockNumber": "0x143e3ce",
          "transactionHash": "0x04a1e3956fc7cd8e269b936d6bdca9ba0ef0f51fd156d9450077af8c34d765eb",
          "transactionIndex": "0x1f",
          "logIndex": "0x5b",
          "removed": false
        },
        {
          "address": "0x14f2a22c97ae2890e73cb15b1c0e42a8a0821223",
          "topics": [
            "0x949314518006833d597b4acd80e6cc367fa5461d9a4f80373e136688b6aad142",
            "0x0000000000000000000000008c9c001f821c04513616fd7962b2d8c62f925fd2",
            "0x5611645c7b7387fb8499426a4c76a74c7241f751aca035dcabb5e9b0ed7cf68b",
            "0x0000000000000000000000000000000000000000000000000000000000000008"
          ],
          "data": "0x000000000000000000000000000000000000000000000000000000000000000000000000000000000000000000000000000000000000000000000000000000000000000000000000000000000000000000000000000000000000000000000000",
          "blockHash": "0x38400843a59ec957dffe5e1a5734fa4c5d1c1319d95f18258174030c697b4c6b",
          "blockNumber": "0x143e3ce",
          "transactionHash": "0x04a1e3956fc7cd8e269b936d6bdca9ba0ef0f51fd156d9450077af8c34d765eb",
          "transactionIndex": "0x1f",
          "logIndex": "0x5c",
          "removed": false
        },
        {
          "address": "0x14f2a22c97ae2890e73cb15b1c0e42a8a0821223",
          "topics": [
            "0x4e7bac5695f40fad0768f0f3b8c118c3d4d29e043511b9fa823003fe60027275",
            "0x0000000000000000000000008c9c001f821c04513616fd7962b2d8c62f925fd2",
            "0x5611645c7b7387fb8499426a4c76a74c7241f751aca035dcabb5e9b0ed7cf68b"
          ],
          "data": "0x000000000000000000000000000000000000000000000004e1003b28d9280000",
          "blockHash": "0x38400843a59ec957dffe5e1a5734fa4c5d1c1319d95f18258174030c697b4c6b",
          "blockNumber": "0x143e3ce",
          "transactionHash": "0x04a1e3956fc7cd8e269b936d6bdca9ba0ef0f51fd156d9450077af8c34d765eb",
          "transactionIndex": "0x1f",
          "logIndex": "0x5d",
          "removed": false
        },
        {
          "address": "0x8528c2df4ed0cf397a31b3f0ff0b96719a1be2c6",
          "topics": [
            "0xddf252ad1be2c89b69c2b068fc378daa952ba7f163c4a11628f55a4df523b3ef",
            "0x0000000000000000000000008c9c001f821c04513616fd7962b2d8c62f925fd2",
            "0x00000000000000000000000014f2a22c97ae2890e73cb15b1c0e42a8a0821223"
          ],
          "data": "0x000000000000000000000000000000000000000000000004e1003b28d9280000",
          "blockHash": "0x38400843a59ec957dffe5e1a5734fa4c5d1c1319d95f18258174030c697b4c6b",
          "blockNumber": "0x143e3ce",
          "transactionHash": "0x04a1e3956fc7cd8e269b936d6bdca9ba0ef0f51fd156d9450077af8c34d765eb",
          "transactionIndex": "0x1f",
          "logIndex": "0x5e",
          "removed": false
        }
      ],
      "logsBloom": "0x040000080000000000000000000008000000000000000000000000000000000000000008000000000000000000000400080010000206800000000000000400000000300000004000000000080040000000000000000400000000000000000000080000000200000010000000000008000000000000100000000000180000000000a0000400000004000000000000001000000800000000001000000000000000000000000200000000000100000020001000000042800000002080480000408040000002000000000000000000000000000200008000010000000100000060000000000000000000000000000000000000000000008000000000000000000000",
      "type": "0x2",
      "transactionHash": "0x04a1e3956fc7cd8e269b936d6bdca9ba0ef0f51fd156d9450077af8c34d765eb",
      "transactionIndex": "0x1f",
      "blockHash": "0x38400843a59ec957dffe5e1a5734fa4c5d1c1319d95f18258174030c697b4c6b",
      "blockNumber": "0x143e3ce",
      "gasUsed": "0x10ba41",
      "effectiveGasPrice": "0x12c18aa",
      "from": "0x8c9c001f821c04513616fd7962b2d8c62f925fd2",
      "to": "0x14f2a22c97ae2890e73cb15b1c0e42a8a0821223",
      "contractAddress": null,
      "l1BaseFeeScalar": "0x44d",
      "l1BlobBaseFee": "0x1",
      "l1BlobBaseFeeScalar": "0xa118b",
      "l1Fee": "0x709392eb",
      "l1GasPrice": "0x3fe7e27c",
      "l1GasUsed": "0x640"
    },
    {
      "status": "0x1",
      "cumulativeGasUsed": "0x4e58c8",
      "logs": [
        {
          "address": "0x14f2a22c97ae2890e73cb15b1c0e42a8a0821223",
          "topics": [
            "0x764e98ff8f133fd79086bf24b413507d9b7e83977b31f35a16b80680f38f7072",
            "0x0000000000000000000000000000000000000000000000000000000000000009"
          ],
          "data": "0x00000000000000000000000000000000000000000000000000000000679b268c000000000000000000000000000000000000000000000000000000006811cd8c0000000000000000000000000000000000000000000000000de0b6b3a76400000000000000000000000000000000000000000000000000000de0b6b3a7640000",
          "blockHash": "0x38400843a59ec957dffe5e1a5734fa4c5d1c1319d95f18258174030c697b4c6b",
          "blockNumber": "0x143e3ce",
          "transactionHash": "0xc41b8d1bd1b16200276e6dd6e6ad665594251841796fe5c43f500101e2e83e21",
          "transactionIndex": "0x20",
          "logIndex": "0x5f",
          "removed": false
        },
        {
          "address": "0x264541e2dc34875943a746174e862ac594164aa2",
          "topics": [
            "0x554c94cb64d410104e2b06cc56052e30bc29a1307df890d30eb124045d4ae680",
            "0x0000000000000000000000000000000000000000000000000000000000000009"
          ],
          "data": "0x00000000000000000000000000000000000000000000000000000000000075e800000000000000000000000058bde6071db4a9b006fdabe75a2eeb43decb779b",
          "blockHash": "0x38400843a59ec957dffe5e1a5734fa4c5d1c1319d95f18258174030c697b4c6b",
          "blockNumber": "0x143e3ce",
          "transactionHash": "0xc41b8d1bd1b16200276e6dd6e6ad665594251841796fe5c43f500101e2e83e21",
          "transactionIndex": "0x20",
          "logIndex": "0x60",
          "removed": false
        }
      ],
      "logsBloom": "0x00000000000000000000000000000000000000000000000000000000000000000000000800000000100000000000000000000000000400000000000000200000000000000000000000000002000000000000000000400000000000000000000000000000000000000000000000000000000000000000020000000000000000000000000000000000000000000000000000001000000000000000000000000000000000200000000000000000000020000000000000000000000000000000000000000000000000020000000000000000000000000000000000000000000020000000000000000000000000000000000000000020000000000000001000800000",
      "type": "0x2",
      "transactionHash": "0xc41b8d1bd1b16200276e6dd6e6ad665594251841796fe5c43f500101e2e83e21",
      "transactionIndex": "0x20",
      "blockHash": "0x38400843a59ec957dffe5e1a5734fa4c5d1c1319d95f18258174030c697b4c6b",
      "blockNumber": "0x143e3ce",
      "gasUsed": "0x44372",
      "effectiveGasPrice": "0x12c18aa",
      "from": "0x8c9c001f821c04513616fd7962b2d8c62f925fd2",
      "to": "0x14f2a22c97ae2890e73cb15b1c0e42a8a0821223",
      "contractAddress": null,
      "l1BaseFeeScalar": "0x44d",
      "l1BlobBaseFee": "0x1",
      "l1BlobBaseFeeScalar": "0xa118b",
      "l1Fee": "0x820a5359",
      "l1GasPrice": "0x3fe7e27c",
      "l1GasUsed": "0x738"
    },
    {
      "status": "0x1",
      "cumulativeGasUsed": "0x4f8e80",
      "logs": [
        {
          "address": "0x58bde6071db4a9b006fdabe75a2eeb43decb779b",
          "topics": [
            "0xddf252ad1be2c89b69c2b068fc378daa952ba7f163c4a11628f55a4df523b3ef",
            "0x0000000000000000000000008c9c001f821c04513616fd7962b2d8c62f925fd2",
            "0x000000000000000000000000264541e2dc34875943a746174e862ac594164aa2"
          ],
          "data": "0x000000000000000000000000000000000000000000000004e1003b28d9280000",
          "blockHash": "0x38400843a59ec957dffe5e1a5734fa4c5d1c1319d95f18258174030c697b4c6b",
          "blockNumber": "0x143e3ce",
          "transactionHash": "0x2be16d9a92e491020585bff0f94990b1a5c3c93645fc802c95a7789783936194",
          "transactionIndex": "0x21",
          "logIndex": "0x61",
          "removed": false
        },
        {
          "address": "0x264541e2dc34875943a746174e862ac594164aa2",
          "topics": [
            "0x90e9c021de092ced915ba783260374f129aeeedec753ab3fb564631601ff9589",
            "0x0000000000000000000000000000000000000000000000000000000000000009",
            "0x0000000000000000000000008c9c001f821c04513616fd7962b2d8c62f925fd2"
          ],
          "data": "0x00000000000000000000000000000000000000000000000000000000000075e8000000000000000000000000000000000000000000000004e1003b28d9280000",
          "blockHash": "0x38400843a59ec957dffe5e1a5734fa4c5d1c1319d95f18258174030c697b4c6b",
          "blockNumber": "0x143e3ce",
          "transactionHash": "0x2be16d9a92e491020585bff0f94990b1a5c3c93645fc802c95a7789783936194",
          "transactionIndex": "0x21",
          "logIndex": "0x62",
          "removed": false
        }
      ],
      "logsBloom": "0x00000000000000000000000000001800000000000000000000000000000000000000000000000000000000000000000000000000000000000000000000200000000000200000000000000008004000000000000000400000000000000000000000000000000000000000000000000000000000000000000000000010020000000000000000000000000000000000000000001000000000000000000000400020000000000000000000000000000000000000000000000000000080000000000000000002000000000000000000000000000000000000100000000000000000000000000000000000000000008000000800000020008000000000001000800000",
      "type": "0x2",
      "transactionHash": "0x2be16d9a92e491020585bff0f94990b1a5c3c93645fc802c95a7789783936194",
      "transactionIndex": "0x21",
      "blockHash": "0x38400843a59ec957dffe5e1a5734fa4c5d1c1319d95f18258174030c697b4c6b",
      "blockNumber": "0x143e3ce",
      "gasUsed": "0x135b8",
      "effectiveGasPrice": "0x12c18aa",
      "from": "0x8c9c001f821c04513616fd7962b2d8c62f925fd2",
      "to": "0x264541e2dc34875943a746174e862ac594164aa2",
      "contractAddress": null,
      "l1BaseFeeScalar": "0x44d",
      "l1BlobBaseFee": "0x1",
      "l1BlobBaseFeeScalar": "0xa118b",
      "l1Fee": "0x709392eb",
      "l1GasPrice": "0x3fe7e27c",
      "l1GasUsed": "0x640"
    }
  ],
  "libraries": [],
  "pending": [],
  "returns": {},
  "timestamp": 1738221181,
  "chain": 84532,
  "commit": "5415508"
}