{
  "transactions": [
    {
      "hash": "0x4ae48f4374b7fa7237bd245cfb7ceaa73901380f45208dc72494eec1a40fd452",
      "transactionType": "CALL",
      "contractName": "StakingPro",
      "contractAddress": "0x14f2a22c97ae2890e73cb15b1c0e42a8a0821223",
      "function": "stakeTokens(bytes32,uint256)",
      "arguments": [
        "0x5611645c7b7387fb8499426a4c76a74c7241f751aca035dcabb5e9b0ed7cf68b",
        "90000000000000000000"
      ],
      "transaction": {
        "from": "0x8c9c001f821c04513616fd7962b2d8c62f925fd2",
        "to": "0x14f2a22c97ae2890e73cb15b1c0e42a8a0821223",
        "gas": "0xecdb2",
        "value": "0x0",
        "input": "0xe6587ea25611645c7b7387fb8499426a4c76a74c7241f751aca035dcabb5e9b0ed7cf68b000000000000000000000000000000000000000000000004e1003b28d9280000",
        "nonce": "0x5f",
        "chainId": "0x14a34"
      },
      "additionalContracts": [],
      "isFixedGasLimit": false
    },
    {
      "hash": "0x980237263d24c323b9500888ac9915f63dbf905d4f5c0db5d1e3dec9723874d5",
      "transactionType": "CALL",
      "contractName": "StakingPro",
      "contractAddress": "0x14f2a22c97ae2890e73cb15b1c0e42a8a0821223",
      "function": "setupDistribution(uint256,uint256,uint256,uint256,uint256,uint32,bytes32)",
      "arguments": [
        "3",
        "1738218700",
        "1745994700",
        "1000000000000000000",
        "1000000000000000000",
        "30184",
        "0x00000000000000000000000058bde6071db4a9b006fdabe75a2eeb43decb779b"
      ],
      "transaction": {
        "from": "0x8c9c001f821c04513616fd7962b2d8c62f925fd2",
        "to": "0x14f2a22c97ae2890e73cb15b1c0e42a8a0821223",
        "gas": "0x63c3c",
        "value": "0x0",
        "input": "0x0b6d6c99000000000000000000000000000000000000000000000000000000000000000300000000000000000000000000000000000000000000000000000000679b1ccc000000000000000000000000000000000000000000000000000000006811c3cc0000000000000000000000000000000000000000000000000de0b6b3a76400000000000000000000000000000000000000000000000000000de0b6b3a764000000000000000000000000000000000000000000000000000000000000000075e800000000000000000000000058bde6071db4a9b006fdabe75a2eeb43decb779b",
        "nonce": "0x60",
        "chainId": "0x14a34"
      },
      "additionalContracts": [],
      "isFixedGasLimit": false
    },
    {
      "hash": "0x1dd47471ecbc6b3e81ef61e199fe46a29a5b25678f675279456137fdbeabbc58",
      "transactionType": "CALL",
      "contractName": "RewardsVaultV1",
      "contractAddress": "0x264541e2dc34875943a746174e862ac594164aa2",
      "function": "deposit(uint256,uint256,address)",
      "arguments": [
        "3",
        "90000000000000000000",
        "0x8C9C001F821c04513616fd7962B2D8c62f925fD2"
      ],
      "transaction": {
        "from": "0x8c9c001f821c04513616fd7962b2d8c62f925fd2",
        "to": "0x264541e2dc34875943a746174e862ac594164aa2",
        "gas": "0x1abcb",
        "value": "0x0",
        "input": "0x8dbdbe6d0000000000000000000000000000000000000000000000000000000000000003000000000000000000000000000000000000000000000004e1003b28d92800000000000000000000000000008c9c001f821c04513616fd7962b2d8c62f925fd2",
        "nonce": "0x61",
        "chainId": "0x14a34"
      },
      "additionalContracts": [],
      "isFixedGasLimit": false
    }
  ],
  "receipts": [
    {
      "status": "0x1",
      "cumulativeGasUsed": "0x539b07",
      "logs": [
        {
          "address": "0x14f2a22c97ae2890e73cb15b1c0e42a8a0821223",
          "topics": [
            "0x949314518006833d597b4acd80e6cc367fa5461d9a4f80373e136688b6aad142",
            "0x0000000000000000000000008c9c001f821c04513616fd7962b2d8c62f925fd2",
            "0x5611645c7b7387fb8499426a4c76a74c7241f751aca035dcabb5e9b0ed7cf68b",
            "0x0000000000000000000000000000000000000000000000000000000000000000"
          ],
          "data": "0x000000000000000000000000000000000000000000000000000000000000000000000000000000000000000000000000000000000000000000000000000000000000000000000000000000000000000000000000000000000000000000000000",
          "blockHash": "0xe0b97832c5a71e00b25b77ecee30eac21cdd7f43bb38422fa38bdef814543f7c",
          "blockNumber": "0x143deea",
          "transactionHash": "0x4ae48f4374b7fa7237bd245cfb7ceaa73901380f45208dc72494eec1a40fd452",
          "transactionIndex": "0x28",
          "logIndex": "0x5d",
          "removed": false
        },
        {
          "address": "0x14f2a22c97ae2890e73cb15b1c0e42a8a0821223",
          "topics": [
            "0xc2ec7dd88a6dab4eecfd7a57fb0879a881a03e12b94dc49c5fec5d5faa8792ce",
            "0x0000000000000000000000000000000000000000000000000000000000000001"
          ],
          "data": "0x00000000000000000000000000000000000000000000000000000000679b1cb4000000000000000000000000000000000000000000000002efde21d7bc7f1c71000000000000000000000000000000000000000000000002efde21d7bc7f1c71",
          "blockHash": "0xe0b97832c5a71e00b25b77ecee30eac21cdd7f43bb38422fa38bdef814543f7c",
          "blockNumber": "0x143deea",
          "transactionHash": "0x4ae48f4374b7fa7237bd245cfb7ceaa73901380f45208dc72494eec1a40fd452",
          "transactionIndex": "0x28",
          "logIndex": "0x5e",
          "removed": false
        },
        {
          "address": "0x14f2a22c97ae2890e73cb15b1c0e42a8a0821223",
          "topics": [
            "0x2bbaa179fabbdbc2ed8c301faf6fca674ce9b4db55373c36bda89901d2fcfb6c",
            "0x5611645c7b7387fb8499426a4c76a74c7241f751aca035dcabb5e9b0ed7cf68b",
            "0x0000000000000000000000000000000000000000000000000000000000000001"
          ],
          "data": "0x0000000000000000000000000000000000000000000001085417e5d844afffba00000000000000000000000000000000000000000000001a6ecf3095a077fff900000000000000000000000000000000000000000000000000000000000000000000000000000000000000000000000000000000000000000000000000000000",
          "blockHash": "0xe0b97832c5a71e00b25b77ecee30eac21cdd7f43bb38422fa38bdef814543f7c",
          "blockNumber": "0x143deea",
          "transactionHash": "0x4ae48f4374b7fa7237bd245cfb7ceaa73901380f45208dc72494eec1a40fd452",
          "transactionIndex": "0x28",
          "logIndex": "0x5f",
          "removed": false
        },
        {
          "address": "0x14f2a22c97ae2890e73cb15b1c0e42a8a0821223",
          "topics": [
            "0x949314518006833d597b4acd80e6cc367fa5461d9a4f80373e136688b6aad142",
            "0x0000000000000000000000008c9c001f821c04513616fd7962b2d8c62f925fd2",
            "0x5611645c7b7387fb8499426a4c76a74c7241f751aca035dcabb5e9b0ed7cf68b",
            "0x0000000000000000000000000000000000000000000000000000000000000001"
          ],
          "data": "0x00000000000000000000000000000000000000000000000000000000000010e000000000000000000000000000000000000000000000000000000000000000000000000000000000000000000000000000000000000000000000000000000000",
          "blockHash": "0xe0b97832c5a71e00b25b77ecee30eac21cdd7f43bb38422fa38bdef814543f7c",
          "blockNumber": "0x143deea",
          "transactionHash": "0x4ae48f4374b7fa7237bd245cfb7ceaa73901380f45208dc72494eec1a40fd452",
          "transactionIndex": "0x28",
          "logIndex": "0x60",
          "removed": false
        },
        {
          "address": "0x14f2a22c97ae2890e73cb15b1c0e42a8a0821223",
          "topics": [
            "0xc2ec7dd88a6dab4eecfd7a57fb0879a881a03e12b94dc49c5fec5d5faa8792ce",
            "0x0000000000000000000000000000000000000000000000000000000000000002"
          ],
          "data": "0x00000000000000000000000000000000000000000000000000000000679b1cb400000000000000000000000000000000000000000000000035f81bd7192f8e3800000000000000000000000000000000000000000000000035f81bd7192f8e38",
          "blockHash": "0xe0b97832c5a71e00b25b77ecee30eac21cdd7f43bb38422fa38bdef814543f7c",
          "blockNumber": "0x143deea",
          "transactionHash": "0x4ae48f4374b7fa7237bd245cfb7ceaa73901380f45208dc72494eec1a40fd452",
          "transactionIndex": "0x28",
          "logIndex": "0x61",
          "removed": false
        },
        {
          "address": "0x14f2a22c97ae2890e73cb15b1c0e42a8a0821223",
          "topics": [
            "0x2bbaa179fabbdbc2ed8c301faf6fca674ce9b4db55373c36bda89901d2fcfb6c",
            "0x5611645c7b7387fb8499426a4c76a74c7241f751aca035dcabb5e9b0ed7cf68b",
            "0x0000000000000000000000000000000000000000000000000000000000000002"
          ],
          "data": "0x000000000000000000000000000000000000000000000012f939c99edab7ffb0000000000000000000000000000000000000000000000001e5b8fa8fe2abfff800000000000000000000000000000000000000000000000000000000000000000000000000000000000000000000000000000000000000000000000000000000",
          "blockHash": "0xe0b97832c5a71e00b25b77ecee30eac21cdd7f43bb38422fa38bdef814543f7c",
          "blockNumber": "0x143deea",
          "transactionHash": "0x4ae48f4374b7fa7237bd245cfb7ceaa73901380f45208dc72494eec1a40fd452",
          "transactionIndex": "0x28",
          "logIndex": "0x62",
          "removed": false
        },
        {
          "address": "0x14f2a22c97ae2890e73cb15b1c0e42a8a0821223",
          "topics": [
            "0x949314518006833d597b4acd80e6cc367fa5461d9a4f80373e136688b6aad142",
            "0x0000000000000000000000008c9c001f821c04513616fd7962b2d8c62f925fd2",
            "0x5611645c7b7387fb8499426a4c76a74c7241f751aca035dcabb5e9b0ed7cf68b",
            "0x0000000000000000000000000000000000000000000000000000000000000002"
          ],
          "data": "0x000000000000000000000000000000000000000000000000000000000000010e00000000000000000000000000000000000000000000000000000000000000000000000000000000000000000000000000000000000000000000000000000000",
          "blockHash": "0xe0b97832c5a71e00b25b77ecee30eac21cdd7f43bb38422fa38bdef814543f7c",
          "blockNumber": "0x143deea",
          "transactionHash": "0x4ae48f4374b7fa7237bd245cfb7ceaa73901380f45208dc72494eec1a40fd452",
          "transactionIndex": "0x28",
          "logIndex": "0x63",
          "removed": false
        },
        {
          "address": "0x14f2a22c97ae2890e73cb15b1c0e42a8a0821223",
          "topics": [
            "0x4e7bac5695f40fad0768f0f3b8c118c3d4d29e043511b9fa823003fe60027275",
            "0x0000000000000000000000008c9c001f821c04513616fd7962b2d8c62f925fd2",
            "0x5611645c7b7387fb8499426a4c76a74c7241f751aca035dcabb5e9b0ed7cf68b"
          ],
          "data": "0x000000000000000000000000000000000000000000000004e1003b28d9280000",
          "blockHash": "0xe0b97832c5a71e00b25b77ecee30eac21cdd7f43bb38422fa38bdef814543f7c",
          "blockNumber": "0x143deea",
          "transactionHash": "0x4ae48f4374b7fa7237bd245cfb7ceaa73901380f45208dc72494eec1a40fd452",
          "transactionIndex": "0x28",
          "logIndex": "0x64",
          "removed": false
        },
        {
          "address": "0x8528c2df4ed0cf397a31b3f0ff0b96719a1be2c6",
          "topics": [
            "0xddf252ad1be2c89b69c2b068fc378daa952ba7f163c4a11628f55a4df523b3ef",
            "0x0000000000000000000000008c9c001f821c04513616fd7962b2d8c62f925fd2",
            "0x00000000000000000000000014f2a22c97ae2890e73cb15b1c0e42a8a0821223"
          ],
          "data": "0x000000000000000000000000000000000000000000000004e1003b28d9280000",
          "blockHash": "0xe0b97832c5a71e00b25b77ecee30eac21cdd7f43bb38422fa38bdef814543f7c",
          "blockNumber": "0x143deea",
          "transactionHash": "0x4ae48f4374b7fa7237bd245cfb7ceaa73901380f45208dc72494eec1a40fd452",
          "transactionIndex": "0x28",
          "logIndex": "0x65",
          "removed": false
        }
      ],
      "logsBloom": "0x04000008000000000000000000000800000000000000000000000000000000000000000800000000000000000000040008000000000600000000000000040000000000000000400000000008004000000000000000040000000000000000000000000000020000001000000000000800000000000010000000000018000000000020000000000004000000000000000000000000000000001000000000000000000000000200000000000100000020001000000042000000000080400000008000000002000000000000000000000000000200000000010000000000000060000000000000000000000000000000000000000000008000000000000000000000",
      "type": "0x2",
      "transactionHash": "0x4ae48f4374b7fa7237bd245cfb7ceaa73901380f45208dc72494eec1a40fd452",
      "transactionIndex": "0x28",
      "blockHash": "0xe0b97832c5a71e00b25b77ecee30eac21cdd7f43bb38422fa38bdef814543f7c",
      "blockNumber": "0x143deea",
      "gasUsed": "0xab7ad",
      "effectiveGasPrice": "0x1ba3fa4",
      "from": "0x8c9c001f821c04513616fd7962b2d8c62f925fd2",
      "to": "0x14f2a22c97ae2890e73cb15b1c0e42a8a0821223",
      "contractAddress": null,
      "l1BaseFeeScalar": "0x44d",
      "l1BlobBaseFee": "0x1",
      "l1BlobBaseFeeScalar": "0xa118b",
      "l1Fee": "0x781c59ea",
      "l1GasPrice": "0x442ec91a",
      "l1GasUsed": "0x640"
    },
    {
      "status": "0x1",
      "cumulativeGasUsed": "0x57de79",
      "logs": [
        {
          "address": "0x14f2a22c97ae2890e73cb15b1c0e42a8a0821223",
          "topics": [
            "0x764e98ff8f133fd79086bf24b413507d9b7e83977b31f35a16b80680f38f7072",
            "0x0000000000000000000000000000000000000000000000000000000000000003"
          ],
          "data": "0x00000000000000000000000000000000000000000000000000000000679b1ccc000000000000000000000000000000000000000000000000000000006811c3cc0000000000000000000000000000000000000000000000000de0b6b3a76400000000000000000000000000000000000000000000000000000de0b6b3a7640000",
          "blockHash": "0xe0b97832c5a71e00b25b77ecee30eac21cdd7f43bb38422fa38bdef814543f7c",
          "blockNumber": "0x143deea",
          "transactionHash": "0x980237263d24c323b9500888ac9915f63dbf905d4f5c0db5d1e3dec9723874d5",
          "transactionIndex": "0x29",
          "logIndex": "0x66",
          "removed": false
        },
        {
          "address": "0x264541e2dc34875943a746174e862ac594164aa2",
          "topics": [
            "0x554c94cb64d410104e2b06cc56052e30bc29a1307df890d30eb124045d4ae680",
            "0x0000000000000000000000000000000000000000000000000000000000000003"
          ],
          "data": "0x00000000000000000000000000000000000000000000000000000000000075e800000000000000000000000058bde6071db4a9b006fdabe75a2eeb43decb779b",
          "blockHash": "0xe0b97832c5a71e00b25b77ecee30eac21cdd7f43bb38422fa38bdef814543f7c",
          "blockNumber": "0x143deea",
          "transactionHash": "0x980237263d24c323b9500888ac9915f63dbf905d4f5c0db5d1e3dec9723874d5",
          "transactionIndex": "0x29",
          "logIndex": "0x67",
          "removed": false
        }
      ],
      "logsBloom": "0x00000000000000000000000000000000000000000000000000000000000000000000000800000000100000000000000000000000020400000000000000000000000000000000000000000002000000000000000000400000000000000000000000000000000000000000000000000000000000000000020000000000000000000000000000000000000000000000000000000000000000000000000000000000000000200000000000000000000020000000000000800000000000000000400000000000000000020000000000000000000000000000000000000000000020000000000000000000000000000000000000000020000000000000001000000000",
      "type": "0x2",
      "transactionHash": "0x980237263d24c323b9500888ac9915f63dbf905d4f5c0db5d1e3dec9723874d5",
      "transactionIndex": "0x29",
      "blockHash": "0xe0b97832c5a71e00b25b77ecee30eac21cdd7f43bb38422fa38bdef814543f7c",
      "blockNumber": "0x143deea",
      "gasUsed": "0x44372",
      "effectiveGasPrice": "0x1ba3fa4",
      "from": "0x8c9c001f821c04513616fd7962b2d8c62f925fd2",
      "to": "0x14f2a22c97ae2890e73cb15b1c0e42a8a0821223",
      "contractAddress": null,
      "l1BaseFeeScalar": "0x44d",
      "l1BlobBaseFee": "0x1",
      "l1BlobBaseFeeScalar": "0xa118b",
      "l1Fee": "0x8abe4fed",
      "l1GasPrice": "0x442ec91a",
      "l1GasUsed": "0x738"
    },
    {
      "status": "0x1",
      "cumulativeGasUsed": "0x591431",
      "logs": [
        {
          "address": "0x58bde6071db4a9b006fdabe75a2eeb43decb779b",
          "topics": [
            "0xddf252ad1be2c89b69c2b068fc378daa952ba7f163c4a11628f55a4df523b3ef",
            "0x0000000000000000000000008c9c001f821c04513616fd7962b2d8c62f925fd2",
            "0x000000000000000000000000264541e2dc34875943a746174e862ac594164aa2"
          ],
          "data": "0x000000000000000000000000000000000000000000000004e1003b28d9280000",
          "blockHash": "0xe0b97832c5a71e00b25b77ecee30eac21cdd7f43bb38422fa38bdef814543f7c",
          "blockNumber": "0x143deea",
          "transactionHash": "0x1dd47471ecbc6b3e81ef61e199fe46a29a5b25678f675279456137fdbeabbc58",
          "transactionIndex": "0x2a",
          "logIndex": "0x68",
          "removed": false
        },
        {
          "address": "0x264541e2dc34875943a746174e862ac594164aa2",
          "topics": [
            "0x90e9c021de092ced915ba783260374f129aeeedec753ab3fb564631601ff9589",
            "0x0000000000000000000000000000000000000000000000000000000000000003",
            "0x0000000000000000000000008c9c001f821c04513616fd7962b2d8c62f925fd2"
          ],
          "data": "0x00000000000000000000000000000000000000000000000000000000000075e8000000000000000000000000000000000000000000000004e1003b28d9280000",
          "blockHash": "0xe0b97832c5a71e00b25b77ecee30eac21cdd7f43bb38422fa38bdef814543f7c",
          "blockNumber": "0x143deea",
          "transactionHash": "0x1dd47471ecbc6b3e81ef61e199fe46a29a5b25678f675279456137fdbeabbc58",
          "transactionIndex": "0x2a",
          "logIndex": "0x69",
          "removed": false
        }
      ],
      "logsBloom": "0x00000000000000000000000000001800000000000000000000000000000000000000000000000000000000000000000000000000020000000000000000000000000000200000000000000008004000000000000000400000000000000000000000000000000000000000000000000000000000000000000000000010020000000000000000000000000000000000000000000000000000000000000000400020000000000000000000000000000000000000000000800000000080000000400000000002000000000000000000000000000000000000100000000000000000000000000000000000000000008000000800000020008000000000001000000000",
      "type": "0x2",
      "transactionHash": "0x1dd47471ecbc6b3e81ef61e199fe46a29a5b25678f675279456137fdbeabbc58",
      "transactionIndex": "0x2a",
      "blockHash": "0xe0b97832c5a71e00b25b77ecee30eac21cdd7f43bb38422fa38bdef814543f7c",
      "blockNumber": "0x143deea",
      "gasUsed": "0x135b8",
      "effectiveGasPrice": "0x1ba3fa4",
      "from": "0x8c9c001f821c04513616fd7962b2d8c62f925fd2",
      "to": "0x264541e2dc34875943a746174e862ac594164aa2",
      "contractAddress": null,
      "l1BaseFeeScalar": "0x44d",
      "l1BlobBaseFee": "0x1",
      "l1BlobBaseFeeScalar": "0xa118b",
      "l1Fee": "0x781c59ea",
      "l1GasPrice": "0x442ec91a",
      "l1GasUsed": "0x640"
    }
  ],
  "libraries": [],
  "pending": [],
  "returns": {},
  "timestamp": 1738218676,
  "chain": 84532,
  "commit": "5415508"
}