{
  "transactions": [
    {
      "hash": "0xb7f5dcdbe13d96964a25df65cfddc7285b419fea3870a7c25cee8ec89f775d83",
      "transactionType": "CALL",
      "contractName": "StakingPro",
      "contractAddress": "0x14f2a22c97ae2890e73cb15b1c0e42a8a0821223",
      "function": "stakeTokens(bytes32,uint256)",
      "arguments": [
        "0x5611645c7b7387fb8499426a4c76a74c7241f751aca035dcabb5e9b0ed7cf68b",
        "90000000000000000000"
      ],
      "transaction": {
        "from": "0x8c9c001f821c04513616fd7962b2d8c62f925fd2",
        "to": "0x14f2a22c97ae2890e73cb15b1c0e42a8a0821223",
        "gas": "0x23a38c",
        "value": "0x0",
        "input": "0xe6587ea25611645c7b7387fb8499426a4c76a74c7241f751aca035dcabb5e9b0ed7cf68b000000000000000000000000000000000000000000000004e1003b28d9280000",
        "nonce": "0x80",
        "chainId": "0x14a34"
      },
      "additionalContracts": [],
      "isFixedGasLimit": false
    },
    {
      "hash": "0x58104a6a97987c2621d940948d391c2c295e8202180599df891acabbd5fcad8b",
      "transactionType": "CALL",
      "contractName": "StakingPro",
      "contractAddress": "0x14f2a22c97ae2890e73cb15b1c0e42a8a0821223",
      "function": "setupDistribution(uint256,uint256,uint256,uint256,uint256,uint32,bytes32)",
      "arguments": [
        "14",
        "1738222750",
        "1745998750",
        "1000000000000000000",
        "1000000000000000000",
        "30184",
        "0x00000000000000000000000058bde6071db4a9b006fdabe75a2eeb43decb779b"
      ],
      "transaction": {
        "from": "0x8c9c001f821c04513616fd7962b2d8c62f925fd2",
        "to": "0x14f2a22c97ae2890e73cb15b1c0e42a8a0821223",
        "gas": "0x63c3c",
        "value": "0x0",
        "input": "0x0b6d6c99000000000000000000000000000000000000000000000000000000000000000e00000000000000000000000000000000000000000000000000000000679b2c9e000000000000000000000000000000000000000000000000000000006811d39e0000000000000000000000000000000000000000000000000de0b6b3a76400000000000000000000000000000000000000000000000000000de0b6b3a764000000000000000000000000000000000000000000000000000000000000000075e800000000000000000000000058bde6071db4a9b006fdabe75a2eeb43decb779b",
        "nonce": "0x81",
        "chainId": "0x14a34"
      },
      "additionalContracts": [],
      "isFixedGasLimit": false
    },
    {
      "hash": "0xaa8fea5e01ea51362e924125aa1c0e7ab16f9042e36bd11dd0f2a28e3a1751e2",
      "transactionType": "CALL",
      "contractName": "RewardsVaultV1",
      "contractAddress": "0x264541e2dc34875943a746174e862ac594164aa2",
      "function": "deposit(uint256,uint256,address)",
      "arguments": [
        "14",
        "90000000000000000000",
        "0x8C9C001F821c04513616fd7962B2D8c62f925fD2"
      ],
      "transaction": {
        "from": "0x8c9c001f821c04513616fd7962b2d8c62f925fd2",
        "to": "0x264541e2dc34875943a746174e862ac594164aa2",
        "gas": "0x1abcb",
        "value": "0x0",
        "input": "0x8dbdbe6d000000000000000000000000000000000000000000000000000000000000000e000000000000000000000000000000000000000000000004e1003b28d92800000000000000000000000000008c9c001f821c04513616fd7962b2d8c62f925fd2",
        "nonce": "0x82",
        "chainId": "0x14a34"
      },
      "additionalContracts": [],
      "isFixedGasLimit": false
    }
  ],
  "receipts": [
    {
      "status": "0x1",
      "cumulativeGasUsed": "0x6f2139",
      "logs": [
        {
          "address": "0x14f2a22c97ae2890e73cb15b1c0e42a8a0821223",
          "topics": [
            "0x949314518006833d597b4acd80e6cc367fa5461d9a4f80373e136688b6aad142",
            "0x0000000000000000000000008c9c001f821c04513616fd7962b2d8c62f925fd2",
            "0x5611645c7b7387fb8499426a4c76a74c7241f751aca035dcabb5e9b0ed7cf68b",
            "0x0000000000000000000000000000000000000000000000000000000000000000"
          ],
          "data": "0x000000000000000000000000000000000000000000000000000000000000000000000000000000000000000000000000000000000000000000000000000000000000000000000000000000000000000000000000000000000000000000000000",
          "blockHash": "0x93b8dd254cfdbeda92f074daf539cfeea7de275569773f10afebc79ad3503577",
          "blockNumber": "0x143e6e0",
          "transactionHash": "0xb7f5dcdbe13d96964a25df65cfddc7285b419fea3870a7c25cee8ec89f775d83",
          "transactionIndex": "0x1d",
          "logIndex": "0x50",
          "removed": false
        },
        {
          "address": "0x14f2a22c97ae2890e73cb15b1c0e42a8a0821223",
          "topics": [
            "0xc2ec7dd88a6dab4eecfd7a57fb0879a881a03e12b94dc49c5fec5d5faa8792ce",
            "0x0000000000000000000000000000000000000000000000000000000000000001"
          ],
          "data": "0x00000000000000000000000000000000000000000000000000000000679b2ca00000000000000000000000000000000000000000000000036bd75a0a1de6bf3c0000000000000000000000000000000000000000000000036bd75a0a1de6bf3c",
          "blockHash": "0x93b8dd254cfdbeda92f074daf539cfeea7de275569773f10afebc79ad3503577",
          "blockNumber": "0x143e6e0",
          "transactionHash": "0xb7f5dcdbe13d96964a25df65cfddc7285b419fea3870a7c25cee8ec89f775d83",
          "transactionIndex": "0x1d",
          "logIndex": "0x51",
          "removed": false
        },
        {
          "address": "0x14f2a22c97ae2890e73cb15b1c0e42a8a0821223",
          "topics": [
            "0x2bbaa179fabbdbc2ed8c301faf6fca674ce9b4db55373c36bda89901d2fcfb6c",
            "0x5611645c7b7387fb8499426a4c76a74c7241f751aca035dcabb5e9b0ed7cf68b",
            "0x0000000000000000000000000000000000000000000000000000000000000001"
          ],
          "data": "0x00000000000000000000000000000000000000000000000b99d8ba2ded97ff6000000000000000000000000000000000000000000000000128fc129e315bfff000000000000000000000000000000000000000000000000000000000000000000000000000000000000000000000000000000000000000000000000000000000",
          "blockHash": "0x93b8dd254cfdbeda92f074daf539cfeea7de275569773f10afebc79ad3503577",
          "blockNumber": "0x143e6e0",
          "transactionHash": "0xb7f5dcdbe13d96964a25df65cfddc7285b419fea3870a7c25cee8ec89f775d83",
          "transactionIndex": "0x1d",
          "logIndex": "0x52",
          "removed": false
        },
        {
          "address": "0x14f2a22c97ae2890e73cb15b1c0e42a8a0821223",
          "topics": [
            "0x949314518006833d597b4acd80e6cc367fa5461d9a4f80373e136688b6aad142",
            "0x0000000000000000000000008c9c001f821c04513616fd7962b2d8c62f925fd2",
            "0x5611645c7b7387fb8499426a4c76a74c7241f751aca035dcabb5e9b0ed7cf68b",
            "0x0000000000000000000000000000000000000000000000000000000000000001"
          ],
          "data": "0x000000000000000000000000000000000000000000000000000000000000000000000000000000000000000000000000000000000000000000000000000000000000000000000000000000000000000000000000000000000000000000000000",
          "blockHash": "0x93b8dd254cfdbeda92f074daf539cfeea7de275569773f10afebc79ad3503577",
          "blockNumber": "0x143e6e0",
          "transactionHash": "0xb7f5dcdbe13d96964a25df65cfddc7285b419fea3870a7c25cee8ec89f775d83",
          "transactionIndex": "0x1d",
          "logIndex": "0x53",
          "removed": false
        },
        {
          "address": "0x14f2a22c97ae2890e73cb15b1c0e42a8a0821223",
          "topics": [
            "0xc2ec7dd88a6dab4eecfd7a57fb0879a881a03e12b94dc49c5fec5d5faa8792ce",
            "0x0000000000000000000000000000000000000000000000000000000000000002"
          ],
          "data": "0x00000000000000000000000000000000000000000000000000000000679b2ca0000000000000000000000000000000000000000000000000b1f154097a973103000000000000000000000000000000000000000000000000b1f154097a973103",
          "blockHash": "0x93b8dd254cfdbeda92f074daf539cfeea7de275569773f10afebc79ad3503577",
          "blockNumber": "0x143e6e0",
          "transactionHash": "0xb7f5dcdbe13d96964a25df65cfddc7285b419fea3870a7c25cee8ec89f775d83",
          "transactionIndex": "0x1d",
          "logIndex": "0x54",
          "removed": false
        },
        {
          "address": "0x14f2a22c97ae2890e73cb15b1c0e42a8a0821223",
          "topics": [
            "0x2bbaa179fabbdbc2ed8c301faf6fca674ce9b4db55373c36bda89901d2fcfb6c",
            "0x5611645c7b7387fb8499426a4c76a74c7241f751aca035dcabb5e9b0ed7cf68b",
            "0x0000000000000000000000000000000000000000000000000000000000000002"
          ],
          "data": "0x00000000000000000000000000000000000000000000000b99d8ba2ded97ff6000000000000000000000000000000000000000000000000128fc129e315bfff000000000000000000000000000000000000000000000000000000000000000000000000000000000000000000000000000000000000000000000000000000000",
          "blockHash": "0x93b8dd254cfdbeda92f074daf539cfeea7de275569773f10afebc79ad3503577",
          "blockNumber": "0x143e6e0",
          "transactionHash": "0xb7f5dcdbe13d96964a25df65cfddc7285b419fea3870a7c25cee8ec89f775d83",
          "transactionIndex": "0x1d",
          "logIndex": "0x55",
          "removed": false
        },
        {
          "address": "0x14f2a22c97ae2890e73cb15b1c0e42a8a0821223",
          "topics": [
            "0x949314518006833d597b4acd80e6cc367fa5461d9a4f80373e136688b6aad142",
            "0x0000000000000000000000008c9c001f821c04513616fd7962b2d8c62f925fd2",
            "0x5611645c7b7387fb8499426a4c76a74c7241f751aca035dcabb5e9b0ed7cf68b",
            "0x0000000000000000000000000000000000000000000000000000000000000002"
          ],
          "data": "0x000000000000000000000000000000000000000000000000000000000000000000000000000000000000000000000000000000000000000000000000000000000000000000000000000000000000000000000000000000000000000000000000",
          "blockHash": "0x93b8dd254cfdbeda92f074daf539cfeea7de275569773f10afebc79ad3503577",
          "blockNumber": "0x143e6e0",
          "transactionHash": "0xb7f5dcdbe13d96964a25df65cfddc7285b419fea3870a7c25cee8ec89f775d83",
          "transactionIndex": "0x1d",
          "logIndex": "0x56",
          "removed": false
        },
        {
          "address": "0x14f2a22c97ae2890e73cb15b1c0e42a8a0821223",
          "topics": [
            "0xc2ec7dd88a6dab4eecfd7a57fb0879a881a03e12b94dc49c5fec5d5faa8792ce",
            "0x0000000000000000000000000000000000000000000000000000000000000003"
          ],
          "data": "0x00000000000000000000000000000000000000000000000000000000679b2ca00000000000000000000000000000000000000000000000007a1f863c8f5a4d760000000000000000000000000000000000000000000000007a1f863c8f5a4d76",
          "blockHash": "0x93b8dd254cfdbeda92f074daf539cfeea7de275569773f10afebc79ad3503577",
          "blockNumber": "0x143e6e0",
          "transactionHash": "0xb7f5dcdbe13d96964a25df65cfddc7285b419fea3870a7c25cee8ec89f775d83",
          "transactionIndex": "0x1d",
          "logIndex": "0x57",
          "removed": false
        },
        {
          "address": "0x14f2a22c97ae2890e73cb15b1c0e42a8a0821223",
          "topics": [
            "0x2bbaa179fabbdbc2ed8c301faf6fca674ce9b4db55373c36bda89901d2fcfb6c",
            "0x5611645c7b7387fb8499426a4c76a74c7241f751aca035dcabb5e9b0ed7cf68b",
            "0x0000000000000000000000000000000000000000000000000000000000000003"
          ],
          "data": "0x00000000000000000000000000000000000000000000000b99d8ba2ded97ff6000000000000000000000000000000000000000000000000128fc129e315bfff000000000000000000000000000000000000000000000000000000000000000000000000000000000000000000000000000000000000000000000000000000000",
          "blockHash": "0x93b8dd254cfdbeda92f074daf539cfeea7de275569773f10afebc79ad3503577",
          "blockNumber": "0x143e6e0",
          "transactionHash": "0xb7f5dcdbe13d96964a25df65cfddc7285b419fea3870a7c25cee8ec89f775d83",
          "transactionIndex": "0x1d",
          "logIndex": "0x58",
          "removed": false
        },
        {
          "address": "0x14f2a22c97ae2890e73cb15b1c0e42a8a0821223",
          "topics": [
            "0x949314518006833d597b4acd80e6cc367fa5461d9a4f80373e136688b6aad142",
            "0x0000000000000000000000008c9c001f821c04513616fd7962b2d8c62f925fd2",
            "0x5611645c7b7387fb8499426a4c76a74c7241f751aca035dcabb5e9b0ed7cf68b",
            "0x0000000000000000000000000000000000000000000000000000000000000003"
          ],
          "data": "0x000000000000000000000000000000000000000000000000000000000000000000000000000000000000000000000000000000000000000000000000000000000000000000000000000000000000000000000000000000000000000000000000",
          "blockHash": "0x93b8dd254cfdbeda92f074daf539cfeea7de275569773f10afebc79ad3503577",
          "blockNumber": "0x143e6e0",
          "transactionHash": "0xb7f5dcdbe13d96964a25df65cfddc7285b419fea3870a7c25cee8ec89f775d83",
          "transactionIndex": "0x1d",
          "logIndex": "0x59",
          "removed": false
        },
        {
          "address": "0x14f2a22c97ae2890e73cb15b1c0e42a8a0821223",
          "topics": [
            "0xc2ec7dd88a6dab4eecfd7a57fb0879a881a03e12b94dc49c5fec5d5faa8792ce",
            "0x0000000000000000000000000000000000000000000000000000000000000004"
          ],
          "data": "0x00000000000000000000000000000000000000000000000000000000679b2ca0000000000000000000000000000000000000000000000000690f009a6ffbc8b8000000000000000000000000000000000000000000000000690f009a6ffbc8b8",
          "blockHash": "0x93b8dd254cfdbeda92f074daf539cfeea7de275569773f10afebc79ad3503577",
          "blockNumber": "0x143e6e0",
          "transactionHash": "0xb7f5dcdbe13d96964a25df65cfddc7285b419fea3870a7c25cee8ec89f775d83",
          "transactionIndex": "0x1d",
          "logIndex": "0x5a",
          "removed": false
        },
        {
          "address": "0x14f2a22c97ae2890e73cb15b1c0e42a8a0821223",
          "topics": [
            "0x2bbaa179fabbdbc2ed8c301faf6fca674ce9b4db55373c36bda89901d2fcfb6c",
            "0x5611645c7b7387fb8499426a4c76a74c7241f751aca035dcabb5e9b0ed7cf68b",
            "0x0000000000000000000000000000000000000000000000000000000000000004"
          ],
          "data": "0x00000000000000000000000000000000000000000000000b99d8ba2ded97ff6000000000000000000000000000000000000000000000000128fc129e315bfff000000000000000000000000000000000000000000000000000000000000000000000000000000000000000000000000000000000000000000000000000000000",
          "blockHash": "0x93b8dd254cfdbeda92f074daf539cfeea7de275569773f10afebc79ad3503577",
          "blockNumber": "0x143e6e0",
          "transactionHash": "0xb7f5dcdbe13d96964a25df65cfddc7285b419fea3870a7c25cee8ec89f775d83",
          "transactionIndex": "0x1d",
          "logIndex": "0x5b",
          "removed": false
        },
        {
          "address": "0x14f2a22c97ae2890e73cb15b1c0e42a8a0821223",
          "topics": [
            "0x949314518006833d597b4acd80e6cc367fa5461d9a4f80373e136688b6aad142",
            "0x0000000000000000000000008c9c001f821c04513616fd7962b2d8c62f925fd2",
            "0x5611645c7b7387fb8499426a4c76a74c7241f751aca035dcabb5e9b0ed7cf68b",
            "0x0000000000000000000000000000000000000000000000000000000000000004"
          ],
          "data": "0x000000000000000000000000000000000000000000000000000000000000000000000000000000000000000000000000000000000000000000000000000000000000000000000000000000000000000000000000000000000000000000000000",
          "blockHash": "0x93b8dd254cfdbeda92f074daf539cfeea7de275569773f10afebc79ad3503577",
          "blockNumber": "0x143e6e0",
          "transactionHash": "0xb7f5dcdbe13d96964a25df65cfddc7285b419fea3870a7c25cee8ec89f775d83",
          "transactionIndex": "0x1d",
          "logIndex": "0x5c",
          "removed": false
        },
        {
          "address": "0x14f2a22c97ae2890e73cb15b1c0e42a8a0821223",
          "topics": [
            "0xc2ec7dd88a6dab4eecfd7a57fb0879a881a03e12b94dc49c5fec5d5faa8792ce",
            "0x0000000000000000000000000000000000000000000000000000000000000005"
          ],
          "data": "0x00000000000000000000000000000000000000000000000000000000679b2ca00000000000000000000000000000000000000000000000004ea3b02bc720f8210000000000000000000000000000000000000000000000004ea3b02bc720f821",
          "blockHash": "0x93b8dd254cfdbeda92f074daf539cfeea7de275569773f10afebc79ad3503577",
          "blockNumber": "0x143e6e0",
          "transactionHash": "0xb7f5dcdbe13d96964a25df65cfddc7285b419fea3870a7c25cee8ec89f775d83",
          "transactionIndex": "0x1d",
          "logIndex": "0x5d",
          "removed": false
        },
        {
          "address": "0x14f2a22c97ae2890e73cb15b1c0e42a8a0821223",
          "topics": [
            "0x2bbaa179fabbdbc2ed8c301faf6fca674ce9b4db55373c36bda89901d2fcfb6c",
            "0x5611645c7b7387fb8499426a4c76a74c7241f751aca035dcabb5e9b0ed7cf68b",
            "0x0000000000000000000000000000000000000000000000000000000000000005"
          ],
          "data": "0x00000000000000000000000000000000000000000000000b99d8ba2ded97ff6000000000000000000000000000000000000000000000000128fc129e315bfff000000000000000000000000000000000000000000000000000000000000000000000000000000000000000000000000000000000000000000000000000000000",
          "blockHash": "0x93b8dd254cfdbeda92f074daf539cfeea7de275569773f10afebc79ad3503577",
          "blockNumber": "0x143e6e0",
          "transactionHash": "0xb7f5dcdbe13d96964a25df65cfddc7285b419fea3870a7c25cee8ec89f775d83",
          "transactionIndex": "0x1d",
          "logIndex": "0x5e",
          "removed": false
        },
        {
          "address": "0x14f2a22c97ae2890e73cb15b1c0e42a8a0821223",
          "topics": [
            "0x949314518006833d597b4acd80e6cc367fa5461d9a4f80373e136688b6aad142",
            "0x0000000000000000000000008c9c001f821c04513616fd7962b2d8c62f925fd2",
            "0x5611645c7b7387fb8499426a4c76a74c7241f751aca035dcabb5e9b0ed7cf68b",
            "0x0000000000000000000000000000000000000000000000000000000000000005"
          ],
          "data": "0x000000000000000000000000000000000000000000000000000000000000000000000000000000000000000000000000000000000000000000000000000000000000000000000000000000000000000000000000000000000000000000000000",
          "blockHash": "0x93b8dd254cfdbeda92f074daf539cfeea7de275569773f10afebc79ad3503577",
          "blockNumber": "0x143e6e0",
          "transactionHash": "0xb7f5dcdbe13d96964a25df65cfddc7285b419fea3870a7c25cee8ec89f775d83",
          "transactionIndex": "0x1d",
          "logIndex": "0x5f",
          "removed": false
        },
        {
          "address": "0x14f2a22c97ae2890e73cb15b1c0e42a8a0821223",
          "topics": [
            "0xc2ec7dd88a6dab4eecfd7a57fb0879a881a03e12b94dc49c5fec5d5faa8792ce",
            "0x0000000000000000000000000000000000000000000000000000000000000006"
          ],
          "data": "0x00000000000000000000000000000000000000000000000000000000679b2ca00000000000000000000000000000000000000000000000003faea6fe0fdfdbaf0000000000000000000000000000000000000000000000003faea6fe0fdfdbaf",
          "blockHash": "0x93b8dd254cfdbeda92f074daf539cfeea7de275569773f10afebc79ad3503577",
          "blockNumber": "0x143e6e0",
          "transactionHash": "0xb7f5dcdbe13d96964a25df65cfddc7285b419fea3870a7c25cee8ec89f775d83",
          "transactionIndex": "0x1d",
          "logIndex": "0x60",
          "removed": false
        },
        {
          "address": "0x14f2a22c97ae2890e73cb15b1c0e42a8a0821223",
          "topics": [
            "0x2bbaa179fabbdbc2ed8c301faf6fca674ce9b4db55373c36bda89901d2fcfb6c",
            "0x5611645c7b7387fb8499426a4c76a74c7241f751aca035dcabb5e9b0ed7cf68b",
            "0x0000000000000000000000000000000000000000000000000000000000000006"
          ],
          "data": "0x00000000000000000000000000000000000000000000000b99d8ba2ded97ff6000000000000000000000000000000000000000000000000128fc129e315bfff000000000000000000000000000000000000000000000000000000000000000000000000000000000000000000000000000000000000000000000000000000000",
          "blockHash": "0x93b8dd254cfdbeda92f074daf539cfeea7de275569773f10afebc79ad3503577",
          "blockNumber": "0x143e6e0",
          "transactionHash": "0xb7f5dcdbe13d96964a25df65cfddc7285b419fea3870a7c25cee8ec89f775d83",
          "transactionIndex": "0x1d",
          "logIndex": "0x61",
          "removed": false
        },
        {
          "address": "0x14f2a22c97ae2890e73cb15b1c0e42a8a0821223",
          "topics": [
            "0x949314518006833d597b4acd80e6cc367fa5461d9a4f80373e136688b6aad142",
            "0x0000000000000000000000008c9c001f821c04513616fd7962b2d8c62f925fd2",
            "0x5611645c7b7387fb8499426a4c76a74c7241f751aca035dcabb5e9b0ed7cf68b",
            "0x0000000000000000000000000000000000000000000000000000000000000006"
          ],
          "data": "0x000000000000000000000000000000000000000000000000000000000000000000000000000000000000000000000000000000000000000000000000000000000000000000000000000000000000000000000000000000000000000000000000",
          "blockHash": "0x93b8dd254cfdbeda92f074daf539cfeea7de275569773f10afebc79ad3503577",
          "blockNumber": "0x143e6e0",
          "transactionHash": "0xb7f5dcdbe13d96964a25df65cfddc7285b419fea3870a7c25cee8ec89f775d83",
          "transactionIndex": "0x1d",
          "logIndex": "0x62",
          "removed": false
        },
        {
          "address": "0x14f2a22c97ae2890e73cb15b1c0e42a8a0821223",
          "topics": [
            "0xc2ec7dd88a6dab4eecfd7a57fb0879a881a03e12b94dc49c5fec5d5faa8792ce",
            "0x0000000000000000000000000000000000000000000000000000000000000007"
          ],
          "data": "0x00000000000000000000000000000000000000000000000000000000679b2ca00000000000000000000000000000000000000000000000002a37c9da8b4531050000000000000000000000000000000000000000000000002a37c9da8b453105",
          "blockHash": "0x93b8dd254cfdbeda92f074daf539cfeea7de275569773f10afebc79ad3503577",
          "blockNumber": "0x143e6e0",
          "transactionHash": "0xb7f5dcdbe13d96964a25df65cfddc7285b419fea3870a7c25cee8ec89f775d83",
          "transactionIndex": "0x1d",
          "logIndex": "0x63",
          "removed": false
        },
        {
          "address": "0x14f2a22c97ae2890e73cb15b1c0e42a8a0821223",
          "topics": [
            "0x2bbaa179fabbdbc2ed8c301faf6fca674ce9b4db55373c36bda89901d2fcfb6c",
            "0x5611645c7b7387fb8499426a4c76a74c7241f751aca035dcabb5e9b0ed7cf68b",
            "0x0000000000000000000000000000000000000000000000000000000000000007"
          ],
          "data": "0x00000000000000000000000000000000000000000000000b99d8ba2ded97ff6000000000000000000000000000000000000000000000000128fc129e315bfff000000000000000000000000000000000000000000000000000000000000000000000000000000000000000000000000000000000000000000000000000000000",
          "blockHash": "0x93b8dd254cfdbeda92f074daf539cfeea7de275569773f10afebc79ad3503577",
          "blockNumber": "0x143e6e0",
          "transactionHash": "0xb7f5dcdbe13d96964a25df65cfddc7285b419fea3870a7c25cee8ec89f775d83",
          "transactionIndex": "0x1d",
          "logIndex": "0x64",
          "removed": false
        },
        {
          "address": "0x14f2a22c97ae2890e73cb15b1c0e42a8a0821223",
          "topics": [
            "0x949314518006833d597b4acd80e6cc367fa5461d9a4f80373e136688b6aad142",
            "0x0000000000000000000000008c9c001f821c04513616fd7962b2d8c62f925fd2",
            "0x5611645c7b7387fb8499426a4c76a74c7241f751aca035dcabb5e9b0ed7cf68b",
            "0x0000000000000000000000000000000000000000000000000000000000000007"
          ],
          "data": "0x000000000000000000000000000000000000000000000000000000000000000000000000000000000000000000000000000000000000000000000000000000000000000000000000000000000000000000000000000000000000000000000000",
          "blockHash": "0x93b8dd254cfdbeda92f074daf539cfeea7de275569773f10afebc79ad3503577",
          "blockNumber": "0x143e6e0",
          "transactionHash": "0xb7f5dcdbe13d96964a25df65cfddc7285b419fea3870a7c25cee8ec89f775d83",
          "transactionIndex": "0x1d",
          "logIndex": "0x65",
          "removed": false
        },
        {
          "address": "0x14f2a22c97ae2890e73cb15b1c0e42a8a0821223",
          "topics": [
            "0xc2ec7dd88a6dab4eecfd7a57fb0879a881a03e12b94dc49c5fec5d5faa8792ce",
            "0x0000000000000000000000000000000000000000000000000000000000000008"
          ],
          "data": "0x00000000000000000000000000000000000000000000000000000000679b2ca00000000000000000000000000000000000000000000000001cf317ecae2491310000000000000000000000000000000000000000000000001cf317ecae249131",
          "blockHash": "0x93b8dd254cfdbeda92f074daf539cfeea7de275569773f10afebc79ad3503577",
          "blockNumber": "0x143e6e0",
          "transactionHash": "0xb7f5dcdbe13d96964a25df65cfddc7285b419fea3870a7c25cee8ec89f775d83",
          "transactionIndex": "0x1d",
          "logIndex": "0x66",
          "removed": false
        },
        {
          "address": "0x14f2a22c97ae2890e73cb15b1c0e42a8a0821223",
          "topics": [
            "0x2bbaa179fabbdbc2ed8c301faf6fca674ce9b4db55373c36bda89901d2fcfb6c",
            "0x5611645c7b7387fb8499426a4c76a74c7241f751aca035dcabb5e9b0ed7cf68b",
            "0x0000000000000000000000000000000000000000000000000000000000000008"
          ],
          "data": "0x00000000000000000000000000000000000000000000000b99d8ba2ded97ff6000000000000000000000000000000000000000000000000128fc129e315bfff000000000000000000000000000000000000000000000000000000000000000000000000000000000000000000000000000000000000000000000000000000000",
          "blockHash": "0x93b8dd254cfdbeda92f074daf539cfeea7de275569773f10afebc79ad3503577",
          "blockNumber": "0x143e6e0",
          "transactionHash": "0xb7f5dcdbe13d96964a25df65cfddc7285b419fea3870a7c25cee8ec89f775d83",
          "transactionIndex": "0x1d",
          "logIndex": "0x67",
          "removed": false
        },
        {
          "address": "0x14f2a22c97ae2890e73cb15b1c0e42a8a0821223",
          "topics": [
            "0x949314518006833d597b4acd80e6cc367fa5461d9a4f80373e136688b6aad142",
            "0x0000000000000000000000008c9c001f821c04513616fd7962b2d8c62f925fd2",
            "0x5611645c7b7387fb8499426a4c76a74c7241f751aca035dcabb5e9b0ed7cf68b",
            "0x0000000000000000000000000000000000000000000000000000000000000008"
          ],
          "data": "0x000000000000000000000000000000000000000000000000000000000000000000000000000000000000000000000000000000000000000000000000000000000000000000000000000000000000000000000000000000000000000000000000",
          "blockHash": "0x93b8dd254cfdbeda92f074daf539cfeea7de275569773f10afebc79ad3503577",
          "blockNumber": "0x143e6e0",
          "transactionHash": "0xb7f5dcdbe13d96964a25df65cfddc7285b419fea3870a7c25cee8ec89f775d83",
          "transactionIndex": "0x1d",
          "logIndex": "0x68",
          "removed": false
        },
        {
          "address": "0x14f2a22c97ae2890e73cb15b1c0e42a8a0821223",
          "topics": [
            "0xc2ec7dd88a6dab4eecfd7a57fb0879a881a03e12b94dc49c5fec5d5faa8792ce",
            "0x0000000000000000000000000000000000000000000000000000000000000009"
          ],
          "data": "0x00000000000000000000000000000000000000000000000000000000679b2ca000000000000000000000000000000000000000000000000019b07cda0b4a070900000000000000000000000000000000000000000000000019b07cda0b4a0709",
          "blockHash": "0x93b8dd254cfdbeda92f074daf539cfeea7de275569773f10afebc79ad3503577",
          "blockNumber": "0x143e6e0",
          "transactionHash": "0xb7f5dcdbe13d96964a25df65cfddc7285b419fea3870a7c25cee8ec89f775d83",
          "transactionIndex": "0x1d",
          "logIndex": "0x69",
          "removed": false
        },
        {
          "address": "0x14f2a22c97ae2890e73cb15b1c0e42a8a0821223",
          "topics": [
            "0x2bbaa179fabbdbc2ed8c301faf6fca674ce9b4db55373c36bda89901d2fcfb6c",
            "0x5611645c7b7387fb8499426a4c76a74c7241f751aca035dcabb5e9b0ed7cf68b",
            "0x0000000000000000000000000000000000000000000000000000000000000009"
          ],
          "data": "0x00000000000000000000000000000000000000000000000b99d8ba2ded97ff6000000000000000000000000000000000000000000000000128fc129e315bfff000000000000000000000000000000000000000000000000000000000000000000000000000000000000000000000000000000000000000000000000000000000",
          "blockHash": "0x93b8dd254cfdbeda92f074daf539cfeea7de275569773f10afebc79ad3503577",
          "blockNumber": "0x143e6e0",
          "transactionHash": "0xb7f5dcdbe13d96964a25df65cfddc7285b419fea3870a7c25cee8ec89f775d83",
          "transactionIndex": "0x1d",
          "logIndex": "0x6a",
          "removed": false
        },
        {
          "address": "0x14f2a22c97ae2890e73cb15b1c0e42a8a0821223",
          "topics": [
            "0x949314518006833d597b4acd80e6cc367fa5461d9a4f80373e136688b6aad142",
            "0x0000000000000000000000008c9c001f821c04513616fd7962b2d8c62f925fd2",
            "0x5611645c7b7387fb8499426a4c76a74c7241f751aca035dcabb5e9b0ed7cf68b",
            "0x0000000000000000000000000000000000000000000000000000000000000009"
          ],
          "data": "0x000000000000000000000000000000000000000000000000000000000000000000000000000000000000000000000000000000000000000000000000000000000000000000000000000000000000000000000000000000000000000000000000",
          "blockHash": "0x93b8dd254cfdbeda92f074daf539cfeea7de275569773f10afebc79ad3503577",
          "blockNumber": "0x143e6e0",
          "transactionHash": "0xb7f5dcdbe13d96964a25df65cfddc7285b419fea3870a7c25cee8ec89f775d83",
          "transactionIndex": "0x1d",
          "logIndex": "0x6b",
          "removed": false
        },
        {
          "address": "0x14f2a22c97ae2890e73cb15b1c0e42a8a0821223",
          "topics": [
            "0xc2ec7dd88a6dab4eecfd7a57fb0879a881a03e12b94dc49c5fec5d5faa8792ce",
            "0x000000000000000000000000000000000000000000000000000000000000000a"
          ],
          "data": "0x00000000000000000000000000000000000000000000000000000000679b2ca0000000000000000000000000000000000000000000000000106eea57a1ba4afc000000000000000000000000000000000000000000000000106eea57a1ba4afc",
          "blockHash": "0x93b8dd254cfdbeda92f074daf539cfeea7de275569773f10afebc79ad3503577",
          "blockNumber": "0x143e6e0",
          "transactionHash": "0xb7f5dcdbe13d96964a25df65cfddc7285b419fea3870a7c25cee8ec89f775d83",
          "transactionIndex": "0x1d",
          "logIndex": "0x6c",
          "removed": false
        },
        {
          "address": "0x14f2a22c97ae2890e73cb15b1c0e42a8a0821223",
          "topics": [
            "0x2bbaa179fabbdbc2ed8c301faf6fca674ce9b4db55373c36bda89901d2fcfb6c",
            "0x5611645c7b7387fb8499426a4c76a74c7241f751aca035dcabb5e9b0ed7cf68b",
            "0x000000000000000000000000000000000000000000000000000000000000000a"
          ],
          "data": "0x00000000000000000000000000000000000000000000000b99d8ba2ded97ff6000000000000000000000000000000000000000000000000128fc129e315bfff000000000000000000000000000000000000000000000000000000000000000000000000000000000000000000000000000000000000000000000000000000000",
          "blockHash": "0x93b8dd254cfdbeda92f074daf539cfeea7de275569773f10afebc79ad3503577",
          "blockNumber": "0x143e6e0",
          "transactionHash": "0xb7f5dcdbe13d96964a25df65cfddc7285b419fea3870a7c25cee8ec89f775d83",
          "transactionIndex": "0x1d",
          "logIndex": "0x6d",
          "removed": false
        },
        {
          "address": "0x14f2a22c97ae2890e73cb15b1c0e42a8a0821223",
          "topics": [
            "0x949314518006833d597b4acd80e6cc367fa5461d9a4f80373e136688b6aad142",
            "0x0000000000000000000000008c9c001f821c04513616fd7962b2d8c62f925fd2",
            "0x5611645c7b7387fb8499426a4c76a74c7241f751aca035dcabb5e9b0ed7cf68b",
            "0x000000000000000000000000000000000000000000000000000000000000000a"
          ],
          "data": "0x000000000000000000000000000000000000000000000000000000000000000000000000000000000000000000000000000000000000000000000000000000000000000000000000000000000000000000000000000000000000000000000000",
          "blockHash": "0x93b8dd254cfdbeda92f074daf539cfeea7de275569773f10afebc79ad3503577",
          "blockNumber": "0x143e6e0",
          "transactionHash": "0xb7f5dcdbe13d96964a25df65cfddc7285b419fea3870a7c25cee8ec89f775d83",
          "transactionIndex": "0x1d",
          "logIndex": "0x6e",
          "removed": false
        },
        {
          "address": "0x14f2a22c97ae2890e73cb15b1c0e42a8a0821223",
          "topics": [
            "0xc2ec7dd88a6dab4eecfd7a57fb0879a881a03e12b94dc49c5fec5d5faa8792ce",
            "0x000000000000000000000000000000000000000000000000000000000000000b"
          ],
          "data": "0x00000000000000000000000000000000000000000000000000000000679b2ca0000000000000000000000000000000000000000000000000088f144fc048a9cd000000000000000000000000000000000000000000000000088f144fc048a9cd",
          "blockHash": "0x93b8dd254cfdbeda92f074daf539cfeea7de275569773f10afebc79ad3503577",
          "blockNumber": "0x143e6e0",
          "transactionHash": "0xb7f5dcdbe13d96964a25df65cfddc7285b419fea3870a7c25cee8ec89f775d83",
          "transactionIndex": "0x1d",
          "logIndex": "0x6f",
          "removed": false
        },
        {
          "address": "0x14f2a22c97ae2890e73cb15b1c0e42a8a0821223",
          "topics": [
            "0x2bbaa179fabbdbc2ed8c301faf6fca674ce9b4db55373c36bda89901d2fcfb6c",
            "0x5611645c7b7387fb8499426a4c76a74c7241f751aca035dcabb5e9b0ed7cf68b",
            "0x000000000000000000000000000000000000000000000000000000000000000b"
          ],
          "data": "0x00000000000000000000000000000000000000000000000b99d8ba2ded97ff6000000000000000000000000000000000000000000000000128fc129e315bfff000000000000000000000000000000000000000000000000000000000000000000000000000000000000000000000000000000000000000000000000000000000",
          "blockHash": "0x93b8dd254cfdbeda92f074daf539cfeea7de275569773f10afebc79ad3503577",
          "blockNumber": "0x143e6e0",
          "transactionHash": "0xb7f5dcdbe13d96964a25df65cfddc7285b419fea3870a7c25cee8ec89f775d83",
          "transactionIndex": "0x1d",
          "logIndex": "0x70",
          "removed": false
        },
        {
          "address": "0x14f2a22c97ae2890e73cb15b1c0e42a8a0821223",
          "topics": [
            "0x949314518006833d597b4acd80e6cc367fa5461d9a4f80373e136688b6aad142",
            "0x0000000000000000000000008c9c001f821c04513616fd7962b2d8c62f925fd2",
            "0x5611645c7b7387fb8499426a4c76a74c7241f751aca035dcabb5e9b0ed7cf68b",
            "0x000000000000000000000000000000000000000000000000000000000000000b"
          ],
          "data": "0x000000000000000000000000000000000000000000000000000000000000000000000000000000000000000000000000000000000000000000000000000000000000000000000000000000000000000000000000000000000000000000000000",
          "blockHash": "0x93b8dd254cfdbeda92f074daf539cfeea7de275569773f10afebc79ad3503577",
          "blockNumber": "0x143e6e0",
          "transactionHash": "0xb7f5dcdbe13d96964a25df65cfddc7285b419fea3870a7c25cee8ec89f775d83",
          "transactionIndex": "0x1d",
          "logIndex": "0x71",
          "removed": false
        },
        {
          "address": "0x14f2a22c97ae2890e73cb15b1c0e42a8a0821223",
          "topics": [
            "0xc2ec7dd88a6dab4eecfd7a57fb0879a881a03e12b94dc49c5fec5d5faa8792ce",
            "0x000000000000000000000000000000000000000000000000000000000000000c"
          ],
          "data": "0x00000000000000000000000000000000000000000000000000000000679b2ca00000000000000000000000000000000000000000000000000594dc5b79ed63fc0000000000000000000000000000000000000000000000000594dc5b79ed63fc",
          "blockHash": "0x93b8dd254cfdbeda92f074daf539cfeea7de275569773f10afebc79ad3503577",
          "blockNumber": "0x143e6e0",
          "transactionHash": "0xb7f5dcdbe13d96964a25df65cfddc7285b419fea3870a7c25cee8ec89f775d83",
          "transactionIndex": "0x1d",
          "logIndex": "0x72",
          "removed": false
        },
        {
          "address": "0x14f2a22c97ae2890e73cb15b1c0e42a8a0821223",
          "topics": [
            "0x2bbaa179fabbdbc2ed8c301faf6fca674ce9b4db55373c36bda89901d2fcfb6c",
            "0x5611645c7b7387fb8499426a4c76a74c7241f751aca035dcabb5e9b0ed7cf68b",
            "0x000000000000000000000000000000000000000000000000000000000000000c"
          ],
          "data": "0x00000000000000000000000000000000000000000000000b99d8ba2ded97ff6000000000000000000000000000000000000000000000000128fc129e315bfff000000000000000000000000000000000000000000000000000000000000000000000000000000000000000000000000000000000000000000000000000000000",
          "blockHash": "0x93b8dd254cfdbeda92f074daf539cfeea7de275569773f10afebc79ad3503577",
          "blockNumber": "0x143e6e0",
          "transactionHash": "0xb7f5dcdbe13d96964a25df65cfddc7285b419fea3870a7c25cee8ec89f775d83",
          "transactionIndex": "0x1d",
          "logIndex": "0x73",
          "removed": false
        },
        {
          "address": "0x14f2a22c97ae2890e73cb15b1c0e42a8a0821223",
          "topics": [
            "0x949314518006833d597b4acd80e6cc367fa5461d9a4f80373e136688b6aad142",
            "0x0000000000000000000000008c9c001f821c04513616fd7962b2d8c62f925fd2",
            "0x5611645c7b7387fb8499426a4c76a74c7241f751aca035dcabb5e9b0ed7cf68b",
            "0x000000000000000000000000000000000000000000000000000000000000000c"
          ],
          "data": "0x000000000000000000000000000000000000000000000000000000000000000000000000000000000000000000000000000000000000000000000000000000000000000000000000000000000000000000000000000000000000000000000000",
          "blockHash": "0x93b8dd254cfdbeda92f074daf539cfeea7de275569773f10afebc79ad3503577",
          "blockNumber": "0x143e6e0",
          "transactionHash": "0xb7f5dcdbe13d96964a25df65cfddc7285b419fea3870a7c25cee8ec89f775d83",
          "transactionIndex": "0x1d",
          "logIndex": "0x74",
          "removed": false
        },
        {
          "address": "0x14f2a22c97ae2890e73cb15b1c0e42a8a0821223",
          "topics": [
            "0xc2ec7dd88a6dab4eecfd7a57fb0879a881a03e12b94dc49c5fec5d5faa8792ce",
            "0x000000000000000000000000000000000000000000000000000000000000000d"
          ],
          "data": "0x00000000000000000000000000000000000000000000000000000000679b2ca000000000000000000000000000000000000000000000000002b2ce3127a8c71c00000000000000000000000000000000000000000000000002b2ce3127a8c71c",
          "blockHash": "0x93b8dd254cfdbeda92f074daf539cfeea7de275569773f10afebc79ad3503577",
          "blockNumber": "0x143e6e0",
          "transactionHash": "0xb7f5dcdbe13d96964a25df65cfddc7285b419fea3870a7c25cee8ec89f775d83",
          "transactionIndex": "0x1d",
          "logIndex": "0x75",
          "removed": false
        },
        {
          "address": "0x14f2a22c97ae2890e73cb15b1c0e42a8a0821223",
          "topics": [
            "0x2bbaa179fabbdbc2ed8c301faf6fca674ce9b4db55373c36bda89901d2fcfb6c",
            "0x5611645c7b7387fb8499426a4c76a74c7241f751aca035dcabb5e9b0ed7cf68b",
            "0x000000000000000000000000000000000000000000000000000000000000000d"
          ],
          "data": "0x00000000000000000000000000000000000000000000000b6255df5f5007fe20000000000000000000000000000000000000000000000001236efcbcbb33ffd000000000000000000000000000000000000000000000000000000000000000000000000000000000000000000000000000000000000000000000000000000000",
          "blockHash": "0x93b8dd254cfdbeda92f074daf539cfeea7de275569773f10afebc79ad3503577",
          "blockNumber": "0x143e6e0",
          "transactionHash": "0xb7f5dcdbe13d96964a25df65cfddc7285b419fea3870a7c25cee8ec89f775d83",
          "transactionIndex": "0x1d",
          "logIndex": "0x76",
          "removed": false
        },
        {
          "address": "0x14f2a22c97ae2890e73cb15b1c0e42a8a0821223",
          "topics": [
            "0x949314518006833d597b4acd80e6cc367fa5461d9a4f80373e136688b6aad142",
            "0x0000000000000000000000008c9c001f821c04513616fd7962b2d8c62f925fd2",
            "0x5611645c7b7387fb8499426a4c76a74c7241f751aca035dcabb5e9b0ed7cf68b",
            "0x000000000000000000000000000000000000000000000000000000000000000d"
          ],
          "data": "0x000000000000000000000000000000000000000000000000000000000000000000000000000000000000000000000000000000000000000000000000000000000000000000000000000000000000000000000000000000000000000000000000",
          "blockHash": "0x93b8dd254cfdbeda92f074daf539cfeea7de275569773f10afebc79ad3503577",
          "blockNumber": "0x143e6e0",
          "transactionHash": "0xb7f5dcdbe13d96964a25df65cfddc7285b419fea3870a7c25cee8ec89f775d83",
          "transactionIndex": "0x1d",
          "logIndex": "0x77",
          "removed": false
        },
        {
          "address": "0x14f2a22c97ae2890e73cb15b1c0e42a8a0821223",
          "topics": [
            "0x4e7bac5695f40fad0768f0f3b8c118c3d4d29e043511b9fa823003fe60027275",
            "0x0000000000000000000000008c9c001f821c04513616fd7962b2d8c62f925fd2",
            "0x5611645c7b7387fb8499426a4c76a74c7241f751aca035dcabb5e9b0ed7cf68b"
          ],
          "data": "0x000000000000000000000000000000000000000000000004e1003b28d9280000",
          "blockHash": "0x93b8dd254cfdbeda92f074daf539cfeea7de275569773f10afebc79ad3503577",
          "blockNumber": "0x143e6e0",
          "transactionHash": "0xb7f5dcdbe13d96964a25df65cfddc7285b419fea3870a7c25cee8ec89f775d83",
          "transactionIndex": "0x1d",
          "logIndex": "0x78",
          "removed": false
        },
        {
          "address": "0x8528c2df4ed0cf397a31b3f0ff0b96719a1be2c6",
          "topics": [
            "0xddf252ad1be2c89b69c2b068fc378daa952ba7f163c4a11628f55a4df523b3ef",
            "0x0000000000000000000000008c9c001f821c04513616fd7962b2d8c62f925fd2",
            "0x00000000000000000000000014f2a22c97ae2890e73cb15b1c0e42a8a0821223"
          ],
          "data": "0x000000000000000000000000000000000000000000000004e1003b28d9280000",
          "blockHash": "0x93b8dd254cfdbeda92f074daf539cfeea7de275569773f10afebc79ad3503577",
          "blockNumber": "0x143e6e0",
          "transactionHash": "0xb7f5dcdbe13d96964a25df65cfddc7285b419fea3870a7c25cee8ec89f775d83",
          "transactionIndex": "0x1d",
          "logIndex": "0x79",
          "removed": false
        }
      ],
      "logsBloom": "0x040000080000000000400040000008000000020000000000000000000000000000000008000002000000000000000400080010000606800000200000002400000000300000004000000000080040000000020000000400000000000000000000080000000200000010000000000008000000000000100000000000180000000000a0000400000004010000000000001000001800000000001000000000000000000000000200000000000100000020001000000042800000002080480000408040000002000000000000000000000000002200008000010000000100000060220000000000000000000000000000000000000000008000040000000000800000",
      "type": "0x2",
      "transactionHash": "0xb7f5dcdbe13d96964a25df65cfddc7285b419fea3870a7c25cee8ec89f775d83",
      "transactionIndex": "0x1d",
      "blockHash": "0x93b8dd254cfdbeda92f074daf539cfeea7de275569773f10afebc79ad3503577",
      "blockNumber": "0x143e6e0",
      "gasUsed": "0x185e53",
      "effectiveGasPrice": "0x136398a",
      "from": "0x8c9c001f821c04513616fd7962b2d8c62f925fd2",
      "to": "0x14f2a22c97ae2890e73cb15b1c0e42a8a0821223",
      "contractAddress": null,
      "l1BaseFeeScalar": "0x44d",
      "l1BlobBaseFee": "0x1",
      "l1BlobBaseFeeScalar": "0xa118b",
      "l1Fee": "0x782bfa87",
      "l1GasPrice": "0x4437a81d",
      "l1GasUsed": "0x640"
    }
  ],
  "libraries": [],
  "pending": [],
  "returns": {},
  "timestamp": 1738222752,
  "chain": 84532,
  "commit": "786270f"
}