{
  "transactions": [
    {
      "hash": "0x2ee0c1ed1ccd957167cd7c16faa20049ad3c8a45d06520234d5aad372e9102c6",
      "transactionType": "CALL",
      "contractName": null,
      "contractAddress": "0xa13a3eeff3b143635f88110360d14e9b1068ce0d",
      "function": "setPool(address)",
      "arguments": [
        "0x14f2a22C97AE2890E73CB15B1C0E42A8a0821223"
      ],
      "transaction": {
        "from": "0x8c9c001f821c04513616fd7962b2d8c62f925fd2",
        "to": "0xa13a3eeff3b143635f88110360d14e9b1068ce0d",
        "gas": "0x10e10",
        "value": "0x0",
        "input": "0x4437152a00000000000000000000000014f2a22c97ae2890e73cb15b1c0e42a8a0821223",
        "nonce": "0x58",
        "chainId": "0x14a34"
      },
      "additionalContracts": [],
      "isFixedGasLimit": false
    },
    {
      "hash": "0x93f3253269ab22c2ca097f9857f427b2c03273b368a16a8e85c9f583628f4c77",
      "transactionType": "CALL",
      "contractName": "StakingPro",
      "contractAddress": "0x14f2a22c97ae2890e73cb15b1c0e42a8a0821223",
      "function": "createVault(uint256[],uint256,uint256,uint256)",
      "arguments": [
        "[0, 1, 2, 3, 4]",
        "1000",
        "1000",
        "1000"
      ],
      "transaction": {
        "from": "0x8c9c001f821c04513616fd7962b2d8c62f925fd2",
        "to": "0x14f2a22c97ae2890e73cb15b1c0e42a8a0821223",
        "gas": "0x9bae4",
        "value": "0x0",
        "input": "0xfc32f603000000000000000000000000000000000000000000000000000000000000008000000000000000000000000000000000000000000000000000000000000003e800000000000000000000000000000000000000000000000000000000000003e800000000000000000000000000000000000000000000000000000000000003e8000000000000000000000000000000000000000000000000000000000000000500000000000000000000000000000000000000000000000000000000000000000000000000000000000000000000000000000000000000000000000000000001000000000000000000000000000000000000000000000000000000000000000200000000000000000000000000000000000000000000000000000000000000030000000000000000000000000000000000000000000000000000000000000004",
        "nonce": "0x59",
        "chainId": "0x14a34"
      },
      "additionalContracts": [],
      "isFixedGasLimit": false
    }
  ],
  "receipts": [
    {
      "status": "0x1",
      "cumulativeGasUsed": "0x1b05ba",
      "logs": [
        {
          "address": "0xa13a3eeff3b143635f88110360d14e9b1068ce0d",
          "topics": [
            "0x380cec482764ddef4f75351b5398e3e2bea99ba23e53a00d5521f569fb668e1f",
            "0x00000000000000000000000014f2a22c97ae2890e73cb15b1c0e42a8a0821223"
          ],
          "data": "0x",
          "blockHash": "0x208b37afad6663c2522cffa6835467d7be8f5ea27451287fad2bb572c7bbc73d",
          "blockNumber": "0x143d237",
          "transactionHash": "0x2ee0c1ed1ccd957167cd7c16faa20049ad3c8a45d06520234d5aad372e9102c6",
          "transactionIndex": "0x16",
          "logIndex": "0x2c",
          "removed": false
        }
      ],
      "logsBloom": "0x00000000040000000000000000000000000000000000000000000000000000000000000000000000000000000000040080000000000000004000000000000000000000000000000000000000000000000000000040000000000000000000000000000800000000000000000000000000000000000000000000000008000000000020000000000000000000000000000000000000000000000000000000000000000000000000000000000000000000000000000000000000000000400000000000000000000000000000000000000000000000000000000000000000000000000000000000000000000000000000000000000000000000000000000000000000",
      "type": "0x2",
      "transactionHash": "0x2ee0c1ed1ccd957167cd7c16faa20049ad3c8a45d06520234d5aad372e9102c6",
      "transactionIndex": "0x16",
      "blockHash": "0x208b37afad6663c2522cffa6835467d7be8f5ea27451287fad2bb572c7bbc73d",
      "blockNumber": "0x143d237",
      "gasUsed": "0xb8a9",
      "effectiveGasPrice": "0x521ef67",
      "from": "0x8c9c001f821c04513616fd7962b2d8c62f925fd2",
      "to": "0xa13a3eeff3b143635f88110360d14e9b1068ce0d",
      "contractAddress": null,
      "l1BaseFeeScalar": "0x44d",
      "l1BlobBaseFee": "0x1",
      "l1BlobBaseFeeScalar": "0xa118b",
      "l1Fee": "0x891cbe2a",
      "l1GasPrice": "0x4dd57d3e",
      "l1GasUsed": "0x640"
    },
    {
      "status": "0x1",
      "cumulativeGasUsed": "0x221117",
      "logs": [
        {
          "address": "0x14f2a22c97ae2890e73cb15b1c0e42a8a0821223",
          "topics": [
            "0x2fad341d46bea6fc5594d7d1c937a627dcc27af717f375d2534980aa12eb8844",
            "0x5611645c7b7387fb8499426a4c76a74c7241f751aca035dcabb5e9b0ed7cf68b",
            "0x0000000000000000000000008c9c001f821c04513616fd7962b2d8c62f925fd2"
          ],
          "data": "0x00000000000000000000000000000000000000000000000000000000000003e800000000000000000000000000000000000000000000000000000000000003e800000000000000000000000000000000000000000000000000000000000003e8",
          "blockHash": "0x208b37afad6663c2522cffa6835467d7be8f5ea27451287fad2bb572c7bbc73d",
          "blockNumber": "0x143d237",
          "transactionHash": "0x93f3253269ab22c2ca097f9857f427b2c03273b368a16a8e85c9f583628f4c77",
          "transactionIndex": "0x17",
          "logIndex": "0x2d",
          "removed": false
        },
        {
          "address": "0xa13a3eeff3b143635f88110360d14e9b1068ce0d",
          "topics": [
            "0xe583c0022affd25a2ca3aa36d63f53acfde953ddeecd6cbb4691fa47163da7d6",
            "0x0000000000000000000000008c9c001f821c04513616fd7962b2d8c62f925fd2",
            "0xbc604aa07137363434b1392ca1ff8457ba3c4a520ec46d6892eb67c35c716ebb",
            "0x5611645c7b7387fb8499426a4c76a74c7241f751aca035dcabb5e9b0ed7cf68b"
          ],
          "data": "0x",
          "blockHash": "0x208b37afad6663c2522cffa6835467d7be8f5ea27451287fad2bb572c7bbc73d",
          "blockNumber": "0x143d237",
          "transactionHash": "0x93f3253269ab22c2ca097f9857f427b2c03273b368a16a8e85c9f583628f4c77",
          "transactionIndex": "0x17",
          "logIndex": "0x2e",
          "removed": false
        }
      ],
      "logsBloom": "0x0000000004000000000000000000080000000800000000000000000000000000000000000000000000000000000004000000000000040000400000000000000000000000000000000000000000400000000000000004000000000000000000000000000000000000000000000000000000000100400000020000000000000000000000000000000000000000000000000000000000000000100000000000000000000000000000800000000080002000100000000000000000008000000000000000000a000000000000000000000000000000000000000000000000000020000000000100000000000000000000000000000000000000000000000000000000",
      "type": "0x2",
      "transactionHash": "0x93f3253269ab22c2ca097f9857f427b2c03273b368a16a8e85c9f583628f4c77",
      "transactionIndex": "0x17",
      "blockHash": "0x208b37afad6663c2522cffa6835467d7be8f5ea27451287fad2bb572c7bbc73d",
      "blockNumber": "0x143d237",
      "gasUsed": "0x70b5d",
      "effectiveGasPrice": "0x521ef67",
      "from": "0x8c9c001f821c04513616fd7962b2d8c62f925fd2",
      "to": "0x14f2a22c97ae2890e73cb15b1c0e42a8a0821223",
      "contractAddress": null,
      "l1BaseFeeScalar": "0x44d",
      "l1BlobBaseFee": "0x1",
      "l1BlobBaseFeeScalar": "0xa118b",
      "l1Fee": "0x891cbe2a",
      "l1GasPrice": "0x4dd57d3e",
      "l1GasUsed": "0x640"
    }
  ],
  "libraries": [],
  "pending": [],
  "returns": {},
  "timestamp": 1738212175,
  "chain": 84532,
  "commit": "5415508"
}