{
  "transactions": [
    {
      "hash": "0x5d31271e3075d90f001393a069f644a4edf31cee514c91737b4eb9cf11af2cb8",
      "transactionType": "CALL",
      "contractName": "StakingPro",
      "contractAddress": "0x14f2a22c97ae2890e73cb15b1c0e42a8a0821223",
      "function": "stakeTokens(bytes32,uint256)",
      "arguments": [
        "0x5611645c7b7387fb8499426a4c76a74c7241f751aca035dcabb5e9b0ed7cf68b",
        "90000000000000000000"
      ],
      "transaction": {
        "from": "0x8c9c001f821c04513616fd7962b2d8c62f925fd2",
        "to": "0x14f2a22c97ae2890e73cb15b1c0e42a8a0821223",
        "gas": "0x177cc3",
        "value": "0x0",
        "input": "0xe6587ea25611645c7b7387fb8499426a4c76a74c7241f751aca035dcabb5e9b0ed7cf68b000000000000000000000000000000000000000000000004e1003b28d9280000",
        "nonce": "0x6b",
        "chainId": "0x14a34"
      },
      "additionalContracts": [],
      "isFixedGasLimit": false
    },
    {
      "hash": "0x552dc95071d8ee5d1046488101fcfa2ee33ba2a533ea5721bffd574fddff1bf0",
      "transactionType": "CALL",
      "contractName": "StakingPro",
      "contractAddress": "0x14f2a22c97ae2890e73cb15b1c0e42a8a0821223",
      "function": "setupDistribution(uint256,uint256,uint256,uint256,uint256,uint32,bytes32)",
      "arguments": [
        "7",
        "1738220526",
        "1745996526",
        "1000000000000000000",
        "1000000000000000000",
        "30184",
        "0x00000000000000000000000058bde6071db4a9b006fdabe75a2eeb43decb779b"
      ],
      "transaction": {
        "from": "0x8c9c001f821c04513616fd7962b2d8c62f925fd2",
        "to": "0x14f2a22c97ae2890e73cb15b1c0e42a8a0821223",
        "gas": "0x63c3c",
        "value": "0x0",
        "input": "0x0b6d6c99000000000000000000000000000000000000000000000000000000000000000700000000000000000000000000000000000000000000000000000000679b23ee000000000000000000000000000000000000000000000000000000006811caee0000000000000000000000000000000000000000000000000de0b6b3a76400000000000000000000000000000000000000000000000000000de0b6b3a764000000000000000000000000000000000000000000000000000000000000000075e800000000000000000000000058bde6071db4a9b006fdabe75a2eeb43decb779b",
        "nonce": "0x6c",
        "chainId": "0x14a34"
      },
      "additionalContracts": [],
      "isFixedGasLimit": false
    },
    {
      "hash": "0xd6f9c74a52f12731f1f1bc766a452d185e42d0e302f1a66777b2839666d079ab",
      "transactionType": "CALL",
      "contractName": "RewardsVaultV1",
      "contractAddress": "0x264541e2dc34875943a746174e862ac594164aa2",
      "function": "deposit(uint256,uint256,address)",
      "arguments": [
        "7",
        "90000000000000000000",
        "0x8C9C001F821c04513616fd7962B2D8c62f925fD2"
      ],
      "transaction": {
        "from": "0x8c9c001f821c04513616fd7962b2d8c62f925fd2",
        "to": "0x264541e2dc34875943a746174e862ac594164aa2",
        "gas": "0x1abcb",
        "value": "0x0",
        "input": "0x8dbdbe6d0000000000000000000000000000000000000000000000000000000000000007000000000000000000000000000000000000000000000004e1003b28d92800000000000000000000000000008c9c001f821c04513616fd7962b2d8c62f925fd2",
        "nonce": "0x6d",
        "chainId": "0x14a34"
      },
      "additionalContracts": [],
      "isFixedGasLimit": false
    }
  ],
  "receipts": [
    {
      "status": "0x1",
      "cumulativeGasUsed": "0x2d4960",
      "logs": [
        {
          "address": "0x14f2a22c97ae2890e73cb15b1c0e42a8a0821223",
          "topics": [
            "0x949314518006833d597b4acd80e6cc367fa5461d9a4f80373e136688b6aad142",
            "0x0000000000000000000000008c9c001f821c04513616fd7962b2d8c62f925fd2",
            "0x5611645c7b7387fb8499426a4c76a74c7241f751aca035dcabb5e9b0ed7cf68b",
            "0x0000000000000000000000000000000000000000000000000000000000000000"
          ],
          "data": "0x000000000000000000000000000000000000000000000000000000000000000000000000000000000000000000000000000000000000000000000000000000000000000000000000000000000000000000000000000000000000000000000000",
          "blockHash": "0xdea2241fb249d368a3bd4c51ec1c5f48e1a76f2bbaec2d814dd2309d9c4aa8f9",
          "blockNumber": "0x143e287",
          "transactionHash": "0x5d31271e3075d90f001393a069f644a4edf31cee514c91737b4eb9cf11af2cb8",
          "transactionIndex": "0x18",
          "logIndex": "0x28",
          "removed": false
        },
        {
          "address": "0x14f2a22c97ae2890e73cb15b1c0e42a8a0821223",
          "topics": [
            "0xc2ec7dd88a6dab4eecfd7a57fb0879a881a03e12b94dc49c5fec5d5faa8792ce",
            "0x0000000000000000000000000000000000000000000000000000000000000001"
          ],
          "data": "0x00000000000000000000000000000000000000000000000000000000679b23ee000000000000000000000000000000000000000000000003419f902f92a18e37000000000000000000000000000000000000000000000003419f902f92a18e37",
          "blockHash": "0xdea2241fb249d368a3bd4c51ec1c5f48e1a76f2bbaec2d814dd2309d9c4aa8f9",
          "blockNumber": "0x143e287",
          "transactionHash": "0x5d31271e3075d90f001393a069f644a4edf31cee514c91737b4eb9cf11af2cb8",
          "transactionIndex": "0x18",
          "logIndex": "0x29",
          "removed": false
        },
        {
          "address": "0x14f2a22c97ae2890e73cb15b1c0e42a8a0821223",
          "topics": [
            "0x2bbaa179fabbdbc2ed8c301faf6fca674ce9b4db55373c36bda89901d2fcfb6c",
            "0x5611645c7b7387fb8499426a4c76a74c7241f751aca035dcabb5e9b0ed7cf68b",
            "0x0000000000000000000000000000000000000000000000000000000000000001"
          ],
          "data": "0x000000000000000000000000000000000000000000000026d07efe782bafffce000000000000000000000000000000000000000000000003e1a64ca59df7fffb00000000000000000000000000000000000000000000000000000000000000000000000000000000000000000000000000000000000000000000000000000000",
          "blockHash": "0xdea2241fb249d368a3bd4c51ec1c5f48e1a76f2bbaec2d814dd2309d9c4aa8f9",
          "blockNumber": "0x143e287",
          "transactionHash": "0x5d31271e3075d90f001393a069f644a4edf31cee514c91737b4eb9cf11af2cb8",
          "transactionIndex": "0x18",
          "logIndex": "0x2a",
          "removed": false
        },
        {
          "address": "0x14f2a22c97ae2890e73cb15b1c0e42a8a0821223",
          "topics": [
            "0x949314518006833d597b4acd80e6cc367fa5461d9a4f80373e136688b6aad142",
            "0x0000000000000000000000008c9c001f821c04513616fd7962b2d8c62f925fd2",
            "0x5611645c7b7387fb8499426a4c76a74c7241f751aca035dcabb5e9b0ed7cf68b",
            "0x0000000000000000000000000000000000000000000000000000000000000001"
          ],
          "data": "0x00000000000000000000000000000000000000000000000000000000000001c200000000000000000000000000000000000000000000000000000000000000000000000000000000000000000000000000000000000000000000000000000000",
          "blockHash": "0xdea2241fb249d368a3bd4c51ec1c5f48e1a76f2bbaec2d814dd2309d9c4aa8f9",
          "blockNumber": "0x143e287",
          "transactionHash": "0x5d31271e3075d90f001393a069f644a4edf31cee514c91737b4eb9cf11af2cb8",
          "transactionIndex": "0x18",
          "logIndex": "0x2b",
          "removed": false
        },
        {
          "address": "0x14f2a22c97ae2890e73cb15b1c0e42a8a0821223",
          "topics": [
            "0xc2ec7dd88a6dab4eecfd7a57fb0879a881a03e12b94dc49c5fec5d5faa8792ce",
            "0x0000000000000000000000000000000000000000000000000000000000000002"
          ],
          "data": "0x00000000000000000000000000000000000000000000000000000000679b23ee00000000000000000000000000000000000000000000000087b98a2eef51fffe00000000000000000000000000000000000000000000000087b98a2eef51fffe",
          "blockHash": "0xdea2241fb249d368a3bd4c51ec1c5f48e1a76f2bbaec2d814dd2309d9c4aa8f9",
          "blockNumber": "0x143e287",
          "transactionHash": "0x5d31271e3075d90f001393a069f644a4edf31cee514c91737b4eb9cf11af2cb8",
          "transactionIndex": "0x18",
          "logIndex": "0x2c",
          "removed": false
        },
        {
          "address": "0x14f2a22c97ae2890e73cb15b1c0e42a8a0821223",
          "topics": [
            "0x2bbaa179fabbdbc2ed8c301faf6fca674ce9b4db55373c36bda89901d2fcfb6c",
            "0x5611645c7b7387fb8499426a4c76a74c7241f751aca035dcabb5e9b0ed7cf68b",
            "0x0000000000000000000000000000000000000000000000000000000000000002"
          ],
          "data": "0x000000000000000000000000000000000000000000000026d07efe782bafffce000000000000000000000000000000000000000000000003e1a64ca59df7fffb00000000000000000000000000000000000000000000000000000000000000000000000000000000000000000000000000000000000000000000000000000000",
          "blockHash": "0xdea2241fb249d368a3bd4c51ec1c5f48e1a76f2bbaec2d814dd2309d9c4aa8f9",
          "blockNumber": "0x143e287",
          "transactionHash": "0x5d31271e3075d90f001393a069f644a4edf31cee514c91737b4eb9cf11af2cb8",
          "transactionIndex": "0x18",
          "logIndex": "0x2d",
          "removed": false
        },
        {
          "address": "0x14f2a22c97ae2890e73cb15b1c0e42a8a0821223",
          "topics": [
            "0x949314518006833d597b4acd80e6cc367fa5461d9a4f80373e136688b6aad142",
            "0x0000000000000000000000008c9c001f821c04513616fd7962b2d8c62f925fd2",
            "0x5611645c7b7387fb8499426a4c76a74c7241f751aca035dcabb5e9b0ed7cf68b",
            "0x0000000000000000000000000000000000000000000000000000000000000002"
          ],
          "data": "0x00000000000000000000000000000000000000000000000000000000000001c200000000000000000000000000000000000000000000000000000000000000000000000000000000000000000000000000000000000000000000000000000000",
          "blockHash": "0xdea2241fb249d368a3bd4c51ec1c5f48e1a76f2bbaec2d814dd2309d9c4aa8f9",
          "blockNumber": "0x143e287",
          "transactionHash": "0x5d31271e3075d90f001393a069f644a4edf31cee514c91737b4eb9cf11af2cb8",
          "transactionIndex": "0x18",
          "logIndex": "0x2e",
          "removed": false
        },
        {
          "address": "0x14f2a22c97ae2890e73cb15b1c0e42a8a0821223",
          "topics": [
            "0xc2ec7dd88a6dab4eecfd7a57fb0879a881a03e12b94dc49c5fec5d5faa8792ce",
            "0x0000000000000000000000000000000000000000000000000000000000000003"
          ],
          "data": "0x00000000000000000000000000000000000000000000000000000000679b23ee0000000000000000000000000000000000000000000000004fe7bc6204151c710000000000000000000000000000000000000000000000004fe7bc6204151c71",
          "blockHash": "0xdea2241fb249d368a3bd4c51ec1c5f48e1a76f2bbaec2d814dd2309d9c4aa8f9",
          "blockNumber": "0x143e287",
          "transactionHash": "0x5d31271e3075d90f001393a069f644a4edf31cee514c91737b4eb9cf11af2cb8",
          "transactionIndex": "0x18",
          "logIndex": "0x2f",
          "removed": false
        },
        {
          "address": "0x14f2a22c97ae2890e73cb15b1c0e42a8a0821223",
          "topics": [
            "0x2bbaa179fabbdbc2ed8c301faf6fca674ce9b4db55373c36bda89901d2fcfb6c",
            "0x5611645c7b7387fb8499426a4c76a74c7241f751aca035dcabb5e9b0ed7cf68b",
            "0x0000000000000000000000000000000000000000000000000000000000000003"
          ],
          "data": "0x000000000000000000000000000000000000000000000026d07efe782bafffce000000000000000000000000000000000000000000000003e1a64ca59df7fffb00000000000000000000000000000000000000000000000000000000000000000000000000000000000000000000000000000000000000000000000000000000",
          "blockHash": "0xdea2241fb249d368a3bd4c51ec1c5f48e1a76f2bbaec2d814dd2309d9c4aa8f9",
          "blockNumber": "0x143e287",
          "transactionHash": "0x5d31271e3075d90f001393a069f644a4edf31cee514c91737b4eb9cf11af2cb8",
          "transactionIndex": "0x18",
          "logIndex": "0x30",
          "removed": false
        },
        {
          "address": "0x14f2a22c97ae2890e73cb15b1c0e42a8a0821223",
          "topics": [
            "0x949314518006833d597b4acd80e6cc367fa5461d9a4f80373e136688b6aad142",
            "0x0000000000000000000000008c9c001f821c04513616fd7962b2d8c62f925fd2",
            "0x5611645c7b7387fb8499426a4c76a74c7241f751aca035dcabb5e9b0ed7cf68b",
            "0x0000000000000000000000000000000000000000000000000000000000000003"
          ],
          "data": "0x00000000000000000000000000000000000000000000000000000000000001c200000000000000000000000000000000000000000000000000000000000000000000000000000000000000000000000000000000000000000000000000000000",
          "blockHash": "0xdea2241fb249d368a3bd4c51ec1c5f48e1a76f2bbaec2d814dd2309d9c4aa8f9",
          "blockNumber": "0x143e287",
          "transactionHash": "0x5d31271e3075d90f001393a069f644a4edf31cee514c91737b4eb9cf11af2cb8",
          "transactionIndex": "0x18",
          "logIndex": "0x31",
          "removed": false
        },
        {
          "address": "0x14f2a22c97ae2890e73cb15b1c0e42a8a0821223",
          "topics": [
            "0xc2ec7dd88a6dab4eecfd7a57fb0879a881a03e12b94dc49c5fec5d5faa8792ce",
            "0x0000000000000000000000000000000000000000000000000000000000000004"
          ],
          "data": "0x00000000000000000000000000000000000000000000000000000000679b23ee0000000000000000000000000000000000000000000000003ed736bfe4b697b30000000000000000000000000000000000000000000000003ed736bfe4b697b3",
          "blockHash": "0xdea2241fb249d368a3bd4c51ec1c5f48e1a76f2bbaec2d814dd2309d9c4aa8f9",
          "blockNumber": "0x143e287",
          "transactionHash": "0x5d31271e3075d90f001393a069f644a4edf31cee514c91737b4eb9cf11af2cb8",
          "transactionIndex": "0x18",
          "logIndex": "0x32",
          "removed": false
        },
        {
          "address": "0x14f2a22c97ae2890e73cb15b1c0e42a8a0821223",
          "topics": [
            "0x2bbaa179fabbdbc2ed8c301faf6fca674ce9b4db55373c36bda89901d2fcfb6c",
            "0x5611645c7b7387fb8499426a4c76a74c7241f751aca035dcabb5e9b0ed7cf68b",
            "0x0000000000000000000000000000000000000000000000000000000000000004"
          ],
          "data": "0x000000000000000000000000000000000000000000000026d07efe782bafffce000000000000000000000000000000000000000000000003e1a64ca59df7fffb00000000000000000000000000000000000000000000000000000000000000000000000000000000000000000000000000000000000000000000000000000000",
          "blockHash": "0xdea2241fb249d368a3bd4c51ec1c5f48e1a76f2bbaec2d814dd2309d9c4aa8f9",
          "blockNumber": "0x143e287",
          "transactionHash": "0x5d31271e3075d90f001393a069f644a4edf31cee514c91737b4eb9cf11af2cb8",
          "transactionIndex": "0x18",
          "logIndex": "0x33",
          "removed": false
        },
        {
          "address": "0x14f2a22c97ae2890e73cb15b1c0e42a8a0821223",
          "topics": [
            "0x949314518006833d597b4acd80e6cc367fa5461d9a4f80373e136688b6aad142",
            "0x0000000000000000000000008c9c001f821c04513616fd7962b2d8c62f925fd2",
            "0x5611645c7b7387fb8499426a4c76a74c7241f751aca035dcabb5e9b0ed7cf68b",
            "0x0000000000000000000000000000000000000000000000000000000000000004"
          ],
          "data": "0x00000000000000000000000000000000000000000000000000000000000001c200000000000000000000000000000000000000000000000000000000000000000000000000000000000000000000000000000000000000000000000000000000",
          "blockHash": "0xdea2241fb249d368a3bd4c51ec1c5f48e1a76f2bbaec2d814dd2309d9c4aa8f9",
          "blockNumber": "0x143e287",
          "transactionHash": "0x5d31271e3075d90f001393a069f644a4edf31cee514c91737b4eb9cf11af2cb8",
          "transactionIndex": "0x18",
          "logIndex": "0x34",
          "removed": false
        },
        {
          "address": "0x14f2a22c97ae2890e73cb15b1c0e42a8a0821223",
          "topics": [
            "0xc2ec7dd88a6dab4eecfd7a57fb0879a881a03e12b94dc49c5fec5d5faa8792ce",
            "0x0000000000000000000000000000000000000000000000000000000000000005"
          ],
          "data": "0x00000000000000000000000000000000000000000000000000000000679b23ee000000000000000000000000000000000000000000000000246be6513bdbc71c000000000000000000000000000000000000000000000000246be6513bdbc71c",
          "blockHash": "0xdea2241fb249d368a3bd4c51ec1c5f48e1a76f2bbaec2d814dd2309d9c4aa8f9",
          "blockNumber": "0x143e287",
          "transactionHash": "0x5d31271e3075d90f001393a069f644a4edf31cee514c91737b4eb9cf11af2cb8",
          "transactionIndex": "0x18",
          "logIndex": "0x35",
          "removed": false
        },
        {
          "address": "0x14f2a22c97ae2890e73cb15b1c0e42a8a0821223",
          "topics": [
            "0x2bbaa179fabbdbc2ed8c301faf6fca674ce9b4db55373c36bda89901d2fcfb6c",
            "0x5611645c7b7387fb8499426a4c76a74c7241f751aca035dcabb5e9b0ed7cf68b",
            "0x0000000000000000000000000000000000000000000000000000000000000005"
          ],
          "data": "0x000000000000000000000000000000000000000000000026d07efe782bafffce000000000000000000000000000000000000000000000003e1a64ca59df7fffb00000000000000000000000000000000000000000000000000000000000000000000000000000000000000000000000000000000000000000000000000000000",
          "blockHash": "0xdea2241fb249d368a3bd4c51ec1c5f48e1a76f2bbaec2d814dd2309d9c4aa8f9",
          "blockNumber": "0x143e287",
          "transactionHash": "0x5d31271e3075d90f001393a069f644a4edf31cee514c91737b4eb9cf11af2cb8",
          "transactionIndex": "0x18",
          "logIndex": "0x36",
          "removed": false
        },
        {
          "address": "0x14f2a22c97ae2890e73cb15b1c0e42a8a0821223",
          "topics": [
            "0x949314518006833d597b4acd80e6cc367fa5461d9a4f80373e136688b6aad142",
            "0x0000000000000000000000008c9c001f821c04513616fd7962b2d8c62f925fd2",
            "0x5611645c7b7387fb8499426a4c76a74c7241f751aca035dcabb5e9b0ed7cf68b",
            "0x0000000000000000000000000000000000000000000000000000000000000005"
          ],
          "data": "0x00000000000000000000000000000000000000000000000000000000000001c200000000000000000000000000000000000000000000000000000000000000000000000000000000000000000000000000000000000000000000000000000000",
          "blockHash": "0xdea2241fb249d368a3bd4c51ec1c5f48e1a76f2bbaec2d814dd2309d9c4aa8f9",
          "blockNumber": "0x143e287",
          "transactionHash": "0x5d31271e3075d90f001393a069f644a4edf31cee514c91737b4eb9cf11af2cb8",
          "transactionIndex": "0x18",
          "logIndex": "0x37",
          "removed": false
        },
        {
          "address": "0x14f2a22c97ae2890e73cb15b1c0e42a8a0821223",
          "topics": [
            "0xc2ec7dd88a6dab4eecfd7a57fb0879a881a03e12b94dc49c5fec5d5faa8792ce",
            "0x0000000000000000000000000000000000000000000000000000000000000006"
          ],
          "data": "0x00000000000000000000000000000000000000000000000000000000679b23ee0000000000000000000000000000000000000000000000001576dd23849aaaaa0000000000000000000000000000000000000000000000001576dd23849aaaaa",
          "blockHash": "0xdea2241fb249d368a3bd4c51ec1c5f48e1a76f2bbaec2d814dd2309d9c4aa8f9",
          "blockNumber": "0x143e287",
          "transactionHash": "0x5d31271e3075d90f001393a069f644a4edf31cee514c91737b4eb9cf11af2cb8",
          "transactionIndex": "0x18",
          "logIndex": "0x38",
          "removed": false
        },
        {
          "address": "0x14f2a22c97ae2890e73cb15b1c0e42a8a0821223",
          "topics": [
            "0x2bbaa179fabbdbc2ed8c301faf6fca674ce9b4db55373c36bda89901d2fcfb6c",
            "0x5611645c7b7387fb8499426a4c76a74c7241f751aca035dcabb5e9b0ed7cf68b",
            "0x0000000000000000000000000000000000000000000000000000000000000006"
          ],
          "data": "0x000000000000000000000000000000000000000000000025baf0b86f17dffed4000000000000000000000000000000000000000000000003c5e4df3e4f2fffe200000000000000000000000000000000000000000000000000000000000000000000000000000000000000000000000000000000000000000000000000000000",
          "blockHash": "0xdea2241fb249d368a3bd4c51ec1c5f48e1a76f2bbaec2d814dd2309d9c4aa8f9",
          "blockNumber": "0x143e287",
          "transactionHash": "0x5d31271e3075d90f001393a069f644a4edf31cee514c91737b4eb9cf11af2cb8",
          "transactionIndex": "0x18",
          "logIndex": "0x39",
          "removed": false
        },
        {
          "address": "0x14f2a22c97ae2890e73cb15b1c0e42a8a0821223",
          "topics": [
            "0x949314518006833d597b4acd80e6cc367fa5461d9a4f80373e136688b6aad142",
            "0x0000000000000000000000008c9c001f821c04513616fd7962b2d8c62f925fd2",
            "0x5611645c7b7387fb8499426a4c76a74c7241f751aca035dcabb5e9b0ed7cf68b",
            "0x0000000000000000000000000000000000000000000000000000000000000006"
          ],
          "data": "0x00000000000000000000000000000000000000000000000000000000000001c200000000000000000000000000000000000000000000000000000000000000000000000000000000000000000000000000000000000000000000000000000000",
          "blockHash": "0xdea2241fb249d368a3bd4c51ec1c5f48e1a76f2bbaec2d814dd2309d9c4aa8f9",
          "blockNumber": "0x143e287",
          "transactionHash": "0x5d31271e3075d90f001393a069f644a4edf31cee514c91737b4eb9cf11af2cb8",
          "transactionIndex": "0x18",
          "logIndex": "0x3a",
          "removed": false
        },
        {
          "address": "0x14f2a22c97ae2890e73cb15b1c0e42a8a0821223",
          "topics": [
            "0x4e7bac5695f40fad0768f0f3b8c118c3d4d29e043511b9fa823003fe60027275",
            "0x0000000000000000000000008c9c001f821c04513616fd7962b2d8c62f925fd2",
            "0x5611645c7b7387fb8499426a4c76a74c7241f751aca035dcabb5e9b0ed7cf68b"
          ],
          "data": "0x000000000000000000000000000000000000000000000004e1003b28d9280000",
          "blockHash": "0xdea2241fb249d368a3bd4c51ec1c5f48e1a76f2bbaec2d814dd2309d9c4aa8f9",
          "blockNumber": "0x143e287",
          "transactionHash": "0x5d31271e3075d90f001393a069f644a4edf31cee514c91737b4eb9cf11af2cb8",
          "transactionIndex": "0x18",
          "logIndex": "0x3b",
          "removed": false
        },
        {
          "address": "0x8528c2df4ed0cf397a31b3f0ff0b96719a1be2c6",
          "topics": [
            "0xddf252ad1be2c89b69c2b068fc378daa952ba7f163c4a11628f55a4df523b3ef",
            "0x0000000000000000000000008c9c001f821c04513616fd7962b2d8c62f925fd2",
            "0x00000000000000000000000014f2a22c97ae2890e73cb15b1c0e42a8a0821223"
          ],
          "data": "0x000000000000000000000000000000000000000000000004e1003b28d9280000",
          "blockHash": "0xdea2241fb249d368a3bd4c51ec1c5f48e1a76f2bbaec2d814dd2309d9c4aa8f9",
          "blockNumber": "0x143e287",
          "transactionHash": "0x5d31271e3075d90f001393a069f644a4edf31cee514c91737b4eb9cf11af2cb8",
          "transactionIndex": "0x18",
          "logIndex": "0x3c",
          "removed": false
        }
      ],
      "logsBloom": "0x04000008000000000000000000000800000000000000000000000000000000000000000800000000000000000000040008000000020600000000000000040000000010000000400000000008004000000000000000040000000000000000000008000000020000001000000000000800000000000010000000000018000000000020000400000004000000000000001000000800000000001000000000000000000000000200000000000100000020001000000042800000002080480000408000000002000000000000000000000000000200008000010000000000000060000000000000000000000000000000000000000000008000000000000000000000",
      "type": "0x2",
      "transactionHash": "0x5d31271e3075d90f001393a069f644a4edf31cee514c91737b4eb9cf11af2cb8",
      "transactionIndex": "0x18",
      "blockHash": "0xdea2241fb249d368a3bd4c51ec1c5f48e1a76f2bbaec2d814dd2309d9c4aa8f9",
      "blockNumber": "0x143e287",
      "gasUsed": "0x100f4b",
      "effectiveGasPrice": "0x1382c7d",
      "from": "0x8c9c001f821c04513616fd7962b2d8c62f925fd2",
      "to": "0x14f2a22c97ae2890e73cb15b1c0e42a8a0821223",
      "contractAddress": null,
      "l1BaseFeeScalar": "0x44d",
      "l1BlobBaseFee": "0x1",
      "l1BlobBaseFeeScalar": "0xa118b",
      "l1Fee": "0x7ca6b7ca",
      "l1GasPrice": "0x46c29f0f",
      "l1GasUsed": "0x640"
    },
    {
      "status": "0x1",
      "cumulativeGasUsed": "0x318cd2",
      "logs": [
        {
          "address": "0x14f2a22c97ae2890e73cb15b1c0e42a8a0821223",
          "topics": [
            "0x764e98ff8f133fd79086bf24b413507d9b7e83977b31f35a16b80680f38f7072",
            "0x0000000000000000000000000000000000000000000000000000000000000007"
          ],
          "data": "0x00000000000000000000000000000000000000000000000000000000679b23ee000000000000000000000000000000000000000000000000000000006811caee0000000000000000000000000000000000000000000000000de0b6b3a76400000000000000000000000000000000000000000000000000000de0b6b3a7640000",
          "blockHash": "0xdea2241fb249d368a3bd4c51ec1c5f48e1a76f2bbaec2d814dd2309d9c4aa8f9",
          "blockNumber": "0x143e287",
          "transactionHash": "0x552dc95071d8ee5d1046488101fcfa2ee33ba2a533ea5721bffd574fddff1bf0",
          "transactionIndex": "0x19",
          "logIndex": "0x3d",
          "removed": false
        },
        {
          "address": "0x264541e2dc34875943a746174e862ac594164aa2",
          "topics": [
            "0x554c94cb64d410104e2b06cc56052e30bc29a1307df890d30eb124045d4ae680",
            "0x0000000000000000000000000000000000000000000000000000000000000007"
          ],
          "data": "0x00000000000000000000000000000000000000000000000000000000000075e800000000000000000000000058bde6071db4a9b006fdabe75a2eeb43decb779b",
          "blockHash": "0xdea2241fb249d368a3bd4c51ec1c5f48e1a76f2bbaec2d814dd2309d9c4aa8f9",
          "blockNumber": "0x143e287",
          "transactionHash": "0x552dc95071d8ee5d1046488101fcfa2ee33ba2a533ea5721bffd574fddff1bf0",
          "transactionIndex": "0x19",
          "logIndex": "0x3e",
          "removed": false
        }
      ],
      "logsBloom": "0x00000000000000000000000000000000000000000000000000000000000000000000000800000000100000000000000000001000000400000000000000000000000020000000000000000002000000000000000000400000000000000000000000000000000000000000000000000000000000000000020000000000000000000000000000000000000000000000000000000000000000000000000000000000000000200000000000000000000020000000000000000000000000000000000000000000000000020000000000000000000000000000000000000100000020000000000000000000000000000000000000000020000000000000001000000000",
      "type": "0x2",
      "transactionHash": "0x552dc95071d8ee5d1046488101fcfa2ee33ba2a533ea5721bffd574fddff1bf0",
      "transactionIndex": "0x19",
      "blockHash": "0xdea2241fb249d368a3bd4c51ec1c5f48e1a76f2bbaec2d814dd2309d9c4aa8f9",
      "blockNumber": "0x143e287",
      "gasUsed": "0x44372",
      "effectiveGasPrice": "0x1382c7d",
      "from": "0x8c9c001f821c04513616fd7962b2d8c62f925fd2",
      "to": "0x14f2a22c97ae2890e73cb15b1c0e42a8a0821223",
      "contractAddress": null,
      "l1BaseFeeScalar": "0x44d",
      "l1BlobBaseFee": "0x1",
      "l1BlobBaseFeeScalar": "0xa118b",
      "l1Fee": "0x8ffcfee5",
      "l1GasPrice": "0x46c29f0f",
      "l1GasUsed": "0x738"
    },
    {
      "status": "0x1",
      "cumulativeGasUsed": "0x32c28a",
      "logs": [
        {
          "address": "0x58bde6071db4a9b006fdabe75a2eeb43decb779b",
          "topics": [
            "0xddf252ad1be2c89b69c2b068fc378daa952ba7f163c4a11628f55a4df523b3ef",
            "0x0000000000000000000000008c9c001f821c04513616fd7962b2d8c62f925fd2",
            "0x000000000000000000000000264541e2dc34875943a746174e862ac594164aa2"
          ],
          "data": "0x000000000000000000000000000000000000000000000004e1003b28d9280000",
          "blockHash": "0xdea2241fb249d368a3bd4c51ec1c5f48e1a76f2bbaec2d814dd2309d9c4aa8f9",
          "blockNumber": "0x143e287",
          "transactionHash": "0xd6f9c74a52f12731f1f1bc766a452d185e42d0e302f1a66777b2839666d079ab",
          "transactionIndex": "0x1a",
          "logIndex": "0x3f",
          "removed": false
        },
        {
          "address": "0x264541e2dc34875943a746174e862ac594164aa2",
          "topics": [
            "0x90e9c021de092ced915ba783260374f129aeeedec753ab3fb564631601ff9589",
            "0x0000000000000000000000000000000000000000000000000000000000000007",
            "0x0000000000000000000000008c9c001f821c04513616fd7962b2d8c62f925fd2"
          ],
          "data": "0x00000000000000000000000000000000000000000000000000000000000075e8000000000000000000000000000000000000000000000004e1003b28d9280000",
          "blockHash": "0xdea2241fb249d368a3bd4c51ec1c5f48e1a76f2bbaec2d814dd2309d9c4aa8f9",
          "blockNumber": "0x143e287",
          "transactionHash": "0xd6f9c74a52f12731f1f1bc766a452d185e42d0e302f1a66777b2839666d079ab",
          "transactionIndex": "0x1a",
          "logIndex": "0x40",
          "removed": false
        }
      ],
      "logsBloom": "0x00000000000000000000000000001800000000000000000000000000000000000000000000000000000000000000000000001000000000000000000000000000000020200000000000000008004000000000000000400000000000000000000000000000000000000000000000000000000000000000000000000010020000000000000000000000000000000000000000000000000000000000000000400020000000000000000000000000000000000000000000000000000080000000000000000002000000000000000000000000000000000000100000000100000000000000000000000000000000008000000800000020008000000000001000000000",
      "type": "0x2",
      "transactionHash": "0xd6f9c74a52f12731f1f1bc766a452d185e42d0e302f1a66777b2839666d079ab",
      "transactionIndex": "0x1a",
      "blockHash": "0xdea2241fb249d368a3bd4c51ec1c5f48e1a76f2bbaec2d814dd2309d9c4aa8f9",
      "blockNumber": "0x143e287",
      "gasUsed": "0x135b8",
      "effectiveGasPrice": "0x1382c7d",
      "from": "0x8c9c001f821c04513616fd7962b2d8c62f925fd2",
      "to": "0x264541e2dc34875943a746174e862ac594164aa2",
      "contractAddress": null,
      "l1BaseFeeScalar": "0x44d",
      "l1BlobBaseFee": "0x1",
      "l1BlobBaseFeeScalar": "0xa118b",
      "l1Fee": "0x7ca6b7ca",
      "l1GasPrice": "0x46c29f0f",
      "l1GasUsed": "0x640"
    }
  ],
  "libraries": [],
  "pending": [],
  "returns": {},
  "timestamp": 1738220527,
  "chain": 84532,
  "commit": "5415508"
}