{
  "transactions": [
    {
      "hash": "0x81a67354af4f15b6ca8e1ea049f55eacc45c6b92beb84f8b6e4c6f2e38339ba7",
      "transactionType": "CALL",
      "contractName": "StakingPro",
      "contractAddress": "0x14f2a22c97ae2890e73cb15b1c0e42a8a0821223",
      "function": "setupDistribution(uint256,uint256,uint256,uint256,uint256,uint32,bytes32)",
      "arguments": [
        "1",
        "1738213800",
        "1745989800",
        "1000000000000000000",
        "1000000000000000000",
        "30184",
        "0x00000000000000000000000058bde6071db4a9b006fdabe75a2eeb43decb779b"
      ],
      "transaction": {
        "from": "0x8c9c001f821c04513616fd7962b2d8c62f925fd2",
        "to": "0x14f2a22c97ae2890e73cb15b1c0e42a8a0821223",
        "gas": "0x63c3c",
        "value": "0x0",
        "input": "0x0b6d6c99000000000000000000000000000000000000000000000000000000000000000100000000000000000000000000000000000000000000000000000000679b09a8000000000000000000000000000000000000000000000000000000006811b0a80000000000000000000000000000000000000000000000000de0b6b3a76400000000000000000000000000000000000000000000000000000de0b6b3a764000000000000000000000000000000000000000000000000000000000000000075e800000000000000000000000058bde6071db4a9b006fdabe75a2eeb43decb779b",
        "nonce": "0x5a",
        "chainId": "0x14a34"
      },
      "additionalContracts": [],
      "isFixedGasLimit": false
    },
    {
      "hash": "0x222d132533d0933d63d0f91bc721e2d31301be48132d66fa467d1b640a96932a",
      "transactionType": "CALL",
      "contractName": "RewardsVaultV1",
      "contractAddress": "0x264541e2dc34875943a746174e862ac594164aa2",
      "function": "deposit(uint256,uint256,address)",
      "arguments": [
        "1",
        "90000000000000000000",
        "0x8C9C001F821c04513616fd7962B2D8c62f925fD2"
      ],
      "transaction": {
        "from": "0x8c9c001f821c04513616fd7962b2d8c62f925fd2",
        "to": "0x264541e2dc34875943a746174e862ac594164aa2",
        "gas": "0x2080f",
        "value": "0x0",
        "input": "0x8dbdbe6d0000000000000000000000000000000000000000000000000000000000000001000000000000000000000000000000000000000000000004e1003b28d92800000000000000000000000000008c9c001f821c04513616fd7962b2d8c62f925fd2",
        "nonce": "0x5b",
        "chainId": "0x14a34"
      },
      "additionalContracts": [],
      "isFixedGasLimit": false
    },
    {
      "hash": "0xe545d7caec13edcc86c79bf55978ddfa6717e026bfb7cd01894f9ab492aa62be",
      "transactionType": "CALL",
      "contractName": "StakingPro",
      "contractAddress": "0x14f2a22c97ae2890e73cb15b1c0e42a8a0821223",
      "function": "stakeTokens(bytes32,uint256)",
      "arguments": [
        "0x5611645c7b7387fb8499426a4c76a74c7241f751aca035dcabb5e9b0ed7cf68b",
        "90000000000000000000"
      ],
      "transaction": {
        "from": "0x8c9c001f821c04513616fd7962b2d8c62f925fd2",
        "to": "0x14f2a22c97ae2890e73cb15b1c0e42a8a0821223",
        "gas": "0x83677",
        "value": "0x0",
        "input": "0xe6587ea25611645c7b7387fb8499426a4c76a74c7241f751aca035dcabb5e9b0ed7cf68b000000000000000000000000000000000000000000000004e1003b28d9280000",
        "nonce": "0x5c",
        "chainId": "0x14a34"
      },
      "additionalContracts": [],
      "isFixedGasLimit": false
    }
  ],
  "receipts": [
    {
      "status": "0x1",
      "cumulativeGasUsed": "0x7c8795",
      "logs": [
        {
          "address": "0x14f2a22c97ae2890e73cb15b1c0e42a8a0821223",
          "topics": [
            "0x764e98ff8f133fd79086bf24b413507d9b7e83977b31f35a16b80680f38f7072",
            "0x0000000000000000000000000000000000000000000000000000000000000001"
          ],
          "data": "0x00000000000000000000000000000000000000000000000000000000679b09a8000000000000000000000000000000000000000000000000000000006811b0a80000000000000000000000000000000000000000000000000de0b6b3a76400000000000000000000000000000000000000000000000000000de0b6b3a7640000",
          "blockHash": "0xaede0e318fe88898fce66034a8591680cabafa4080cf602919e6f273f0a679c3",
          "blockNumber": "0x143d561",
          "transactionHash": "0x81a67354af4f15b6ca8e1ea049f55eacc45c6b92beb84f8b6e4c6f2e38339ba7",
          "transactionIndex": "0x38",
          "logIndex": "0xa0",
          "removed": false
        },
        {
          "address": "0x264541e2dc34875943a746174e862ac594164aa2",
          "topics": [
            "0x554c94cb64d410104e2b06cc56052e30bc29a1307df890d30eb124045d4ae680",
            "0x0000000000000000000000000000000000000000000000000000000000000001"
          ],
          "data": "0x00000000000000000000000000000000000000000000000000000000000075e800000000000000000000000058bde6071db4a9b006fdabe75a2eeb43decb779b",
          "blockHash": "0xaede0e318fe88898fce66034a8591680cabafa4080cf602919e6f273f0a679c3",
          "blockNumber": "0x143d561",
          "transactionHash": "0x81a67354af4f15b6ca8e1ea049f55eacc45c6b92beb84f8b6e4c6f2e38339ba7",
          "transactionIndex": "0x38",
          "logIndex": "0xa1",
          "removed": false
        }
      ],
      "logsBloom": "0x00000000000000000000000000000000000000000000000000000000000000000000000800000000100000000000000000000000000400000000000000040000000000000000000000000002000000000000000000440000000000000000000000000000000000000000000000000000000000000000020000000000000000000000000000000000000000000000000000000000000000000000000000000000000000200000000000000000000020000000000000000000000000000000000000000000000000020000000000000000000000000000000000000000000060000000000000000000000000000000000000000020000000000000001000000000",
      "type": "0x2",
      "transactionHash": "0x81a67354af4f15b6ca8e1ea049f55eacc45c6b92beb84f8b6e4c6f2e38339ba7",
      "transactionIndex": "0x38",
      "blockHash": "0xaede0e318fe88898fce66034a8591680cabafa4080cf602919e6f273f0a679c3",
      "blockNumber": "0x143d561",
      "gasUsed": "0x44372",
      "effectiveGasPrice": "0x328dc49",
      "from": "0x8c9c001f821c04513616fd7962b2d8c62f925fd2",
      "to": "0x14f2a22c97ae2890e73cb15b1c0e42a8a0821223",
      "contractAddress": null,
      "l1BaseFeeScalar": "0x44d",
      "l1BlobBaseFee": "0x1",
      "l1BlobBaseFeeScalar": "0xa118b",
      "l1Fee": "0xf5712cdc",
      "l1GasPrice": "0x789e2544",
      "l1GasUsed": "0x738"
    },
    {
      "status": "0x1",
      "cumulativeGasUsed": "0x7e0019",
      "logs": [
        {
          "address": "0x58bde6071db4a9b006fdabe75a2eeb43decb779b",
          "topics": [
            "0xddf252ad1be2c89b69c2b068fc378daa952ba7f163c4a11628f55a4df523b3ef",
            "0x0000000000000000000000008c9c001f821c04513616fd7962b2d8c62f925fd2",
            "0x000000000000000000000000264541e2dc34875943a746174e862ac594164aa2"
          ],
          "data": "0x000000000000000000000000000000000000000000000004e1003b28d9280000",
          "blockHash": "0xaede0e318fe88898fce66034a8591680cabafa4080cf602919e6f273f0a679c3",
          "blockNumber": "0x143d561",
          "transactionHash": "0x222d132533d0933d63d0f91bc721e2d31301be48132d66fa467d1b640a96932a",
          "transactionIndex": "0x39",
          "logIndex": "0xa2",
          "removed": false
        },
        {
          "address": "0x264541e2dc34875943a746174e862ac594164aa2",
          "topics": [
            "0x90e9c021de092ced915ba783260374f129aeeedec753ab3fb564631601ff9589",
            "0x0000000000000000000000000000000000000000000000000000000000000001",
            "0x0000000000000000000000008c9c001f821c04513616fd7962b2d8c62f925fd2"
          ],
          "data": "0x00000000000000000000000000000000000000000000000000000000000075e8000000000000000000000000000000000000000000000004e1003b28d9280000",
          "blockHash": "0xaede0e318fe88898fce66034a8591680cabafa4080cf602919e6f273f0a679c3",
          "blockNumber": "0x143d561",
          "transactionHash": "0x222d132533d0933d63d0f91bc721e2d31301be48132d66fa467d1b640a96932a",
          "transactionIndex": "0x39",
          "logIndex": "0xa3",
          "removed": false
        }
      ],
      "logsBloom": "0x00000000000000000000000000001800000000000000000000000000000000000000000000000000000000000000000000000000000000000000000000040000000000200000000000000008004000000000000000440000000000000000000000000000000000000000000000000000000000000000000000000010020000000000000000000000000000000000000000000000000000000000000000400020000000000000000000000000000000000000000000000000000080000000000000000002000000000000000000000000000000000000100000000000000040000000000000000000000000008000000800000020008000000000001000000000",
      "type": "0x2",
      "transactionHash": "0x222d132533d0933d63d0f91bc721e2d31301be48132d66fa467d1b640a96932a",
      "transactionIndex": "0x39",
      "blockHash": "0xaede0e318fe88898fce66034a8591680cabafa4080cf602919e6f273f0a679c3",
      "blockNumber": "0x143d561",
      "gasUsed": "0x17884",
      "effectiveGasPrice": "0x328dc49",
      "from": "0x8c9c001f821c04513616fd7962b2d8c62f925fd2",
      "to": "0x264541e2dc34875943a746174e862ac594164aa2",
      "contractAddress": null,
      "l1BaseFeeScalar": "0x44d",
      "l1BlobBaseFee": "0x1",
      "l1BlobBaseFeeScalar": "0xa118b",
      "l1Fee": "0xd47af136",
      "l1GasPrice": "0x789e2544",
      "l1GasUsed": "0x640"
    },
    {
      "status": "0x1",
      "cumulativeGasUsed": "0x83f23f",
      "logs": [
        {
          "address": "0x14f2a22c97ae2890e73cb15b1c0e42a8a0821223",
          "topics": [
            "0x949314518006833d597b4acd80e6cc367fa5461d9a4f80373e136688b6aad142",
            "0x0000000000000000000000008c9c001f821c04513616fd7962b2d8c62f925fd2",
            "0x5611645c7b7387fb8499426a4c76a74c7241f751aca035dcabb5e9b0ed7cf68b",
            "0x0000000000000000000000000000000000000000000000000000000000000000"
          ],
          "data": "0x000000000000000000000000000000000000000000000000000000000000000000000000000000000000000000000000000000000000000000000000000000000000000000000000000000000000000000000000000000000000000000000000",
          "blockHash": "0xaede0e318fe88898fce66034a8591680cabafa4080cf602919e6f273f0a679c3",
          "blockNumber": "0x143d561",
          "transactionHash": "0xe545d7caec13edcc86c79bf55978ddfa6717e026bfb7cd01894f9ab492aa62be",
          "transactionIndex": "0x3a",
          "logIndex": "0xa4",
          "removed": false
        },
        {
          "address": "0x14f2a22c97ae2890e73cb15b1c0e42a8a0821223",
          "topics": [
            "0x949314518006833d597b4acd80e6cc367fa5461d9a4f80373e136688b6aad142",
            "0x0000000000000000000000008c9c001f821c04513616fd7962b2d8c62f925fd2",
            "0x5611645c7b7387fb8499426a4c76a74c7241f751aca035dcabb5e9b0ed7cf68b",
            "0x0000000000000000000000000000000000000000000000000000000000000001"
          ],
          "data": "0x000000000000000000000000000000000000000000000000000000000000000000000000000000000000000000000000000000000000000000000000000000000000000000000000000000000000000000000000000000000000000000000000",
          "blockHash": "0xaede0e318fe88898fce66034a8591680cabafa4080cf602919e6f273f0a679c3",
          "blockNumber": "0x143d561",
          "transactionHash": "0xe545d7caec13edcc86c79bf55978ddfa6717e026bfb7cd01894f9ab492aa62be",
          "transactionIndex": "0x3a",
          "logIndex": "0xa5",
          "removed": false
        },
        {
          "address": "0x14f2a22c97ae2890e73cb15b1c0e42a8a0821223",
          "topics": [
            "0x4e7bac5695f40fad0768f0f3b8c118c3d4d29e043511b9fa823003fe60027275",
            "0x0000000000000000000000008c9c001f821c04513616fd7962b2d8c62f925fd2",
            "0x5611645c7b7387fb8499426a4c76a74c7241f751aca035dcabb5e9b0ed7cf68b"
          ],
          "data": "0x000000000000000000000000000000000000000000000004e1003b28d9280000",
          "blockHash": "0xaede0e318fe88898fce66034a8591680cabafa4080cf602919e6f273f0a679c3",
          "blockNumber": "0x143d561",
          "transactionHash": "0xe545d7caec13edcc86c79bf55978ddfa6717e026bfb7cd01894f9ab492aa62be",
          "transactionIndex": "0x3a",
          "logIndex": "0xa6",
          "removed": false
        },
        {
          "address": "0x8528c2df4ed0cf397a31b3f0ff0b96719a1be2c6",
          "topics": [
            "0xddf252ad1be2c89b69c2b068fc378daa952ba7f163c4a11628f55a4df523b3ef",
            "0x0000000000000000000000008c9c001f821c04513616fd7962b2d8c62f925fd2",
            "0x00000000000000000000000014f2a22c97ae2890e73cb15b1c0e42a8a0821223"
          ],
          "data": "0x000000000000000000000000000000000000000000000004e1003b28d9280000",
          "blockHash": "0xaede0e318fe88898fce66034a8591680cabafa4080cf602919e6f273f0a679c3",
          "blockNumber": "0x143d561",
          "transactionHash": "0xe545d7caec13edcc86c79bf55978ddfa6717e026bfb7cd01894f9ab492aa62be",
          "transactionIndex": "0x3a",
          "logIndex": "0xa7",
          "removed": false
        }
      ],
      "logsBloom": "0x00000008000000000000000000000800000000000000000000000000000000000000000800000000000000000000000008000000000400000000000000040000000000000000000000000008004000000000000000040000000000000000000000000000020000001000000000000800000000000000000000000018000000000020000000000004000000000000000000000000000000001000000000000000000000000200000000000000000020001000000002000000000080400000008000000002000000000000000000000000000000000000010000000000000060000000000000000000000000000000000000000000000000000000000000000000",
      "type": "0x2",
      "transactionHash": "0xe545d7caec13edcc86c79bf55978ddfa6717e026bfb7cd01894f9ab492aa62be",
      "transactionIndex": "0x3a",
      "blockHash": "0xaede0e318fe88898fce66034a8591680cabafa4080cf602919e6f273f0a679c3",
      "blockNumber": "0x143d561",
      "gasUsed": "0x5f226",
      "effectiveGasPrice": "0x328dc49",
      "from": "0x8c9c001f821c04513616fd7962b2d8c62f925fd2",
      "to": "0x14f2a22c97ae2890e73cb15b1c0e42a8a0821223",
      "contractAddress": null,
      "l1BaseFeeScalar": "0x44d",
      "l1BlobBaseFee": "0x1",
      "l1BlobBaseFeeScalar": "0xa118b",
      "l1Fee": "0xd47af136",
      "l1GasPrice": "0x789e2544",
      "l1GasUsed": "0x640"
    }
  ],
  "libraries": [],
  "pending": [],
  "returns": {},
  "timestamp": 1738213793,
  "chain": 84532,
  "commit": "5415508"
}