{
  "transactions": [
    {
      "hash": "0xa6b4ca3b1efabb9fc2d5c80c7ab5c21e602782d6a74429a03e38a634cc844823",
      "transactionType": "CALL",
      "contractName": "StakingPro",
      "contractAddress": "0x14f2a22c97ae2890e73cb15b1c0e42a8a0821223",
      "function": "stakeTokens(bytes32,uint256)",
      "arguments": [
        "0x5611645c7b7387fb8499426a4c76a74c7241f751aca035dcabb5e9b0ed7cf68b",
        "90000000000000000000"
      ],
      "transaction": {
        "from": "0x8c9c001f821c04513616fd7962b2d8c62f925fd2",
        "to": "0x14f2a22c97ae2890e73cb15b1c0e42a8a0821223",
        "gas": "0xe36ed",
        "value": "0x0",
        "input": "0xe6587ea25611645c7b7387fb8499426a4c76a74c7241f751aca035dcabb5e9b0ed7cf68b000000000000000000000000000000000000000000000004e1003b28d9280000",
        "nonce": "0x62",
        "chainId": "0x14a34"
      },
      "additionalContracts": [],
      "isFixedGasLimit": false
    },
    {
      "hash": "0x434a8f80f2f30d59f450f37893c65715831554189ee68facc392cc7cc3f521db",
      "transactionType": "CALL",
      "contractName": "StakingPro",
      "contractAddress": "0x14f2a22c97ae2890e73cb15b1c0e42a8a0821223",
      "function": "setupDistribution(uint256,uint256,uint256,uint256,uint256,uint32,bytes32)",
      "arguments": [
        "4",
        "1738218924",
        "1745994924",
        "1000000000000000000",
        "1000000000000000000",
        "30184",
        "0x00000000000000000000000058bde6071db4a9b006fdabe75a2eeb43decb779b"
      ],
      "transaction": {
        "from": "0x8c9c001f821c04513616fd7962b2d8c62f925fd2",
        "to": "0x14f2a22c97ae2890e73cb15b1c0e42a8a0821223",
        "gas": "0x63c3c",
        "value": "0x0",
        "input": "0x0b6d6c99000000000000000000000000000000000000000000000000000000000000000400000000000000000000000000000000000000000000000000000000679b1dac000000000000000000000000000000000000000000000000000000006811c4ac0000000000000000000000000000000000000000000000000de0b6b3a76400000000000000000000000000000000000000000000000000000de0b6b3a764000000000000000000000000000000000000000000000000000000000000000075e800000000000000000000000058bde6071db4a9b006fdabe75a2eeb43decb779b",
        "nonce": "0x63",
        "chainId": "0x14a34"
      },
      "additionalContracts": [],
      "isFixedGasLimit": false
    },
    {
      "hash": "0xaa125ecd5c77045cdbabcecab94a74e872b1f6a132e013c2d732cd7b7e70d7bf",
      "transactionType": "CALL",
      "contractName": "RewardsVaultV1",
      "contractAddress": "0x264541e2dc34875943a746174e862ac594164aa2",
      "function": "deposit(uint256,uint256,address)",
      "arguments": [
        "4",
        "90000000000000000000",
        "0x8C9C001F821c04513616fd7962B2D8c62f925fD2"
      ],
      "transaction": {
        "from": "0x8c9c001f821c04513616fd7962b2d8c62f925fd2",
        "to": "0x264541e2dc34875943a746174e862ac594164aa2",
        "gas": "0x1abcb",
        "value": "0x0",
        "input": "0x8dbdbe6d0000000000000000000000000000000000000000000000000000000000000004000000000000000000000000000000000000000000000004e1003b28d92800000000000000000000000000008c9c001f821c04513616fd7962b2d8c62f925fd2",
        "nonce": "0x64",
        "chainId": "0x14a34"
      },
      "additionalContracts": [],
      "isFixedGasLimit": false
    }
  ],
  "receipts": [
    {
      "status": "0x1",
      "cumulativeGasUsed": "0x2cbc33",
      "logs": [
        {
          "address": "0x14f2a22c97ae2890e73cb15b1c0e42a8a0821223",
          "topics": [
            "0x949314518006833d597b4acd80e6cc367fa5461d9a4f80373e136688b6aad142",
            "0x0000000000000000000000008c9c001f821c04513616fd7962b2d8c62f925fd2",
            "0x5611645c7b7387fb8499426a4c76a74c7241f751aca035dcabb5e9b0ed7cf68b",
            "0x0000000000000000000000000000000000000000000000000000000000000000"
          ],
          "data": "0x000000000000000000000000000000000000000000000000000000000000000000000000000000000000000000000000000000000000000000000000000000000000000000000000000000000000000000000000000000000000000000000000",
          "blockHash": "0xb68c7b5c191e6d4975c90f8be748a468a3aebbda913e17a7bea1e51995f2b649",
          "blockNumber": "0x143df62",
          "transactionHash": "0xa6b4ca3b1efabb9fc2d5c80c7ab5c21e602782d6a74429a03e38a634cc844823",
          "transactionIndex": "0x1a",
          "logIndex": "0x3a",
          "removed": false
        },
        {
          "address": "0x14f2a22c97ae2890e73cb15b1c0e42a8a0821223",
          "topics": [
            "0xc2ec7dd88a6dab4eecfd7a57fb0879a881a03e12b94dc49c5fec5d5faa8792ce",
            "0x0000000000000000000000000000000000000000000000000000000000000001"
          ],
          "data": "0x00000000000000000000000000000000000000000000000000000000679b1da4000000000000000000000000000000000000000000000003025f1571f10471c6000000000000000000000000000000000000000000000003025f1571f10471c6",
          "blockHash": "0xb68c7b5c191e6d4975c90f8be748a468a3aebbda913e17a7bea1e51995f2b649",
          "blockNumber": "0x143df62",
          "transactionHash": "0xa6b4ca3b1efabb9fc2d5c80c7ab5c21e602782d6a74429a03e38a634cc844823",
          "transactionIndex": "0x1a",
          "logIndex": "0x3b",
          "removed": false
        },
        {
          "address": "0x14f2a22c97ae2890e73cb15b1c0e42a8a0821223",
          "topics": [
            "0x2bbaa179fabbdbc2ed8c301faf6fca674ce9b4db55373c36bda89901d2fcfb6c",
            "0x5611645c7b7387fb8499426a4c76a74c7241f751aca035dcabb5e9b0ed7cf68b",
            "0x0000000000000000000000000000000000000000000000000000000000000001"
          ],
          "data": "0x00000000000000000000000000000000000000000000000d02ab486cedbfffc40000000000000000000000000000000000000000000000014d1120d7b15ffffa00000000000000000000000000000000000000000000000000000000000000000000000000000000000000000000000000000000000000000000000000000000",
          "blockHash": "0xb68c7b5c191e6d4975c90f8be748a468a3aebbda913e17a7bea1e51995f2b649",
          "blockNumber": "0x143df62",
          "transactionHash": "0xa6b4ca3b1efabb9fc2d5c80c7ab5c21e602782d6a74429a03e38a634cc844823",
          "transactionIndex": "0x1a",
          "logIndex": "0x3c",
          "removed": false
        },
        {
          "address": "0x14f2a22c97ae2890e73cb15b1c0e42a8a0821223",
          "topics": [
            "0x949314518006833d597b4acd80e6cc367fa5461d9a4f80373e136688b6aad142",
            "0x0000000000000000000000008c9c001f821c04513616fd7962b2d8c62f925fd2",
            "0x5611645c7b7387fb8499426a4c76a74c7241f751aca035dcabb5e9b0ed7cf68b",
            "0x0000000000000000000000000000000000000000000000000000000000000001"
          ],
          "data": "0x00000000000000000000000000000000000000000000000000000000000000b400000000000000000000000000000000000000000000000000000000000000000000000000000000000000000000000000000000000000000000000000000000",
          "blockHash": "0xb68c7b5c191e6d4975c90f8be748a468a3aebbda913e17a7bea1e51995f2b649",
          "blockNumber": "0x143df62",
          "transactionHash": "0xa6b4ca3b1efabb9fc2d5c80c7ab5c21e602782d6a74429a03e38a634cc844823",
          "transactionIndex": "0x1a",
          "logIndex": "0x3d",
          "removed": false
        },
        {
          "address": "0x14f2a22c97ae2890e73cb15b1c0e42a8a0821223",
          "topics": [
            "0xc2ec7dd88a6dab4eecfd7a57fb0879a881a03e12b94dc49c5fec5d5faa8792ce",
            "0x0000000000000000000000000000000000000000000000000000000000000002"
          ],
          "data": "0x00000000000000000000000000000000000000000000000000000000679b1da400000000000000000000000000000000000000000000000048790f714db4e38d00000000000000000000000000000000000000000000000048790f714db4e38d",
          "blockHash": "0xb68c7b5c191e6d4975c90f8be748a468a3aebbda913e17a7bea1e51995f2b649",
          "blockNumber": "0x143df62",
          "transactionHash": "0xa6b4ca3b1efabb9fc2d5c80c7ab5c21e602782d6a74429a03e38a634cc844823",
          "transactionIndex": "0x1a",
          "logIndex": "0x3e",
          "removed": false
        },
        {
          "address": "0x14f2a22c97ae2890e73cb15b1c0e42a8a0821223",
          "topics": [
            "0x2bbaa179fabbdbc2ed8c301faf6fca674ce9b4db55373c36bda89901d2fcfb6c",
            "0x5611645c7b7387fb8499426a4c76a74c7241f751aca035dcabb5e9b0ed7cf68b",
            "0x0000000000000000000000000000000000000000000000000000000000000002"
          ],
          "data": "0x00000000000000000000000000000000000000000000000d02ab486cedbfffc40000000000000000000000000000000000000000000000014d1120d7b15ffffa00000000000000000000000000000000000000000000000000000000000000000000000000000000000000000000000000000000000000000000000000000000",
          "blockHash": "0xb68c7b5c191e6d4975c90f8be748a468a3aebbda913e17a7bea1e51995f2b649",
          "blockNumber": "0x143df62",
          "transactionHash": "0xa6b4ca3b1efabb9fc2d5c80c7ab5c21e602782d6a74429a03e38a634cc844823",
          "transactionIndex": "0x1a",
          "logIndex": "0x3f",
          "removed": false
        },
        {
          "address": "0x14f2a22c97ae2890e73cb15b1c0e42a8a0821223",
          "topics": [
            "0x949314518006833d597b4acd80e6cc367fa5461d9a4f80373e136688b6aad142",
            "0x0000000000000000000000008c9c001f821c04513616fd7962b2d8c62f925fd2",
            "0x5611645c7b7387fb8499426a4c76a74c7241f751aca035dcabb5e9b0ed7cf68b",
            "0x0000000000000000000000000000000000000000000000000000000000000002"
          ],
          "data": "0x00000000000000000000000000000000000000000000000000000000000000b400000000000000000000000000000000000000000000000000000000000000000000000000000000000000000000000000000000000000000000000000000000",
          "blockHash": "0xb68c7b5c191e6d4975c90f8be748a468a3aebbda913e17a7bea1e51995f2b649",
          "blockNumber": "0x143df62",
          "transactionHash": "0xa6b4ca3b1efabb9fc2d5c80c7ab5c21e602782d6a74429a03e38a634cc844823",
          "transactionIndex": "0x1a",
          "logIndex": "0x40",
          "removed": false
        },
        {
          "address": "0x14f2a22c97ae2890e73cb15b1c0e42a8a0821223",
          "topics": [
            "0xc2ec7dd88a6dab4eecfd7a57fb0879a881a03e12b94dc49c5fec5d5faa8792ce",
            "0x0000000000000000000000000000000000000000000000000000000000000003"
          ],
          "data": "0x00000000000000000000000000000000000000000000000000000000679b1da400000000000000000000000000000000000000000000000010a741a46278000000000000000000000000000000000000000000000000000010a741a462780000",
          "blockHash": "0xb68c7b5c191e6d4975c90f8be748a468a3aebbda913e17a7bea1e51995f2b649",
          "blockNumber": "0x143df62",
          "transactionHash": "0xa6b4ca3b1efabb9fc2d5c80c7ab5c21e602782d6a74429a03e38a634cc844823",
          "transactionIndex": "0x1a",
          "logIndex": "0x41",
          "removed": false
        },
        {
          "address": "0x14f2a22c97ae2890e73cb15b1c0e42a8a0821223",
          "topics": [
            "0x2bbaa179fabbdbc2ed8c301faf6fca674ce9b4db55373c36bda89901d2fcfb6c",
            "0x5611645c7b7387fb8499426a4c76a74c7241f751aca035dcabb5e9b0ed7cf68b",
            "0x0000000000000000000000000000000000000000000000000000000000000003"
          ],
          "data": "0x00000000000000000000000000000000000000000000000bb59a27953c6000000000000000000000000000000000000000000000000000012bc29d8eec70000000000000000000000000000000000000000000000000000000000000000000000000000000000000000000000000000000000000000000000000000000000000",
          "blockHash": "0xb68c7b5c191e6d4975c90f8be748a468a3aebbda913e17a7bea1e51995f2b649",
          "blockNumber": "0x143df62",
          "transactionHash": "0xa6b4ca3b1efabb9fc2d5c80c7ab5c21e602782d6a74429a03e38a634cc844823",
          "transactionIndex": "0x1a",
          "logIndex": "0x42",
          "removed": false
        },
        {
          "address": "0x14f2a22c97ae2890e73cb15b1c0e42a8a0821223",
          "topics": [
            "0x949314518006833d597b4acd80e6cc367fa5461d9a4f80373e136688b6aad142",
            "0x0000000000000000000000008c9c001f821c04513616fd7962b2d8c62f925fd2",
            "0x5611645c7b7387fb8499426a4c76a74c7241f751aca035dcabb5e9b0ed7cf68b",
            "0x0000000000000000000000000000000000000000000000000000000000000003"
          ],
          "data": "0x00000000000000000000000000000000000000000000000000000000000000b400000000000000000000000000000000000000000000000000000000000000000000000000000000000000000000000000000000000000000000000000000000",
          "blockHash": "0xb68c7b5c191e6d4975c90f8be748a468a3aebbda913e17a7bea1e51995f2b649",
          "blockNumber": "0x143df62",
          "transactionHash": "0xa6b4ca3b1efabb9fc2d5c80c7ab5c21e602782d6a74429a03e38a634cc844823",
          "transactionIndex": "0x1a",
          "logIndex": "0x43",
          "removed": false
        },
        {
          "address": "0x14f2a22c97ae2890e73cb15b1c0e42a8a0821223",
          "topics": [
            "0x4e7bac5695f40fad0768f0f3b8c118c3d4d29e043511b9fa823003fe60027275",
            "0x0000000000000000000000008c9c001f821c04513616fd7962b2d8c62f925fd2",
            "0x5611645c7b7387fb8499426a4c76a74c7241f751aca035dcabb5e9b0ed7cf68b"
          ],
          "data": "0x000000000000000000000000000000000000000000000004e1003b28d9280000",
          "blockHash": "0xb68c7b5c191e6d4975c90f8be748a468a3aebbda913e17a7bea1e51995f2b649",
          "blockNumber": "0x143df62",
          "transactionHash": "0xa6b4ca3b1efabb9fc2d5c80c7ab5c21e602782d6a74429a03e38a634cc844823",
          "transactionIndex": "0x1a",
          "logIndex": "0x44",
          "removed": false
        },
        {
          "address": "0x8528c2df4ed0cf397a31b3f0ff0b96719a1be2c6",
          "topics": [
            "0xddf252ad1be2c89b69c2b068fc378daa952ba7f163c4a11628f55a4df523b3ef",
            "0x0000000000000000000000008c9c001f821c04513616fd7962b2d8c62f925fd2",
            "0x00000000000000000000000014f2a22c97ae2890e73cb15b1c0e42a8a0821223"
          ],
          "data": "0x000000000000000000000000000000000000000000000004e1003b28d9280000",
          "blockHash": "0xb68c7b5c191e6d4975c90f8be748a468a3aebbda913e17a7bea1e51995f2b649",
          "blockNumber": "0x143df62",
          "transactionHash": "0xa6b4ca3b1efabb9fc2d5c80c7ab5c21e602782d6a74429a03e38a634cc844823",
          "transactionIndex": "0x1a",
          "logIndex": "0x45",
          "removed": false
        }
      ],
      "logsBloom": "0x04000008000000000000000000000800000000000000000000000000000000000000000800000000000000000000040008000000020600000000000000040000000000000000400000000008004000000000000000040000000000000000000000000000020000001000000000000800000000000010000000000018000000000020000000000004000000000000000000000000000000001000000000000000000000000200000000000100000020001000000042800000000080400000408000000002000000000000000000000000000200000000010000000000000060000000000000000000000000000000000000000000008000000000000000000000",
      "type": "0x2",
      "transactionHash": "0xa6b4ca3b1efabb9fc2d5c80c7ab5c21e602782d6a74429a03e38a634cc844823",
      "transactionIndex": "0x1a",
      "blockHash": "0xb68c7b5c191e6d4975c90f8be748a468a3aebbda913e17a7bea1e51995f2b649",
      "blockNumber": "0x143df62",
      "gasUsed": "0xa4a85",
      "effectiveGasPrice": "0x1934971",
      "from": "0x8c9c001f821c04513616fd7962b2d8c62f925fd2",
      "to": "0x14f2a22c97ae2890e73cb15b1c0e42a8a0821223",
      "contractAddress": null,
      "l1BaseFeeScalar": "0x44d",
      "l1BlobBaseFee": "0x1",
      "l1BlobBaseFeeScalar": "0xa118b",
      "l1Fee": "0x87615efe",
      "l1GasPrice": "0x4cd9cd61",
      "l1GasUsed": "0x640"
    },
    {
      "status": "0x1",
      "cumulativeGasUsed": "0x30ffa5",
      "logs": [
        {
          "address": "0x14f2a22c97ae2890e73cb15b1c0e42a8a0821223",
          "topics": [
            "0x764e98ff8f133fd79086bf24b413507d9b7e83977b31f35a16b80680f38f7072",
            "0x0000000000000000000000000000000000000000000000000000000000000004"
          ],
          "data": "0x00000000000000000000000000000000000000000000000000000000679b1dac000000000000000000000000000000000000000000000000000000006811c4ac0000000000000000000000000000000000000000000000000de0b6b3a76400000000000000000000000000000000000000000000000000000de0b6b3a7640000",
          "blockHash": "0xb68c7b5c191e6d4975c90f8be748a468a3aebbda913e17a7bea1e51995f2b649",
          "blockNumber": "0x143df62",
          "transactionHash": "0x434a8f80f2f30d59f450f37893c65715831554189ee68facc392cc7cc3f521db",
          "transactionIndex": "0x1b",
          "logIndex": "0x46",
          "removed": false
        },
        {
          "address": "0x264541e2dc34875943a746174e862ac594164aa2",
          "topics": [
            "0x554c94cb64d410104e2b06cc56052e30bc29a1307df890d30eb124045d4ae680",
            "0x0000000000000000000000000000000000000000000000000000000000000004"
          ],
          "data": "0x00000000000000000000000000000000000000000000000000000000000075e800000000000000000000000058bde6071db4a9b006fdabe75a2eeb43decb779b",
          "blockHash": "0xb68c7b5c191e6d4975c90f8be748a468a3aebbda913e17a7bea1e51995f2b649",
          "blockNumber": "0x143df62",
          "transactionHash": "0x434a8f80f2f30d59f450f37893c65715831554189ee68facc392cc7cc3f521db",
          "transactionIndex": "0x1b",
          "logIndex": "0x47",
          "removed": false
        }
      ],
      "logsBloom": "0x00000000000000000000000000000000000000000000000000000000000000000000000800000000100000000000000000000000000400000000000000000000000000000000000000000002000000000000000000400000000000000000000008000000000000000000000000000000000000000000020000000000000000000000000000000000000000000000000000000000000000000000000000000000000000200000000000000000000020000000000000000000002000000000000000000000000000020000000000000000000000008000000000000000000020000000000000000000000000000000000000000020000000000000001000000000",
      "type": "0x2",
      "transactionHash": "0x434a8f80f2f30d59f450f37893c65715831554189ee68facc392cc7cc3f521db",
      "transactionIndex": "0x1b",
      "blockHash": "0xb68c7b5c191e6d4975c90f8be748a468a3aebbda913e17a7bea1e51995f2b649",
      "blockNumber": "0x143df62",
      "gasUsed": "0x44372",
      "effectiveGasPrice": "0x1934971",
      "from": "0x8c9c001f821c04513616fd7962b2d8c62f925fd2",
      "to": "0x14f2a22c97ae2890e73cb15b1c0e42a8a0821223",
      "contractAddress": null,
      "l1BaseFeeScalar": "0x44d",
      "l1BlobBaseFee": "0x1",
      "l1BlobBaseFeeScalar": "0xa118b",
      "l1Fee": "0x9c61bc00",
      "l1GasPrice": "0x4cd9cd61",
      "l1GasUsed": "0x738"
    },
    {
      "status": "0x1",
      "cumulativeGasUsed": "0x32355d",
      "logs": [
        {
          "address": "0x58bde6071db4a9b006fdabe75a2eeb43decb779b",
          "topics": [
            "0xddf252ad1be2c89b69c2b068fc378daa952ba7f163c4a11628f55a4df523b3ef",
            "0x0000000000000000000000008c9c001f821c04513616fd7962b2d8c62f925fd2",
            "0x000000000000000000000000264541e2dc34875943a746174e862ac594164aa2"
          ],
          "data": "0x000000000000000000000000000000000000000000000004e1003b28d9280000",
          "blockHash": "0xb68c7b5c191e6d4975c90f8be748a468a3aebbda913e17a7bea1e51995f2b649",
          "blockNumber": "0x143df62",
          "transactionHash": "0xaa125ecd5c77045cdbabcecab94a74e872b1f6a132e013c2d732cd7b7e70d7bf",
          "transactionIndex": "0x1c",
          "logIndex": "0x48",
          "removed": false
        },
        {
          "address": "0x264541e2dc34875943a746174e862ac594164aa2",
          "topics": [
            "0x90e9c021de092ced915ba783260374f129aeeedec753ab3fb564631601ff9589",
            "0x0000000000000000000000000000000000000000000000000000000000000004",
            "0x0000000000000000000000008c9c001f821c04513616fd7962b2d8c62f925fd2"
          ],
          "data": "0x00000000000000000000000000000000000000000000000000000000000075e8000000000000000000000000000000000000000000000004e1003b28d9280000",
          "blockHash": "0xb68c7b5c191e6d4975c90f8be748a468a3aebbda913e17a7bea1e51995f2b649",
          "blockNumber": "0x143df62",
          "transactionHash": "0xaa125ecd5c77045cdbabcecab94a74e872b1f6a132e013c2d732cd7b7e70d7bf",
          "transactionIndex": "0x1c",
          "logIndex": "0x49",
          "removed": false
        }
      ],
      "logsBloom": "0x00000000000000000000000000001800000000000000000000000000000000000000000000000000000000000000000000000000000000000000000000000000000000200000000000000008004000000000000000400000000000000000000008000000000000000000000000000000000000000000000000000010020000000000000000000000000000000000000000000000000000000000000000400020000000000000000000000000000000000000000000000000002080000000000000000002000000000000000000000000000000008000100000000000000000000000000000000000000000008000000800000020008000000000001000000000",
      "type": "0x2",
      "transactionHash": "0xaa125ecd5c77045cdbabcecab94a74e872b1f6a132e013c2d732cd7b7e70d7bf",
      "transactionIndex": "0x1c",
      "blockHash": "0xb68c7b5c191e6d4975c90f8be748a468a3aebbda913e17a7bea1e51995f2b649",
      "blockNumber": "0x143df62",
      "gasUsed": "0x135b8",
      "effectiveGasPrice": "0x1934971",
      "from": "0x8c9c001f821c04513616fd7962b2d8c62f925fd2",
      "to": "0x264541e2dc34875943a746174e862ac594164aa2",
      "contractAddress": null,
      "l1BaseFeeScalar": "0x44d",
      "l1BlobBaseFee": "0x1",
      "l1BlobBaseFeeScalar": "0xa118b",
      "l1Fee": "0x87615efe",
      "l1GasPrice": "0x4cd9cd61",
      "l1GasUsed": "0x640"
    }
  ],
  "libraries": [],
  "pending": [],
  "returns": {},
  "timestamp": 1738218916,
  "chain": 84532,
  "commit": "5415508"
}