{
  "transactions": [
    {
      "hash": "0xed58045803e69231b066edfa13d42c4c8aa94b3e2a15d862a108f1f429c8cb76",
      "transactionType": "CALL",
      "contractName": "StakingPro",
      "contractAddress": "0x14f2a22c97ae2890e73cb15b1c0e42a8a0821223",
      "function": "stakeTokens(bytes32,uint256)",
      "arguments": [
        "0x5611645c7b7387fb8499426a4c76a74c7241f751aca035dcabb5e9b0ed7cf68b",
        "90000000000000000000"
      ],
      "transaction": {
        "from": "0x8c9c001f821c04513616fd7962b2d8c62f925fd2",
        "to": "0x14f2a22c97ae2890e73cb15b1c0e42a8a0821223",
        "gas": "0x1d6f73",
        "value": "0x0",
        "input": "0xe6587ea25611645c7b7387fb8499426a4c76a74c7241f751aca035dcabb5e9b0ed7cf68b000000000000000000000000000000000000000000000004e1003b28d9280000",
        "nonce": "0x7a",
        "chainId": "0x14a34"
      },
      "additionalContracts": [],
      "isFixedGasLimit": false
    },
    {
      "hash": "0x7ee866b3b2baacb4fcc349a0191b7d1d541254a4b7c473986ee282bb4e89e3da",
      "transactionType": "CALL",
      "contractName": "StakingPro",
      "contractAddress": "0x14f2a22c97ae2890e73cb15b1c0e42a8a0821223",
      "function": "setupDistribution(uint256,uint256,uint256,uint256,uint256,uint32,bytes32)",
      "arguments": [
        "12",
        "1738222336",
        "1745998336",
        "1000000000000000000",
        "1000000000000000000",
        "30184",
        "0x00000000000000000000000058bde6071db4a9b006fdabe75a2eeb43decb779b"
      ],
      "transaction": {
        "from": "0x8c9c001f821c04513616fd7962b2d8c62f925fd2",
        "to": "0x14f2a22c97ae2890e73cb15b1c0e42a8a0821223",
        "gas": "0x63c19",
        "value": "0x0",
        "input": "0x0b6d6c99000000000000000000000000000000000000000000000000000000000000000c00000000000000000000000000000000000000000000000000000000679b2b00000000000000000000000000000000000000000000000000000000006811d2000000000000000000000000000000000000000000000000000de0b6b3a76400000000000000000000000000000000000000000000000000000de0b6b3a764000000000000000000000000000000000000000000000000000000000000000075e800000000000000000000000058bde6071db4a9b006fdabe75a2eeb43decb779b",
        "nonce": "0x7b",
        "chainId": "0x14a34"
      },
      "additionalContracts": [],
      "isFixedGasLimit": false
    },
    {
      "hash": "0x7e37e6f447eacbae9ef6476d8ee9cf038a4fef99d1dc398ef3a4f2ac4242370c",
      "transactionType": "CALL",
      "contractName": "RewardsVaultV1",
      "contractAddress": "0x264541e2dc34875943a746174e862ac594164aa2",
      "function": "deposit(uint256,uint256,address)",
      "arguments": [
        "12",
        "90000000000000000000",
        "0x8C9C001F821c04513616fd7962B2D8c62f925fD2"
      ],
      "transaction": {
        "from": "0x8c9c001f821c04513616fd7962b2d8c62f925fd2",
        "to": "0x264541e2dc34875943a746174e862ac594164aa2",
        "gas": "0x1abcb",
        "value": "0x0",
        "input": "0x8dbdbe6d000000000000000000000000000000000000000000000000000000000000000c000000000000000000000000000000000000000000000004e1003b28d92800000000000000000000000000008c9c001f821c04513616fd7962b2d8c62f925fd2",
        "nonce": "0x7c",
        "chainId": "0x14a34"
      },
      "additionalContracts": [],
      "isFixedGasLimit": false
    }
  ],
  "receipts": [
    {
      "status": "0x1",
      "cumulativeGasUsed": "0x57f368",
      "logs": [
        {
          "address": "0x14f2a22c97ae2890e73cb15b1c0e42a8a0821223",
          "topics": [
            "0x949314518006833d597b4acd80e6cc367fa5461d9a4f80373e136688b6aad142",
            "0x0000000000000000000000008c9c001f821c04513616fd7962b2d8c62f925fd2",
            "0x5611645c7b7387fb8499426a4c76a74c7241f751aca035dcabb5e9b0ed7cf68b",
            "0x0000000000000000000000000000000000000000000000000000000000000000"
          ],
          "data": "0x000000000000000000000000000000000000000000000000000000000000000000000000000000000000000000000000000000000000000000000000000000000000000000000000000000000000000000000000000000000000000000000000",
          "blockHash": "0xf039251319216504b574f2309368b7255002fca88d350a8256daab68470c9143",
          "blockNumber": "0x143e60b",
          "transactionHash": "0xed58045803e69231b066edfa13d42c4c8aa94b3e2a15d862a108f1f429c8cb76",
          "transactionIndex": "0x27",
          "logIndex": "0x63",
          "removed": false
        },
        {
          "address": "0x14f2a22c97ae2890e73cb15b1c0e42a8a0821223",
          "topics": [
            "0xc2ec7dd88a6dab4eecfd7a57fb0879a881a03e12b94dc49c5fec5d5faa8792ce",
            "0x0000000000000000000000000000000000000000000000000000000000000001"
          ],
          "data": "0x00000000000000000000000000000000000000000000000000000000679b2af6000000000000000000000000000000000000000000000003661e9addf507dc8b000000000000000000000000000000000000000000000003661e9addf507dc8b",
          "blockHash": "0xf039251319216504b574f2309368b7255002fca88d350a8256daab68470c9143",
          "blockNumber": "0x143e60b",
          "transactionHash": "0xed58045803e69231b066edfa13d42c4c8aa94b3e2a15d862a108f1f429c8cb76",
          "transactionIndex": "0x27",
          "logIndex": "0x64",
          "removed": false
        },
        {
          "address": "0x14f2a22c97ae2890e73cb15b1c0e42a8a0821223",
          "topics": [
            "0x2bbaa179fabbdbc2ed8c301faf6fca674ce9b4db55373c36bda89901d2fcfb6c",
            "0x5611645c7b7387fb8499426a4c76a74c7241f751aca035dcabb5e9b0ed7cf68b",
            "0x0000000000000000000000000000000000000000000000000000000000000001"
          ],
          "data": "0x00000000000000000000000000000000000000000000000b469471f8013fff9c00000000000000000000000000000000000000000000000120a871cc001ffff600000000000000000000000000000000000000000000000000000000000000000000000000000000000000000000000000000000000000000000000000000000",
          "blockHash": "0xf039251319216504b574f2309368b7255002fca88d350a8256daab68470c9143",
          "blockNumber": "0x143e60b",
          "transactionHash": "0xed58045803e69231b066edfa13d42c4c8aa94b3e2a15d862a108f1f429c8cb76",
          "transactionIndex": "0x27",
          "logIndex": "0x65",
          "removed": false
        },
        {
          "address": "0x14f2a22c97ae2890e73cb15b1c0e42a8a0821223",
          "topics": [
            "0x949314518006833d597b4acd80e6cc367fa5461d9a4f80373e136688b6aad142",
            "0x0000000000000000000000008c9c001f821c04513616fd7962b2d8c62f925fd2",
            "0x5611645c7b7387fb8499426a4c76a74c7241f751aca035dcabb5e9b0ed7cf68b",
            "0x0000000000000000000000000000000000000000000000000000000000000001"
          ],
          "data": "0x000000000000000000000000000000000000000000000000000000000000000000000000000000000000000000000000000000000000000000000000000000000000000000000000000000000000000000000000000000000000000000000000",
          "blockHash": "0xf039251319216504b574f2309368b7255002fca88d350a8256daab68470c9143",
          "blockNumber": "0x143e60b",
          "transactionHash": "0xed58045803e69231b066edfa13d42c4c8aa94b3e2a15d862a108f1f429c8cb76",
          "transactionIndex": "0x27",
          "logIndex": "0x66",
          "removed": false
        },
        {
          "address": "0x14f2a22c97ae2890e73cb15b1c0e42a8a0821223",
          "topics": [
            "0xc2ec7dd88a6dab4eecfd7a57fb0879a881a03e12b94dc49c5fec5d5faa8792ce",
            "0x0000000000000000000000000000000000000000000000000000000000000002"
          ],
          "data": "0x00000000000000000000000000000000000000000000000000000000679b2af6000000000000000000000000000000000000000000000000ac3894dd51b84e52000000000000000000000000000000000000000000000000ac3894dd51b84e52",
          "blockHash": "0xf039251319216504b574f2309368b7255002fca88d350a8256daab68470c9143",
          "blockNumber": "0x143e60b",
          "transactionHash": "0xed58045803e69231b066edfa13d42c4c8aa94b3e2a15d862a108f1f429c8cb76",
          "transactionIndex": "0x27",
          "logIndex": "0x67",
          "removed": false
        },
        {
          "address": "0x14f2a22c97ae2890e73cb15b1c0e42a8a0821223",
          "topics": [
            "0x2bbaa179fabbdbc2ed8c301faf6fca674ce9b4db55373c36bda89901d2fcfb6c",
            "0x5611645c7b7387fb8499426a4c76a74c7241f751aca035dcabb5e9b0ed7cf68b",
            "0x0000000000000000000000000000000000000000000000000000000000000002"
          ],
          "data": "0x00000000000000000000000000000000000000000000000b469471f8013fff9c00000000000000000000000000000000000000000000000120a871cc001ffff600000000000000000000000000000000000000000000000000000000000000000000000000000000000000000000000000000000000000000000000000000000",
          "blockHash": "0xf039251319216504b574f2309368b7255002fca88d350a8256daab68470c9143",
          "blockNumber": "0x143e60b",
          "transactionHash": "0xed58045803e69231b066edfa13d42c4c8aa94b3e2a15d862a108f1f429c8cb76",
          "transactionIndex": "0x27",
          "logIndex": "0x68",
          "removed": false
        },
        {
          "address": "0x14f2a22c97ae2890e73cb15b1c0e42a8a0821223",
          "topics": [
            "0x949314518006833d597b4acd80e6cc367fa5461d9a4f80373e136688b6aad142",
            "0x0000000000000000000000008c9c001f821c04513616fd7962b2d8c62f925fd2",
            "0x5611645c7b7387fb8499426a4c76a74c7241f751aca035dcabb5e9b0ed7cf68b",
            "0x0000000000000000000000000000000000000000000000000000000000000002"
          ],
          "data": "0x000000000000000000000000000000000000000000000000000000000000000000000000000000000000000000000000000000000000000000000000000000000000000000000000000000000000000000000000000000000000000000000000",
          "blockHash": "0xf039251319216504b574f2309368b7255002fca88d350a8256daab68470c9143",
          "blockNumber": "0x143e60b",
          "transactionHash": "0xed58045803e69231b066edfa13d42c4c8aa94b3e2a15d862a108f1f429c8cb76",
          "transactionIndex": "0x27",
          "logIndex": "0x69",
          "removed": false
        },
        {
          "address": "0x14f2a22c97ae2890e73cb15b1c0e42a8a0821223",
          "topics": [
            "0xc2ec7dd88a6dab4eecfd7a57fb0879a881a03e12b94dc49c5fec5d5faa8792ce",
            "0x0000000000000000000000000000000000000000000000000000000000000003"
          ],
          "data": "0x00000000000000000000000000000000000000000000000000000000679b2af60000000000000000000000000000000000000000000000007466c710667b6ac50000000000000000000000000000000000000000000000007466c710667b6ac5",
          "blockHash": "0xf039251319216504b574f2309368b7255002fca88d350a8256daab68470c9143",
          "blockNumber": "0x143e60b",
          "transactionHash": "0xed58045803e69231b066edfa13d42c4c8aa94b3e2a15d862a108f1f429c8cb76",
          "transactionIndex": "0x27",
          "logIndex": "0x6a",
          "removed": false
        },
        {
          "address": "0x14f2a22c97ae2890e73cb15b1c0e42a8a0821223",
          "topics": [
            "0x2bbaa179fabbdbc2ed8c301faf6fca674ce9b4db55373c36bda89901d2fcfb6c",
            "0x5611645c7b7387fb8499426a4c76a74c7241f751aca035dcabb5e9b0ed7cf68b",
            "0x0000000000000000000000000000000000000000000000000000000000000003"
          ],
          "data": "0x00000000000000000000000000000000000000000000000b469471f8013fff9c00000000000000000000000000000000000000000000000120a871cc001ffff600000000000000000000000000000000000000000000000000000000000000000000000000000000000000000000000000000000000000000000000000000000",
          "blockHash": "0xf039251319216504b574f2309368b7255002fca88d350a8256daab68470c9143",
          "blockNumber": "0x143e60b",
          "transactionHash": "0xed58045803e69231b066edfa13d42c4c8aa94b3e2a15d862a108f1f429c8cb76",
          "transactionIndex": "0x27",
          "logIndex": "0x6b",
          "removed": false
        },
        {
          "address": "0x14f2a22c97ae2890e73cb15b1c0e42a8a0821223",
          "topics": [
            "0x949314518006833d597b4acd80e6cc367fa5461d9a4f80373e136688b6aad142",
            "0x0000000000000000000000008c9c001f821c04513616fd7962b2d8c62f925fd2",
            "0x5611645c7b7387fb8499426a4c76a74c7241f751aca035dcabb5e9b0ed7cf68b",
            "0x0000000000000000000000000000000000000000000000000000000000000003"
          ],
          "data": "0x000000000000000000000000000000000000000000000000000000000000000000000000000000000000000000000000000000000000000000000000000000000000000000000000000000000000000000000000000000000000000000000000",
          "blockHash": "0xf039251319216504b574f2309368b7255002fca88d350a8256daab68470c9143",
          "blockNumber": "0x143e60b",
          "transactionHash": "0xed58045803e69231b066edfa13d42c4c8aa94b3e2a15d862a108f1f429c8cb76",
          "transactionIndex": "0x27",
          "logIndex": "0x6c",
          "removed": false
        },
        {
          "address": "0x14f2a22c97ae2890e73cb15b1c0e42a8a0821223",
          "topics": [
            "0xc2ec7dd88a6dab4eecfd7a57fb0879a881a03e12b94dc49c5fec5d5faa8792ce",
            "0x0000000000000000000000000000000000000000000000000000000000000004"
          ],
          "data": "0x00000000000000000000000000000000000000000000000000000000679b2af60000000000000000000000000000000000000000000000006356416e471ce6070000000000000000000000000000000000000000000000006356416e471ce607",
          "blockHash": "0xf039251319216504b574f2309368b7255002fca88d350a8256daab68470c9143",
          "blockNumber": "0x143e60b",
          "transactionHash": "0xed58045803e69231b066edfa13d42c4c8aa94b3e2a15d862a108f1f429c8cb76",
          "transactionIndex": "0x27",
          "logIndex": "0x6d",
          "removed": false
        },
        {
          "address": "0x14f2a22c97ae2890e73cb15b1c0e42a8a0821223",
          "topics": [
            "0x2bbaa179fabbdbc2ed8c301faf6fca674ce9b4db55373c36bda89901d2fcfb6c",
            "0x5611645c7b7387fb8499426a4c76a74c7241f751aca035dcabb5e9b0ed7cf68b",
            "0x0000000000000000000000000000000000000000000000000000000000000004"
          ],
          "data": "0x00000000000000000000000000000000000000000000000b469471f8013fff9c00000000000000000000000000000000000000000000000120a871cc001ffff600000000000000000000000000000000000000000000000000000000000000000000000000000000000000000000000000000000000000000000000000000000",
          "blockHash": "0xf039251319216504b574f2309368b7255002fca88d350a8256daab68470c9143",
          "blockNumber": "0x143e60b",
          "transactionHash": "0xed58045803e69231b066edfa13d42c4c8aa94b3e2a15d862a108f1f429c8cb76",
          "transactionIndex": "0x27",
          "logIndex": "0x6e",
          "removed": false
        },
        {
          "address": "0x14f2a22c97ae2890e73cb15b1c0e42a8a0821223",
          "topics": [
            "0x949314518006833d597b4acd80e6cc367fa5461d9a4f80373e136688b6aad142",
            "0x0000000000000000000000008c9c001f821c04513616fd7962b2d8c62f925fd2",
            "0x5611645c7b7387fb8499426a4c76a74c7241f751aca035dcabb5e9b0ed7cf68b",
            "0x0000000000000000000000000000000000000000000000000000000000000004"
          ],
          "data": "0x000000000000000000000000000000000000000000000000000000000000000000000000000000000000000000000000000000000000000000000000000000000000000000000000000000000000000000000000000000000000000000000000",
          "blockHash": "0xf039251319216504b574f2309368b7255002fca88d350a8256daab68470c9143",
          "blockNumber": "0x143e60b",
          "transactionHash": "0xed58045803e69231b066edfa13d42c4c8aa94b3e2a15d862a108f1f429c8cb76",
          "transactionIndex": "0x27",
          "logIndex": "0x6f",
          "removed": false
        },
        {
          "address": "0x14f2a22c97ae2890e73cb15b1c0e42a8a0821223",
          "topics": [
            "0xc2ec7dd88a6dab4eecfd7a57fb0879a881a03e12b94dc49c5fec5d5faa8792ce",
            "0x0000000000000000000000000000000000000000000000000000000000000005"
          ],
          "data": "0x00000000000000000000000000000000000000000000000000000000679b2af600000000000000000000000000000000000000000000000048eaf0ff9e42157000000000000000000000000000000000000000000000000048eaf0ff9e421570",
          "blockHash": "0xf039251319216504b574f2309368b7255002fca88d350a8256daab68470c9143",
          "blockNumber": "0x143e60b",
          "transactionHash": "0xed58045803e69231b066edfa13d42c4c8aa94b3e2a15d862a108f1f429c8cb76",
          "transactionIndex": "0x27",
          "logIndex": "0x70",
          "removed": false
        },
        {
          "address": "0x14f2a22c97ae2890e73cb15b1c0e42a8a0821223",
          "topics": [
            "0x2bbaa179fabbdbc2ed8c301faf6fca674ce9b4db55373c36bda89901d2fcfb6c",
            "0x5611645c7b7387fb8499426a4c76a74c7241f751aca035dcabb5e9b0ed7cf68b",
            "0x0000000000000000000000000000000000000000000000000000000000000005"
          ],
          "data": "0x00000000000000000000000000000000000000000000000b469471f8013fff9c00000000000000000000000000000000000000000000000120a871cc001ffff600000000000000000000000000000000000000000000000000000000000000000000000000000000000000000000000000000000000000000000000000000000",
          "blockHash": "0xf039251319216504b574f2309368b7255002fca88d350a8256daab68470c9143",
          "blockNumber": "0x143e60b",
          "transactionHash": "0xed58045803e69231b066edfa13d42c4c8aa94b3e2a15d862a108f1f429c8cb76",
          "transactionIndex": "0x27",
          "logIndex": "0x71",
          "removed": false
        },
        {
          "address": "0x14f2a22c97ae2890e73cb15b1c0e42a8a0821223",
          "topics": [
            "0x949314518006833d597b4acd80e6cc367fa5461d9a4f80373e136688b6aad142",
            "0x0000000000000000000000008c9c001f821c04513616fd7962b2d8c62f925fd2",
            "0x5611645c7b7387fb8499426a4c76a74c7241f751aca035dcabb5e9b0ed7cf68b",
            "0x0000000000000000000000000000000000000000000000000000000000000005"
          ],
          "data": "0x000000000000000000000000000000000000000000000000000000000000000000000000000000000000000000000000000000000000000000000000000000000000000000000000000000000000000000000000000000000000000000000000",
          "blockHash": "0xf039251319216504b574f2309368b7255002fca88d350a8256daab68470c9143",
          "blockNumber": "0x143e60b",
          "transactionHash": "0xed58045803e69231b066edfa13d42c4c8aa94b3e2a15d862a108f1f429c8cb76",
          "transactionIndex": "0x27",
          "logIndex": "0x72",
          "removed": false
        },
        {
          "address": "0x14f2a22c97ae2890e73cb15b1c0e42a8a0821223",
          "topics": [
            "0xc2ec7dd88a6dab4eecfd7a57fb0879a881a03e12b94dc49c5fec5d5faa8792ce",
            "0x0000000000000000000000000000000000000000000000000000000000000006"
          ],
          "data": "0x00000000000000000000000000000000000000000000000000000000679b2af600000000000000000000000000000000000000000000000039f5e7d1e700f8fe00000000000000000000000000000000000000000000000039f5e7d1e700f8fe",
          "blockHash": "0xf039251319216504b574f2309368b7255002fca88d350a8256daab68470c9143",
          "blockNumber": "0x143e60b",
          "transactionHash": "0xed58045803e69231b066edfa13d42c4c8aa94b3e2a15d862a108f1f429c8cb76",
          "transactionIndex": "0x27",
          "logIndex": "0x73",
          "removed": false
        },
        {
          "address": "0x14f2a22c97ae2890e73cb15b1c0e42a8a0821223",
          "topics": [
            "0x2bbaa179fabbdbc2ed8c301faf6fca674ce9b4db55373c36bda89901d2fcfb6c",
            "0x5611645c7b7387fb8499426a4c76a74c7241f751aca035dcabb5e9b0ed7cf68b",
            "0x0000000000000000000000000000000000000000000000000000000000000006"
          ],
          "data": "0x00000000000000000000000000000000000000000000000b469471f8013fff9c00000000000000000000000000000000000000000000000120a871cc001ffff600000000000000000000000000000000000000000000000000000000000000000000000000000000000000000000000000000000000000000000000000000000",
          "blockHash": "0xf039251319216504b574f2309368b7255002fca88d350a8256daab68470c9143",
          "blockNumber": "0x143e60b",
          "transactionHash": "0xed58045803e69231b066edfa13d42c4c8aa94b3e2a15d862a108f1f429c8cb76",
          "transactionIndex": "0x27",
          "logIndex": "0x74",
          "removed": false
        },
        {
          "address": "0x14f2a22c97ae2890e73cb15b1c0e42a8a0821223",
          "topics": [
            "0x949314518006833d597b4acd80e6cc367fa5461d9a4f80373e136688b6aad142",
            "0x0000000000000000000000008c9c001f821c04513616fd7962b2d8c62f925fd2",
            "0x5611645c7b7387fb8499426a4c76a74c7241f751aca035dcabb5e9b0ed7cf68b",
            "0x0000000000000000000000000000000000000000000000000000000000000006"
          ],
          "data": "0x000000000000000000000000000000000000000000000000000000000000000000000000000000000000000000000000000000000000000000000000000000000000000000000000000000000000000000000000000000000000000000000000",
          "blockHash": "0xf039251319216504b574f2309368b7255002fca88d350a8256daab68470c9143",
          "blockNumber": "0x143e60b",
          "transactionHash": "0xed58045803e69231b066edfa13d42c4c8aa94b3e2a15d862a108f1f429c8cb76",
          "transactionIndex": "0x27",
          "logIndex": "0x75",
          "removed": false
        },
        {
          "address": "0x14f2a22c97ae2890e73cb15b1c0e42a8a0821223",
          "topics": [
            "0xc2ec7dd88a6dab4eecfd7a57fb0879a881a03e12b94dc49c5fec5d5faa8792ce",
            "0x0000000000000000000000000000000000000000000000000000000000000007"
          ],
          "data": "0x00000000000000000000000000000000000000000000000000000000679b2af6000000000000000000000000000000000000000000000000247f0aae62664e54000000000000000000000000000000000000000000000000247f0aae62664e54",
          "blockHash": "0xf039251319216504b574f2309368b7255002fca88d350a8256daab68470c9143",
          "blockNumber": "0x143e60b",
          "transactionHash": "0xed58045803e69231b066edfa13d42c4c8aa94b3e2a15d862a108f1f429c8cb76",
          "transactionIndex": "0x27",
          "logIndex": "0x76",
          "removed": false
        },
        {
          "address": "0x14f2a22c97ae2890e73cb15b1c0e42a8a0821223",
          "topics": [
            "0x2bbaa179fabbdbc2ed8c301faf6fca674ce9b4db55373c36bda89901d2fcfb6c",
            "0x5611645c7b7387fb8499426a4c76a74c7241f751aca035dcabb5e9b0ed7cf68b",
            "0x0000000000000000000000000000000000000000000000000000000000000007"
          ],
          "data": "0x00000000000000000000000000000000000000000000000b469471f8013fff9c00000000000000000000000000000000000000000000000120a871cc001ffff600000000000000000000000000000000000000000000000000000000000000000000000000000000000000000000000000000000000000000000000000000000",
          "blockHash": "0xf039251319216504b574f2309368b7255002fca88d350a8256daab68470c9143",
          "blockNumber": "0x143e60b",
          "transactionHash": "0xed58045803e69231b066edfa13d42c4c8aa94b3e2a15d862a108f1f429c8cb76",
          "transactionIndex": "0x27",
          "logIndex": "0x77",
          "removed": false
        },
        {
          "address": "0x14f2a22c97ae2890e73cb15b1c0e42a8a0821223",
          "topics": [
            "0x949314518006833d597b4acd80e6cc367fa5461d9a4f80373e136688b6aad142",
            "0x0000000000000000000000008c9c001f821c04513616fd7962b2d8c62f925fd2",
            "0x5611645c7b7387fb8499426a4c76a74c7241f751aca035dcabb5e9b0ed7cf68b",
            "0x0000000000000000000000000000000000000000000000000000000000000007"
          ],
          "data": "0x000000000000000000000000000000000000000000000000000000000000000000000000000000000000000000000000000000000000000000000000000000000000000000000000000000000000000000000000000000000000000000000000",
          "blockHash": "0xf039251319216504b574f2309368b7255002fca88d350a8256daab68470c9143",
          "blockNumber": "0x143e60b",
          "transactionHash": "0xed58045803e69231b066edfa13d42c4c8aa94b3e2a15d862a108f1f429c8cb76",
          "transactionIndex": "0x27",
          "logIndex": "0x78",
          "removed": false
        },
        {
          "address": "0x14f2a22c97ae2890e73cb15b1c0e42a8a0821223",
          "topics": [
            "0xc2ec7dd88a6dab4eecfd7a57fb0879a881a03e12b94dc49c5fec5d5faa8792ce",
            "0x0000000000000000000000000000000000000000000000000000000000000008"
          ],
          "data": "0x00000000000000000000000000000000000000000000000000000000679b2af6000000000000000000000000000000000000000000000000173a58c08545ae80000000000000000000000000000000000000000000000000173a58c08545ae80",
          "blockHash": "0xf039251319216504b574f2309368b7255002fca88d350a8256daab68470c9143",
          "blockNumber": "0x143e60b",
          "transactionHash": "0xed58045803e69231b066edfa13d42c4c8aa94b3e2a15d862a108f1f429c8cb76",
          "transactionIndex": "0x27",
          "logIndex": "0x79",
          "removed": false
        },
        {
          "address": "0x14f2a22c97ae2890e73cb15b1c0e42a8a0821223",
          "topics": [
            "0x2bbaa179fabbdbc2ed8c301faf6fca674ce9b4db55373c36bda89901d2fcfb6c",
            "0x5611645c7b7387fb8499426a4c76a74c7241f751aca035dcabb5e9b0ed7cf68b",
            "0x0000000000000000000000000000000000000000000000000000000000000008"
          ],
          "data": "0x00000000000000000000000000000000000000000000000b469471f8013fff9c00000000000000000000000000000000000000000000000120a871cc001ffff600000000000000000000000000000000000000000000000000000000000000000000000000000000000000000000000000000000000000000000000000000000",
          "blockHash": "0xf039251319216504b574f2309368b7255002fca88d350a8256daab68470c9143",
          "blockNumber": "0x143e60b",
          "transactionHash": "0xed58045803e69231b066edfa13d42c4c8aa94b3e2a15d862a108f1f429c8cb76",
          "transactionIndex": "0x27",
          "logIndex": "0x7a",
          "removed": false
        },
        {
          "address": "0x14f2a22c97ae2890e73cb15b1c0e42a8a0821223",
          "topics": [
            "0x949314518006833d597b4acd80e6cc367fa5461d9a4f80373e136688b6aad142",
            "0x0000000000000000000000008c9c001f821c04513616fd7962b2d8c62f925fd2",
            "0x5611645c7b7387fb8499426a4c76a74c7241f751aca035dcabb5e9b0ed7cf68b",
            "0x0000000000000000000000000000000000000000000000000000000000000008"
          ],
          "data": "0x000000000000000000000000000000000000000000000000000000000000000000000000000000000000000000000000000000000000000000000000000000000000000000000000000000000000000000000000000000000000000000000000",
          "blockHash": "0xf039251319216504b574f2309368b7255002fca88d350a8256daab68470c9143",
          "blockNumber": "0x143e60b",
          "transactionHash": "0xed58045803e69231b066edfa13d42c4c8aa94b3e2a15d862a108f1f429c8cb76",
          "transactionIndex": "0x27",
          "logIndex": "0x7b",
          "removed": false
        },
        {
          "address": "0x14f2a22c97ae2890e73cb15b1c0e42a8a0821223",
          "topics": [
            "0xc2ec7dd88a6dab4eecfd7a57fb0879a881a03e12b94dc49c5fec5d5faa8792ce",
            "0x0000000000000000000000000000000000000000000000000000000000000009"
          ],
          "data": "0x00000000000000000000000000000000000000000000000000000000679b2af600000000000000000000000000000000000000000000000013f7bdade26b245800000000000000000000000000000000000000000000000013f7bdade26b2458",
          "blockHash": "0xf039251319216504b574f2309368b7255002fca88d350a8256daab68470c9143",
          "blockNumber": "0x143e60b",
          "transactionHash": "0xed58045803e69231b066edfa13d42c4c8aa94b3e2a15d862a108f1f429c8cb76",
          "transactionIndex": "0x27",
          "logIndex": "0x7c",
          "removed": false
        },
        {
          "address": "0x14f2a22c97ae2890e73cb15b1c0e42a8a0821223",
          "topics": [
            "0x2bbaa179fabbdbc2ed8c301faf6fca674ce9b4db55373c36bda89901d2fcfb6c",
            "0x5611645c7b7387fb8499426a4c76a74c7241f751aca035dcabb5e9b0ed7cf68b",
            "0x0000000000000000000000000000000000000000000000000000000000000009"
          ],
          "data": "0x00000000000000000000000000000000000000000000000b469471f8013fff9c00000000000000000000000000000000000000000000000120a871cc001ffff600000000000000000000000000000000000000000000000000000000000000000000000000000000000000000000000000000000000000000000000000000000",
          "blockHash": "0xf039251319216504b574f2309368b7255002fca88d350a8256daab68470c9143",
          "blockNumber": "0x143e60b",
          "transactionHash": "0xed58045803e69231b066edfa13d42c4c8aa94b3e2a15d862a108f1f429c8cb76",
          "transactionIndex": "0x27",
          "logIndex": "0x7d",
          "removed": false
        },
        {
          "address": "0x14f2a22c97ae2890e73cb15b1c0e42a8a0821223",
          "topics": [
            "0x949314518006833d597b4acd80e6cc367fa5461d9a4f80373e136688b6aad142",
            "0x0000000000000000000000008c9c001f821c04513616fd7962b2d8c62f925fd2",
            "0x5611645c7b7387fb8499426a4c76a74c7241f751aca035dcabb5e9b0ed7cf68b",
            "0x0000000000000000000000000000000000000000000000000000000000000009"
          ],
          "data": "0x000000000000000000000000000000000000000000000000000000000000000000000000000000000000000000000000000000000000000000000000000000000000000000000000000000000000000000000000000000000000000000000000",
          "blockHash": "0xf039251319216504b574f2309368b7255002fca88d350a8256daab68470c9143",
          "blockNumber": "0x143e60b",
          "transactionHash": "0xed58045803e69231b066edfa13d42c4c8aa94b3e2a15d862a108f1f429c8cb76",
          "transactionIndex": "0x27",
          "logIndex": "0x7e",
          "removed": false
        },
        {
          "address": "0x14f2a22c97ae2890e73cb15b1c0e42a8a0821223",
          "topics": [
            "0xc2ec7dd88a6dab4eecfd7a57fb0879a881a03e12b94dc49c5fec5d5faa8792ce",
            "0x000000000000000000000000000000000000000000000000000000000000000a"
          ],
          "data": "0x00000000000000000000000000000000000000000000000000000000679b2af60000000000000000000000000000000000000000000000000ab62b2b78db684b0000000000000000000000000000000000000000000000000ab62b2b78db684b",
          "blockHash": "0xf039251319216504b574f2309368b7255002fca88d350a8256daab68470c9143",
          "blockNumber": "0x143e60b",
          "transactionHash": "0xed58045803e69231b066edfa13d42c4c8aa94b3e2a15d862a108f1f429c8cb76",
          "transactionIndex": "0x27",
          "logIndex": "0x7f",
          "removed": false
        },
        {
          "address": "0x14f2a22c97ae2890e73cb15b1c0e42a8a0821223",
          "topics": [
            "0x2bbaa179fabbdbc2ed8c301faf6fca674ce9b4db55373c36bda89901d2fcfb6c",
            "0x5611645c7b7387fb8499426a4c76a74c7241f751aca035dcabb5e9b0ed7cf68b",
            "0x000000000000000000000000000000000000000000000000000000000000000a"
          ],
          "data": "0x00000000000000000000000000000000000000000000000b469471f8013fff9c00000000000000000000000000000000000000000000000120a871cc001ffff600000000000000000000000000000000000000000000000000000000000000000000000000000000000000000000000000000000000000000000000000000000",
          "blockHash": "0xf039251319216504b574f2309368b7255002fca88d350a8256daab68470c9143",
          "blockNumber": "0x143e60b",
          "transactionHash": "0xed58045803e69231b066edfa13d42c4c8aa94b3e2a15d862a108f1f429c8cb76",
          "transactionIndex": "0x27",
          "logIndex": "0x80",
          "removed": false
        },
        {
          "address": "0x14f2a22c97ae2890e73cb15b1c0e42a8a0821223",
          "topics": [
            "0x949314518006833d597b4acd80e6cc367fa5461d9a4f80373e136688b6aad142",
            "0x0000000000000000000000008c9c001f821c04513616fd7962b2d8c62f925fd2",
            "0x5611645c7b7387fb8499426a4c76a74c7241f751aca035dcabb5e9b0ed7cf68b",
            "0x000000000000000000000000000000000000000000000000000000000000000a"
          ],
          "data": "0x000000000000000000000000000000000000000000000000000000000000000000000000000000000000000000000000000000000000000000000000000000000000000000000000000000000000000000000000000000000000000000000000",
          "blockHash": "0xf039251319216504b574f2309368b7255002fca88d350a8256daab68470c9143",
          "blockNumber": "0x143e60b",
          "transactionHash": "0xed58045803e69231b066edfa13d42c4c8aa94b3e2a15d862a108f1f429c8cb76",
          "transactionIndex": "0x27",
          "logIndex": "0x81",
          "removed": false
        },
        {
          "address": "0x14f2a22c97ae2890e73cb15b1c0e42a8a0821223",
          "topics": [
            "0xc2ec7dd88a6dab4eecfd7a57fb0879a881a03e12b94dc49c5fec5d5faa8792ce",
            "0x000000000000000000000000000000000000000000000000000000000000000b"
          ],
          "data": "0x00000000000000000000000000000000000000000000000000000000679b2af600000000000000000000000000000000000000000000000002d655239769c71c00000000000000000000000000000000000000000000000002d655239769c71c",
          "blockHash": "0xf039251319216504b574f2309368b7255002fca88d350a8256daab68470c9143",
          "blockNumber": "0x143e60b",
          "transactionHash": "0xed58045803e69231b066edfa13d42c4c8aa94b3e2a15d862a108f1f429c8cb76",
          "transactionIndex": "0x27",
          "logIndex": "0x82",
          "removed": false
        },
        {
          "address": "0x14f2a22c97ae2890e73cb15b1c0e42a8a0821223",
          "topics": [
            "0x2bbaa179fabbdbc2ed8c301faf6fca674ce9b4db55373c36bda89901d2fcfb6c",
            "0x5611645c7b7387fb8499426a4c76a74c7241f751aca035dcabb5e9b0ed7cf68b",
            "0x000000000000000000000000000000000000000000000000000000000000000b"
          ],
          "data": "0x000000000000000000000000000000000000000000000009f98351204fdffe70000000000000000000000000000000000000000000000000ff59ee833b2fffd800000000000000000000000000000000000000000000000000000000000000000000000000000000000000000000000000000000000000000000000000000000",
          "blockHash": "0xf039251319216504b574f2309368b7255002fca88d350a8256daab68470c9143",
          "blockNumber": "0x143e60b",
          "transactionHash": "0xed58045803e69231b066edfa13d42c4c8aa94b3e2a15d862a108f1f429c8cb76",
          "transactionIndex": "0x27",
          "logIndex": "0x83",
          "removed": false
        },
        {
          "address": "0x14f2a22c97ae2890e73cb15b1c0e42a8a0821223",
          "topics": [
            "0x949314518006833d597b4acd80e6cc367fa5461d9a4f80373e136688b6aad142",
            "0x0000000000000000000000008c9c001f821c04513616fd7962b2d8c62f925fd2",
            "0x5611645c7b7387fb8499426a4c76a74c7241f751aca035dcabb5e9b0ed7cf68b",
            "0x000000000000000000000000000000000000000000000000000000000000000b"
          ],
          "data": "0x000000000000000000000000000000000000000000000000000000000000000000000000000000000000000000000000000000000000000000000000000000000000000000000000000000000000000000000000000000000000000000000000",
          "blockHash": "0xf039251319216504b574f2309368b7255002fca88d350a8256daab68470c9143",
          "blockNumber": "0x143e60b",
          "transactionHash": "0xed58045803e69231b066edfa13d42c4c8aa94b3e2a15d862a108f1f429c8cb76",
          "transactionIndex": "0x27",
          "logIndex": "0x84",
          "removed": false
        },
        {
          "address": "0x14f2a22c97ae2890e73cb15b1c0e42a8a0821223",
          "topics": [
            "0x4e7bac5695f40fad0768f0f3b8c118c3d4d29e043511b9fa823003fe60027275",
            "0x0000000000000000000000008c9c001f821c04513616fd7962b2d8c62f925fd2",
            "0x5611645c7b7387fb8499426a4c76a74c7241f751aca035dcabb5e9b0ed7cf68b"
          ],
          "data": "0x000000000000000000000000000000000000000000000004e1003b28d9280000",
          "blockHash": "0xf039251319216504b574f2309368b7255002fca88d350a8256daab68470c9143",
          "blockNumber": "0x143e60b",
          "transactionHash": "0xed58045803e69231b066edfa13d42c4c8aa94b3e2a15d862a108f1f429c8cb76",
          "transactionIndex": "0x27",
          "logIndex": "0x85",
          "removed": false
        },
        {
          "address": "0x8528c2df4ed0cf397a31b3f0ff0b96719a1be2c6",
          "topics": [
            "0xddf252ad1be2c89b69c2b068fc378daa952ba7f163c4a11628f55a4df523b3ef",
            "0x0000000000000000000000008c9c001f821c04513616fd7962b2d8c62f925fd2",
            "0x00000000000000000000000014f2a22c97ae2890e73cb15b1c0e42a8a0821223"
          ],
          "data": "0x000000000000000000000000000000000000000000000004e1003b28d9280000",
          "blockHash": "0xf039251319216504b574f2309368b7255002fca88d350a8256daab68470c9143",
          "blockNumber": "0x143e60b",
          "transactionHash": "0xed58045803e69231b066edfa13d42c4c8aa94b3e2a15d862a108f1f429c8cb76",
          "transactionIndex": "0x27",
          "logIndex": "0x86",
          "removed": false
        }
      ],
      "logsBloom": "0x040000080000000000000040000008000000000000000000000000000000000000000008000000000000000000000400080010000606800000200000002400000000300000004000000000080040000000000000000400000000000000000000080000000200000010000000000008000000000000100000000000180000000000a0000400000004010000000000001000001800000000001000000000000000000000000200000000000100000020001000000042800000002080480000408040000002000000000000000000000000002200008000010000000100000060000000000000000000000000000000000000000000008000040000000000800000",
      "type": "0x2",
      "transactionHash": "0xed58045803e69231b066edfa13d42c4c8aa94b3e2a15d862a108f1f429c8cb76",
      "transactionIndex": "0x27",
      "blockHash": "0xf039251319216504b574f2309368b7255002fca88d350a8256daab68470c9143",
      "blockNumber": "0x143e60b",
      "gasUsed": "0x154f88",
      "effectiveGasPrice": "0x13f6b03",
      "from": "0x8c9c001f821c04513616fd7962b2d8c62f925fd2",
      "to": "0x14f2a22c97ae2890e73cb15b1c0e42a8a0821223",
      "contractAddress": null,
      "l1BaseFeeScalar": "0x44d",
      "l1BlobBaseFee": "0x1",
      "l1BlobBaseFeeScalar": "0xa118b",
      "l1Fee": "0x7aec83e2",
      "l1GasPrice": "0x45c79914",
      "l1GasUsed": "0x640"
    },
    {
      "status": "0x1",
      "cumulativeGasUsed": "0x5c36c2",
      "logs": [
        {
          "address": "0x14f2a22c97ae2890e73cb15b1c0e42a8a0821223",
          "topics": [
            "0x764e98ff8f133fd79086bf24b413507d9b7e83977b31f35a16b80680f38f7072",
            "0x000000000000000000000000000000000000000000000000000000000000000c"
          ],
          "data": "0x00000000000000000000000000000000000000000000000000000000679b2b00000000000000000000000000000000000000000000000000000000006811d2000000000000000000000000000000000000000000000000000de0b6b3a76400000000000000000000000000000000000000000000000000000de0b6b3a7640000",
          "blockHash": "0xf039251319216504b574f2309368b7255002fca88d350a8256daab68470c9143",
          "blockNumber": "0x143e60b",
          "transactionHash": "0x7ee866b3b2baacb4fcc349a0191b7d1d541254a4b7c473986ee282bb4e89e3da",
          "transactionIndex": "0x28",
          "logIndex": "0x87",
          "removed": false
        },
        {
          "address": "0x264541e2dc34875943a746174e862ac594164aa2",
          "topics": [
            "0x554c94cb64d410104e2b06cc56052e30bc29a1307df890d30eb124045d4ae680",
            "0x000000000000000000000000000000000000000000000000000000000000000c"
          ],
          "data": "0x00000000000000000000000000000000000000000000000000000000000075e800000000000000000000000058bde6071db4a9b006fdabe75a2eeb43decb779b",
          "blockHash": "0xf039251319216504b574f2309368b7255002fca88d350a8256daab68470c9143",
          "blockNumber": "0x143e60b",
          "transactionHash": "0x7ee866b3b2baacb4fcc349a0191b7d1d541254a4b7c473986ee282bb4e89e3da",
          "transactionIndex": "0x28",
          "logIndex": "0x88",
          "removed": false
        }
      ],
      "logsBloom": "0x00000000000000000000000000000000000002000000000000000000000000000000000800000200100000000000000000000000000400000000000000000000000000000000000000000002000000000000000000400000000000000000000000000000000000000000000000000000000000000000020000000000000000000000000000000000000000000000000000000000000000000000000000000000000000200000000000000000000020000000000000000000000000000000000000000000000000020000000000000000000000000000000000000000000020200000000000000000000000000000000000000020000000000000001000000000",
      "type": "0x2",
      "transactionHash": "0x7ee866b3b2baacb4fcc349a0191b7d1d541254a4b7c473986ee282bb4e89e3da",
      "transactionIndex": "0x28",
      "blockHash": "0xf039251319216504b574f2309368b7255002fca88d350a8256daab68470c9143",
      "blockNumber": "0x143e60b",
      "gasUsed": "0x4435a",
      "effectiveGasPrice": "0x13f6b03",
      "from": "0x8c9c001f821c04513616fd7962b2d8c62f925fd2",
      "to": "0x14f2a22c97ae2890e73cb15b1c0e42a8a0821223",
      "contractAddress": null,
      "l1BaseFeeScalar": "0x44d",
      "l1BlobBaseFee": "0x1",
      "l1BlobBaseFeeScalar": "0xa118b",
      "l1Fee": "0x921b2188",
      "l1GasPrice": "0x45c79914",
      "l1GasUsed": "0x76d"
    },
    {
      "status": "0x1",
      "cumulativeGasUsed": "0x5d6c7a",
      "logs": [
        {
          "address": "0x58bde6071db4a9b006fdabe75a2eeb43decb779b",
          "topics": [
            "0xddf252ad1be2c89b69c2b068fc378daa952ba7f163c4a11628f55a4df523b3ef",
            "0x0000000000000000000000008c9c001f821c04513616fd7962b2d8c62f925fd2",
            "0x000000000000000000000000264541e2dc34875943a746174e862ac594164aa2"
          ],
          "data": "0x000000000000000000000000000000000000000000000004e1003b28d9280000",
          "blockHash": "0xf039251319216504b574f2309368b7255002fca88d350a8256daab68470c9143",
          "blockNumber": "0x143e60b",
          "transactionHash": "0x7e37e6f447eacbae9ef6476d8ee9cf038a4fef99d1dc398ef3a4f2ac4242370c",
          "transactionIndex": "0x29",
          "logIndex": "0x89",
          "removed": false
        },
        {
          "address": "0x264541e2dc34875943a746174e862ac594164aa2",
          "topics": [
            "0x90e9c021de092ced915ba783260374f129aeeedec753ab3fb564631601ff9589",
            "0x000000000000000000000000000000000000000000000000000000000000000c",
            "0x0000000000000000000000008c9c001f821c04513616fd7962b2d8c62f925fd2"
          ],
          "data": "0x00000000000000000000000000000000000000000000000000000000000075e8000000000000000000000000000000000000000000000004e1003b28d9280000",
          "blockHash": "0xf039251319216504b574f2309368b7255002fca88d350a8256daab68470c9143",
          "blockNumber": "0x143e60b",
          "transactionHash": "0x7e37e6f447eacbae9ef6476d8ee9cf038a4fef99d1dc398ef3a4f2ac4242370c",
          "transactionIndex": "0x29",
          "logIndex": "0x8a",
          "removed": false
        }
      ],
      "logsBloom": "0x00000000000000000000000000001800000002000000000000000000000000000000000000000200000000000000000000000000000000000000000000000000000000200000000000000008004000000000000000400000000000000000000000000000000000000000000000000000000000000000000000000010020000000000000000000000000000000000000000000000000000000000000000400020000000000000000000000000000000000000000000000000000080000000000000000002000000000000000000000000000000000000100000000000000000200000000000000000000000008000000800000020008000000000001000000000",
      "type": "0x2",
      "transactionHash": "0x7e37e6f447eacbae9ef6476d8ee9cf038a4fef99d1dc398ef3a4f2ac4242370c",
      "transactionIndex": "0x29",
      "blockHash": "0xf039251319216504b574f2309368b7255002fca88d350a8256daab68470c9143",
      "blockNumber": "0x143e60b",
      "gasUsed": "0x135b8",
      "effectiveGasPrice": "0x13f6b03",
      "from": "0x8c9c001f821c04513616fd7962b2d8c62f925fd2",
      "to": "0x264541e2dc34875943a746174e862ac594164aa2",
      "contractAddress": null,
      "l1BaseFeeScalar": "0x44d",
      "l1BlobBaseFee": "0x1",
      "l1BlobBaseFeeScalar": "0xa118b",
      "l1Fee": "0x7aec83e2",
      "l1GasPrice": "0x45c79914",
      "l1GasUsed": "0x640"
    }
  ],
  "libraries": [],
  "pending": [],
  "returns": {},
  "timestamp": 1738222326,
  "chain": 84532,
  "commit": "786270f"
}