{
  "transactions": [
    {
      "hash": "0xce37028d56900c43a8a28629e230999621f376921f344c082eea2cfcc9269098",
      "transactionType": "CALL",
      "contractName": "StakingPro",
      "contractAddress": "0x14f2a22c97ae2890e73cb15b1c0e42a8a0821223",
      "function": "stakeTokens(bytes32,uint256)",
      "arguments": [
        "0x5611645c7b7387fb8499426a4c76a74c7241f751aca035dcabb5e9b0ed7cf68b",
        "90000000000000000000"
      ],
      "transaction": {
        "from": "0x8c9c001f821c04513616fd7962b2d8c62f925fd2",
        "to": "0x14f2a22c97ae2890e73cb15b1c0e42a8a0821223",
        "gas": "0x1ab297",
        "value": "0x0",
        "input": "0xe6587ea25611645c7b7387fb8499426a4c76a74c7241f751aca035dcabb5e9b0ed7cf68b000000000000000000000000000000000000000000000004e1003b28d9280000",
        "nonce": "0x74",
        "chainId": "0x14a34"
      },
      "additionalContracts": [],
      "isFixedGasLimit": false
    },
    {
      "hash": "0x2ba53e386c276f70f938ecefe9605bf658a7bd9084dec54795c306698969bc02",
      "transactionType": "CALL",
      "contractName": "StakingPro",
      "contractAddress": "0x14f2a22c97ae2890e73cb15b1c0e42a8a0821223",
      "function": "setupDistribution(uint256,uint256,uint256,uint256,uint256,uint32,bytes32)",
      "arguments": [
        "10",
        "1738221680",
        "1745997680",
        "1000000000000000000",
        "1000000000000000000",
        "30184",
        "0x00000000000000000000000058bde6071db4a9b006fdabe75a2eeb43decb779b"
      ],
      "transaction": {
        "from": "0x8c9c001f821c04513616fd7962b2d8c62f925fd2",
        "to": "0x14f2a22c97ae2890e73cb15b1c0e42a8a0821223",
        "gas": "0x63c3c",
        "value": "0x0",
        "input": "0x0b6d6c99000000000000000000000000000000000000000000000000000000000000000a00000000000000000000000000000000000000000000000000000000679b2870000000000000000000000000000000000000000000000000000000006811cf700000000000000000000000000000000000000000000000000de0b6b3a76400000000000000000000000000000000000000000000000000000de0b6b3a764000000000000000000000000000000000000000000000000000000000000000075e800000000000000000000000058bde6071db4a9b006fdabe75a2eeb43decb779b",
        "nonce": "0x75",
        "chainId": "0x14a34"
      },
      "additionalContracts": [],
      "isFixedGasLimit": false
    },
    {
      "hash": "0x53f7ed1d196903b498bb04087e5b777b04a2b8da4798ec82b7540eb6b4861672",
      "transactionType": "CALL",
      "contractName": "RewardsVaultV1",
      "contractAddress": "0x264541e2dc34875943a746174e862ac594164aa2",
      "function": "deposit(uint256,uint256,address)",
      "arguments": [
        "10",
        "90000000000000000000",
        "0x8C9C001F821c04513616fd7962B2D8c62f925fD2"
      ],
      "transaction": {
        "from": "0x8c9c001f821c04513616fd7962b2d8c62f925fd2",
        "to": "0x264541e2dc34875943a746174e862ac594164aa2",
        "gas": "0x1abcb",
        "value": "0x0",
        "input": "0x8dbdbe6d000000000000000000000000000000000000000000000000000000000000000a000000000000000000000000000000000000000000000004e1003b28d92800000000000000000000000000008c9c001f821c04513616fd7962b2d8c62f925fd2",
        "nonce": "0x76",
        "chainId": "0x14a34"
      },
      "additionalContracts": [],
      "isFixedGasLimit": false
    }
  ],
  "receipts": [
    {
      "status": "0x1",
      "cumulativeGasUsed": "0x4888fd",
      "logs": [
        {
          "address": "0x14f2a22c97ae2890e73cb15b1c0e42a8a0821223",
          "topics": [
            "0x949314518006833d597b4acd80e6cc367fa5461d9a4f80373e136688b6aad142",
            "0x0000000000000000000000008c9c001f821c04513616fd7962b2d8c62f925fd2",
            "0x5611645c7b7387fb8499426a4c76a74c7241f751aca035dcabb5e9b0ed7cf68b",
            "0x0000000000000000000000000000000000000000000000000000000000000000"
          ],
          "data": "0x000000000000000000000000000000000000000000000000000000000000000000000000000000000000000000000000000000000000000000000000000000000000000000000000000000000000000000000000000000000000000000000000",
          "blockHash": "0x8b5f9b216c64f964b53f70b63e23058f5854fa4a35bc96fb42ae13f69191ae71",
          "blockNumber": "0x143e4b7",
          "transactionHash": "0xce37028d56900c43a8a28629e230999621f376921f344c082eea2cfcc9269098",
          "transactionIndex": "0x1c",
          "logIndex": "0x53",
          "removed": false
        },
        {
          "address": "0x14f2a22c97ae2890e73cb15b1c0e42a8a0821223",
          "topics": [
            "0xc2ec7dd88a6dab4eecfd7a57fb0879a881a03e12b94dc49c5fec5d5faa8792ce",
            "0x0000000000000000000000000000000000000000000000000000000000000001"
          ],
          "data": "0x00000000000000000000000000000000000000000000000000000000679b284e0000000000000000000000000000000000000000000000035ad34f605b3b38330000000000000000000000000000000000000000000000035ad34f605b3b3833",
          "blockHash": "0x8b5f9b216c64f964b53f70b63e23058f5854fa4a35bc96fb42ae13f69191ae71",
          "blockNumber": "0x143e4b7",
          "transactionHash": "0xce37028d56900c43a8a28629e230999621f376921f344c082eea2cfcc9269098",
          "transactionIndex": "0x1c",
          "logIndex": "0x54",
          "removed": false
        },
        {
          "address": "0x14f2a22c97ae2890e73cb15b1c0e42a8a0821223",
          "topics": [
            "0x2bbaa179fabbdbc2ed8c301faf6fca674ce9b4db55373c36bda89901d2fcfb6c",
            "0x5611645c7b7387fb8499426a4c76a74c7241f751aca035dcabb5e9b0ed7cf68b",
            "0x0000000000000000000000000000000000000000000000000000000000000001"
          ],
          "data": "0x000000000000000000000000000000000000000000000019430c9306b407ff6000000000000000000000000000000000000000000000000286b4751a4533fff000000000000000000000000000000000000000000000000000000000000000000000000000000000000000000000000000000000000000000000000000000000",
          "blockHash": "0x8b5f9b216c64f964b53f70b63e23058f5854fa4a35bc96fb42ae13f69191ae71",
          "blockNumber": "0x143e4b7",
          "transactionHash": "0xce37028d56900c43a8a28629e230999621f376921f344c082eea2cfcc9269098",
          "transactionIndex": "0x1c",
          "logIndex": "0x55",
          "removed": false
        },
        {
          "address": "0x14f2a22c97ae2890e73cb15b1c0e42a8a0821223",
          "topics": [
            "0x949314518006833d597b4acd80e6cc367fa5461d9a4f80373e136688b6aad142",
            "0x0000000000000000000000008c9c001f821c04513616fd7962b2d8c62f925fd2",
            "0x5611645c7b7387fb8499426a4c76a74c7241f751aca035dcabb5e9b0ed7cf68b",
            "0x0000000000000000000000000000000000000000000000000000000000000001"
          ],
          "data": "0x000000000000000000000000000000000000000000000000000000000000000000000000000000000000000000000000000000000000000000000000000000000000000000000000000000000000000000000000000000000000000000000000",
          "blockHash": "0x8b5f9b216c64f964b53f70b63e23058f5854fa4a35bc96fb42ae13f69191ae71",
          "blockNumber": "0x143e4b7",
          "transactionHash": "0xce37028d56900c43a8a28629e230999621f376921f344c082eea2cfcc9269098",
          "transactionIndex": "0x1c",
          "logIndex": "0x56",
          "removed": false
        },
        {
          "address": "0x14f2a22c97ae2890e73cb15b1c0e42a8a0821223",
          "topics": [
            "0xc2ec7dd88a6dab4eecfd7a57fb0879a881a03e12b94dc49c5fec5d5faa8792ce",
            "0x0000000000000000000000000000000000000000000000000000000000000002"
          ],
          "data": "0x00000000000000000000000000000000000000000000000000000000679b284e000000000000000000000000000000000000000000000000a0ed495fb7eba9fa000000000000000000000000000000000000000000000000a0ed495fb7eba9fa",
          "blockHash": "0x8b5f9b216c64f964b53f70b63e23058f5854fa4a35bc96fb42ae13f69191ae71",
          "blockNumber": "0x143e4b7",
          "transactionHash": "0xce37028d56900c43a8a28629e230999621f376921f344c082eea2cfcc9269098",
          "transactionIndex": "0x1c",
          "logIndex": "0x57",
          "removed": false
        },
        {
          "address": "0x14f2a22c97ae2890e73cb15b1c0e42a8a0821223",
          "topics": [
            "0x2bbaa179fabbdbc2ed8c301faf6fca674ce9b4db55373c36bda89901d2fcfb6c",
            "0x5611645c7b7387fb8499426a4c76a74c7241f751aca035dcabb5e9b0ed7cf68b",
            "0x0000000000000000000000000000000000000000000000000000000000000002"
          ],
          "data": "0x000000000000000000000000000000000000000000000019430c9306b407ff6000000000000000000000000000000000000000000000000286b4751a4533fff000000000000000000000000000000000000000000000000000000000000000000000000000000000000000000000000000000000000000000000000000000000",
          "blockHash": "0x8b5f9b216c64f964b53f70b63e23058f5854fa4a35bc96fb42ae13f69191ae71",
          "blockNumber": "0x143e4b7",
          "transactionHash": "0xce37028d56900c43a8a28629e230999621f376921f344c082eea2cfcc9269098",
          "transactionIndex": "0x1c",
          "logIndex": "0x58",
          "removed": false
        },
        {
          "address": "0x14f2a22c97ae2890e73cb15b1c0e42a8a0821223",
          "topics": [
            "0x949314518006833d597b4acd80e6cc367fa5461d9a4f80373e136688b6aad142",
            "0x0000000000000000000000008c9c001f821c04513616fd7962b2d8c62f925fd2",
            "0x5611645c7b7387fb8499426a4c76a74c7241f751aca035dcabb5e9b0ed7cf68b",
            "0x0000000000000000000000000000000000000000000000000000000000000002"
          ],
          "data": "0x000000000000000000000000000000000000000000000000000000000000000000000000000000000000000000000000000000000000000000000000000000000000000000000000000000000000000000000000000000000000000000000000",
          "blockHash": "0x8b5f9b216c64f964b53f70b63e23058f5854fa4a35bc96fb42ae13f69191ae71",
          "blockNumber": "0x143e4b7",
          "transactionHash": "0xce37028d56900c43a8a28629e230999621f376921f344c082eea2cfcc9269098",
          "transactionIndex": "0x1c",
          "logIndex": "0x59",
          "removed": false
        },
        {
          "address": "0x14f2a22c97ae2890e73cb15b1c0e42a8a0821223",
          "topics": [
            "0xc2ec7dd88a6dab4eecfd7a57fb0879a881a03e12b94dc49c5fec5d5faa8792ce",
            "0x0000000000000000000000000000000000000000000000000000000000000003"
          ],
          "data": "0x00000000000000000000000000000000000000000000000000000000679b284e000000000000000000000000000000000000000000000000691b7b92ccaec66d000000000000000000000000000000000000000000000000691b7b92ccaec66d",
          "blockHash": "0x8b5f9b216c64f964b53f70b63e23058f5854fa4a35bc96fb42ae13f69191ae71",
          "blockNumber": "0x143e4b7",
          "transactionHash": "0xce37028d56900c43a8a28629e230999621f376921f344c082eea2cfcc9269098",
          "transactionIndex": "0x1c",
          "logIndex": "0x5a",
          "removed": false
        },
        {
          "address": "0x14f2a22c97ae2890e73cb15b1c0e42a8a0821223",
          "topics": [
            "0x2bbaa179fabbdbc2ed8c301faf6fca674ce9b4db55373c36bda89901d2fcfb6c",
            "0x5611645c7b7387fb8499426a4c76a74c7241f751aca035dcabb5e9b0ed7cf68b",
            "0x0000000000000000000000000000000000000000000000000000000000000003"
          ],
          "data": "0x000000000000000000000000000000000000000000000019430c9306b407ff6000000000000000000000000000000000000000000000000286b4751a4533fff000000000000000000000000000000000000000000000000000000000000000000000000000000000000000000000000000000000000000000000000000000000",
          "blockHash": "0x8b5f9b216c64f964b53f70b63e23058f5854fa4a35bc96fb42ae13f69191ae71",
          "blockNumber": "0x143e4b7",
          "transactionHash": "0xce37028d56900c43a8a28629e230999621f376921f344c082eea2cfcc9269098",
          "transactionIndex": "0x1c",
          "logIndex": "0x5b",
          "removed": false
        },
        {
          "address": "0x14f2a22c97ae2890e73cb15b1c0e42a8a0821223",
          "topics": [
            "0x949314518006833d597b4acd80e6cc367fa5461d9a4f80373e136688b6aad142",
            "0x0000000000000000000000008c9c001f821c04513616fd7962b2d8c62f925fd2",
            "0x5611645c7b7387fb8499426a4c76a74c7241f751aca035dcabb5e9b0ed7cf68b",
            "0x0000000000000000000000000000000000000000000000000000000000000003"
          ],
          "data": "0x000000000000000000000000000000000000000000000000000000000000000000000000000000000000000000000000000000000000000000000000000000000000000000000000000000000000000000000000000000000000000000000000",
          "blockHash": "0x8b5f9b216c64f964b53f70b63e23058f5854fa4a35bc96fb42ae13f69191ae71",
          "blockNumber": "0x143e4b7",
          "transactionHash": "0xce37028d56900c43a8a28629e230999621f376921f344c082eea2cfcc9269098",
          "transactionIndex": "0x1c",
          "logIndex": "0x5c",
          "removed": false
        },
        {
          "address": "0x14f2a22c97ae2890e73cb15b1c0e42a8a0821223",
          "topics": [
            "0xc2ec7dd88a6dab4eecfd7a57fb0879a881a03e12b94dc49c5fec5d5faa8792ce",
            "0x0000000000000000000000000000000000000000000000000000000000000004"
          ],
          "data": "0x00000000000000000000000000000000000000000000000000000000679b284e000000000000000000000000000000000000000000000000580af5f0ad5041af000000000000000000000000000000000000000000000000580af5f0ad5041af",
          "blockHash": "0x8b5f9b216c64f964b53f70b63e23058f5854fa4a35bc96fb42ae13f69191ae71",
          "blockNumber": "0x143e4b7",
          "transactionHash": "0xce37028d56900c43a8a28629e230999621f376921f344c082eea2cfcc9269098",
          "transactionIndex": "0x1c",
          "logIndex": "0x5d",
          "removed": false
        },
        {
          "address": "0x14f2a22c97ae2890e73cb15b1c0e42a8a0821223",
          "topics": [
            "0x2bbaa179fabbdbc2ed8c301faf6fca674ce9b4db55373c36bda89901d2fcfb6c",
            "0x5611645c7b7387fb8499426a4c76a74c7241f751aca035dcabb5e9b0ed7cf68b",
            "0x0000000000000000000000000000000000000000000000000000000000000004"
          ],
          "data": "0x000000000000000000000000000000000000000000000019430c9306b407ff6000000000000000000000000000000000000000000000000286b4751a4533fff000000000000000000000000000000000000000000000000000000000000000000000000000000000000000000000000000000000000000000000000000000000",
          "blockHash": "0x8b5f9b216c64f964b53f70b63e23058f5854fa4a35bc96fb42ae13f69191ae71",
          "blockNumber": "0x143e4b7",
          "transactionHash": "0xce37028d56900c43a8a28629e230999621f376921f344c082eea2cfcc9269098",
          "transactionIndex": "0x1c",
          "logIndex": "0x5e",
          "removed": false
        },
        {
          "address": "0x14f2a22c97ae2890e73cb15b1c0e42a8a0821223",
          "topics": [
            "0x949314518006833d597b4acd80e6cc367fa5461d9a4f80373e136688b6aad142",
            "0x0000000000000000000000008c9c001f821c04513616fd7962b2d8c62f925fd2",
            "0x5611645c7b7387fb8499426a4c76a74c7241f751aca035dcabb5e9b0ed7cf68b",
            "0x0000000000000000000000000000000000000000000000000000000000000004"
          ],
          "data": "0x000000000000000000000000000000000000000000000000000000000000000000000000000000000000000000000000000000000000000000000000000000000000000000000000000000000000000000000000000000000000000000000000",
          "blockHash": "0x8b5f9b216c64f964b53f70b63e23058f5854fa4a35bc96fb42ae13f69191ae71",
          "blockNumber": "0x143e4b7",
          "transactionHash": "0xce37028d56900c43a8a28629e230999621f376921f344c082eea2cfcc9269098",
          "transactionIndex": "0x1c",
          "logIndex": "0x5f",
          "removed": false
        },
        {
          "address": "0x14f2a22c97ae2890e73cb15b1c0e42a8a0821223",
          "topics": [
            "0xc2ec7dd88a6dab4eecfd7a57fb0879a881a03e12b94dc49c5fec5d5faa8792ce",
            "0x0000000000000000000000000000000000000000000000000000000000000005"
          ],
          "data": "0x00000000000000000000000000000000000000000000000000000000679b284e0000000000000000000000000000000000000000000000003d9fa582047571180000000000000000000000000000000000000000000000003d9fa58204757118",
          "blockHash": "0x8b5f9b216c64f964b53f70b63e23058f5854fa4a35bc96fb42ae13f69191ae71",
          "blockNumber": "0x143e4b7",
          "transactionHash": "0xce37028d56900c43a8a28629e230999621f376921f344c082eea2cfcc9269098",
          "transactionIndex": "0x1c",
          "logIndex": "0x60",
          "removed": false
        },
        {
          "address": "0x14f2a22c97ae2890e73cb15b1c0e42a8a0821223",
          "topics": [
            "0x2bbaa179fabbdbc2ed8c301faf6fca674ce9b4db55373c36bda89901d2fcfb6c",
            "0x5611645c7b7387fb8499426a4c76a74c7241f751aca035dcabb5e9b0ed7cf68b",
            "0x0000000000000000000000000000000000000000000000000000000000000005"
          ],
          "data": "0x000000000000000000000000000000000000000000000019430c9306b407ff6000000000000000000000000000000000000000000000000286b4751a4533fff000000000000000000000000000000000000000000000000000000000000000000000000000000000000000000000000000000000000000000000000000000000",
          "blockHash": "0x8b5f9b216c64f964b53f70b63e23058f5854fa4a35bc96fb42ae13f69191ae71",
          "blockNumber": "0x143e4b7",
          "transactionHash": "0xce37028d56900c43a8a28629e230999621f376921f344c082eea2cfcc9269098",
          "transactionIndex": "0x1c",
          "logIndex": "0x61",
          "removed": false
        },
        {
          "address": "0x14f2a22c97ae2890e73cb15b1c0e42a8a0821223",
          "topics": [
            "0x949314518006833d597b4acd80e6cc367fa5461d9a4f80373e136688b6aad142",
            "0x0000000000000000000000008c9c001f821c04513616fd7962b2d8c62f925fd2",
            "0x5611645c7b7387fb8499426a4c76a74c7241f751aca035dcabb5e9b0ed7cf68b",
            "0x0000000000000000000000000000000000000000000000000000000000000005"
          ],
          "data": "0x000000000000000000000000000000000000000000000000000000000000000000000000000000000000000000000000000000000000000000000000000000000000000000000000000000000000000000000000000000000000000000000000",
          "blockHash": "0x8b5f9b216c64f964b53f70b63e23058f5854fa4a35bc96fb42ae13f69191ae71",
          "blockNumber": "0x143e4b7",
          "transactionHash": "0xce37028d56900c43a8a28629e230999621f376921f344c082eea2cfcc9269098",
          "transactionIndex": "0x1c",
          "logIndex": "0x62",
          "removed": false
        },
        {
          "address": "0x14f2a22c97ae2890e73cb15b1c0e42a8a0821223",
          "topics": [
            "0xc2ec7dd88a6dab4eecfd7a57fb0879a881a03e12b94dc49c5fec5d5faa8792ce",
            "0x0000000000000000000000000000000000000000000000000000000000000006"
          ],
          "data": "0x00000000000000000000000000000000000000000000000000000000679b284e0000000000000000000000000000000000000000000000002eaa9c544d3454a60000000000000000000000000000000000000000000000002eaa9c544d3454a6",
          "blockHash": "0x8b5f9b216c64f964b53f70b63e23058f5854fa4a35bc96fb42ae13f69191ae71",
          "blockNumber": "0x143e4b7",
          "transactionHash": "0xce37028d56900c43a8a28629e230999621f376921f344c082eea2cfcc9269098",
          "transactionIndex": "0x1c",
          "logIndex": "0x63",
          "removed": false
        },
        {
          "address": "0x14f2a22c97ae2890e73cb15b1c0e42a8a0821223",
          "topics": [
            "0x2bbaa179fabbdbc2ed8c301faf6fca674ce9b4db55373c36bda89901d2fcfb6c",
            "0x5611645c7b7387fb8499426a4c76a74c7241f751aca035dcabb5e9b0ed7cf68b",
            "0x0000000000000000000000000000000000000000000000000000000000000006"
          ],
          "data": "0x000000000000000000000000000000000000000000000019430c9306b407ff6000000000000000000000000000000000000000000000000286b4751a4533fff000000000000000000000000000000000000000000000000000000000000000000000000000000000000000000000000000000000000000000000000000000000",
          "blockHash": "0x8b5f9b216c64f964b53f70b63e23058f5854fa4a35bc96fb42ae13f69191ae71",
          "blockNumber": "0x143e4b7",
          "transactionHash": "0xce37028d56900c43a8a28629e230999621f376921f344c082eea2cfcc9269098",
          "transactionIndex": "0x1c",
          "logIndex": "0x64",
          "removed": false
        },
        {
          "address": "0x14f2a22c97ae2890e73cb15b1c0e42a8a0821223",
          "topics": [
            "0x949314518006833d597b4acd80e6cc367fa5461d9a4f80373e136688b6aad142",
            "0x0000000000000000000000008c9c001f821c04513616fd7962b2d8c62f925fd2",
            "0x5611645c7b7387fb8499426a4c76a74c7241f751aca035dcabb5e9b0ed7cf68b",
            "0x0000000000000000000000000000000000000000000000000000000000000006"
          ],
          "data": "0x000000000000000000000000000000000000000000000000000000000000000000000000000000000000000000000000000000000000000000000000000000000000000000000000000000000000000000000000000000000000000000000000",
          "blockHash": "0x8b5f9b216c64f964b53f70b63e23058f5854fa4a35bc96fb42ae13f69191ae71",
          "blockNumber": "0x143e4b7",
          "transactionHash": "0xce37028d56900c43a8a28629e230999621f376921f344c082eea2cfcc9269098",
          "transactionIndex": "0x1c",
          "logIndex": "0x65",
          "removed": false
        },
        {
          "address": "0x14f2a22c97ae2890e73cb15b1c0e42a8a0821223",
          "topics": [
            "0xc2ec7dd88a6dab4eecfd7a57fb0879a881a03e12b94dc49c5fec5d5faa8792ce",
            "0x0000000000000000000000000000000000000000000000000000000000000007"
          ],
          "data": "0x00000000000000000000000000000000000000000000000000000000679b284e0000000000000000000000000000000000000000000000001933bf30c899a9fc0000000000000000000000000000000000000000000000001933bf30c899a9fc",
          "blockHash": "0x8b5f9b216c64f964b53f70b63e23058f5854fa4a35bc96fb42ae13f69191ae71",
          "blockNumber": "0x143e4b7",
          "transactionHash": "0xce37028d56900c43a8a28629e230999621f376921f344c082eea2cfcc9269098",
          "transactionIndex": "0x1c",
          "logIndex": "0x66",
          "removed": false
        },
        {
          "address": "0x14f2a22c97ae2890e73cb15b1c0e42a8a0821223",
          "topics": [
            "0x2bbaa179fabbdbc2ed8c301faf6fca674ce9b4db55373c36bda89901d2fcfb6c",
            "0x5611645c7b7387fb8499426a4c76a74c7241f751aca035dcabb5e9b0ed7cf68b",
            "0x0000000000000000000000000000000000000000000000000000000000000007"
          ],
          "data": "0x000000000000000000000000000000000000000000000019430c9306b407ff6000000000000000000000000000000000000000000000000286b4751a4533fff000000000000000000000000000000000000000000000000000000000000000000000000000000000000000000000000000000000000000000000000000000000",
          "blockHash": "0x8b5f9b216c64f964b53f70b63e23058f5854fa4a35bc96fb42ae13f69191ae71",
          "blockNumber": "0x143e4b7",
          "transactionHash": "0xce37028d56900c43a8a28629e230999621f376921f344c082eea2cfcc9269098",
          "transactionIndex": "0x1c",
          "logIndex": "0x67",
          "removed": false
        },
        {
          "address": "0x14f2a22c97ae2890e73cb15b1c0e42a8a0821223",
          "topics": [
            "0x949314518006833d597b4acd80e6cc367fa5461d9a4f80373e136688b6aad142",
            "0x0000000000000000000000008c9c001f821c04513616fd7962b2d8c62f925fd2",
            "0x5611645c7b7387fb8499426a4c76a74c7241f751aca035dcabb5e9b0ed7cf68b",
            "0x0000000000000000000000000000000000000000000000000000000000000007"
          ],
          "data": "0x000000000000000000000000000000000000000000000000000000000000000000000000000000000000000000000000000000000000000000000000000000000000000000000000000000000000000000000000000000000000000000000000",
          "blockHash": "0x8b5f9b216c64f964b53f70b63e23058f5854fa4a35bc96fb42ae13f69191ae71",
          "blockNumber": "0x143e4b7",
          "transactionHash": "0xce37028d56900c43a8a28629e230999621f376921f344c082eea2cfcc9269098",
          "transactionIndex": "0x1c",
          "logIndex": "0x68",
          "removed": false
        },
        {
          "address": "0x14f2a22c97ae2890e73cb15b1c0e42a8a0821223",
          "topics": [
            "0xc2ec7dd88a6dab4eecfd7a57fb0879a881a03e12b94dc49c5fec5d5faa8792ce",
            "0x0000000000000000000000000000000000000000000000000000000000000008"
          ],
          "data": "0x00000000000000000000000000000000000000000000000000000000679b284e0000000000000000000000000000000000000000000000000bef0d42eb790a280000000000000000000000000000000000000000000000000bef0d42eb790a28",
          "blockHash": "0x8b5f9b216c64f964b53f70b63e23058f5854fa4a35bc96fb42ae13f69191ae71",
          "blockNumber": "0x143e4b7",
          "transactionHash": "0xce37028d56900c43a8a28629e230999621f376921f344c082eea2cfcc9269098",
          "transactionIndex": "0x1c",
          "logIndex": "0x69",
          "removed": false
        },
        {
          "address": "0x14f2a22c97ae2890e73cb15b1c0e42a8a0821223",
          "topics": [
            "0x2bbaa179fabbdbc2ed8c301faf6fca674ce9b4db55373c36bda89901d2fcfb6c",
            "0x5611645c7b7387fb8499426a4c76a74c7241f751aca035dcabb5e9b0ed7cf68b",
            "0x0000000000000000000000000000000000000000000000000000000000000008"
          ],
          "data": "0x000000000000000000000000000000000000000000000019430c9306b407ff6000000000000000000000000000000000000000000000000286b4751a4533fff000000000000000000000000000000000000000000000000000000000000000000000000000000000000000000000000000000000000000000000000000000000",
          "blockHash": "0x8b5f9b216c64f964b53f70b63e23058f5854fa4a35bc96fb42ae13f69191ae71",
          "blockNumber": "0x143e4b7",
          "transactionHash": "0xce37028d56900c43a8a28629e230999621f376921f344c082eea2cfcc9269098",
          "transactionIndex": "0x1c",
          "logIndex": "0x6a",
          "removed": false
        },
        {
          "address": "0x14f2a22c97ae2890e73cb15b1c0e42a8a0821223",
          "topics": [
            "0x949314518006833d597b4acd80e6cc367fa5461d9a4f80373e136688b6aad142",
            "0x0000000000000000000000008c9c001f821c04513616fd7962b2d8c62f925fd2",
            "0x5611645c7b7387fb8499426a4c76a74c7241f751aca035dcabb5e9b0ed7cf68b",
            "0x0000000000000000000000000000000000000000000000000000000000000008"
          ],
          "data": "0x000000000000000000000000000000000000000000000000000000000000000000000000000000000000000000000000000000000000000000000000000000000000000000000000000000000000000000000000000000000000000000000000",
          "blockHash": "0x8b5f9b216c64f964b53f70b63e23058f5854fa4a35bc96fb42ae13f69191ae71",
          "blockNumber": "0x143e4b7",
          "transactionHash": "0xce37028d56900c43a8a28629e230999621f376921f344c082eea2cfcc9269098",
          "transactionIndex": "0x1c",
          "logIndex": "0x6b",
          "removed": false
        },
        {
          "address": "0x14f2a22c97ae2890e73cb15b1c0e42a8a0821223",
          "topics": [
            "0xc2ec7dd88a6dab4eecfd7a57fb0879a881a03e12b94dc49c5fec5d5faa8792ce",
            "0x0000000000000000000000000000000000000000000000000000000000000009"
          ],
          "data": "0x00000000000000000000000000000000000000000000000000000000679b284e00000000000000000000000000000000000000000000000008ac7230489e800000000000000000000000000000000000000000000000000008ac7230489e8000",
          "blockHash": "0x8b5f9b216c64f964b53f70b63e23058f5854fa4a35bc96fb42ae13f69191ae71",
          "blockNumber": "0x143e4b7",
          "transactionHash": "0xce37028d56900c43a8a28629e230999621f376921f344c082eea2cfcc9269098",
          "transactionIndex": "0x1c",
          "logIndex": "0x6c",
          "removed": false
        },
        {
          "address": "0x14f2a22c97ae2890e73cb15b1c0e42a8a0821223",
          "topics": [
            "0x2bbaa179fabbdbc2ed8c301faf6fca674ce9b4db55373c36bda89901d2fcfb6c",
            "0x5611645c7b7387fb8499426a4c76a74c7241f751aca035dcabb5e9b0ed7cf68b",
            "0x0000000000000000000000000000000000000000000000000000000000000009"
          ],
          "data": "0x000000000000000000000000000000000000000000000018650127cc3dc8000000000000000000000000000000000000000000000000000270801d946c94000000000000000000000000000000000000000000000000000000000000000000000000000000000000000000000000000000000000000000000000000000000000",
          "blockHash": "0x8b5f9b216c64f964b53f70b63e23058f5854fa4a35bc96fb42ae13f69191ae71",
          "blockNumber": "0x143e4b7",
          "transactionHash": "0xce37028d56900c43a8a28629e230999621f376921f344c082eea2cfcc9269098",
          "transactionIndex": "0x1c",
          "logIndex": "0x6d",
          "removed": false
        },
        {
          "address": "0x14f2a22c97ae2890e73cb15b1c0e42a8a0821223",
          "topics": [
            "0x949314518006833d597b4acd80e6cc367fa5461d9a4f80373e136688b6aad142",
            "0x0000000000000000000000008c9c001f821c04513616fd7962b2d8c62f925fd2",
            "0x5611645c7b7387fb8499426a4c76a74c7241f751aca035dcabb5e9b0ed7cf68b",
            "0x0000000000000000000000000000000000000000000000000000000000000009"
          ],
          "data": "0x000000000000000000000000000000000000000000000000000000000000000000000000000000000000000000000000000000000000000000000000000000000000000000000000000000000000000000000000000000000000000000000000",
          "blockHash": "0x8b5f9b216c64f964b53f70b63e23058f5854fa4a35bc96fb42ae13f69191ae71",
          "blockNumber": "0x143e4b7",
          "transactionHash": "0xce37028d56900c43a8a28629e230999621f376921f344c082eea2cfcc9269098",
          "transactionIndex": "0x1c",
          "logIndex": "0x6e",
          "removed": false
        },
        {
          "address": "0x14f2a22c97ae2890e73cb15b1c0e42a8a0821223",
          "topics": [
            "0x4e7bac5695f40fad0768f0f3b8c118c3d4d29e043511b9fa823003fe60027275",
            "0x0000000000000000000000008c9c001f821c04513616fd7962b2d8c62f925fd2",
            "0x5611645c7b7387fb8499426a4c76a74c7241f751aca035dcabb5e9b0ed7cf68b"
          ],
          "data": "0x000000000000000000000000000000000000000000000004e1003b28d9280000",
          "blockHash": "0x8b5f9b216c64f964b53f70b63e23058f5854fa4a35bc96fb42ae13f69191ae71",
          "blockNumber": "0x143e4b7",
          "transactionHash": "0xce37028d56900c43a8a28629e230999621f376921f344c082eea2cfcc9269098",
          "transactionIndex": "0x1c",
          "logIndex": "0x6f",
          "removed": false
        },
        {
          "address": "0x8528c2df4ed0cf397a31b3f0ff0b96719a1be2c6",
          "topics": [
            "0xddf252ad1be2c89b69c2b068fc378daa952ba7f163c4a11628f55a4df523b3ef",
            "0x0000000000000000000000008c9c001f821c04513616fd7962b2d8c62f925fd2",
            "0x00000000000000000000000014f2a22c97ae2890e73cb15b1c0e42a8a0821223"
          ],
          "data": "0x000000000000000000000000000000000000000000000004e1003b28d9280000",
          "blockHash": "0x8b5f9b216c64f964b53f70b63e23058f5854fa4a35bc96fb42ae13f69191ae71",
          "blockNumber": "0x143e4b7",
          "transactionHash": "0xce37028d56900c43a8a28629e230999621f376921f344c082eea2cfcc9269098",
          "transactionIndex": "0x1c",
          "logIndex": "0x70",
          "removed": false
        }
      ],
      "logsBloom": "0x040000080000000000000000000008000000000000000000000000000000000000000008000000000000000000000400080010000206800000000000002400000000300000004000000000080040000000000000000400000000000000000000080000000200000010000000000008000000000000100000000000180000000000a0000400000004000000000000001000001800000000001000000000000000000000000200000000000100000020001000000042800000002080480000408040000002000000000000000000000000000200008000010000000100000060000000000000000000000000000000000000000000008000000000000000800000",
      "type": "0x2",
      "transactionHash": "0xce37028d56900c43a8a28629e230999621f376921f344c082eea2cfcc9269098",
      "transactionIndex": "0x1c",
      "blockHash": "0x8b5f9b216c64f964b53f70b63e23058f5854fa4a35bc96fb42ae13f69191ae71",
      "blockNumber": "0x143e4b7",
      "gasUsed": "0x12413a",
      "effectiveGasPrice": "0x13c2b71",
      "from": "0x8c9c001f821c04513616fd7962b2d8c62f925fd2",
      "to": "0x14f2a22c97ae2890e73cb15b1c0e42a8a0821223",
      "contractAddress": null,
      "l1BaseFeeScalar": "0x44d",
      "l1BlobBaseFee": "0x1",
      "l1BlobBaseFeeScalar": "0xa118b",
      "l1Fee": "0x6c868ae3",
      "l1GasPrice": "0x3d9b3290",
      "l1GasUsed": "0x640"
    },
    {
      "status": "0x1",
      "cumulativeGasUsed": "0x4ccc6f",
      "logs": [
        {
          "address": "0x14f2a22c97ae2890e73cb15b1c0e42a8a0821223",
          "topics": [
            "0x764e98ff8f133fd79086bf24b413507d9b7e83977b31f35a16b80680f38f7072",
            "0x000000000000000000000000000000000000000000000000000000000000000a"
          ],
          "data": "0x00000000000000000000000000000000000000000000000000000000679b2870000000000000000000000000000000000000000000000000000000006811cf700000000000000000000000000000000000000000000000000de0b6b3a76400000000000000000000000000000000000000000000000000000de0b6b3a7640000",
          "blockHash": "0x8b5f9b216c64f964b53f70b63e23058f5854fa4a35bc96fb42ae13f69191ae71",
          "blockNumber": "0x143e4b7",
          "transactionHash": "0x2ba53e386c276f70f938ecefe9605bf658a7bd9084dec54795c306698969bc02",
          "transactionIndex": "0x1d",
          "logIndex": "0x71",
          "removed": false
        },
        {
          "address": "0x264541e2dc34875943a746174e862ac594164aa2",
          "topics": [
            "0x554c94cb64d410104e2b06cc56052e30bc29a1307df890d30eb124045d4ae680",
            "0x000000000000000000000000000000000000000000000000000000000000000a"
          ],
          "data": "0x00000000000000000000000000000000000000000000000000000000000075e800000000000000000000000058bde6071db4a9b006fdabe75a2eeb43decb779b",
          "blockHash": "0x8b5f9b216c64f964b53f70b63e23058f5854fa4a35bc96fb42ae13f69191ae71",
          "blockNumber": "0x143e4b7",
          "transactionHash": "0x2ba53e386c276f70f938ecefe9605bf658a7bd9084dec54795c306698969bc02",
          "transactionIndex": "0x1d",
          "logIndex": "0x72",
          "removed": false
        }
      ],
      "logsBloom": "0x00000000000000000000000000000000000000000000000000000000000000000000000800000000100000000000000000000000040400000020000000000000000000000000000000000002000000000000000000400000000000000000000000000000000000000000000000000000000000000000020000000000000000000000000000000000010000000000000000000000000000000000000000000000000000200000000000000000000020000000000000000000000000000000000000000000000000020000000000000000000000000000000000000000000020000000000000000000000000000000000000000020000000000000001000000000",
      "type": "0x2",
      "transactionHash": "0x2ba53e386c276f70f938ecefe9605bf658a7bd9084dec54795c306698969bc02",
      "transactionIndex": "0x1d",
      "blockHash": "0x8b5f9b216c64f964b53f70b63e23058f5854fa4a35bc96fb42ae13f69191ae71",
      "blockNumber": "0x143e4b7",
      "gasUsed": "0x44372",
      "effectiveGasPrice": "0x13c2b71",
      "from": "0x8c9c001f821c04513616fd7962b2d8c62f925fd2",
      "to": "0x14f2a22c97ae2890e73cb15b1c0e42a8a0821223",
      "contractAddress": null,
      "l1BaseFeeScalar": "0x44d",
      "l1BlobBaseFee": "0x1",
      "l1BlobBaseFeeScalar": "0xa118b",
      "l1Fee": "0x7d5c6bab",
      "l1GasPrice": "0x3d9b3290",
      "l1GasUsed": "0x738"
    },
    {
      "status": "0x1",
      "cumulativeGasUsed": "0x4e0227",
      "logs": [
        {
          "address": "0x58bde6071db4a9b006fdabe75a2eeb43decb779b",
          "topics": [
            "0xddf252ad1be2c89b69c2b068fc378daa952ba7f163c4a11628f55a4df523b3ef",
            "0x0000000000000000000000008c9c001f821c04513616fd7962b2d8c62f925fd2",
            "0x000000000000000000000000264541e2dc34875943a746174e862ac594164aa2"
          ],
          "data": "0x000000000000000000000000000000000000000000000004e1003b28d9280000",
          "blockHash": "0x8b5f9b216c64f964b53f70b63e23058f5854fa4a35bc96fb42ae13f69191ae71",
          "blockNumber": "0x143e4b7",
          "transactionHash": "0x53f7ed1d196903b498bb04087e5b777b04a2b8da4798ec82b7540eb6b4861672",
          "transactionIndex": "0x1e",
          "logIndex": "0x73",
          "removed": false
        },
        {
          "address": "0x264541e2dc34875943a746174e862ac594164aa2",
          "topics": [
            "0x90e9c021de092ced915ba783260374f129aeeedec753ab3fb564631601ff9589",
            "0x000000000000000000000000000000000000000000000000000000000000000a",
            "0x0000000000000000000000008c9c001f821c04513616fd7962b2d8c62f925fd2"
          ],
          "data": "0x00000000000000000000000000000000000000000000000000000000000075e8000000000000000000000000000000000000000000000004e1003b28d9280000",
          "blockHash": "0x8b5f9b216c64f964b53f70b63e23058f5854fa4a35bc96fb42ae13f69191ae71",
          "blockNumber": "0x143e4b7",
          "transactionHash": "0x53f7ed1d196903b498bb04087e5b777b04a2b8da4798ec82b7540eb6b4861672",
          "transactionIndex": "0x1e",
          "logIndex": "0x74",
          "removed": false
        }
      ],
      "logsBloom": "0x00000000000000000000000000001800000000000000000000000000000000000000000000000000000000000000000000000000040000000020000000000000000000200000000000000008004000000000000000400000000000000000000000000000000000000000000000000000000000000000000000000010020000000000000000000000010000000000000000000000000000000000000000400020000000000000000000000000000000000000000000000000000080000000000000000002000000000000000000000000000000000000100000000000000000000000000000000000000000008000000800000020008000000000001000000000",
      "type": "0x2",
      "transactionHash": "0x53f7ed1d196903b498bb04087e5b777b04a2b8da4798ec82b7540eb6b4861672",
      "transactionIndex": "0x1e",
      "blockHash": "0x8b5f9b216c64f964b53f70b63e23058f5854fa4a35bc96fb42ae13f69191ae71",
      "blockNumber": "0x143e4b7",
      "gasUsed": "0x135b8",
      "effectiveGasPrice": "0x13c2b71",
      "from": "0x8c9c001f821c04513616fd7962b2d8c62f925fd2",
      "to": "0x264541e2dc34875943a746174e862ac594164aa2",
      "contractAddress": null,
      "l1BaseFeeScalar": "0x44d",
      "l1BlobBaseFee": "0x1",
      "l1BlobBaseFeeScalar": "0xa118b",
      "l1Fee": "0x6c868ae3",
      "l1GasPrice": "0x3d9b3290",
      "l1GasUsed": "0x640"
    }
  ],
  "libraries": [],
  "pending": [],
  "returns": {},
  "timestamp": 1738221646,
  "chain": 84532,
  "commit": "5415508"
}