{
  "transactions": [
    {
      "hash": "0xabc3c4a4d04fadf7e27c9cdbf3e1385c5d11256f9b18d99fe5fe06b40eb1b570",
      "transactionType": "CALL",
      "contractName": "StakingPro",
      "contractAddress": "0x14f2a22c97ae2890e73cb15b1c0e42a8a0821223",
      "function": "setupDistribution(uint256,uint256,uint256,uint256,uint256,uint32,bytes32)",
      "arguments": [
        "2",
        "1738218326",
        "1745994326",
        "1000000000000000000",
        "1000000000000000000",
        "30184",
        "0x00000000000000000000000058bde6071db4a9b006fdabe75a2eeb43decb779b"
      ],
      "transaction": {
        "from": "0x8c9c001f821c04513616fd7962b2d8c62f925fd2",
        "to": "0x14f2a22c97ae2890e73cb15b1c0e42a8a0821223",
        "gas": "0x63c3c",
        "value": "0x0",
        "input": "0x0b6d6c99000000000000000000000000000000000000000000000000000000000000000200000000000000000000000000000000000000000000000000000000679b1b56000000000000000000000000000000000000000000000000000000006811c2560000000000000000000000000000000000000000000000000de0b6b3a76400000000000000000000000000000000000000000000000000000de0b6b3a764000000000000000000000000000000000000000000000000000000000000000075e800000000000000000000000058bde6071db4a9b006fdabe75a2eeb43decb779b",
        "nonce": "0x5d",
        "chainId": "0x14a34"
      },
      "additionalContracts": [],
      "isFixedGasLimit": false
    },
    {
      "hash": "0x538dcf2d458d65785ffe98e2ff30bce56e739b884d3d83956bd802ce32a9ec6e",
      "transactionType": "CALL",
      "contractName": "RewardsVaultV1",
      "contractAddress": "0x264541e2dc34875943a746174e862ac594164aa2",
      "function": "deposit(uint256,uint256,address)",
      "arguments": [
        "2",
        "90000000000000000000",
        "0x8C9C001F821c04513616fd7962B2D8c62f925fD2"
      ],
      "transaction": {
        "from": "0x8c9c001f821c04513616fd7962b2d8c62f925fd2",
        "to": "0x264541e2dc34875943a746174e862ac594164aa2",
        "gas": "0x1abcb",
        "value": "0x0",
        "input": "0x8dbdbe6d0000000000000000000000000000000000000000000000000000000000000002000000000000000000000000000000000000000000000004e1003b28d92800000000000000000000000000008c9c001f821c04513616fd7962b2d8c62f925fd2",
        "nonce": "0x5e",
        "chainId": "0x14a34"
      },
      "additionalContracts": [],
      "isFixedGasLimit": false
    }
  ],
  "receipts": [
    {
      "status": "0x1",
      "cumulativeGasUsed": "0x3a182f",
      "logs": [
        {
          "address": "0x14f2a22c97ae2890e73cb15b1c0e42a8a0821223",
          "topics": [
            "0x764e98ff8f133fd79086bf24b413507d9b7e83977b31f35a16b80680f38f7072",
            "0x0000000000000000000000000000000000000000000000000000000000000002"
          ],
          "data": "0x00000000000000000000000000000000000000000000000000000000679b1b56000000000000000000000000000000000000000000000000000000006811c2560000000000000000000000000000000000000000000000000de0b6b3a76400000000000000000000000000000000000000000000000000000de0b6b3a7640000",
          "blockHash": "0xb23f2bc988342d4764e0d9c2a1f96da9f658b2121e4a208b3c3638bdeb6874b7",
          "blockNumber": "0x143de18",
          "transactionHash": "0xabc3c4a4d04fadf7e27c9cdbf3e1385c5d11256f9b18d99fe5fe06b40eb1b570",
          "transactionIndex": "0x19",
          "logIndex": "0x3c",
          "removed": false
        },
        {
          "address": "0x264541e2dc34875943a746174e862ac594164aa2",
          "topics": [
            "0x554c94cb64d410104e2b06cc56052e30bc29a1307df890d30eb124045d4ae680",
            "0x0000000000000000000000000000000000000000000000000000000000000002"
          ],
          "data": "0x00000000000000000000000000000000000000000000000000000000000075e800000000000000000000000058bde6071db4a9b006fdabe75a2eeb43decb779b",
          "blockHash": "0xb23f2bc988342d4764e0d9c2a1f96da9f658b2121e4a208b3c3638bdeb6874b7",
          "blockNumber": "0x143de18",
          "transactionHash": "0xabc3c4a4d04fadf7e27c9cdbf3e1385c5d11256f9b18d99fe5fe06b40eb1b570",
          "transactionIndex": "0x19",
          "logIndex": "0x3d",
          "removed": false
        }
      ],
      "logsBloom": "0x04000000000000000000000000000000000000000000000000000000000000000000000800000000100000000000000000000000000400000000000000000000000000000000000000000002000000000000000000400000000000000000000000000000000000000000000000000000000000000000020000000000000000000000000000000000000000000000000000000000000000000000000000000000000000200000000000000100000020000000000000000000000000000000000000000000000000020000000000000000000000000000000000000000000020000000000000000000000000000000000000000020008000000000001000000000",
      "type": "0x2",
      "transactionHash": "0xabc3c4a4d04fadf7e27c9cdbf3e1385c5d11256f9b18d99fe5fe06b40eb1b570",
      "transactionIndex": "0x19",
      "blockHash": "0xb23f2bc988342d4764e0d9c2a1f96da9f658b2121e4a208b3c3638bdeb6874b7",
      "blockNumber": "0x143de18",
      "gasUsed": "0x44372",
      "effectiveGasPrice": "0x1ebfdec",
      "from": "0x8c9c001f821c04513616fd7962b2d8c62f925fd2",
      "to": "0x14f2a22c97ae2890e73cb15b1c0e42a8a0821223",
      "contractAddress": null,
      "l1BaseFeeScalar": "0x44d",
      "l1BlobBaseFee": "0x1",
      "l1BlobBaseFeeScalar": "0xa118b",
      "l1Fee": "0x7b99500c",
      "l1GasPrice": "0x3cbd8260",
      "l1GasUsed": "0x738"
    },
    {
      "status": "0x1",
      "cumulativeGasUsed": "0x3b4de7",
      "logs": [
        {
          "address": "0x58bde6071db4a9b006fdabe75a2eeb43decb779b",
          "topics": [
            "0xddf252ad1be2c89b69c2b068fc378daa952ba7f163c4a11628f55a4df523b3ef",
            "0x0000000000000000000000008c9c001f821c04513616fd7962b2d8c62f925fd2",
            "0x000000000000000000000000264541e2dc34875943a746174e862ac594164aa2"
          ],
          "data": "0x000000000000000000000000000000000000000000000004e1003b28d9280000",
          "blockHash": "0xb23f2bc988342d4764e0d9c2a1f96da9f658b2121e4a208b3c3638bdeb6874b7",
          "blockNumber": "0x143de18",
          "transactionHash": "0x538dcf2d458d65785ffe98e2ff30bce56e739b884d3d83956bd802ce32a9ec6e",
          "transactionIndex": "0x1a",
          "logIndex": "0x3e",
          "removed": false
        },
        {
          "address": "0x264541e2dc34875943a746174e862ac594164aa2",
          "topics": [
            "0x90e9c021de092ced915ba783260374f129aeeedec753ab3fb564631601ff9589",
            "0x0000000000000000000000000000000000000000000000000000000000000002",
            "0x0000000000000000000000008c9c001f821c04513616fd7962b2d8c62f925fd2"
          ],
          "data": "0x00000000000000000000000000000000000000000000000000000000000075e8000000000000000000000000000000000000000000000004e1003b28d9280000",
          "blockHash": "0xb23f2bc988342d4764e0d9c2a1f96da9f658b2121e4a208b3c3638bdeb6874b7",
          "blockNumber": "0x143de18",
          "transactionHash": "0x538dcf2d458d65785ffe98e2ff30bce56e739b884d3d83956bd802ce32a9ec6e",
          "transactionIndex": "0x1a",
          "logIndex": "0x3f",
          "removed": false
        }
      ],
      "logsBloom": "0x04000000000000000000000000001800000000000000000000000000000000000000000000000000000000000000000000000000000000000000000000000000000000200000000000000008004000000000000000400000000000000000000000000000000000000000000000000000000000000000000000000010020000000000000000000000000000000000000000000000000000000000000000400020000000000000000000000100000000000000000000000000000080000000000000000002000000000000000000000000000000000000100000000000000000000000000000000000000000008000000800000020008000000000001000000000",
      "type": "0x2",
      "transactionHash": "0x538dcf2d458d65785ffe98e2ff30bce56e739b884d3d83956bd802ce32a9ec6e",
      "transactionIndex": "0x1a",
      "blockHash": "0xb23f2bc988342d4764e0d9c2a1f96da9f658b2121e4a208b3c3638bdeb6874b7",
      "blockNumber": "0x143de18",
      "gasUsed": "0x135b8",
      "effectiveGasPrice": "0x1ebfdec",
      "from": "0x8c9c001f821c04513616fd7962b2d8c62f925fd2",
      "to": "0x264541e2dc34875943a746174e862ac594164aa2",
      "contractAddress": null,
      "l1BaseFeeScalar": "0x44d",
      "l1BlobBaseFee": "0x1",
      "l1BlobBaseFeeScalar": "0xa118b",
      "l1Fee": "0x6b00043c",
      "l1GasPrice": "0x3cbd8260",
      "l1GasUsed": "0x640"
    }
  ],
  "libraries": [],
  "pending": [],
  "returns": {},
  "timestamp": 1738218257,
  "chain": 84532,
  "commit": "5415508"
}