{
  "transactions": [
    {
      "hash": "0x2497d8e8522add92e674aebf45e3dde040a8d3a3bf6736e2c18c61ca24b730d7",
      "transactionType": "CALL",
      "contractName": "StakingPro",
      "contractAddress": "0x14f2a22c97ae2890e73cb15b1c0e42a8a0821223",
      "function": "stakeTokens(bytes32,uint256)",
      "arguments": [
        "0x5611645c7b7387fb8499426a4c76a74c7241f751aca035dcabb5e9b0ed7cf68b",
        "90000000000000000000"
      ],
      "transaction": {
        "from": "0x8c9c001f821c04513616fd7962b2d8c62f925fd2",
        "to": "0x14f2a22c97ae2890e73cb15b1c0e42a8a0821223",
        "value": "0x0",
        "input": "0xe6587ea25611645c7b7387fb8499426a4c76a74c7241f751aca035dcabb5e9b0ed7cf68b000000000000000000000000000000000000000000000004e1003b28d9280000",
        "nonce": "0x86",
        "chainId": "0x14a34"
      },
      "additionalContracts": [],
      "isFixedGasLimit": false
    },
    {
      "hash": "0x1fac0850dd47c83609fb09429878cdcebe35e680ddca18ca5889edb7ed3d96e9",
      "transactionType": "CALL",
      "contractName": "StakingPro",
      "contractAddress": "0x14f2a22c97ae2890e73cb15b1c0e42a8a0821223",
      "function": "setupDistribution(uint256,uint256,uint256,uint256,uint256,uint32,bytes32)",
      "arguments": [
        "15",
        "1738224064",
        "1746000064",
        "1000000000000000000",
        "1000000000000000000",
        "30184",
        "0x00000000000000000000000058bde6071db4a9b006fdabe75a2eeb43decb779b"
      ],
      "transaction": {
        "from": "0x8c9c001f821c04513616fd7962b2d8c62f925fd2",
        "to": "0x14f2a22c97ae2890e73cb15b1c0e42a8a0821223",
        "value": "0x0",
        "input": "0x0b6d6c99000000000000000000000000000000000000000000000000000000000000000f00000000000000000000000000000000000000000000000000000000679b31c0000000000000000000000000000000000000000000000000000000006811d8c00000000000000000000000000000000000000000000000000de0b6b3a76400000000000000000000000000000000000000000000000000000de0b6b3a764000000000000000000000000000000000000000000000000000000000000000075e800000000000000000000000058bde6071db4a9b006fdabe75a2eeb43decb779b",
        "nonce": "0x87",
        "chainId": "0x14a34"
      },
      "additionalContracts": [],
      "isFixedGasLimit": false
    },
    {
      "hash": "0xc0b5d1d73cf346a18aa0a32b2c0061eabf368b8f2ed46c7f76df991d9c989b5f",
      "transactionType": "CALL",
      "contractName": "RewardsVaultV1",
      "contractAddress": "0x264541e2dc34875943a746174e862ac594164aa2",
      "function": "deposit(uint256,uint256,address)",
      "arguments": [
        "15",
        "90000000000000000000",
        "0x8C9C001F821c04513616fd7962B2D8c62f925fD2"
      ],
      "transaction": {
        "from": "0x8c9c001f821c04513616fd7962b2d8c62f925fd2",
        "to": "0x264541e2dc34875943a746174e862ac594164aa2",
        "value": "0x0",
        "input": "0x8dbdbe6d000000000000000000000000000000000000000000000000000000000000000f000000000000000000000000000000000000000000000004e1003b28d92800000000000000000000000000008c9c001f821c04513616fd7962b2d8c62f925fd2",
        "nonce": "0x88",
        "chainId": "0x14a34"
      },
      "additionalContracts": [],
      "isFixedGasLimit": false
    }
  ],
  "receipts": [
    {
      "status": "0x1",
      "cumulativeGasUsed": "0x40cae8",
      "logs": [
        {
          "address": "0x14f2a22c97ae2890e73cb15b1c0e42a8a0821223",
          "topics": [
            "0x949314518006833d597b4acd80e6cc367fa5461d9a4f80373e136688b6aad142",
            "0x0000000000000000000000008c9c001f821c04513616fd7962b2d8c62f925fd2",
            "0x5611645c7b7387fb8499426a4c76a74c7241f751aca035dcabb5e9b0ed7cf68b",
            "0x0000000000000000000000000000000000000000000000000000000000000000"
          ],
          "data": "0x000000000000000000000000000000000000000000000000000000000000000000000000000000000000000000000000000000000000000000000000000000000000000000000000000000000000000000000000000000000000000000000000",
          "blockHash": "0x715f129bd21501f70a936ea4110fdcf4018a7c86498a6a9733dc6f9508d63120",
          "blockNumber": "0x143e96a",
          "transactionHash": "0x2497d8e8522add92e674aebf45e3dde040a8d3a3bf6736e2c18c61ca24b730d7",
          "transactionIndex": "0x1a",
          "logIndex": "0x3b",
          "removed": false
        },
        {
          "address": "0x14f2a22c97ae2890e73cb15b1c0e42a8a0821223",
          "topics": [
            "0xc2ec7dd88a6dab4eecfd7a57fb0879a881a03e12b94dc49c5fec5d5faa8792ce",
            "0x0000000000000000000000000000000000000000000000000000000000000001"
          ],
          "data": "0x00000000000000000000000000000000000000000000000000000000679b31b40000000000000000000000000000000000000000000000037b0c277b62a9a72a0000000000000000000000000000000000000000000000037b0c277b62a9a72a",
          "blockHash": "0x715f129bd21501f70a936ea4110fdcf4018a7c86498a6a9733dc6f9508d63120",
          "blockNumber": "0x143e96a",
          "transactionHash": "0x2497d8e8522add92e674aebf45e3dde040a8d3a3bf6736e2c18c61ca24b730d7",
          "transactionIndex": "0x1a",
          "logIndex": "0x3c",
          "removed": false
        },
        {
          "address": "0x14f2a22c97ae2890e73cb15b1c0e42a8a0821223",
          "topics": [
            "0x2bbaa179fabbdbc2ed8c301faf6fca674ce9b4db55373c36bda89901d2fcfb6c",
            "0x5611645c7b7387fb8499426a4c76a74c7241f751aca035dcabb5e9b0ed7cf68b",
            "0x0000000000000000000000000000000000000000000000000000000000000001"
          ],
          "data": "0x00000000000000000000000000000000000000000000000da933d8d8c67000000000000000000000000000000000000000000000000000015db8627c13d8000000000000000000000000000000000000000000000000000000000000000000000000000000000000000000000000000000000000000000000000000000000000",
          "blockHash": "0x715f129bd21501f70a936ea4110fdcf4018a7c86498a6a9733dc6f9508d63120",
          "blockNumber": "0x143e96a",
          "transactionHash": "0x2497d8e8522add92e674aebf45e3dde040a8d3a3bf6736e2c18c61ca24b730d7",
          "transactionIndex": "0x1a",
          "logIndex": "0x3d",
          "removed": false
        },
        {
          "address": "0x14f2a22c97ae2890e73cb15b1c0e42a8a0821223",
          "topics": [
            "0x949314518006833d597b4acd80e6cc367fa5461d9a4f80373e136688b6aad142",
            "0x0000000000000000000000008c9c001f821c04513616fd7962b2d8c62f925fd2",
            "0x5611645c7b7387fb8499426a4c76a74c7241f751aca035dcabb5e9b0ed7cf68b",
            "0x0000000000000000000000000000000000000000000000000000000000000001"
          ],
          "data": "0x000000000000000000000000000000000000000000000000000000000000000000000000000000000000000000000000000000000000000000000000000000000000000000000000000000000000000000000000000000000000000000000000",
          "blockHash": "0x715f129bd21501f70a936ea4110fdcf4018a7c86498a6a9733dc6f9508d63120",
          "blockNumber": "0x143e96a",
          "transactionHash": "0x2497d8e8522add92e674aebf45e3dde040a8d3a3bf6736e2c18c61ca24b730d7",
          "transactionIndex": "0x1a",
          "logIndex": "0x3e",
          "removed": false
        },
        {
          "address": "0x14f2a22c97ae2890e73cb15b1c0e42a8a0821223",
          "topics": [
            "0xc2ec7dd88a6dab4eecfd7a57fb0879a881a03e12b94dc49c5fec5d5faa8792ce",
            "0x0000000000000000000000000000000000000000000000000000000000000002"
          ],
          "data": "0x00000000000000000000000000000000000000000000000000000000679b31b4000000000000000000000000000000000000000000000000c126217abf5a18f1000000000000000000000000000000000000000000000000c126217abf5a18f1",
          "blockHash": "0x715f129bd21501f70a936ea4110fdcf4018a7c86498a6a9733dc6f9508d63120",
          "blockNumber": "0x143e96a",
          "transactionHash": "0x2497d8e8522add92e674aebf45e3dde040a8d3a3bf6736e2c18c61ca24b730d7",
          "transactionIndex": "0x1a",
          "logIndex": "0x3f",
          "removed": false
        },
        {
          "address": "0x14f2a22c97ae2890e73cb15b1c0e42a8a0821223",
          "topics": [
            "0x2bbaa179fabbdbc2ed8c301faf6fca674ce9b4db55373c36bda89901d2fcfb6c",
            "0x5611645c7b7387fb8499426a4c76a74c7241f751aca035dcabb5e9b0ed7cf68b",
            "0x0000000000000000000000000000000000000000000000000000000000000002"
          ],
          "data": "0x00000000000000000000000000000000000000000000000da933d8d8c67000000000000000000000000000000000000000000000000000015db8627c13d8000000000000000000000000000000000000000000000000000000000000000000000000000000000000000000000000000000000000000000000000000000000000",
          "blockHash": "0x715f129bd21501f70a936ea4110fdcf4018a7c86498a6a9733dc6f9508d63120",
          "blockNumber": "0x143e96a",
          "transactionHash": "0x2497d8e8522add92e674aebf45e3dde040a8d3a3bf6736e2c18c61ca24b730d7",
          "transactionIndex": "0x1a",
          "logIndex": "0x40",
          "removed": false
        },
        {
          "address": "0x14f2a22c97ae2890e73cb15b1c0e42a8a0821223",
          "topics": [
            "0x949314518006833d597b4acd80e6cc367fa5461d9a4f80373e136688b6aad142",
            "0x0000000000000000000000008c9c001f821c04513616fd7962b2d8c62f925fd2",
            "0x5611645c7b7387fb8499426a4c76a74c7241f751aca035dcabb5e9b0ed7cf68b",
            "0x0000000000000000000000000000000000000000000000000000000000000002"
          ],
          "data": "0x000000000000000000000000000000000000000000000000000000000000000000000000000000000000000000000000000000000000000000000000000000000000000000000000000000000000000000000000000000000000000000000000",
          "blockHash": "0x715f129bd21501f70a936ea4110fdcf4018a7c86498a6a9733dc6f9508d63120",
          "blockNumber": "0x143e96a",
          "transactionHash": "0x2497d8e8522add92e674aebf45e3dde040a8d3a3bf6736e2c18c61ca24b730d7",
          "transactionIndex": "0x1a",
          "logIndex": "0x41",
          "removed": false
        },
        {
          "address": "0x14f2a22c97ae2890e73cb15b1c0e42a8a0821223",
          "topics": [
            "0xc2ec7dd88a6dab4eecfd7a57fb0879a881a03e12b94dc49c5fec5d5faa8792ce",
            "0x0000000000000000000000000000000000000000000000000000000000000003"
          ],
          "data": "0x00000000000000000000000000000000000000000000000000000000679b31b4000000000000000000000000000000000000000000000000895453add41d3564000000000000000000000000000000000000000000000000895453add41d3564",
          "blockHash": "0x715f129bd21501f70a936ea4110fdcf4018a7c86498a6a9733dc6f9508d63120",
          "blockNumber": "0x143e96a",
          "transactionHash": "0x2497d8e8522add92e674aebf45e3dde040a8d3a3bf6736e2c18c61ca24b730d7",
          "transactionIndex": "0x1a",
          "logIndex": "0x42",
          "removed": false
        },
        {
          "address": "0x14f2a22c97ae2890e73cb15b1c0e42a8a0821223",
          "topics": [
            "0x2bbaa179fabbdbc2ed8c301faf6fca674ce9b4db55373c36bda89901d2fcfb6c",
            "0x5611645c7b7387fb8499426a4c76a74c7241f751aca035dcabb5e9b0ed7cf68b",
            "0x0000000000000000000000000000000000000000000000000000000000000003"
          ],
          "data": "0x00000000000000000000000000000000000000000000000da933d8d8c67000000000000000000000000000000000000000000000000000015db8627c13d8000000000000000000000000000000000000000000000000000000000000000000000000000000000000000000000000000000000000000000000000000000000000",
          "blockHash": "0x715f129bd21501f70a936ea4110fdcf4018a7c86498a6a9733dc6f9508d63120",
          "blockNumber": "0x143e96a",
          "transactionHash": "0x2497d8e8522add92e674aebf45e3dde040a8d3a3bf6736e2c18c61ca24b730d7",
          "transactionIndex": "0x1a",
          "logIndex": "0x43",
          "removed": false
        },
        {
          "address": "0x14f2a22c97ae2890e73cb15b1c0e42a8a0821223",
          "topics": [
            "0x949314518006833d597b4acd80e6cc367fa5461d9a4f80373e136688b6aad142",
            "0x0000000000000000000000008c9c001f821c04513616fd7962b2d8c62f925fd2",
            "0x5611645c7b7387fb8499426a4c76a74c7241f751aca035dcabb5e9b0ed7cf68b",
            "0x0000000000000000000000000000000000000000000000000000000000000003"
          ],
          "data": "0x000000000000000000000000000000000000000000000000000000000000000000000000000000000000000000000000000000000000000000000000000000000000000000000000000000000000000000000000000000000000000000000000",
          "blockHash": "0x715f129bd21501f70a936ea4110fdcf4018a7c86498a6a9733dc6f9508d63120",
          "blockNumber": "0x143e96a",
          "transactionHash": "0x2497d8e8522add92e674aebf45e3dde040a8d3a3bf6736e2c18c61ca24b730d7",
          "transactionIndex": "0x1a",
          "logIndex": "0x44",
          "removed": false
        },
        {
          "address": "0x14f2a22c97ae2890e73cb15b1c0e42a8a0821223",
          "topics": [
            "0xc2ec7dd88a6dab4eecfd7a57fb0879a881a03e12b94dc49c5fec5d5faa8792ce",
            "0x0000000000000000000000000000000000000000000000000000000000000004"
          ],
          "data": "0x00000000000000000000000000000000000000000000000000000000679b31b40000000000000000000000000000000000000000000000007843ce0bb4beb0a60000000000000000000000000000000000000000000000007843ce0bb4beb0a6",
          "blockHash": "0x715f129bd21501f70a936ea4110fdcf4018a7c86498a6a9733dc6f9508d63120",
          "blockNumber": "0x143e96a",
          "transactionHash": "0x2497d8e8522add92e674aebf45e3dde040a8d3a3bf6736e2c18c61ca24b730d7",
          "transactionIndex": "0x1a",
          "logIndex": "0x45",
          "removed": false
        },
        {
          "address": "0x14f2a22c97ae2890e73cb15b1c0e42a8a0821223",
          "topics": [
            "0x2bbaa179fabbdbc2ed8c301faf6fca674ce9b4db55373c36bda89901d2fcfb6c",
            "0x5611645c7b7387fb8499426a4c76a74c7241f751aca035dcabb5e9b0ed7cf68b",
            "0x0000000000000000000000000000000000000000000000000000000000000004"
          ],
          "data": "0x00000000000000000000000000000000000000000000000da933d8d8c67000000000000000000000000000000000000000000000000000015db8627c13d8000000000000000000000000000000000000000000000000000000000000000000000000000000000000000000000000000000000000000000000000000000000000",
          "blockHash": "0x715f129bd21501f70a936ea4110fdcf4018a7c86498a6a9733dc6f9508d63120",
          "blockNumber": "0x143e96a",
          "transactionHash": "0x2497d8e8522add92e674aebf45e3dde040a8d3a3bf6736e2c18c61ca24b730d7",
          "transactionIndex": "0x1a",
          "logIndex": "0x46",
          "removed": false
        },
        {
          "address": "0x14f2a22c97ae2890e73cb15b1c0e42a8a0821223",
          "topics": [
            "0x949314518006833d597b4acd80e6cc367fa5461d9a4f80373e136688b6aad142",
            "0x0000000000000000000000008c9c001f821c04513616fd7962b2d8c62f925fd2",
            "0x5611645c7b7387fb8499426a4c76a74c7241f751aca035dcabb5e9b0ed7cf68b",
            "0x0000000000000000000000000000000000000000000000000000000000000004"
          ],
          "data": "0x000000000000000000000000000000000000000000000000000000000000000000000000000000000000000000000000000000000000000000000000000000000000000000000000000000000000000000000000000000000000000000000000",
          "blockHash": "0x715f129bd21501f70a936ea4110fdcf4018a7c86498a6a9733dc6f9508d63120",
          "blockNumber": "0x143e96a",
          "transactionHash": "0x2497d8e8522add92e674aebf45e3dde040a8d3a3bf6736e2c18c61ca24b730d7",
          "transactionIndex": "0x1a",
          "logIndex": "0x47",
          "removed": false
        },
        {
          "address": "0x14f2a22c97ae2890e73cb15b1c0e42a8a0821223",
          "topics": [
            "0xc2ec7dd88a6dab4eecfd7a57fb0879a881a03e12b94dc49c5fec5d5faa8792ce",
            "0x0000000000000000000000000000000000000000000000000000000000000005"
          ],
          "data": "0x00000000000000000000000000000000000000000000000000000000679b31b40000000000000000000000000000000000000000000000005dd87d9d0be3e00f0000000000000000000000000000000000000000000000005dd87d9d0be3e00f",
          "blockHash": "0x715f129bd21501f70a936ea4110fdcf4018a7c86498a6a9733dc6f9508d63120",
          "blockNumber": "0x143e96a",
          "transactionHash": "0x2497d8e8522add92e674aebf45e3dde040a8d3a3bf6736e2c18c61ca24b730d7",
          "transactionIndex": "0x1a",
          "logIndex": "0x48",
          "removed": false
        },
        {
          "address": "0x14f2a22c97ae2890e73cb15b1c0e42a8a0821223",
          "topics": [
            "0x2bbaa179fabbdbc2ed8c301faf6fca674ce9b4db55373c36bda89901d2fcfb6c",
            "0x5611645c7b7387fb8499426a4c76a74c7241f751aca035dcabb5e9b0ed7cf68b",
            "0x0000000000000000000000000000000000000000000000000000000000000005"
          ],
          "data": "0x00000000000000000000000000000000000000000000000da933d8d8c67000000000000000000000000000000000000000000000000000015db8627c13d8000000000000000000000000000000000000000000000000000000000000000000000000000000000000000000000000000000000000000000000000000000000000",
          "blockHash": "0x715f129bd21501f70a936ea4110fdcf4018a7c86498a6a9733dc6f9508d63120",
          "blockNumber": "0x143e96a",
          "transactionHash": "0x2497d8e8522add92e674aebf45e3dde040a8d3a3bf6736e2c18c61ca24b730d7",
          "transactionIndex": "0x1a",
          "logIndex": "0x49",
          "removed": false
        },
        {
          "address": "0x14f2a22c97ae2890e73cb15b1c0e42a8a0821223",
          "topics": [
            "0x949314518006833d597b4acd80e6cc367fa5461d9a4f80373e136688b6aad142",
            "0x0000000000000000000000008c9c001f821c04513616fd7962b2d8c62f925fd2",
            "0x5611645c7b7387fb8499426a4c76a74c7241f751aca035dcabb5e9b0ed7cf68b",
            "0x0000000000000000000000000000000000000000000000000000000000000005"
          ],
          "data": "0x000000000000000000000000000000000000000000000000000000000000000000000000000000000000000000000000000000000000000000000000000000000000000000000000000000000000000000000000000000000000000000000000",
          "blockHash": "0x715f129bd21501f70a936ea4110fdcf4018a7c86498a6a9733dc6f9508d63120",
          "blockNumber": "0x143e96a",
          "transactionHash": "0x2497d8e8522add92e674aebf45e3dde040a8d3a3bf6736e2c18c61ca24b730d7",
          "transactionIndex": "0x1a",
          "logIndex": "0x4a",
          "removed": false
        },
        {
          "address": "0x14f2a22c97ae2890e73cb15b1c0e42a8a0821223",
          "topics": [
            "0xc2ec7dd88a6dab4eecfd7a57fb0879a881a03e12b94dc49c5fec5d5faa8792ce",
            "0x0000000000000000000000000000000000000000000000000000000000000006"
          ],
          "data": "0x00000000000000000000000000000000000000000000000000000000679b31b40000000000000000000000000000000000000000000000004ee3746f54a2c39d0000000000000000000000000000000000000000000000004ee3746f54a2c39d",
          "blockHash": "0x715f129bd21501f70a936ea4110fdcf4018a7c86498a6a9733dc6f9508d63120",
          "blockNumber": "0x143e96a",
          "transactionHash": "0x2497d8e8522add92e674aebf45e3dde040a8d3a3bf6736e2c18c61ca24b730d7",
          "transactionIndex": "0x1a",
          "logIndex": "0x4b",
          "removed": false
        },
        {
          "address": "0x14f2a22c97ae2890e73cb15b1c0e42a8a0821223",
          "topics": [
            "0x2bbaa179fabbdbc2ed8c301faf6fca674ce9b4db55373c36bda89901d2fcfb6c",
            "0x5611645c7b7387fb8499426a4c76a74c7241f751aca035dcabb5e9b0ed7cf68b",
            "0x0000000000000000000000000000000000000000000000000000000000000006"
          ],
          "data": "0x00000000000000000000000000000000000000000000000da933d8d8c67000000000000000000000000000000000000000000000000000015db8627c13d8000000000000000000000000000000000000000000000000000000000000000000000000000000000000000000000000000000000000000000000000000000000000",
          "blockHash": "0x715f129bd21501f70a936ea4110fdcf4018a7c86498a6a9733dc6f9508d63120",
          "blockNumber": "0x143e96a",
          "transactionHash": "0x2497d8e8522add92e674aebf45e3dde040a8d3a3bf6736e2c18c61ca24b730d7",
          "transactionIndex": "0x1a",
          "logIndex": "0x4c",
          "removed": false
        },
        {
          "address": "0x14f2a22c97ae2890e73cb15b1c0e42a8a0821223",
          "topics": [
            "0x949314518006833d597b4acd80e6cc367fa5461d9a4f80373e136688b6aad142",
            "0x0000000000000000000000008c9c001f821c04513616fd7962b2d8c62f925fd2",
            "0x5611645c7b7387fb8499426a4c76a74c7241f751aca035dcabb5e9b0ed7cf68b",
            "0x0000000000000000000000000000000000000000000000000000000000000006"
          ],
          "data": "0x000000000000000000000000000000000000000000000000000000000000000000000000000000000000000000000000000000000000000000000000000000000000000000000000000000000000000000000000000000000000000000000000",
          "blockHash": "0x715f129bd21501f70a936ea4110fdcf4018a7c86498a6a9733dc6f9508d63120",
          "blockNumber": "0x143e96a",
          "transactionHash": "0x2497d8e8522add92e674aebf45e3dde040a8d3a3bf6736e2c18c61ca24b730d7",
          "transactionIndex": "0x1a",
          "logIndex": "0x4d",
          "removed": false
        },
        {
          "address": "0x14f2a22c97ae2890e73cb15b1c0e42a8a0821223",
          "topics": [
            "0xc2ec7dd88a6dab4eecfd7a57fb0879a881a03e12b94dc49c5fec5d5faa8792ce",
            "0x0000000000000000000000000000000000000000000000000000000000000007"
          ],
          "data": "0x00000000000000000000000000000000000000000000000000000000679b31b4000000000000000000000000000000000000000000000000396c974bd00818f3000000000000000000000000000000000000000000000000396c974bd00818f3",
          "blockHash": "0x715f129bd21501f70a936ea4110fdcf4018a7c86498a6a9733dc6f9508d63120",
          "blockNumber": "0x143e96a",
          "transactionHash": "0x2497d8e8522add92e674aebf45e3dde040a8d3a3bf6736e2c18c61ca24b730d7",
          "transactionIndex": "0x1a",
          "logIndex": "0x4e",
          "removed": false
        },
        {
          "address": "0x14f2a22c97ae2890e73cb15b1c0e42a8a0821223",
          "topics": [
            "0x2bbaa179fabbdbc2ed8c301faf6fca674ce9b4db55373c36bda89901d2fcfb6c",
            "0x5611645c7b7387fb8499426a4c76a74c7241f751aca035dcabb5e9b0ed7cf68b",
            "0x0000000000000000000000000000000000000000000000000000000000000007"
          ],
          "data": "0x00000000000000000000000000000000000000000000000da933d8d8c67000000000000000000000000000000000000000000000000000015db8627c13d8000000000000000000000000000000000000000000000000000000000000000000000000000000000000000000000000000000000000000000000000000000000000",
          "blockHash": "0x715f129bd21501f70a936ea4110fdcf4018a7c86498a6a9733dc6f9508d63120",
          "blockNumber": "0x143e96a",
          "transactionHash": "0x2497d8e8522add92e674aebf45e3dde040a8d3a3bf6736e2c18c61ca24b730d7",
          "transactionIndex": "0x1a",
          "logIndex": "0x4f",
          "removed": false
        },
        {
          "address": "0x14f2a22c97ae2890e73cb15b1c0e42a8a0821223",
          "topics": [
            "0x949314518006833d597b4acd80e6cc367fa5461d9a4f80373e136688b6aad142",
            "0x0000000000000000000000008c9c001f821c04513616fd7962b2d8c62f925fd2",
            "0x5611645c7b7387fb8499426a4c76a74c7241f751aca035dcabb5e9b0ed7cf68b",
            "0x0000000000000000000000000000000000000000000000000000000000000007"
          ],
          "data": "0x000000000000000000000000000000000000000000000000000000000000000000000000000000000000000000000000000000000000000000000000000000000000000000000000000000000000000000000000000000000000000000000000",
          "blockHash": "0x715f129bd21501f70a936ea4110fdcf4018a7c86498a6a9733dc6f9508d63120",
          "blockNumber": "0x143e96a",
          "transactionHash": "0x2497d8e8522add92e674aebf45e3dde040a8d3a3bf6736e2c18c61ca24b730d7",
          "transactionIndex": "0x1a",
          "logIndex": "0x50",
          "removed": false
        },
        {
          "address": "0x14f2a22c97ae2890e73cb15b1c0e42a8a0821223",
          "topics": [
            "0xc2ec7dd88a6dab4eecfd7a57fb0879a881a03e12b94dc49c5fec5d5faa8792ce",
            "0x0000000000000000000000000000000000000000000000000000000000000008"
          ],
          "data": "0x00000000000000000000000000000000000000000000000000000000679b31b40000000000000000000000000000000000000000000000002c27e55df2e7791f0000000000000000000000000000000000000000000000002c27e55df2e7791f",
          "blockHash": "0x715f129bd21501f70a936ea4110fdcf4018a7c86498a6a9733dc6f9508d63120",
          "blockNumber": "0x143e96a",
          "transactionHash": "0x2497d8e8522add92e674aebf45e3dde040a8d3a3bf6736e2c18c61ca24b730d7",
          "transactionIndex": "0x1a",
          "logIndex": "0x51",
          "removed": false
        },
        {
          "address": "0x14f2a22c97ae2890e73cb15b1c0e42a8a0821223",
          "topics": [
            "0x2bbaa179fabbdbc2ed8c301faf6fca674ce9b4db55373c36bda89901d2fcfb6c",
            "0x5611645c7b7387fb8499426a4c76a74c7241f751aca035dcabb5e9b0ed7cf68b",
            "0x0000000000000000000000000000000000000000000000000000000000000008"
          ],
          "data": "0x00000000000000000000000000000000000000000000000da933d8d8c67000000000000000000000000000000000000000000000000000015db8627c13d8000000000000000000000000000000000000000000000000000000000000000000000000000000000000000000000000000000000000000000000000000000000000",
          "blockHash": "0x715f129bd21501f70a936ea4110fdcf4018a7c86498a6a9733dc6f9508d63120",
          "blockNumber": "0x143e96a",
          "transactionHash": "0x2497d8e8522add92e674aebf45e3dde040a8d3a3bf6736e2c18c61ca24b730d7",
          "transactionIndex": "0x1a",
          "logIndex": "0x52",
          "removed": false
        },
        {
          "address": "0x14f2a22c97ae2890e73cb15b1c0e42a8a0821223",
          "topics": [
            "0x949314518006833d597b4acd80e6cc367fa5461d9a4f80373e136688b6aad142",
            "0x0000000000000000000000008c9c001f821c04513616fd7962b2d8c62f925fd2",
            "0x5611645c7b7387fb8499426a4c76a74c7241f751aca035dcabb5e9b0ed7cf68b",
            "0x0000000000000000000000000000000000000000000000000000000000000008"
          ],
          "data": "0x000000000000000000000000000000000000000000000000000000000000000000000000000000000000000000000000000000000000000000000000000000000000000000000000000000000000000000000000000000000000000000000000",
          "blockHash": "0x715f129bd21501f70a936ea4110fdcf4018a7c86498a6a9733dc6f9508d63120",
          "blockNumber": "0x143e96a",
          "transactionHash": "0x2497d8e8522add92e674aebf45e3dde040a8d3a3bf6736e2c18c61ca24b730d7",
          "transactionIndex": "0x1a",
          "logIndex": "0x53",
          "removed": false
        },
        {
          "address": "0x14f2a22c97ae2890e73cb15b1c0e42a8a0821223",
          "topics": [
            "0xc2ec7dd88a6dab4eecfd7a57fb0879a881a03e12b94dc49c5fec5d5faa8792ce",
            "0x0000000000000000000000000000000000000000000000000000000000000009"
          ],
          "data": "0x00000000000000000000000000000000000000000000000000000000679b31b400000000000000000000000000000000000000000000000028e54a4b500ceef700000000000000000000000000000000000000000000000028e54a4b500ceef7",
          "blockHash": "0x715f129bd21501f70a936ea4110fdcf4018a7c86498a6a9733dc6f9508d63120",
          "blockNumber": "0x143e96a",
          "transactionHash": "0x2497d8e8522add92e674aebf45e3dde040a8d3a3bf6736e2c18c61ca24b730d7",
          "transactionIndex": "0x1a",
          "logIndex": "0x54",
          "removed": false
        },
        {
          "address": "0x14f2a22c97ae2890e73cb15b1c0e42a8a0821223",
          "topics": [
            "0x2bbaa179fabbdbc2ed8c301faf6fca674ce9b4db55373c36bda89901d2fcfb6c",
            "0x5611645c7b7387fb8499426a4c76a74c7241f751aca035dcabb5e9b0ed7cf68b",
            "0x0000000000000000000000000000000000000000000000000000000000000009"
          ],
          "data": "0x00000000000000000000000000000000000000000000000da933d8d8c67000000000000000000000000000000000000000000000000000015db8627c13d8000000000000000000000000000000000000000000000000000000000000000000000000000000000000000000000000000000000000000000000000000000000000",
          "blockHash": "0x715f129bd21501f70a936ea4110fdcf4018a7c86498a6a9733dc6f9508d63120",
          "blockNumber": "0x143e96a",
          "transactionHash": "0x2497d8e8522add92e674aebf45e3dde040a8d3a3bf6736e2c18c61ca24b730d7",
          "transactionIndex": "0x1a",
          "logIndex": "0x55",
          "removed": false
        },
        {
          "address": "0x14f2a22c97ae2890e73cb15b1c0e42a8a0821223",
          "topics": [
            "0x949314518006833d597b4acd80e6cc367fa5461d9a4f80373e136688b6aad142",
            "0x0000000000000000000000008c9c001f821c04513616fd7962b2d8c62f925fd2",
            "0x5611645c7b7387fb8499426a4c76a74c7241f751aca035dcabb5e9b0ed7cf68b",
            "0x0000000000000000000000000000000000000000000000000000000000000009"
          ],
          "data": "0x000000000000000000000000000000000000000000000000000000000000000000000000000000000000000000000000000000000000000000000000000000000000000000000000000000000000000000000000000000000000000000000000",
          "blockHash": "0x715f129bd21501f70a936ea4110fdcf4018a7c86498a6a9733dc6f9508d63120",
          "blockNumber": "0x143e96a",
          "transactionHash": "0x2497d8e8522add92e674aebf45e3dde040a8d3a3bf6736e2c18c61ca24b730d7",
          "transactionIndex": "0x1a",
          "logIndex": "0x56",
          "removed": false
        },
        {
          "address": "0x14f2a22c97ae2890e73cb15b1c0e42a8a0821223",
          "topics": [
            "0xc2ec7dd88a6dab4eecfd7a57fb0879a881a03e12b94dc49c5fec5d5faa8792ce",
            "0x000000000000000000000000000000000000000000000000000000000000000a"
          ],
          "data": "0x00000000000000000000000000000000000000000000000000000000679b31b40000000000000000000000000000000000000000000000001fa3b7c8e67d32ea0000000000000000000000000000000000000000000000001fa3b7c8e67d32ea",
          "blockHash": "0x715f129bd21501f70a936ea4110fdcf4018a7c86498a6a9733dc6f9508d63120",
          "blockNumber": "0x143e96a",
          "transactionHash": "0x2497d8e8522add92e674aebf45e3dde040a8d3a3bf6736e2c18c61ca24b730d7",
          "transactionIndex": "0x1a",
          "logIndex": "0x57",
          "removed": false
        },
        {
          "address": "0x14f2a22c97ae2890e73cb15b1c0e42a8a0821223",
          "topics": [
            "0x2bbaa179fabbdbc2ed8c301faf6fca674ce9b4db55373c36bda89901d2fcfb6c",
            "0x5611645c7b7387fb8499426a4c76a74c7241f751aca035dcabb5e9b0ed7cf68b",
            "0x000000000000000000000000000000000000000000000000000000000000000a"
          ],
          "data": "0x00000000000000000000000000000000000000000000000da933d8d8c67000000000000000000000000000000000000000000000000000015db8627c13d8000000000000000000000000000000000000000000000000000000000000000000000000000000000000000000000000000000000000000000000000000000000000",
          "blockHash": "0x715f129bd21501f70a936ea4110fdcf4018a7c86498a6a9733dc6f9508d63120",
          "blockNumber": "0x143e96a",
          "transactionHash": "0x2497d8e8522add92e674aebf45e3dde040a8d3a3bf6736e2c18c61ca24b730d7",
          "transactionIndex": "0x1a",
          "logIndex": "0x58",
          "removed": false
        },
        {
          "address": "0x14f2a22c97ae2890e73cb15b1c0e42a8a0821223",
          "topics": [
            "0x949314518006833d597b4acd80e6cc367fa5461d9a4f80373e136688b6aad142",
            "0x0000000000000000000000008c9c001f821c04513616fd7962b2d8c62f925fd2",
            "0x5611645c7b7387fb8499426a4c76a74c7241f751aca035dcabb5e9b0ed7cf68b",
            "0x000000000000000000000000000000000000000000000000000000000000000a"
          ],
          "data": "0x000000000000000000000000000000000000000000000000000000000000000000000000000000000000000000000000000000000000000000000000000000000000000000000000000000000000000000000000000000000000000000000000",
          "blockHash": "0x715f129bd21501f70a936ea4110fdcf4018a7c86498a6a9733dc6f9508d63120",
          "blockNumber": "0x143e96a",
          "transactionHash": "0x2497d8e8522add92e674aebf45e3dde040a8d3a3bf6736e2c18c61ca24b730d7",
          "transactionIndex": "0x1a",
          "logIndex": "0x59",
          "removed": false
        },
        {
          "address": "0x14f2a22c97ae2890e73cb15b1c0e42a8a0821223",
          "topics": [
            "0xc2ec7dd88a6dab4eecfd7a57fb0879a881a03e12b94dc49c5fec5d5faa8792ce",
            "0x000000000000000000000000000000000000000000000000000000000000000b"
          ],
          "data": "0x00000000000000000000000000000000000000000000000000000000679b31b400000000000000000000000000000000000000000000000017c3e1c1050b91bb00000000000000000000000000000000000000000000000017c3e1c1050b91bb",
          "blockHash": "0x715f129bd21501f70a936ea4110fdcf4018a7c86498a6a9733dc6f9508d63120",
          "blockNumber": "0x143e96a",
          "transactionHash": "0x2497d8e8522add92e674aebf45e3dde040a8d3a3bf6736e2c18c61ca24b730d7",
          "transactionIndex": "0x1a",
          "logIndex": "0x5a",
          "removed": false
        },
        {
          "address": "0x14f2a22c97ae2890e73cb15b1c0e42a8a0821223",
          "topics": [
            "0x2bbaa179fabbdbc2ed8c301faf6fca674ce9b4db55373c36bda89901d2fcfb6c",
            "0x5611645c7b7387fb8499426a4c76a74c7241f751aca035dcabb5e9b0ed7cf68b",
            "0x000000000000000000000000000000000000000000000000000000000000000b"
          ],
          "data": "0x00000000000000000000000000000000000000000000000da933d8d8c67000000000000000000000000000000000000000000000000000015db8627c13d8000000000000000000000000000000000000000000000000000000000000000000000000000000000000000000000000000000000000000000000000000000000000",
          "blockHash": "0x715f129bd21501f70a936ea4110fdcf4018a7c86498a6a9733dc6f9508d63120",
          "blockNumber": "0x143e96a",
          "transactionHash": "0x2497d8e8522add92e674aebf45e3dde040a8d3a3bf6736e2c18c61ca24b730d7",
          "transactionIndex": "0x1a",
          "logIndex": "0x5b",
          "removed": false
        },
        {
          "address": "0x14f2a22c97ae2890e73cb15b1c0e42a8a0821223",
          "topics": [
            "0x949314518006833d597b4acd80e6cc367fa5461d9a4f80373e136688b6aad142",
            "0x0000000000000000000000008c9c001f821c04513616fd7962b2d8c62f925fd2",
            "0x5611645c7b7387fb8499426a4c76a74c7241f751aca035dcabb5e9b0ed7cf68b",
            "0x000000000000000000000000000000000000000000000000000000000000000b"
          ],
          "data": "0x000000000000000000000000000000000000000000000000000000000000000000000000000000000000000000000000000000000000000000000000000000000000000000000000000000000000000000000000000000000000000000000000",
          "blockHash": "0x715f129bd21501f70a936ea4110fdcf4018a7c86498a6a9733dc6f9508d63120",
          "blockNumber": "0x143e96a",
          "transactionHash": "0x2497d8e8522add92e674aebf45e3dde040a8d3a3bf6736e2c18c61ca24b730d7",
          "transactionIndex": "0x1a",
          "logIndex": "0x5c",
          "removed": false
        },
        {
          "address": "0x14f2a22c97ae2890e73cb15b1c0e42a8a0821223",
          "topics": [
            "0xc2ec7dd88a6dab4eecfd7a57fb0879a881a03e12b94dc49c5fec5d5faa8792ce",
            "0x000000000000000000000000000000000000000000000000000000000000000c"
          ],
          "data": "0x00000000000000000000000000000000000000000000000000000000679b31b400000000000000000000000000000000000000000000000014c9a9ccbeb04bea00000000000000000000000000000000000000000000000014c9a9ccbeb04bea",
          "blockHash": "0x715f129bd21501f70a936ea4110fdcf4018a7c86498a6a9733dc6f9508d63120",
          "blockNumber": "0x143e96a",
          "transactionHash": "0x2497d8e8522add92e674aebf45e3dde040a8d3a3bf6736e2c18c61ca24b730d7",
          "transactionIndex": "0x1a",
          "logIndex": "0x5d",
          "removed": false
        },
        {
          "address": "0x14f2a22c97ae2890e73cb15b1c0e42a8a0821223",
          "topics": [
            "0x2bbaa179fabbdbc2ed8c301faf6fca674ce9b4db55373c36bda89901d2fcfb6c",
            "0x5611645c7b7387fb8499426a4c76a74c7241f751aca035dcabb5e9b0ed7cf68b",
            "0x000000000000000000000000000000000000000000000000000000000000000c"
          ],
          "data": "0x00000000000000000000000000000000000000000000000da933d8d8c67000000000000000000000000000000000000000000000000000015db8627c13d8000000000000000000000000000000000000000000000000000000000000000000000000000000000000000000000000000000000000000000000000000000000000",
          "blockHash": "0x715f129bd21501f70a936ea4110fdcf4018a7c86498a6a9733dc6f9508d63120",
          "blockNumber": "0x143e96a",
          "transactionHash": "0x2497d8e8522add92e674aebf45e3dde040a8d3a3bf6736e2c18c61ca24b730d7",
          "transactionIndex": "0x1a",
          "logIndex": "0x5e",
          "removed": false
        },
        {
          "address": "0x14f2a22c97ae2890e73cb15b1c0e42a8a0821223",
          "topics": [
            "0x949314518006833d597b4acd80e6cc367fa5461d9a4f80373e136688b6aad142",
            "0x0000000000000000000000008c9c001f821c04513616fd7962b2d8c62f925fd2",
            "0x5611645c7b7387fb8499426a4c76a74c7241f751aca035dcabb5e9b0ed7cf68b",
            "0x000000000000000000000000000000000000000000000000000000000000000c"
          ],
          "data": "0x000000000000000000000000000000000000000000000000000000000000000000000000000000000000000000000000000000000000000000000000000000000000000000000000000000000000000000000000000000000000000000000000",
          "blockHash": "0x715f129bd21501f70a936ea4110fdcf4018a7c86498a6a9733dc6f9508d63120",
          "blockNumber": "0x143e96a",
          "transactionHash": "0x2497d8e8522add92e674aebf45e3dde040a8d3a3bf6736e2c18c61ca24b730d7",
          "transactionIndex": "0x1a",
          "logIndex": "0x5f",
          "removed": false
        },
        {
          "address": "0x14f2a22c97ae2890e73cb15b1c0e42a8a0821223",
          "topics": [
            "0xc2ec7dd88a6dab4eecfd7a57fb0879a881a03e12b94dc49c5fec5d5faa8792ce",
            "0x000000000000000000000000000000000000000000000000000000000000000d"
          ],
          "data": "0x00000000000000000000000000000000000000000000000000000000679b31b400000000000000000000000000000000000000000000000011e79ba26c6baf0a00000000000000000000000000000000000000000000000011e79ba26c6baf0a",
          "blockHash": "0x715f129bd21501f70a936ea4110fdcf4018a7c86498a6a9733dc6f9508d63120",
          "blockNumber": "0x143e96a",
          "transactionHash": "0x2497d8e8522add92e674aebf45e3dde040a8d3a3bf6736e2c18c61ca24b730d7",
          "transactionIndex": "0x1a",
          "logIndex": "0x60",
          "removed": false
        },
        {
          "address": "0x14f2a22c97ae2890e73cb15b1c0e42a8a0821223",
          "topics": [
            "0x2bbaa179fabbdbc2ed8c301faf6fca674ce9b4db55373c36bda89901d2fcfb6c",
            "0x5611645c7b7387fb8499426a4c76a74c7241f751aca035dcabb5e9b0ed7cf68b",
            "0x000000000000000000000000000000000000000000000000000000000000000d"
          ],
          "data": "0x00000000000000000000000000000000000000000000000da933d8d8c67000000000000000000000000000000000000000000000000000015db8627c13d8000000000000000000000000000000000000000000000000000000000000000000000000000000000000000000000000000000000000000000000000000000000000",
          "blockHash": "0x715f129bd21501f70a936ea4110fdcf4018a7c86498a6a9733dc6f9508d63120",
          "blockNumber": "0x143e96a",
          "transactionHash": "0x2497d8e8522add92e674aebf45e3dde040a8d3a3bf6736e2c18c61ca24b730d7",
          "transactionIndex": "0x1a",
          "logIndex": "0x61",
          "removed": false
        },
        {
          "address": "0x14f2a22c97ae2890e73cb15b1c0e42a8a0821223",
          "topics": [
            "0x949314518006833d597b4acd80e6cc367fa5461d9a4f80373e136688b6aad142",
            "0x0000000000000000000000008c9c001f821c04513616fd7962b2d8c62f925fd2",
            "0x5611645c7b7387fb8499426a4c76a74c7241f751aca035dcabb5e9b0ed7cf68b",
            "0x000000000000000000000000000000000000000000000000000000000000000d"
          ],
          "data": "0x000000000000000000000000000000000000000000000000000000000000000000000000000000000000000000000000000000000000000000000000000000000000000000000000000000000000000000000000000000000000000000000000",
          "blockHash": "0x715f129bd21501f70a936ea4110fdcf4018a7c86498a6a9733dc6f9508d63120",
          "blockNumber": "0x143e96a",
          "transactionHash": "0x2497d8e8522add92e674aebf45e3dde040a8d3a3bf6736e2c18c61ca24b730d7",
          "transactionIndex": "0x1a",
          "logIndex": "0x62",
          "removed": false
        },
        {
          "address": "0x14f2a22c97ae2890e73cb15b1c0e42a8a0821223",
          "topics": [
            "0xc2ec7dd88a6dab4eecfd7a57fb0879a881a03e12b94dc49c5fec5d5faa8792ce",
            "0x000000000000000000000000000000000000000000000000000000000000000e"
          ],
          "data": "0x00000000000000000000000000000000000000000000000000000000679b31b4000000000000000000000000000000000000000000000000029f1171943d8e38000000000000000000000000000000000000000000000000029f1171943d8e38",
          "blockHash": "0x715f129bd21501f70a936ea4110fdcf4018a7c86498a6a9733dc6f9508d63120",
          "blockNumber": "0x143e96a",
          "transactionHash": "0x2497d8e8522add92e674aebf45e3dde040a8d3a3bf6736e2c18c61ca24b730d7",
          "transactionIndex": "0x1a",
          "logIndex": "0x63",
          "removed": false
        },
        {
          "address": "0x14f2a22c97ae2890e73cb15b1c0e42a8a0821223",
          "topics": [
            "0x2bbaa179fabbdbc2ed8c301faf6fca674ce9b4db55373c36bda89901d2fcfb6c",
            "0x5611645c7b7387fb8499426a4c76a74c7241f751aca035dcabb5e9b0ed7cf68b",
            "0x000000000000000000000000000000000000000000000000000000000000000e"
          ],
          "data": "0x00000000000000000000000000000000000000000000000ce6e9db059ef7fba00000000000000000000000000000000000000000000000014a4a95e6f64bff9000000000000000000000000000000000000000000000000000000000000000000000000000000000000000000000000000000000000000000000000000000000",
          "blockHash": "0x715f129bd21501f70a936ea4110fdcf4018a7c86498a6a9733dc6f9508d63120",
          "blockNumber": "0x143e96a",
          "transactionHash": "0x2497d8e8522add92e674aebf45e3dde040a8d3a3bf6736e2c18c61ca24b730d7",
          "transactionIndex": "0x1a",
          "logIndex": "0x64",
          "removed": false
        },
        {
          "address": "0x14f2a22c97ae2890e73cb15b1c0e42a8a0821223",
          "topics": [
            "0x949314518006833d597b4acd80e6cc367fa5461d9a4f80373e136688b6aad142",
            "0x0000000000000000000000008c9c001f821c04513616fd7962b2d8c62f925fd2",
            "0x5611645c7b7387fb8499426a4c76a74c7241f751aca035dcabb5e9b0ed7cf68b",
            "0x000000000000000000000000000000000000000000000000000000000000000e"
          ],
          "data": "0x000000000000000000000000000000000000000000000000000000000000000000000000000000000000000000000000000000000000000000000000000000000000000000000000000000000000000000000000000000000000000000000000",
          "blockHash": "0x715f129bd21501f70a936ea4110fdcf4018a7c86498a6a9733dc6f9508d63120",
          "blockNumber": "0x143e96a",
          "transactionHash": "0x2497d8e8522add92e674aebf45e3dde040a8d3a3bf6736e2c18c61ca24b730d7",
          "transactionIndex": "0x1a",
          "logIndex": "0x65",
          "removed": false
        },
        {
          "address": "0x14f2a22c97ae2890e73cb15b1c0e42a8a0821223",
          "topics": [
            "0x4e7bac5695f40fad0768f0f3b8c118c3d4d29e043511b9fa823003fe60027275",
            "0x0000000000000000000000008c9c001f821c04513616fd7962b2d8c62f925fd2",
            "0x5611645c7b7387fb8499426a4c76a74c7241f751aca035dcabb5e9b0ed7cf68b"
          ],
          "data": "0x000000000000000000000000000000000000000000000004e1003b28d9280000",
          "blockHash": "0x715f129bd21501f70a936ea4110fdcf4018a7c86498a6a9733dc6f9508d63120",
          "blockNumber": "0x143e96a",
          "transactionHash": "0x2497d8e8522add92e674aebf45e3dde040a8d3a3bf6736e2c18c61ca24b730d7",
          "transactionIndex": "0x1a",
          "logIndex": "0x66",
          "removed": false
        },
        {
          "address": "0x8528c2df4ed0cf397a31b3f0ff0b96719a1be2c6",
          "topics": [
            "0xddf252ad1be2c89b69c2b068fc378daa952ba7f163c4a11628f55a4df523b3ef",
            "0x0000000000000000000000008c9c001f821c04513616fd7962b2d8c62f925fd2",
            "0x00000000000000000000000014f2a22c97ae2890e73cb15b1c0e42a8a0821223"
          ],
          "data": "0x000000000000000000000000000000000000000000000004e1003b28d9280000",
          "blockHash": "0x715f129bd21501f70a936ea4110fdcf4018a7c86498a6a9733dc6f9508d63120",
          "blockNumber": "0x143e96a",
          "transactionHash": "0x2497d8e8522add92e674aebf45e3dde040a8d3a3bf6736e2c18c61ca24b730d7",
          "transactionIndex": "0x1a",
          "logIndex": "0x67",
          "removed": false
        }
      ],
      "logsBloom": "0x040000080000000000400040000008000000020000000000000000000000000000000008000002000000000000000400080010000606800000200000002400000000300000004008000000080040000000020000000400000000000000000000080000000200000010000000000008000000000000100000000000180000000000a0000400000004010000000000001008001800000000001000000000000000000000000200000000000100000020001000000042800020002080480000408040000002000000000000000000000000002200008000010000000100000060220000000000000000000000000000000000000000008000040000000000800000",
      "type": "0x2",
      "transactionHash": "0x2497d8e8522add92e674aebf45e3dde040a8d3a3bf6736e2c18c61ca24b730d7",
      "transactionIndex": "0x1a",
      "blockHash": "0x715f129bd21501f70a936ea4110fdcf4018a7c86498a6a9733dc6f9508d63120",
      "blockNumber": "0x143e96a",
      "gasUsed": "0x19e5e6",
      "effectiveGasPrice": "0x1295b96",
      "from": "0x8c9c001f821c04513616fd7962b2d8c62f925fd2",
      "to": "0x14f2a22c97ae2890e73cb15b1c0e42a8a0821223",
      "contractAddress": null,
      "l1BaseFeeScalar": "0x44d",
      "l1BlobBaseFee": "0x1",
      "l1BlobBaseFeeScalar": "0xa118b",
      "l1Fee": "0x8672d567",
      "l1GasPrice": "0x4c526489",
      "l1GasUsed": "0x640"
    },
    {
      "status": "0x1",
      "cumulativeGasUsed": "0x4a551b",
      "logs": [
        {
          "address": "0x14f2a22c97ae2890e73cb15b1c0e42a8a0821223",
          "topics": [
            "0x764e98ff8f133fd79086bf24b413507d9b7e83977b31f35a16b80680f38f7072",
            "0x000000000000000000000000000000000000000000000000000000000000000f"
          ],
          "data": "0x00000000000000000000000000000000000000000000000000000000679b31c0000000000000000000000000000000000000000000000000000000006811d8c00000000000000000000000000000000000000000000000000de0b6b3a76400000000000000000000000000000000000000000000000000000de0b6b3a7640000",
          "blockHash": "0x450a043936e1b55899eca3eef8cb6d6086ddbf0598110f46fc60b66e541dc3ed",
          "blockNumber": "0x143e96b",
          "transactionHash": "0x1fac0850dd47c83609fb09429878cdcebe35e680ddca18ca5889edb7ed3d96e9",
          "transactionIndex": "0x24",
          "logIndex": "0x61",
          "removed": false
        },
        {
          "address": "0x264541e2dc34875943a746174e862ac594164aa2",
          "topics": [
            "0x554c94cb64d410104e2b06cc56052e30bc29a1307df890d30eb124045d4ae680",
            "0x000000000000000000000000000000000000000000000000000000000000000f"
          ],
          "data": "0x00000000000000000000000000000000000000000000000000000000000075e800000000000000000000000058bde6071db4a9b006fdabe75a2eeb43decb779b",
          "blockHash": "0x450a043936e1b55899eca3eef8cb6d6086ddbf0598110f46fc60b66e541dc3ed",
          "blockNumber": "0x143e96b",
          "transactionHash": "0x1fac0850dd47c83609fb09429878cdcebe35e680ddca18ca5889edb7ed3d96e9",
          "transactionIndex": "0x24",
          "logIndex": "0x62",
          "removed": false
        }
      ],
      "logsBloom": "0x00000000000000000000000000000000000000000000000000000000000000000000000800000000100000000000000000000000000400000000000000000000000000000000000000000002000000000000000000400000000000000002000000000000000000000000000000000000000000000000020000000000000000000000000000000800000000000000000000000000000000000000000000000000000000200000000000000000000020000000000000000000000000000000000000000000000000020000000000000000000000000000000000000000000020000000000200000000000000000000000000000020000000000000001000000000",
      "type": "0x2",
      "transactionHash": "0x1fac0850dd47c83609fb09429878cdcebe35e680ddca18ca5889edb7ed3d96e9",
      "transactionIndex": "0x24",
      "blockHash": "0x450a043936e1b55899eca3eef8cb6d6086ddbf0598110f46fc60b66e541dc3ed",
      "blockNumber": "0x143e96b",
      "gasUsed": "0x44372",
      "effectiveGasPrice": "0x12929ad",
      "from": "0x8c9c001f821c04513616fd7962b2d8c62f925fd2",
      "to": "0x14f2a22c97ae2890e73cb15b1c0e42a8a0821223",
      "contractAddress": null,
      "l1BaseFeeScalar": "0x44d",
      "l1BlobBaseFee": "0x1",
      "l1BlobBaseFeeScalar": "0xa118b",
      "l1Fee": "0x9c6e1b3c",
      "l1GasPrice": "0x4c526489",
      "l1GasUsed": "0x745"
    },
    {
      "status": "0x1",
      "cumulativeGasUsed": "0x4bda17",
      "logs": [
        {
          "address": "0x58bde6071db4a9b006fdabe75a2eeb43decb779b",
          "topics": [
            "0xddf252ad1be2c89b69c2b068fc378daa952ba7f163c4a11628f55a4df523b3ef",
            "0x0000000000000000000000008c9c001f821c04513616fd7962b2d8c62f925fd2",
            "0x000000000000000000000000264541e2dc34875943a746174e862ac594164aa2"
          ],
          "data": "0x000000000000000000000000000000000000000000000004e1003b28d9280000",
          "blockHash": "0x3277ddbfc3b8ab68a2cebbd3b2ed6e5fa15e08f557893649b6cfcb5ba1dc5e74",
          "blockNumber": "0x143e96d",
          "transactionHash": "0xc0b5d1d73cf346a18aa0a32b2c0061eabf368b8f2ed46c7f76df991d9c989b5f",
          "transactionIndex": "0x29",
          "logIndex": "0x70",
          "removed": false
        },
        {
          "address": "0x264541e2dc34875943a746174e862ac594164aa2",
          "topics": [
            "0x90e9c021de092ced915ba783260374f129aeeedec753ab3fb564631601ff9589",
            "0x000000000000000000000000000000000000000000000000000000000000000f",
            "0x0000000000000000000000008c9c001f821c04513616fd7962b2d8c62f925fd2"
          ],
          "data": "0x00000000000000000000000000000000000000000000000000000000000075e8000000000000000000000000000000000000000000000004e1003b28d9280000",
          "blockHash": "0x3277ddbfc3b8ab68a2cebbd3b2ed6e5fa15e08f557893649b6cfcb5ba1dc5e74",
          "blockNumber": "0x143e96d",
          "transactionHash": "0xc0b5d1d73cf346a18aa0a32b2c0061eabf368b8f2ed46c7f76df991d9c989b5f",
          "transactionIndex": "0x29",
          "logIndex": "0x71",
          "removed": false
        }
      ],
      "logsBloom": "0x00000000000000000000000000001800000000000000000000000000000000000000000000000000000000000000000000000000000000000000000000000000000000200000000000000008004000000000000000400000000000000002000000000000000000000000000000000000000000000000000000000010020000000000000000000800000000000000000000000000000000000000000000400020000000000000000000000000000000000000000000000000000080000000000000000002000000000000000000000000000000000000100000000000000000000000000200000000000000008000000800000020008000000000001000000000",
      "type": "0x2",
      "transactionHash": "0xc0b5d1d73cf346a18aa0a32b2c0061eabf368b8f2ed46c7f76df991d9c989b5f",
      "transactionIndex": "0x29",
      "blockHash": "0x3277ddbfc3b8ab68a2cebbd3b2ed6e5fa15e08f557893649b6cfcb5ba1dc5e74",
      "blockNumber": "0x143e96d",
      "gasUsed": "0x135b8",
      "effectiveGasPrice": "0x12891a5",
      "from": "0x8c9c001f821c04513616fd7962b2d8c62f925fd2",
      "to": "0x264541e2dc34875943a746174e862ac594164aa2",
      "contractAddress": null,
      "l1BaseFeeScalar": "0x44d",
      "l1BlobBaseFee": "0x1",
      "l1BlobBaseFeeScalar": "0xa118b",
      "l1Fee": "0x8672d567",
      "l1GasPrice": "0x4c526489",
      "l1GasUsed": "0x640"
    }
  ],
  "libraries": [],
  "pending": [],
  "returns": {},
  "timestamp": 1738224058,
  "chain": 84532,
  "commit": "786270f"
}