{
  "transactions": [
    {
      "hash": "0x1862e87ddcbdd8e473796872b9510b95f5e31c7dff0422d8388d7ccfc10d12be",
      "transactionType": "CALL",
      "contractName": "StakingPro",
      "contractAddress": "0x14f2a22c97ae2890e73cb15b1c0e42a8a0821223",
      "function": "stakeTokens(bytes32,uint256)",
      "arguments": [
        "0x5611645c7b7387fb8499426a4c76a74c7241f751aca035dcabb5e9b0ed7cf68b",
        "90000000000000000000"
      ],
      "transaction": {
        "from": "0x8c9c001f821c04513616fd7962b2d8c62f925fd2",
        "to": "0x14f2a22c97ae2890e73cb15b1c0e42a8a0821223",
        "value": "0x0",
        "input": "0xe6587ea25611645c7b7387fb8499426a4c76a74c7241f751aca035dcabb5e9b0ed7cf68b000000000000000000000000000000000000000000000004e1003b28d9280000",
        "nonce": "0x89",
        "chainId": "0x14a34"
      },
      "additionalContracts": [],
      "isFixedGasLimit": false
    },
    {
      "hash": null,
      "transactionType": "CALL",
      "contractName": "StakingPro",
      "contractAddress": "0x14f2a22c97ae2890e73cb15b1c0e42a8a0821223",
      "function": "setupDistribution(uint256,uint256,uint256,uint256,uint256,uint32,bytes32)",
      "arguments": [
        "16",
        "1738231658",
        "1746007658",
        "1000000000000000000",
        "1000000000000000000",
        "30184",
        "0x00000000000000000000000058bde6071db4a9b006fdabe75a2eeb43decb779b"
      ],
      "transaction": {
        "from": "0x8c9c001f821c04513616fd7962b2d8c62f925fd2",
        "to": "0x14f2a22c97ae2890e73cb15b1c0e42a8a0821223",
        "value": "0x0",
        "input": "0x0b6d6c99000000000000000000000000000000000000000000000000000000000000001000000000000000000000000000000000000000000000000000000000679b4f6a000000000000000000000000000000000000000000000000000000006811f66a0000000000000000000000000000000000000000000000000de0b6b3a76400000000000000000000000000000000000000000000000000000de0b6b3a764000000000000000000000000000000000000000000000000000000000000000075e800000000000000000000000058bde6071db4a9b006fdabe75a2eeb43decb779b",
        "nonce": "0x8a",
        "chainId": "0x14a34"
      },
      "additionalContracts": [],
      "isFixedGasLimit": false
    },
    {
      "hash": null,
      "transactionType": "CALL",
      "contractName": "RewardsVaultV1",
      "contractAddress": "0x264541e2dc34875943a746174e862ac594164aa2",
      "function": "deposit(uint256,uint256,address)",
      "arguments": [
        "16",
        "90000000000000000000",
        "0x8C9C001F821c04513616fd7962B2D8c62f925fD2"
      ],
      "transaction": {
        "from": "0x8c9c001f821c04513616fd7962b2d8c62f925fd2",
        "to": "0x264541e2dc34875943a746174e862ac594164aa2",
        "value": "0x0",
        "input": "0x8dbdbe6d0000000000000000000000000000000000000000000000000000000000000010000000000000000000000000000000000000000000000004e1003b28d92800000000000000000000000000008c9c001f821c04513616fd7962b2d8c62f925fd2",
        "nonce": "0x8b",
        "chainId": "0x14a34"
      },
      "additionalContracts": [],
      "isFixedGasLimit": false
    }
  ],
  "receipts": [
    {
      "status": "0x1",
      "cumulativeGasUsed": "0x73adac",
      "logs": [
        {
          "address": "0x14f2a22c97ae2890e73cb15b1c0e42a8a0821223",
          "topics": [
            "0x949314518006833d597b4acd80e6cc367fa5461d9a4f80373e136688b6aad142",
            "0x0000000000000000000000008c9c001f821c04513616fd7962b2d8c62f925fd2",
            "0x5611645c7b7387fb8499426a4c76a74c7241f751aca035dcabb5e9b0ed7cf68b",
            "0x0000000000000000000000000000000000000000000000000000000000000000"
          ],
          "data": "0x000000000000000000000000000000000000000000000000000000000000000000000000000000000000000000000000000000000000000000000000000000000000000000000000000000000000000000000000000000000000000000000000",
          "blockHash": "0x466c42597561c3f8d51998b72498ea9199ea034946a530fa0e7e770b9b74d692",
          "blockNumber": "0x143f84d",
          "transactionHash": "0x1862e87ddcbdd8e473796872b9510b95f5e31c7dff0422d8388d7ccfc10d12be",
          "transactionIndex": "0x32",
          "logIndex": "0x74",
          "removed": false
        },
        {
          "address": "0x14f2a22c97ae2890e73cb15b1c0e42a8a0821223",
          "topics": [
            "0xc2ec7dd88a6dab4eecfd7a57fb0879a881a03e12b94dc49c5fec5d5faa8792ce",
            "0x0000000000000000000000000000000000000000000000000000000000000001"
          ],
          "data": "0x00000000000000000000000000000000000000000000000000000000679b4f7a000000000000000000000000000000000000000000000003c9668332bda55b4f000000000000000000000000000000000000000000000003c9668332bda55b4f",
          "blockHash": "0x466c42597561c3f8d51998b72498ea9199ea034946a530fa0e7e770b9b74d692",
          "blockNumber": "0x143f84d",
          "transactionHash": "0x1862e87ddcbdd8e473796872b9510b95f5e31c7dff0422d8388d7ccfc10d12be",
          "transactionIndex": "0x32",
          "logIndex": "0x75",
          "removed": false
        },
        {
          "address": "0x14f2a22c97ae2890e73cb15b1c0e42a8a0821223",
          "topics": [
            "0x2bbaa179fabbdbc2ed8c301faf6fca674ce9b4db55373c36bda89901d2fcfb6c",
            "0x5611645c7b7387fb8499426a4c76a74c7241f751aca035dcabb5e9b0ed7cf68b",
            "0x0000000000000000000000000000000000000000000000000000000000000001"
          ],
          "data": "0x00000000000000000000000000000000000000000000019d307fa8e9cb57fb1e00000000000000000000000000000000000000000000002951a65db0fabbff8300000000000000000000000000000000000000000000000000000000000000000000000000000000000000000000000000000000000000000000000000000000",
          "blockHash": "0x466c42597561c3f8d51998b72498ea9199ea034946a530fa0e7e770b9b74d692",
          "blockNumber": "0x143f84d",
          "transactionHash": "0x1862e87ddcbdd8e473796872b9510b95f5e31c7dff0422d8388d7ccfc10d12be",
          "transactionIndex": "0x32",
          "logIndex": "0x76",
          "removed": false
        },
        {
          "address": "0x14f2a22c97ae2890e73cb15b1c0e42a8a0821223",
          "topics": [
            "0x949314518006833d597b4acd80e6cc367fa5461d9a4f80373e136688b6aad142",
            "0x0000000000000000000000008c9c001f821c04513616fd7962b2d8c62f925fd2",
            "0x5611645c7b7387fb8499426a4c76a74c7241f751aca035dcabb5e9b0ed7cf68b",
            "0x0000000000000000000000000000000000000000000000000000000000000001"
          ],
          "data": "0x0000000000000000000000000000000000000000000000000000000000001a5e00000000000000000000000000000000000000000000000000000000000000000000000000000000000000000000000000000000000000000000000000000000",
          "blockHash": "0x466c42597561c3f8d51998b72498ea9199ea034946a530fa0e7e770b9b74d692",
          "blockNumber": "0x143f84d",
          "transactionHash": "0x1862e87ddcbdd8e473796872b9510b95f5e31c7dff0422d8388d7ccfc10d12be",
          "transactionIndex": "0x32",
          "logIndex": "0x77",
          "removed": false
        },
        {
          "address": "0x14f2a22c97ae2890e73cb15b1c0e42a8a0821223",
          "topics": [
            "0xc2ec7dd88a6dab4eecfd7a57fb0879a881a03e12b94dc49c5fec5d5faa8792ce",
            "0x0000000000000000000000000000000000000000000000000000000000000002"
          ],
          "data": "0x00000000000000000000000000000000000000000000000000000000679b4f7a0000000000000000000000000000000000000000000000010f807d321a55cd160000000000000000000000000000000000000000000000010f807d321a55cd16",
          "blockHash": "0x466c42597561c3f8d51998b72498ea9199ea034946a530fa0e7e770b9b74d692",
          "blockNumber": "0x143f84d",
          "transactionHash": "0x1862e87ddcbdd8e473796872b9510b95f5e31c7dff0422d8388d7ccfc10d12be",
          "transactionIndex": "0x32",
          "logIndex": "0x78",
          "removed": false
        },
        {
          "address": "0x14f2a22c97ae2890e73cb15b1c0e42a8a0821223",
          "topics": [
            "0x2bbaa179fabbdbc2ed8c301faf6fca674ce9b4db55373c36bda89901d2fcfb6c",
            "0x5611645c7b7387fb8499426a4c76a74c7241f751aca035dcabb5e9b0ed7cf68b",
            "0x0000000000000000000000000000000000000000000000000000000000000002"
          ],
          "data": "0x00000000000000000000000000000000000000000000019d307fa8e9cb57fb1e00000000000000000000000000000000000000000000002951a65db0fabbff8300000000000000000000000000000000000000000000000000000000000000000000000000000000000000000000000000000000000000000000000000000000",
          "blockHash": "0x466c42597561c3f8d51998b72498ea9199ea034946a530fa0e7e770b9b74d692",
          "blockNumber": "0x143f84d",
          "transactionHash": "0x1862e87ddcbdd8e473796872b9510b95f5e31c7dff0422d8388d7ccfc10d12be",
          "transactionIndex": "0x32",
          "logIndex": "0x79",
          "removed": false
        },
        {
          "address": "0x14f2a22c97ae2890e73cb15b1c0e42a8a0821223",
          "topics": [
            "0x949314518006833d597b4acd80e6cc367fa5461d9a4f80373e136688b6aad142",
            "0x0000000000000000000000008c9c001f821c04513616fd7962b2d8c62f925fd2",
            "0x5611645c7b7387fb8499426a4c76a74c7241f751aca035dcabb5e9b0ed7cf68b",
            "0x0000000000000000000000000000000000000000000000000000000000000002"
          ],
          "data": "0x0000000000000000000000000000000000000000000000000000000000001a5e00000000000000000000000000000000000000000000000000000000000000000000000000000000000000000000000000000000000000000000000000000000",
          "blockHash": "0x466c42597561c3f8d51998b72498ea9199ea034946a530fa0e7e770b9b74d692",
          "blockNumber": "0x143f84d",
          "transactionHash": "0x1862e87ddcbdd8e473796872b9510b95f5e31c7dff0422d8388d7ccfc10d12be",
          "transactionIndex": "0x32",
          "logIndex": "0x7a",
          "removed": false
        },
        {
          "address": "0x14f2a22c97ae2890e73cb15b1c0e42a8a0821223",
          "topics": [
            "0xc2ec7dd88a6dab4eecfd7a57fb0879a881a03e12b94dc49c5fec5d5faa8792ce",
            "0x0000000000000000000000000000000000000000000000000000000000000003"
          ],
          "data": "0x00000000000000000000000000000000000000000000000000000000679b4f7a000000000000000000000000000000000000000000000000d7aeaf652f18e989000000000000000000000000000000000000000000000000d7aeaf652f18e989",
          "blockHash": "0x466c42597561c3f8d51998b72498ea9199ea034946a530fa0e7e770b9b74d692",
          "blockNumber": "0x143f84d",
          "transactionHash": "0x1862e87ddcbdd8e473796872b9510b95f5e31c7dff0422d8388d7ccfc10d12be",
          "transactionIndex": "0x32",
          "logIndex": "0x7b",
          "removed": false
        },
        {
          "address": "0x14f2a22c97ae2890e73cb15b1c0e42a8a0821223",
          "topics": [
            "0x2bbaa179fabbdbc2ed8c301faf6fca674ce9b4db55373c36bda89901d2fcfb6c",
            "0x5611645c7b7387fb8499426a4c76a74c7241f751aca035dcabb5e9b0ed7cf68b",
            "0x0000000000000000000000000000000000000000000000000000000000000003"
          ],
          "data": "0x00000000000000000000000000000000000000000000019d307fa8e9cb57fb1e00000000000000000000000000000000000000000000002951a65db0fabbff8300000000000000000000000000000000000000000000000000000000000000000000000000000000000000000000000000000000000000000000000000000000",
          "blockHash": "0x466c42597561c3f8d51998b72498ea9199ea034946a530fa0e7e770b9b74d692",
          "blockNumber": "0x143f84d",
          "transactionHash": "0x1862e87ddcbdd8e473796872b9510b95f5e31c7dff0422d8388d7ccfc10d12be",
          "transactionIndex": "0x32",
          "logIndex": "0x7c",
          "removed": false
        },
        {
          "address": "0x14f2a22c97ae2890e73cb15b1c0e42a8a0821223",
          "topics": [
            "0x949314518006833d597b4acd80e6cc367fa5461d9a4f80373e136688b6aad142",
            "0x0000000000000000000000008c9c001f821c04513616fd7962b2d8c62f925fd2",
            "0x5611645c7b7387fb8499426a4c76a74c7241f751aca035dcabb5e9b0ed7cf68b",
            "0x0000000000000000000000000000000000000000000000000000000000000003"
          ],
          "data": "0x0000000000000000000000000000000000000000000000000000000000001a5e00000000000000000000000000000000000000000000000000000000000000000000000000000000000000000000000000000000000000000000000000000000",
          "blockHash": "0x466c42597561c3f8d51998b72498ea9199ea034946a530fa0e7e770b9b74d692",
          "blockNumber": "0x143f84d",
          "transactionHash": "0x1862e87ddcbdd8e473796872b9510b95f5e31c7dff0422d8388d7ccfc10d12be",
          "transactionIndex": "0x32",
          "logIndex": "0x7d",
          "removed": false
        },
        {
          "address": "0x14f2a22c97ae2890e73cb15b1c0e42a8a0821223",
          "topics": [
            "0xc2ec7dd88a6dab4eecfd7a57fb0879a881a03e12b94dc49c5fec5d5faa8792ce",
            "0x0000000000000000000000000000000000000000000000000000000000000004"
          ],
          "data": "0x00000000000000000000000000000000000000000000000000000000679b4f7a000000000000000000000000000000000000000000000000c69e29c30fba64cb000000000000000000000000000000000000000000000000c69e29c30fba64cb",
          "blockHash": "0x466c42597561c3f8d51998b72498ea9199ea034946a530fa0e7e770b9b74d692",
          "blockNumber": "0x143f84d",
          "transactionHash": "0x1862e87ddcbdd8e473796872b9510b95f5e31c7dff0422d8388d7ccfc10d12be",
          "transactionIndex": "0x32",
          "logIndex": "0x7e",
          "removed": false
        },
        {
          "address": "0x14f2a22c97ae2890e73cb15b1c0e42a8a0821223",
          "topics": [
            "0x2bbaa179fabbdbc2ed8c301faf6fca674ce9b4db55373c36bda89901d2fcfb6c",
            "0x5611645c7b7387fb8499426a4c76a74c7241f751aca035dcabb5e9b0ed7cf68b",
            "0x0000000000000000000000000000000000000000000000000000000000000004"
          ],
          "data": "0x00000000000000000000000000000000000000000000019d307fa8e9cb57fb1e00000000000000000000000000000000000000000000002951a65db0fabbff8300000000000000000000000000000000000000000000000000000000000000000000000000000000000000000000000000000000000000000000000000000000",
          "blockHash": "0x466c42597561c3f8d51998b72498ea9199ea034946a530fa0e7e770b9b74d692",
          "blockNumber": "0x143f84d",
          "transactionHash": "0x1862e87ddcbdd8e473796872b9510b95f5e31c7dff0422d8388d7ccfc10d12be",
          "transactionIndex": "0x32",
          "logIndex": "0x7f",
          "removed": false
        },
        {
          "address": "0x14f2a22c97ae2890e73cb15b1c0e42a8a0821223",
          "topics": [
            "0x949314518006833d597b4acd80e6cc367fa5461d9a4f80373e136688b6aad142",
            "0x0000000000000000000000008c9c001f821c04513616fd7962b2d8c62f925fd2",
            "0x5611645c7b7387fb8499426a4c76a74c7241f751aca035dcabb5e9b0ed7cf68b",
            "0x0000000000000000000000000000000000000000000000000000000000000004"
          ],
          "data": "0x0000000000000000000000000000000000000000000000000000000000001a5e00000000000000000000000000000000000000000000000000000000000000000000000000000000000000000000000000000000000000000000000000000000",
          "blockHash": "0x466c42597561c3f8d51998b72498ea9199ea034946a530fa0e7e770b9b74d692",
          "blockNumber": "0x143f84d",
          "transactionHash": "0x1862e87ddcbdd8e473796872b9510b95f5e31c7dff0422d8388d7ccfc10d12be",
          "transactionIndex": "0x32",
          "logIndex": "0x80",
          "removed": false
        },
        {
          "address": "0x14f2a22c97ae2890e73cb15b1c0e42a8a0821223",
          "topics": [
            "0xc2ec7dd88a6dab4eecfd7a57fb0879a881a03e12b94dc49c5fec5d5faa8792ce",
            "0x0000000000000000000000000000000000000000000000000000000000000005"
          ],
          "data": "0x00000000000000000000000000000000000000000000000000000000679b4f7a000000000000000000000000000000000000000000000000ac32d95466df9434000000000000000000000000000000000000000000000000ac32d95466df9434",
          "blockHash": "0x466c42597561c3f8d51998b72498ea9199ea034946a530fa0e7e770b9b74d692",
          "blockNumber": "0x143f84d",
          "transactionHash": "0x1862e87ddcbdd8e473796872b9510b95f5e31c7dff0422d8388d7ccfc10d12be",
          "transactionIndex": "0x32",
          "logIndex": "0x81",
          "removed": false
        },
        {
          "address": "0x14f2a22c97ae2890e73cb15b1c0e42a8a0821223",
          "topics": [
            "0x2bbaa179fabbdbc2ed8c301faf6fca674ce9b4db55373c36bda89901d2fcfb6c",
            "0x5611645c7b7387fb8499426a4c76a74c7241f751aca035dcabb5e9b0ed7cf68b",
            "0x0000000000000000000000000000000000000000000000000000000000000005"
          ],
          "data": "0x00000000000000000000000000000000000000000000019d307fa8e9cb57fb1e00000000000000000000000000000000000000000000002951a65db0fabbff8300000000000000000000000000000000000000000000000000000000000000000000000000000000000000000000000000000000000000000000000000000000",
          "blockHash": "0x466c42597561c3f8d51998b72498ea9199ea034946a530fa0e7e770b9b74d692",
          "blockNumber": "0x143f84d",
          "transactionHash": "0x1862e87ddcbdd8e473796872b9510b95f5e31c7dff0422d8388d7ccfc10d12be",
          "transactionIndex": "0x32",
          "logIndex": "0x82",
          "removed": false
        },
        {
          "address": "0x14f2a22c97ae2890e73cb15b1c0e42a8a0821223",
          "topics": [
            "0x949314518006833d597b4acd80e6cc367fa5461d9a4f80373e136688b6aad142",
            "0x0000000000000000000000008c9c001f821c04513616fd7962b2d8c62f925fd2",
            "0x5611645c7b7387fb8499426a4c76a74c7241f751aca035dcabb5e9b0ed7cf68b",
            "0x0000000000000000000000000000000000000000000000000000000000000005"
          ],
          "data": "0x0000000000000000000000000000000000000000000000000000000000001a5e00000000000000000000000000000000000000000000000000000000000000000000000000000000000000000000000000000000000000000000000000000000",
          "blockHash": "0x466c42597561c3f8d51998b72498ea9199ea034946a530fa0e7e770b9b74d692",
          "blockNumber": "0x143f84d",
          "transactionHash": "0x1862e87ddcbdd8e473796872b9510b95f5e31c7dff0422d8388d7ccfc10d12be",
          "transactionIndex": "0x32",
          "logIndex": "0x83",
          "removed": false
        },
        {
          "address": "0x14f2a22c97ae2890e73cb15b1c0e42a8a0821223",
          "topics": [
            "0xc2ec7dd88a6dab4eecfd7a57fb0879a881a03e12b94dc49c5fec5d5faa8792ce",
            "0x0000000000000000000000000000000000000000000000000000000000000006"
          ],
          "data": "0x00000000000000000000000000000000000000000000000000000000679b4f7a0000000000000000000000000000000000000000000000009d3dd026af9e77c20000000000000000000000000000000000000000000000009d3dd026af9e77c2",
          "blockHash": "0x466c42597561c3f8d51998b72498ea9199ea034946a530fa0e7e770b9b74d692",
          "blockNumber": "0x143f84d",
          "transactionHash": "0x1862e87ddcbdd8e473796872b9510b95f5e31c7dff0422d8388d7ccfc10d12be",
          "transactionIndex": "0x32",
          "logIndex": "0x84",
          "removed": false
        },
        {
          "address": "0x14f2a22c97ae2890e73cb15b1c0e42a8a0821223",
          "topics": [
            "0x2bbaa179fabbdbc2ed8c301faf6fca674ce9b4db55373c36bda89901d2fcfb6c",
            "0x5611645c7b7387fb8499426a4c76a74c7241f751aca035dcabb5e9b0ed7cf68b",
            "0x0000000000000000000000000000000000000000000000000000000000000006"
          ],
          "data": "0x00000000000000000000000000000000000000000000019d307fa8e9cb57fb1e00000000000000000000000000000000000000000000002951a65db0fabbff8300000000000000000000000000000000000000000000000000000000000000000000000000000000000000000000000000000000000000000000000000000000",
          "blockHash": "0x466c42597561c3f8d51998b72498ea9199ea034946a530fa0e7e770b9b74d692",
          "blockNumber": "0x143f84d",
          "transactionHash": "0x1862e87ddcbdd8e473796872b9510b95f5e31c7dff0422d8388d7ccfc10d12be",
          "transactionIndex": "0x32",
          "logIndex": "0x85",
          "removed": false
        },
        {
          "address": "0x14f2a22c97ae2890e73cb15b1c0e42a8a0821223",
          "topics": [
            "0x949314518006833d597b4acd80e6cc367fa5461d9a4f80373e136688b6aad142",
            "0x0000000000000000000000008c9c001f821c04513616fd7962b2d8c62f925fd2",
            "0x5611645c7b7387fb8499426a4c76a74c7241f751aca035dcabb5e9b0ed7cf68b",
            "0x0000000000000000000000000000000000000000000000000000000000000006"
          ],
          "data": "0x0000000000000000000000000000000000000000000000000000000000001a5e00000000000000000000000000000000000000000000000000000000000000000000000000000000000000000000000000000000000000000000000000000000",
          "blockHash": "0x466c42597561c3f8d51998b72498ea9199ea034946a530fa0e7e770b9b74d692",
          "blockNumber": "0x143f84d",
          "transactionHash": "0x1862e87ddcbdd8e473796872b9510b95f5e31c7dff0422d8388d7ccfc10d12be",
          "transactionIndex": "0x32",
          "logIndex": "0x86",
          "removed": false
        },
        {
          "address": "0x14f2a22c97ae2890e73cb15b1c0e42a8a0821223",
          "topics": [
            "0xc2ec7dd88a6dab4eecfd7a57fb0879a881a03e12b94dc49c5fec5d5faa8792ce",
            "0x0000000000000000000000000000000000000000000000000000000000000007"
          ],
          "data": "0x00000000000000000000000000000000000000000000000000000000679b4f7a00000000000000000000000000000000000000000000000087c6f3032b03cd1800000000000000000000000000000000000000000000000087c6f3032b03cd18",
          "blockHash": "0x466c42597561c3f8d51998b72498ea9199ea034946a530fa0e7e770b9b74d692",
          "blockNumber": "0x143f84d",
          "transactionHash": "0x1862e87ddcbdd8e473796872b9510b95f5e31c7dff0422d8388d7ccfc10d12be",
          "transactionIndex": "0x32",
          "logIndex": "0x87",
          "removed": false
        },
        {
          "address": "0x14f2a22c97ae2890e73cb15b1c0e42a8a0821223",
          "topics": [
            "0x2bbaa179fabbdbc2ed8c301faf6fca674ce9b4db55373c36bda89901d2fcfb6c",
            "0x5611645c7b7387fb8499426a4c76a74c7241f751aca035dcabb5e9b0ed7cf68b",
            "0x0000000000000000000000000000000000000000000000000000000000000007"
          ],
          "data": "0x00000000000000000000000000000000000000000000019d307fa8e9cb57fb1e00000000000000000000000000000000000000000000002951a65db0fabbff8300000000000000000000000000000000000000000000000000000000000000000000000000000000000000000000000000000000000000000000000000000000",
          "blockHash": "0x466c42597561c3f8d51998b72498ea9199ea034946a530fa0e7e770b9b74d692",
          "blockNumber": "0x143f84d",
          "transactionHash": "0x1862e87ddcbdd8e473796872b9510b95f5e31c7dff0422d8388d7ccfc10d12be",
          "transactionIndex": "0x32",
          "logIndex": "0x88",
          "removed": false
        },
        {
          "address": "0x14f2a22c97ae2890e73cb15b1c0e42a8a0821223",
          "topics": [
            "0x949314518006833d597b4acd80e6cc367fa5461d9a4f80373e136688b6aad142",
            "0x0000000000000000000000008c9c001f821c04513616fd7962b2d8c62f925fd2",
            "0x5611645c7b7387fb8499426a4c76a74c7241f751aca035dcabb5e9b0ed7cf68b",
            "0x0000000000000000000000000000000000000000000000000000000000000007"
          ],
          "data": "0x0000000000000000000000000000000000000000000000000000000000001a5e00000000000000000000000000000000000000000000000000000000000000000000000000000000000000000000000000000000000000000000000000000000",
          "blockHash": "0x466c42597561c3f8d51998b72498ea9199ea034946a530fa0e7e770b9b74d692",
          "blockNumber": "0x143f84d",
          "transactionHash": "0x1862e87ddcbdd8e473796872b9510b95f5e31c7dff0422d8388d7ccfc10d12be",
          "transactionIndex": "0x32",
          "logIndex": "0x89",
          "removed": false
        },
        {
          "address": "0x14f2a22c97ae2890e73cb15b1c0e42a8a0821223",
          "topics": [
            "0xc2ec7dd88a6dab4eecfd7a57fb0879a881a03e12b94dc49c5fec5d5faa8792ce",
            "0x0000000000000000000000000000000000000000000000000000000000000008"
          ],
          "data": "0x00000000000000000000000000000000000000000000000000000000679b4f7a0000000000000000000000000000000000000000000000007a8241154de32d440000000000000000000000000000000000000000000000007a8241154de32d44",
          "blockHash": "0x466c42597561c3f8d51998b72498ea9199ea034946a530fa0e7e770b9b74d692",
          "blockNumber": "0x143f84d",
          "transactionHash": "0x1862e87ddcbdd8e473796872b9510b95f5e31c7dff0422d8388d7ccfc10d12be",
          "transactionIndex": "0x32",
          "logIndex": "0x8a",
          "removed": false
        },
        {
          "address": "0x14f2a22c97ae2890e73cb15b1c0e42a8a0821223",
          "topics": [
            "0x2bbaa179fabbdbc2ed8c301faf6fca674ce9b4db55373c36bda89901d2fcfb6c",
            "0x5611645c7b7387fb8499426a4c76a74c7241f751aca035dcabb5e9b0ed7cf68b",
            "0x0000000000000000000000000000000000000000000000000000000000000008"
          ],
          "data": "0x00000000000000000000000000000000000000000000019d307fa8e9cb57fb1e00000000000000000000000000000000000000000000002951a65db0fabbff8300000000000000000000000000000000000000000000000000000000000000000000000000000000000000000000000000000000000000000000000000000000",
          "blockHash": "0x466c42597561c3f8d51998b72498ea9199ea034946a530fa0e7e770b9b74d692",
          "blockNumber": "0x143f84d",
          "transactionHash": "0x1862e87ddcbdd8e473796872b9510b95f5e31c7dff0422d8388d7ccfc10d12be",
          "transactionIndex": "0x32",
          "logIndex": "0x8b",
          "removed": false
        },
        {
          "address": "0x14f2a22c97ae2890e73cb15b1c0e42a8a0821223",
          "topics": [
            "0x949314518006833d597b4acd80e6cc367fa5461d9a4f80373e136688b6aad142",
            "0x0000000000000000000000008c9c001f821c04513616fd7962b2d8c62f925fd2",
            "0x5611645c7b7387fb8499426a4c76a74c7241f751aca035dcabb5e9b0ed7cf68b",
            "0x0000000000000000000000000000000000000000000000000000000000000008"
          ],
          "data": "0x0000000000000000000000000000000000000000000000000000000000001a5e00000000000000000000000000000000000000000000000000000000000000000000000000000000000000000000000000000000000000000000000000000000",
          "blockHash": "0x466c42597561c3f8d51998b72498ea9199ea034946a530fa0e7e770b9b74d692",
          "blockNumber": "0x143f84d",
          "transactionHash": "0x1862e87ddcbdd8e473796872b9510b95f5e31c7dff0422d8388d7ccfc10d12be",
          "transactionIndex": "0x32",
          "logIndex": "0x8c",
          "removed": false
        },
        {
          "address": "0x14f2a22c97ae2890e73cb15b1c0e42a8a0821223",
          "topics": [
            "0xc2ec7dd88a6dab4eecfd7a57fb0879a881a03e12b94dc49c5fec5d5faa8792ce",
            "0x0000000000000000000000000000000000000000000000000000000000000009"
          ],
          "data": "0x00000000000000000000000000000000000000000000000000000000679b4f7a000000000000000000000000000000000000000000000000773fa602ab08a31c000000000000000000000000000000000000000000000000773fa602ab08a31c",
          "blockHash": "0x466c42597561c3f8d51998b72498ea9199ea034946a530fa0e7e770b9b74d692",
          "blockNumber": "0x143f84d",
          "transactionHash": "0x1862e87ddcbdd8e473796872b9510b95f5e31c7dff0422d8388d7ccfc10d12be",
          "transactionIndex": "0x32",
          "logIndex": "0x8d",
          "removed": false
        },
        {
          "address": "0x14f2a22c97ae2890e73cb15b1c0e42a8a0821223",
          "topics": [
            "0x2bbaa179fabbdbc2ed8c301faf6fca674ce9b4db55373c36bda89901d2fcfb6c",
            "0x5611645c7b7387fb8499426a4c76a74c7241f751aca035dcabb5e9b0ed7cf68b",
            "0x0000000000000000000000000000000000000000000000000000000000000009"
          ],
          "data": "0x00000000000000000000000000000000000000000000019d307fa8e9cb57fb1e00000000000000000000000000000000000000000000002951a65db0fabbff8300000000000000000000000000000000000000000000000000000000000000000000000000000000000000000000000000000000000000000000000000000000",
          "blockHash": "0x466c42597561c3f8d51998b72498ea9199ea034946a530fa0e7e770b9b74d692",
          "blockNumber": "0x143f84d",
          "transactionHash": "0x1862e87ddcbdd8e473796872b9510b95f5e31c7dff0422d8388d7ccfc10d12be",
          "transactionIndex": "0x32",
          "logIndex": "0x8e",
          "removed": false
        },
        {
          "address": "0x14f2a22c97ae2890e73cb15b1c0e42a8a0821223",
          "topics": [
            "0x949314518006833d597b4acd80e6cc367fa5461d9a4f80373e136688b6aad142",
            "0x0000000000000000000000008c9c001f821c04513616fd7962b2d8c62f925fd2",
            "0x5611645c7b7387fb8499426a4c76a74c7241f751aca035dcabb5e9b0ed7cf68b",
            "0x0000000000000000000000000000000000000000000000000000000000000009"
          ],
          "data": "0x0000000000000000000000000000000000000000000000000000000000001a5e00000000000000000000000000000000000000000000000000000000000000000000000000000000000000000000000000000000000000000000000000000000",
          "blockHash": "0x466c42597561c3f8d51998b72498ea9199ea034946a530fa0e7e770b9b74d692",
          "blockNumber": "0x143f84d",
          "transactionHash": "0x1862e87ddcbdd8e473796872b9510b95f5e31c7dff0422d8388d7ccfc10d12be",
          "transactionIndex": "0x32",
          "logIndex": "0x8f",
          "removed": false
        },
        {
          "address": "0x14f2a22c97ae2890e73cb15b1c0e42a8a0821223",
          "topics": [
            "0xc2ec7dd88a6dab4eecfd7a57fb0879a881a03e12b94dc49c5fec5d5faa8792ce",
            "0x000000000000000000000000000000000000000000000000000000000000000a"
          ],
          "data": "0x00000000000000000000000000000000000000000000000000000000679b4f7a0000000000000000000000000000000000000000000000006dfe13804178e70f0000000000000000000000000000000000000000000000006dfe13804178e70f",
          "blockHash": "0x466c42597561c3f8d51998b72498ea9199ea034946a530fa0e7e770b9b74d692",
          "blockNumber": "0x143f84d",
          "transactionHash": "0x1862e87ddcbdd8e473796872b9510b95f5e31c7dff0422d8388d7ccfc10d12be",
          "transactionIndex": "0x32",
          "logIndex": "0x90",
          "removed": false
        },
        {
          "address": "0x14f2a22c97ae2890e73cb15b1c0e42a8a0821223",
          "topics": [
            "0x2bbaa179fabbdbc2ed8c301faf6fca674ce9b4db55373c36bda89901d2fcfb6c",
            "0x5611645c7b7387fb8499426a4c76a74c7241f751aca035dcabb5e9b0ed7cf68b",
            "0x000000000000000000000000000000000000000000000000000000000000000a"
          ],
          "data": "0x00000000000000000000000000000000000000000000019d307fa8e9cb57fb1e00000000000000000000000000000000000000000000002951a65db0fabbff8300000000000000000000000000000000000000000000000000000000000000000000000000000000000000000000000000000000000000000000000000000000",
          "blockHash": "0x466c42597561c3f8d51998b72498ea9199ea034946a530fa0e7e770b9b74d692",
          "blockNumber": "0x143f84d",
          "transactionHash": "0x1862e87ddcbdd8e473796872b9510b95f5e31c7dff0422d8388d7ccfc10d12be",
          "transactionIndex": "0x32",
          "logIndex": "0x91",
          "removed": false
        },
        {
          "address": "0x14f2a22c97ae2890e73cb15b1c0e42a8a0821223",
          "topics": [
            "0x949314518006833d597b4acd80e6cc367fa5461d9a4f80373e136688b6aad142",
            "0x0000000000000000000000008c9c001f821c04513616fd7962b2d8c62f925fd2",
            "0x5611645c7b7387fb8499426a4c76a74c7241f751aca035dcabb5e9b0ed7cf68b",
            "0x000000000000000000000000000000000000000000000000000000000000000a"
          ],
          "data": "0x0000000000000000000000000000000000000000000000000000000000001a5e00000000000000000000000000000000000000000000000000000000000000000000000000000000000000000000000000000000000000000000000000000000",
          "blockHash": "0x466c42597561c3f8d51998b72498ea9199ea034946a530fa0e7e770b9b74d692",
          "blockNumber": "0x143f84d",
          "transactionHash": "0x1862e87ddcbdd8e473796872b9510b95f5e31c7dff0422d8388d7ccfc10d12be",
          "transactionIndex": "0x32",
          "logIndex": "0x92",
          "removed": false
        },
        {
          "address": "0x14f2a22c97ae2890e73cb15b1c0e42a8a0821223",
          "topics": [
            "0xc2ec7dd88a6dab4eecfd7a57fb0879a881a03e12b94dc49c5fec5d5faa8792ce",
            "0x000000000000000000000000000000000000000000000000000000000000000b"
          ],
          "data": "0x00000000000000000000000000000000000000000000000000000000679b4f7a000000000000000000000000000000000000000000000000661e3d78600745e0000000000000000000000000000000000000000000000000661e3d78600745e0",
          "blockHash": "0x466c42597561c3f8d51998b72498ea9199ea034946a530fa0e7e770b9b74d692",
          "blockNumber": "0x143f84d",
          "transactionHash": "0x1862e87ddcbdd8e473796872b9510b95f5e31c7dff0422d8388d7ccfc10d12be",
          "transactionIndex": "0x32",
          "logIndex": "0x93",
          "removed": false
        },
        {
          "address": "0x14f2a22c97ae2890e73cb15b1c0e42a8a0821223",
          "topics": [
            "0x2bbaa179fabbdbc2ed8c301faf6fca674ce9b4db55373c36bda89901d2fcfb6c",
            "0x5611645c7b7387fb8499426a4c76a74c7241f751aca035dcabb5e9b0ed7cf68b",
            "0x000000000000000000000000000000000000000000000000000000000000000b"
          ],
          "data": "0x00000000000000000000000000000000000000000000019d307fa8e9cb57fb1e00000000000000000000000000000000000000000000002951a65db0fabbff8300000000000000000000000000000000000000000000000000000000000000000000000000000000000000000000000000000000000000000000000000000000",
          "blockHash": "0x466c42597561c3f8d51998b72498ea9199ea034946a530fa0e7e770b9b74d692",
          "blockNumber": "0x143f84d",
          "transactionHash": "0x1862e87ddcbdd8e473796872b9510b95f5e31c7dff0422d8388d7ccfc10d12be",
          "transactionIndex": "0x32",
          "logIndex": "0x94",
          "removed": false
        },
        {
          "address": "0x14f2a22c97ae2890e73cb15b1c0e42a8a0821223",
          "topics": [
            "0x949314518006833d597b4acd80e6cc367fa5461d9a4f80373e136688b6aad142",
            "0x0000000000000000000000008c9c001f821c04513616fd7962b2d8c62f925fd2",
            "0x5611645c7b7387fb8499426a4c76a74c7241f751aca035dcabb5e9b0ed7cf68b",
            "0x000000000000000000000000000000000000000000000000000000000000000b"
          ],
          "data": "0x0000000000000000000000000000000000000000000000000000000000001a5e00000000000000000000000000000000000000000000000000000000000000000000000000000000000000000000000000000000000000000000000000000000",
          "blockHash": "0x466c42597561c3f8d51998b72498ea9199ea034946a530fa0e7e770b9b74d692",
          "blockNumber": "0x143f84d",
          "transactionHash": "0x1862e87ddcbdd8e473796872b9510b95f5e31c7dff0422d8388d7ccfc10d12be",
          "transactionIndex": "0x32",
          "logIndex": "0x95",
          "removed": false
        },
        {
          "address": "0x14f2a22c97ae2890e73cb15b1c0e42a8a0821223",
          "topics": [
            "0xc2ec7dd88a6dab4eecfd7a57fb0879a881a03e12b94dc49c5fec5d5faa8792ce",
            "0x000000000000000000000000000000000000000000000000000000000000000c"
          ],
          "data": "0x00000000000000000000000000000000000000000000000000000000679b4f7a0000000000000000000000000000000000000000000000006324058419ac000f0000000000000000000000000000000000000000000000006324058419ac000f",
          "blockHash": "0x466c42597561c3f8d51998b72498ea9199ea034946a530fa0e7e770b9b74d692",
          "blockNumber": "0x143f84d",
          "transactionHash": "0x1862e87ddcbdd8e473796872b9510b95f5e31c7dff0422d8388d7ccfc10d12be",
          "transactionIndex": "0x32",
          "logIndex": "0x96",
          "removed": false
        },
        {
          "address": "0x14f2a22c97ae2890e73cb15b1c0e42a8a0821223",
          "topics": [
            "0x2bbaa179fabbdbc2ed8c301faf6fca674ce9b4db55373c36bda89901d2fcfb6c",
            "0x5611645c7b7387fb8499426a4c76a74c7241f751aca035dcabb5e9b0ed7cf68b",
            "0x000000000000000000000000000000000000000000000000000000000000000c"
          ],
          "data": "0x00000000000000000000000000000000000000000000019d307fa8e9cb57fb1e00000000000000000000000000000000000000000000002951a65db0fabbff8300000000000000000000000000000000000000000000000000000000000000000000000000000000000000000000000000000000000000000000000000000000",
          "blockHash": "0x466c42597561c3f8d51998b72498ea9199ea034946a530fa0e7e770b9b74d692",
          "blockNumber": "0x143f84d",
          "transactionHash": "0x1862e87ddcbdd8e473796872b9510b95f5e31c7dff0422d8388d7ccfc10d12be",
          "transactionIndex": "0x32",
          "logIndex": "0x97",
          "removed": false
        },
        {
          "address": "0x14f2a22c97ae2890e73cb15b1c0e42a8a0821223",
          "topics": [
            "0x949314518006833d597b4acd80e6cc367fa5461d9a4f80373e136688b6aad142",
            "0x0000000000000000000000008c9c001f821c04513616fd7962b2d8c62f925fd2",
            "0x5611645c7b7387fb8499426a4c76a74c7241f751aca035dcabb5e9b0ed7cf68b",
            "0x000000000000000000000000000000000000000000000000000000000000000c"
          ],
          "data": "0x0000000000000000000000000000000000000000000000000000000000001a5e00000000000000000000000000000000000000000000000000000000000000000000000000000000000000000000000000000000000000000000000000000000",
          "blockHash": "0x466c42597561c3f8d51998b72498ea9199ea034946a530fa0e7e770b9b74d692",
          "blockNumber": "0x143f84d",
          "transactionHash": "0x1862e87ddcbdd8e473796872b9510b95f5e31c7dff0422d8388d7ccfc10d12be",
          "transactionIndex": "0x32",
          "logIndex": "0x98",
          "removed": false
        },
        {
          "address": "0x14f2a22c97ae2890e73cb15b1c0e42a8a0821223",
          "topics": [
            "0xc2ec7dd88a6dab4eecfd7a57fb0879a881a03e12b94dc49c5fec5d5faa8792ce",
            "0x000000000000000000000000000000000000000000000000000000000000000d"
          ],
          "data": "0x00000000000000000000000000000000000000000000000000000000679b4f7a0000000000000000000000000000000000000000000000006041f759c767632f0000000000000000000000000000000000000000000000006041f759c767632f",
          "blockHash": "0x466c42597561c3f8d51998b72498ea9199ea034946a530fa0e7e770b9b74d692",
          "blockNumber": "0x143f84d",
          "transactionHash": "0x1862e87ddcbdd8e473796872b9510b95f5e31c7dff0422d8388d7ccfc10d12be",
          "transactionIndex": "0x32",
          "logIndex": "0x99",
          "removed": false
        },
        {
          "address": "0x14f2a22c97ae2890e73cb15b1c0e42a8a0821223",
          "topics": [
            "0x2bbaa179fabbdbc2ed8c301faf6fca674ce9b4db55373c36bda89901d2fcfb6c",
            "0x5611645c7b7387fb8499426a4c76a74c7241f751aca035dcabb5e9b0ed7cf68b",
            "0x000000000000000000000000000000000000000000000000000000000000000d"
          ],
          "data": "0x00000000000000000000000000000000000000000000019d307fa8e9cb57fb1e00000000000000000000000000000000000000000000002951a65db0fabbff8300000000000000000000000000000000000000000000000000000000000000000000000000000000000000000000000000000000000000000000000000000000",
          "blockHash": "0x466c42597561c3f8d51998b72498ea9199ea034946a530fa0e7e770b9b74d692",
          "blockNumber": "0x143f84d",
          "transactionHash": "0x1862e87ddcbdd8e473796872b9510b95f5e31c7dff0422d8388d7ccfc10d12be",
          "transactionIndex": "0x32",
          "logIndex": "0x9a",
          "removed": false
        },
        {
          "address": "0x14f2a22c97ae2890e73cb15b1c0e42a8a0821223",
          "topics": [
            "0x949314518006833d597b4acd80e6cc367fa5461d9a4f80373e136688b6aad142",
            "0x0000000000000000000000008c9c001f821c04513616fd7962b2d8c62f925fd2",
            "0x5611645c7b7387fb8499426a4c76a74c7241f751aca035dcabb5e9b0ed7cf68b",
            "0x000000000000000000000000000000000000000000000000000000000000000d"
          ],
          "data": "0x0000000000000000000000000000000000000000000000000000000000001a5e00000000000000000000000000000000000000000000000000000000000000000000000000000000000000000000000000000000000000000000000000000000",
          "blockHash": "0x466c42597561c3f8d51998b72498ea9199ea034946a530fa0e7e770b9b74d692",
          "blockNumber": "0x143f84d",
          "transactionHash": "0x1862e87ddcbdd8e473796872b9510b95f5e31c7dff0422d8388d7ccfc10d12be",
          "transactionIndex": "0x32",
          "logIndex": "0x9b",
          "removed": false
        },
        {
          "address": "0x14f2a22c97ae2890e73cb15b1c0e42a8a0821223",
          "topics": [
            "0xc2ec7dd88a6dab4eecfd7a57fb0879a881a03e12b94dc49c5fec5d5faa8792ce",
            "0x000000000000000000000000000000000000000000000000000000000000000e"
          ],
          "data": "0x00000000000000000000000000000000000000000000000000000000679b4f7a00000000000000000000000000000000000000000000000050f96d28ef39425d00000000000000000000000000000000000000000000000050f96d28ef39425d",
          "blockHash": "0x466c42597561c3f8d51998b72498ea9199ea034946a530fa0e7e770b9b74d692",
          "blockNumber": "0x143f84d",
          "transactionHash": "0x1862e87ddcbdd8e473796872b9510b95f5e31c7dff0422d8388d7ccfc10d12be",
          "transactionIndex": "0x32",
          "logIndex": "0x9c",
          "removed": false
        },
        {
          "address": "0x14f2a22c97ae2890e73cb15b1c0e42a8a0821223",
          "topics": [
            "0x2bbaa179fabbdbc2ed8c301faf6fca674ce9b4db55373c36bda89901d2fcfb6c",
            "0x5611645c7b7387fb8499426a4c76a74c7241f751aca035dcabb5e9b0ed7cf68b",
            "0x000000000000000000000000000000000000000000000000000000000000000e"
          ],
          "data": "0x00000000000000000000000000000000000000000000019d307fa8e9cb57fb1e00000000000000000000000000000000000000000000002951a65db0fabbff8300000000000000000000000000000000000000000000000000000000000000000000000000000000000000000000000000000000000000000000000000000000",
          "blockHash": "0x466c42597561c3f8d51998b72498ea9199ea034946a530fa0e7e770b9b74d692",
          "blockNumber": "0x143f84d",
          "transactionHash": "0x1862e87ddcbdd8e473796872b9510b95f5e31c7dff0422d8388d7ccfc10d12be",
          "transactionIndex": "0x32",
          "logIndex": "0x9d",
          "removed": false
        },
        {
          "address": "0x14f2a22c97ae2890e73cb15b1c0e42a8a0821223",
          "topics": [
            "0x949314518006833d597b4acd80e6cc367fa5461d9a4f80373e136688b6aad142",
            "0x0000000000000000000000008c9c001f821c04513616fd7962b2d8c62f925fd2",
            "0x5611645c7b7387fb8499426a4c76a74c7241f751aca035dcabb5e9b0ed7cf68b",
            "0x000000000000000000000000000000000000000000000000000000000000000e"
          ],
          "data": "0x0000000000000000000000000000000000000000000000000000000000001a5e00000000000000000000000000000000000000000000000000000000000000000000000000000000000000000000000000000000000000000000000000000000",
          "blockHash": "0x466c42597561c3f8d51998b72498ea9199ea034946a530fa0e7e770b9b74d692",
          "blockNumber": "0x143f84d",
          "transactionHash": "0x1862e87ddcbdd8e473796872b9510b95f5e31c7dff0422d8388d7ccfc10d12be",
          "transactionIndex": "0x32",
          "logIndex": "0x9e",
          "removed": false
        },
        {
          "address": "0x14f2a22c97ae2890e73cb15b1c0e42a8a0821223",
          "topics": [
            "0xc2ec7dd88a6dab4eecfd7a57fb0879a881a03e12b94dc49c5fec5d5faa8792ce",
            "0x000000000000000000000000000000000000000000000000000000000000000f"
          ],
          "data": "0x00000000000000000000000000000000000000000000000000000000679b4f7a0000000000000000000000000000000000000000000000004e3ac751a25025ed0000000000000000000000000000000000000000000000004e3ac751a25025ed",
          "blockHash": "0x466c42597561c3f8d51998b72498ea9199ea034946a530fa0e7e770b9b74d692",
          "blockNumber": "0x143f84d",
          "transactionHash": "0x1862e87ddcbdd8e473796872b9510b95f5e31c7dff0422d8388d7ccfc10d12be",
          "transactionIndex": "0x32",
          "logIndex": "0x9f",
          "removed": false
        },
        {
          "address": "0x14f2a22c97ae2890e73cb15b1c0e42a8a0821223",
          "topics": [
            "0x2bbaa179fabbdbc2ed8c301faf6fca674ce9b4db55373c36bda89901d2fcfb6c",
            "0x5611645c7b7387fb8499426a4c76a74c7241f751aca035dcabb5e9b0ed7cf68b",
            "0x000000000000000000000000000000000000000000000000000000000000000f"
          ],
          "data": "0x00000000000000000000000000000000000000000000019c89f7187df2a7ffce00000000000000000000000000000000000000000000002940ff1c0c9843fffb00000000000000000000000000000000000000000000000000000000000000000000000000000000000000000000000000000000000000000000000000000000",
          "blockHash": "0x466c42597561c3f8d51998b72498ea9199ea034946a530fa0e7e770b9b74d692",
          "blockNumber": "0x143f84d",
          "transactionHash": "0x1862e87ddcbdd8e473796872b9510b95f5e31c7dff0422d8388d7ccfc10d12be",
          "transactionIndex": "0x32",
          "logIndex": "0xa0",
          "removed": false
        },
        {
          "address": "0x14f2a22c97ae2890e73cb15b1c0e42a8a0821223",
          "topics": [
            "0x949314518006833d597b4acd80e6cc367fa5461d9a4f80373e136688b6aad142",
            "0x0000000000000000000000008c9c001f821c04513616fd7962b2d8c62f925fd2",
            "0x5611645c7b7387fb8499426a4c76a74c7241f751aca035dcabb5e9b0ed7cf68b",
            "0x000000000000000000000000000000000000000000000000000000000000000f"
          ],
          "data": "0x0000000000000000000000000000000000000000000000000000000000001a5e00000000000000000000000000000000000000000000000000000000000000000000000000000000000000000000000000000000000000000000000000000000",
          "blockHash": "0x466c42597561c3f8d51998b72498ea9199ea034946a530fa0e7e770b9b74d692",
          "blockNumber": "0x143f84d",
          "transactionHash": "0x1862e87ddcbdd8e473796872b9510b95f5e31c7dff0422d8388d7ccfc10d12be",
          "transactionIndex": "0x32",
          "logIndex": "0xa1",
          "removed": false
        },
        {
          "address": "0x14f2a22c97ae2890e73cb15b1c0e42a8a0821223",
          "topics": [
            "0x4e7bac5695f40fad0768f0f3b8c118c3d4d29e043511b9fa823003fe60027275",
            "0x0000000000000000000000008c9c001f821c04513616fd7962b2d8c62f925fd2",
            "0x5611645c7b7387fb8499426a4c76a74c7241f751aca035dcabb5e9b0ed7cf68b"
          ],
          "data": "0x000000000000000000000000000000000000000000000004e1003b28d9280000",
          "blockHash": "0x466c42597561c3f8d51998b72498ea9199ea034946a530fa0e7e770b9b74d692",
          "blockNumber": "0x143f84d",
          "transactionHash": "0x1862e87ddcbdd8e473796872b9510b95f5e31c7dff0422d8388d7ccfc10d12be",
          "transactionIndex": "0x32",
          "logIndex": "0xa2",
          "removed": false
        },
        {
          "address": "0x8528c2df4ed0cf397a31b3f0ff0b96719a1be2c6",
          "topics": [
            "0xddf252ad1be2c89b69c2b068fc378daa952ba7f163c4a11628f55a4df523b3ef",
            "0x0000000000000000000000008c9c001f821c04513616fd7962b2d8c62f925fd2",
            "0x00000000000000000000000014f2a22c97ae2890e73cb15b1c0e42a8a0821223"
          ],
          "data": "0x000000000000000000000000000000000000000000000004e1003b28d9280000",
          "blockHash": "0x466c42597561c3f8d51998b72498ea9199ea034946a530fa0e7e770b9b74d692",
          "blockNumber": "0x143f84d",
          "transactionHash": "0x1862e87ddcbdd8e473796872b9510b95f5e31c7dff0422d8388d7ccfc10d12be",
          "transactionIndex": "0x32",
          "logIndex": "0xa3",
          "removed": false
        }
      ],
      "logsBloom": "0x040000080000000000400040000008000000020000000000000000000000000000000008000002000000000000000400080010000606800000200000002400000000300000004008000000080040000000020000000400000000000000020000080000000200000010000000000008000000000000100000000000180000000000a0000400000804010000000000001008001800000000001000000000000000000000000200000000000100000020001000000042800020002080480000408040000002000000000000000000000000002200008000010000000100000060220000000200000000000000000000000000000000008000040000000000800000",
      "type": "0x2",
      "transactionHash": "0x1862e87ddcbdd8e473796872b9510b95f5e31c7dff0422d8388d7ccfc10d12be",
      "transactionIndex": "0x32",
      "blockHash": "0x466c42597561c3f8d51998b72498ea9199ea034946a530fa0e7e770b9b74d692",
      "blockNumber": "0x143f84d",
      "gasUsed": "0x2485b3",
      "effectiveGasPrice": "0x131e52c",
      "from": "0x8c9c001f821c04513616fd7962b2d8c62f925fd2",
      "to": "0x14f2a22c97ae2890e73cb15b1c0e42a8a0821223",
      "contractAddress": null,
      "l1BaseFeeScalar": "0x44d",
      "l1BlobBaseFee": "0x1",
      "l1BlobBaseFeeScalar": "0xa118b",
      "l1Fee": "0x879cf741",
      "l1GasPrice": "0x4cfba1d6",
      "l1GasUsed": "0x640"
    }
  ],
  "libraries": [],
  "pending": [],
  "returns": {},
  "timestamp": 1738231675,
  "chain": 84532,
  "commit": "786270f"
}