{
  "transactions": [
    {
      "hash": "0xc97b7a5947ef33b5cc58860359eda7c56ebccd50d078ba56ca7b4ba04d05c88a",
      "transactionType": "CALL",
      "contractName": "StakingPro",
      "contractAddress": "0x14f2a22c97ae2890e73cb15b1c0e42a8a0821223",
      "function": "stakeTokens(bytes32,uint256)",
      "arguments": [
        "0x5611645c7b7387fb8499426a4c76a74c7241f751aca035dcabb5e9b0ed7cf68b",
        "90000000000000000000"
      ],
      "transaction": {
        "from": "0x8c9c001f821c04513616fd7962b2d8c62f925fd2",
        "to": "0x14f2a22c97ae2890e73cb15b1c0e42a8a0821223",
        "gas": "0x1f8bfb",
        "value": "0x0",
        "input": "0xe6587ea25611645c7b7387fb8499426a4c76a74c7241f751aca035dcabb5e9b0ed7cf68b000000000000000000000000000000000000000000000004e1003b28d9280000",
        "nonce": "0x7d",
        "chainId": "0x14a34"
      },
      "additionalContracts": [],
      "isFixedGasLimit": false
    },
    {
      "hash": "0x9de1d6bd1e0725b03f66398aa0962a7d51685ca531bf33795be0cfc61d989893",
      "transactionType": "CALL",
      "contractName": "StakingPro",
      "contractAddress": "0x14f2a22c97ae2890e73cb15b1c0e42a8a0821223",
      "function": "setupDistribution(uint256,uint256,uint256,uint256,uint256,uint32,bytes32)",
      "arguments": [
        "13",
        "1738222542",
        "1745998542",
        "1000000000000000000",
        "1000000000000000000",
        "30184",
        "0x00000000000000000000000058bde6071db4a9b006fdabe75a2eeb43decb779b"
      ],
      "transaction": {
        "from": "0x8c9c001f821c04513616fd7962b2d8c62f925fd2",
        "to": "0x14f2a22c97ae2890e73cb15b1c0e42a8a0821223",
        "gas": "0x63c3c",
        "value": "0x0",
        "input": "0x0b6d6c99000000000000000000000000000000000000000000000000000000000000000d00000000000000000000000000000000000000000000000000000000679b2bce000000000000000000000000000000000000000000000000000000006811d2ce0000000000000000000000000000000000000000000000000de0b6b3a76400000000000000000000000000000000000000000000000000000de0b6b3a764000000000000000000000000000000000000000000000000000000000000000075e800000000000000000000000058bde6071db4a9b006fdabe75a2eeb43decb779b",
        "nonce": "0x7e",
        "chainId": "0x14a34"
      },
      "additionalContracts": [],
      "isFixedGasLimit": false
    },
    {
      "hash": "0x73b59a0adf35a9085525df24708400d243b4c7335a6aadeea08b958a0dc4d3f6",
      "transactionType": "CALL",
      "contractName": "RewardsVaultV1",
      "contractAddress": "0x264541e2dc34875943a746174e862ac594164aa2",
      "function": "deposit(uint256,uint256,address)",
      "arguments": [
        "13",
        "90000000000000000000",
        "0x8C9C001F821c04513616fd7962B2D8c62f925fD2"
      ],
      "transaction": {
        "from": "0x8c9c001f821c04513616fd7962b2d8c62f925fd2",
        "to": "0x264541e2dc34875943a746174e862ac594164aa2",
        "gas": "0x1abcb",
        "value": "0x0",
        "input": "0x8dbdbe6d000000000000000000000000000000000000000000000000000000000000000d000000000000000000000000000000000000000000000004e1003b28d92800000000000000000000000000008c9c001f821c04513616fd7962b2d8c62f925fd2",
        "nonce": "0x7f",
        "chainId": "0x14a34"
      },
      "additionalContracts": [],
      "isFixedGasLimit": false
    }
  ],
  "receipts": [
    {
      "status": "0x1",
      "cumulativeGasUsed": "0x4feb29",
      "logs": [
        {
          "address": "0x14f2a22c97ae2890e73cb15b1c0e42a8a0821223",
          "topics": [
            "0x949314518006833d597b4acd80e6cc367fa5461d9a4f80373e136688b6aad142",
            "0x0000000000000000000000008c9c001f821c04513616fd7962b2d8c62f925fd2",
            "0x5611645c7b7387fb8499426a4c76a74c7241f751aca035dcabb5e9b0ed7cf68b",
            "0x0000000000000000000000000000000000000000000000000000000000000000"
          ],
          "data": "0x000000000000000000000000000000000000000000000000000000000000000000000000000000000000000000000000000000000000000000000000000000000000000000000000000000000000000000000000000000000000000000000000",
          "blockHash": "0x056543ff3a5356bde7f11d5a820bdf81779cee8e24aae8397843a8c8b8b88d64",
          "blockNumber": "0x143e675",
          "transactionHash": "0xc97b7a5947ef33b5cc58860359eda7c56ebccd50d078ba56ca7b4ba04d05c88a",
          "transactionIndex": "0x20",
          "logIndex": "0x56",
          "removed": false
        },
        {
          "address": "0x14f2a22c97ae2890e73cb15b1c0e42a8a0821223",
          "topics": [
            "0xc2ec7dd88a6dab4eecfd7a57fb0879a881a03e12b94dc49c5fec5d5faa8792ce",
            "0x0000000000000000000000000000000000000000000000000000000000000001"
          ],
          "data": "0x00000000000000000000000000000000000000000000000000000000679b2bca000000000000000000000000000000000000000000000003691763593ea12788000000000000000000000000000000000000000000000003691763593ea12788",
          "blockHash": "0x056543ff3a5356bde7f11d5a820bdf81779cee8e24aae8397843a8c8b8b88d64",
          "blockNumber": "0x143e675",
          "transactionHash": "0xc97b7a5947ef33b5cc58860359eda7c56ebccd50d078ba56ca7b4ba04d05c88a",
          "transactionIndex": "0x20",
          "logIndex": "0x57",
          "removed": false
        },
        {
          "address": "0x14f2a22c97ae2890e73cb15b1c0e42a8a0821223",
          "topics": [
            "0x2bbaa179fabbdbc2ed8c301faf6fca674ce9b4db55373c36bda89901d2fcfb6c",
            "0x5611645c7b7387fb8499426a4c76a74c7241f751aca035dcabb5e9b0ed7cf68b",
            "0x0000000000000000000000000000000000000000000000000000000000000001"
          ],
          "data": "0x00000000000000000000000000000000000000000000000b7e174cc69ecffe66000000000000000000000000000000000000000000000001263587ad7647ffd700000000000000000000000000000000000000000000000000000000000000000000000000000000000000000000000000000000000000000000000000000000",
          "blockHash": "0x056543ff3a5356bde7f11d5a820bdf81779cee8e24aae8397843a8c8b8b88d64",
          "blockNumber": "0x143e675",
          "transactionHash": "0xc97b7a5947ef33b5cc58860359eda7c56ebccd50d078ba56ca7b4ba04d05c88a",
          "transactionIndex": "0x20",
          "logIndex": "0x58",
          "removed": false
        },
        {
          "address": "0x14f2a22c97ae2890e73cb15b1c0e42a8a0821223",
          "topics": [
            "0x949314518006833d597b4acd80e6cc367fa5461d9a4f80373e136688b6aad142",
            "0x0000000000000000000000008c9c001f821c04513616fd7962b2d8c62f925fd2",
            "0x5611645c7b7387fb8499426a4c76a74c7241f751aca035dcabb5e9b0ed7cf68b",
            "0x0000000000000000000000000000000000000000000000000000000000000001"
          ],
          "data": "0x000000000000000000000000000000000000000000000000000000000000000000000000000000000000000000000000000000000000000000000000000000000000000000000000000000000000000000000000000000000000000000000000",
          "blockHash": "0x056543ff3a5356bde7f11d5a820bdf81779cee8e24aae8397843a8c8b8b88d64",
          "blockNumber": "0x143e675",
          "transactionHash": "0xc97b7a5947ef33b5cc58860359eda7c56ebccd50d078ba56ca7b4ba04d05c88a",
          "transactionIndex": "0x20",
          "logIndex": "0x59",
          "removed": false
        },
        {
          "address": "0x14f2a22c97ae2890e73cb15b1c0e42a8a0821223",
          "topics": [
            "0xc2ec7dd88a6dab4eecfd7a57fb0879a881a03e12b94dc49c5fec5d5faa8792ce",
            "0x0000000000000000000000000000000000000000000000000000000000000002"
          ],
          "data": "0x00000000000000000000000000000000000000000000000000000000679b2bca000000000000000000000000000000000000000000000000af315d589b51994f000000000000000000000000000000000000000000000000af315d589b51994f",
          "blockHash": "0x056543ff3a5356bde7f11d5a820bdf81779cee8e24aae8397843a8c8b8b88d64",
          "blockNumber": "0x143e675",
          "transactionHash": "0xc97b7a5947ef33b5cc58860359eda7c56ebccd50d078ba56ca7b4ba04d05c88a",
          "transactionIndex": "0x20",
          "logIndex": "0x5a",
          "removed": false
        },
        {
          "address": "0x14f2a22c97ae2890e73cb15b1c0e42a8a0821223",
          "topics": [
            "0x2bbaa179fabbdbc2ed8c301faf6fca674ce9b4db55373c36bda89901d2fcfb6c",
            "0x5611645c7b7387fb8499426a4c76a74c7241f751aca035dcabb5e9b0ed7cf68b",
            "0x0000000000000000000000000000000000000000000000000000000000000002"
          ],
          "data": "0x00000000000000000000000000000000000000000000000b7e174cc69ecffe66000000000000000000000000000000000000000000000001263587ad7647ffd700000000000000000000000000000000000000000000000000000000000000000000000000000000000000000000000000000000000000000000000000000000",
          "blockHash": "0x056543ff3a5356bde7f11d5a820bdf81779cee8e24aae8397843a8c8b8b88d64",
          "blockNumber": "0x143e675",
          "transactionHash": "0xc97b7a5947ef33b5cc58860359eda7c56ebccd50d078ba56ca7b4ba04d05c88a",
          "transactionIndex": "0x20",
          "logIndex": "0x5b",
          "removed": false
        },
        {
          "address": "0x14f2a22c97ae2890e73cb15b1c0e42a8a0821223",
          "topics": [
            "0x949314518006833d597b4acd80e6cc367fa5461d9a4f80373e136688b6aad142",
            "0x0000000000000000000000008c9c001f821c04513616fd7962b2d8c62f925fd2",
            "0x5611645c7b7387fb8499426a4c76a74c7241f751aca035dcabb5e9b0ed7cf68b",
            "0x0000000000000000000000000000000000000000000000000000000000000002"
          ],
          "data": "0x000000000000000000000000000000000000000000000000000000000000000000000000000000000000000000000000000000000000000000000000000000000000000000000000000000000000000000000000000000000000000000000000",
          "blockHash": "0x056543ff3a5356bde7f11d5a820bdf81779cee8e24aae8397843a8c8b8b88d64",
          "blockNumber": "0x143e675",
          "transactionHash": "0xc97b7a5947ef33b5cc58860359eda7c56ebccd50d078ba56ca7b4ba04d05c88a",
          "transactionIndex": "0x20",
          "logIndex": "0x5c",
          "removed": false
        },
        {
          "address": "0x14f2a22c97ae2890e73cb15b1c0e42a8a0821223",
          "topics": [
            "0xc2ec7dd88a6dab4eecfd7a57fb0879a881a03e12b94dc49c5fec5d5faa8792ce",
            "0x0000000000000000000000000000000000000000000000000000000000000003"
          ],
          "data": "0x00000000000000000000000000000000000000000000000000000000679b2bca000000000000000000000000000000000000000000000000775f8f8bb014b5c2000000000000000000000000000000000000000000000000775f8f8bb014b5c2",
          "blockHash": "0x056543ff3a5356bde7f11d5a820bdf81779cee8e24aae8397843a8c8b8b88d64",
          "blockNumber": "0x143e675",
          "transactionHash": "0xc97b7a5947ef33b5cc58860359eda7c56ebccd50d078ba56ca7b4ba04d05c88a",
          "transactionIndex": "0x20",
          "logIndex": "0x5d",
          "removed": false
        },
        {
          "address": "0x14f2a22c97ae2890e73cb15b1c0e42a8a0821223",
          "topics": [
            "0x2bbaa179fabbdbc2ed8c301faf6fca674ce9b4db55373c36bda89901d2fcfb6c",
            "0x5611645c7b7387fb8499426a4c76a74c7241f751aca035dcabb5e9b0ed7cf68b",
            "0x0000000000000000000000000000000000000000000000000000000000000003"
          ],
          "data": "0x00000000000000000000000000000000000000000000000b7e174cc69ecffe66000000000000000000000000000000000000000000000001263587ad7647ffd700000000000000000000000000000000000000000000000000000000000000000000000000000000000000000000000000000000000000000000000000000000",
          "blockHash": "0x056543ff3a5356bde7f11d5a820bdf81779cee8e24aae8397843a8c8b8b88d64",
          "blockNumber": "0x143e675",
          "transactionHash": "0xc97b7a5947ef33b5cc58860359eda7c56ebccd50d078ba56ca7b4ba04d05c88a",
          "transactionIndex": "0x20",
          "logIndex": "0x5e",
          "removed": false
        },
        {
          "address": "0x14f2a22c97ae2890e73cb15b1c0e42a8a0821223",
          "topics": [
            "0x949314518006833d597b4acd80e6cc367fa5461d9a4f80373e136688b6aad142",
            "0x0000000000000000000000008c9c001f821c04513616fd7962b2d8c62f925fd2",
            "0x5611645c7b7387fb8499426a4c76a74c7241f751aca035dcabb5e9b0ed7cf68b",
            "0x0000000000000000000000000000000000000000000000000000000000000003"
          ],
          "data": "0x000000000000000000000000000000000000000000000000000000000000000000000000000000000000000000000000000000000000000000000000000000000000000000000000000000000000000000000000000000000000000000000000",
          "blockHash": "0x056543ff3a5356bde7f11d5a820bdf81779cee8e24aae8397843a8c8b8b88d64",
          "blockNumber": "0x143e675",
          "transactionHash": "0xc97b7a5947ef33b5cc58860359eda7c56ebccd50d078ba56ca7b4ba04d05c88a",
          "transactionIndex": "0x20",
          "logIndex": "0x5f",
          "removed": false
        },
        {
          "address": "0x14f2a22c97ae2890e73cb15b1c0e42a8a0821223",
          "topics": [
            "0xc2ec7dd88a6dab4eecfd7a57fb0879a881a03e12b94dc49c5fec5d5faa8792ce",
            "0x0000000000000000000000000000000000000000000000000000000000000004"
          ],
          "data": "0x00000000000000000000000000000000000000000000000000000000679b2bca000000000000000000000000000000000000000000000000664f09e990b63104000000000000000000000000000000000000000000000000664f09e990b63104",
          "blockHash": "0x056543ff3a5356bde7f11d5a820bdf81779cee8e24aae8397843a8c8b8b88d64",
          "blockNumber": "0x143e675",
          "transactionHash": "0xc97b7a5947ef33b5cc58860359eda7c56ebccd50d078ba56ca7b4ba04d05c88a",
          "transactionIndex": "0x20",
          "logIndex": "0x60",
          "removed": false
        },
        {
          "address": "0x14f2a22c97ae2890e73cb15b1c0e42a8a0821223",
          "topics": [
            "0x2bbaa179fabbdbc2ed8c301faf6fca674ce9b4db55373c36bda89901d2fcfb6c",
            "0x5611645c7b7387fb8499426a4c76a74c7241f751aca035dcabb5e9b0ed7cf68b",
            "0x0000000000000000000000000000000000000000000000000000000000000004"
          ],
          "data": "0x00000000000000000000000000000000000000000000000b7e174cc69ecffe66000000000000000000000000000000000000000000000001263587ad7647ffd700000000000000000000000000000000000000000000000000000000000000000000000000000000000000000000000000000000000000000000000000000000",
          "blockHash": "0x056543ff3a5356bde7f11d5a820bdf81779cee8e24aae8397843a8c8b8b88d64",
          "blockNumber": "0x143e675",
          "transactionHash": "0xc97b7a5947ef33b5cc58860359eda7c56ebccd50d078ba56ca7b4ba04d05c88a",
          "transactionIndex": "0x20",
          "logIndex": "0x61",
          "removed": false
        },
        {
          "address": "0x14f2a22c97ae2890e73cb15b1c0e42a8a0821223",
          "topics": [
            "0x949314518006833d597b4acd80e6cc367fa5461d9a4f80373e136688b6aad142",
            "0x0000000000000000000000008c9c001f821c04513616fd7962b2d8c62f925fd2",
            "0x5611645c7b7387fb8499426a4c76a74c7241f751aca035dcabb5e9b0ed7cf68b",
            "0x0000000000000000000000000000000000000000000000000000000000000004"
          ],
          "data": "0x000000000000000000000000000000000000000000000000000000000000000000000000000000000000000000000000000000000000000000000000000000000000000000000000000000000000000000000000000000000000000000000000",
          "blockHash": "0x056543ff3a5356bde7f11d5a820bdf81779cee8e24aae8397843a8c8b8b88d64",
          "blockNumber": "0x143e675",
          "transactionHash": "0xc97b7a5947ef33b5cc58860359eda7c56ebccd50d078ba56ca7b4ba04d05c88a",
          "transactionIndex": "0x20",
          "logIndex": "0x62",
          "removed": false
        },
        {
          "address": "0x14f2a22c97ae2890e73cb15b1c0e42a8a0821223",
          "topics": [
            "0xc2ec7dd88a6dab4eecfd7a57fb0879a881a03e12b94dc49c5fec5d5faa8792ce",
            "0x0000000000000000000000000000000000000000000000000000000000000005"
          ],
          "data": "0x00000000000000000000000000000000000000000000000000000000679b2bca0000000000000000000000000000000000000000000000004be3b97ae7db606d0000000000000000000000000000000000000000000000004be3b97ae7db606d",
          "blockHash": "0x056543ff3a5356bde7f11d5a820bdf81779cee8e24aae8397843a8c8b8b88d64",
          "blockNumber": "0x143e675",
          "transactionHash": "0xc97b7a5947ef33b5cc58860359eda7c56ebccd50d078ba56ca7b4ba04d05c88a",
          "transactionIndex": "0x20",
          "logIndex": "0x63",
          "removed": false
        },
        {
          "address": "0x14f2a22c97ae2890e73cb15b1c0e42a8a0821223",
          "topics": [
            "0x2bbaa179fabbdbc2ed8c301faf6fca674ce9b4db55373c36bda89901d2fcfb6c",
            "0x5611645c7b7387fb8499426a4c76a74c7241f751aca035dcabb5e9b0ed7cf68b",
            "0x0000000000000000000000000000000000000000000000000000000000000005"
          ],
          "data": "0x00000000000000000000000000000000000000000000000b7e174cc69ecffe66000000000000000000000000000000000000000000000001263587ad7647ffd700000000000000000000000000000000000000000000000000000000000000000000000000000000000000000000000000000000000000000000000000000000",
          "blockHash": "0x056543ff3a5356bde7f11d5a820bdf81779cee8e24aae8397843a8c8b8b88d64",
          "blockNumber": "0x143e675",
          "transactionHash": "0xc97b7a5947ef33b5cc58860359eda7c56ebccd50d078ba56ca7b4ba04d05c88a",
          "transactionIndex": "0x20",
          "logIndex": "0x64",
          "removed": false
        },
        {
          "address": "0x14f2a22c97ae2890e73cb15b1c0e42a8a0821223",
          "topics": [
            "0x949314518006833d597b4acd80e6cc367fa5461d9a4f80373e136688b6aad142",
            "0x0000000000000000000000008c9c001f821c04513616fd7962b2d8c62f925fd2",
            "0x5611645c7b7387fb8499426a4c76a74c7241f751aca035dcabb5e9b0ed7cf68b",
            "0x0000000000000000000000000000000000000000000000000000000000000005"
          ],
          "data": "0x000000000000000000000000000000000000000000000000000000000000000000000000000000000000000000000000000000000000000000000000000000000000000000000000000000000000000000000000000000000000000000000000",
          "blockHash": "0x056543ff3a5356bde7f11d5a820bdf81779cee8e24aae8397843a8c8b8b88d64",
          "blockNumber": "0x143e675",
          "transactionHash": "0xc97b7a5947ef33b5cc58860359eda7c56ebccd50d078ba56ca7b4ba04d05c88a",
          "transactionIndex": "0x20",
          "logIndex": "0x65",
          "removed": false
        },
        {
          "address": "0x14f2a22c97ae2890e73cb15b1c0e42a8a0821223",
          "topics": [
            "0xc2ec7dd88a6dab4eecfd7a57fb0879a881a03e12b94dc49c5fec5d5faa8792ce",
            "0x0000000000000000000000000000000000000000000000000000000000000006"
          ],
          "data": "0x00000000000000000000000000000000000000000000000000000000679b2bca0000000000000000000000000000000000000000000000003ceeb04d309a43fb0000000000000000000000000000000000000000000000003ceeb04d309a43fb",
          "blockHash": "0x056543ff3a5356bde7f11d5a820bdf81779cee8e24aae8397843a8c8b8b88d64",
          "blockNumber": "0x143e675",
          "transactionHash": "0xc97b7a5947ef33b5cc58860359eda7c56ebccd50d078ba56ca7b4ba04d05c88a",
          "transactionIndex": "0x20",
          "logIndex": "0x66",
          "removed": false
        },
        {
          "address": "0x14f2a22c97ae2890e73cb15b1c0e42a8a0821223",
          "topics": [
            "0x2bbaa179fabbdbc2ed8c301faf6fca674ce9b4db55373c36bda89901d2fcfb6c",
            "0x5611645c7b7387fb8499426a4c76a74c7241f751aca035dcabb5e9b0ed7cf68b",
            "0x0000000000000000000000000000000000000000000000000000000000000006"
          ],
          "data": "0x00000000000000000000000000000000000000000000000b7e174cc69ecffe66000000000000000000000000000000000000000000000001263587ad7647ffd700000000000000000000000000000000000000000000000000000000000000000000000000000000000000000000000000000000000000000000000000000000",
          "blockHash": "0x056543ff3a5356bde7f11d5a820bdf81779cee8e24aae8397843a8c8b8b88d64",
          "blockNumber": "0x143e675",
          "transactionHash": "0xc97b7a5947ef33b5cc58860359eda7c56ebccd50d078ba56ca7b4ba04d05c88a",
          "transactionIndex": "0x20",
          "logIndex": "0x67",
          "removed": false
        },
        {
          "address": "0x14f2a22c97ae2890e73cb15b1c0e42a8a0821223",
          "topics": [
            "0x949314518006833d597b4acd80e6cc367fa5461d9a4f80373e136688b6aad142",
            "0x0000000000000000000000008c9c001f821c04513616fd7962b2d8c62f925fd2",
            "0x5611645c7b7387fb8499426a4c76a74c7241f751aca035dcabb5e9b0ed7cf68b",
            "0x0000000000000000000000000000000000000000000000000000000000000006"
          ],
          "data": "0x000000000000000000000000000000000000000000000000000000000000000000000000000000000000000000000000000000000000000000000000000000000000000000000000000000000000000000000000000000000000000000000000",
          "blockHash": "0x056543ff3a5356bde7f11d5a820bdf81779cee8e24aae8397843a8c8b8b88d64",
          "blockNumber": "0x143e675",
          "transactionHash": "0xc97b7a5947ef33b5cc58860359eda7c56ebccd50d078ba56ca7b4ba04d05c88a",
          "transactionIndex": "0x20",
          "logIndex": "0x68",
          "removed": false
        },
        {
          "address": "0x14f2a22c97ae2890e73cb15b1c0e42a8a0821223",
          "topics": [
            "0xc2ec7dd88a6dab4eecfd7a57fb0879a881a03e12b94dc49c5fec5d5faa8792ce",
            "0x0000000000000000000000000000000000000000000000000000000000000007"
          ],
          "data": "0x00000000000000000000000000000000000000000000000000000000679b2bca0000000000000000000000000000000000000000000000002777d329abff99510000000000000000000000000000000000000000000000002777d329abff9951",
          "blockHash": "0x056543ff3a5356bde7f11d5a820bdf81779cee8e24aae8397843a8c8b8b88d64",
          "blockNumber": "0x143e675",
          "transactionHash": "0xc97b7a5947ef33b5cc58860359eda7c56ebccd50d078ba56ca7b4ba04d05c88a",
          "transactionIndex": "0x20",
          "logIndex": "0x69",
          "removed": false
        },
        {
          "address": "0x14f2a22c97ae2890e73cb15b1c0e42a8a0821223",
          "topics": [
            "0x2bbaa179fabbdbc2ed8c301faf6fca674ce9b4db55373c36bda89901d2fcfb6c",
            "0x5611645c7b7387fb8499426a4c76a74c7241f751aca035dcabb5e9b0ed7cf68b",
            "0x0000000000000000000000000000000000000000000000000000000000000007"
          ],
          "data": "0x00000000000000000000000000000000000000000000000b7e174cc69ecffe66000000000000000000000000000000000000000000000001263587ad7647ffd700000000000000000000000000000000000000000000000000000000000000000000000000000000000000000000000000000000000000000000000000000000",
          "blockHash": "0x056543ff3a5356bde7f11d5a820bdf81779cee8e24aae8397843a8c8b8b88d64",
          "blockNumber": "0x143e675",
          "transactionHash": "0xc97b7a5947ef33b5cc58860359eda7c56ebccd50d078ba56ca7b4ba04d05c88a",
          "transactionIndex": "0x20",
          "logIndex": "0x6a",
          "removed": false
        },
        {
          "address": "0x14f2a22c97ae2890e73cb15b1c0e42a8a0821223",
          "topics": [
            "0x949314518006833d597b4acd80e6cc367fa5461d9a4f80373e136688b6aad142",
            "0x0000000000000000000000008c9c001f821c04513616fd7962b2d8c62f925fd2",
            "0x5611645c7b7387fb8499426a4c76a74c7241f751aca035dcabb5e9b0ed7cf68b",
            "0x0000000000000000000000000000000000000000000000000000000000000007"
          ],
          "data": "0x000000000000000000000000000000000000000000000000000000000000000000000000000000000000000000000000000000000000000000000000000000000000000000000000000000000000000000000000000000000000000000000000",
          "blockHash": "0x056543ff3a5356bde7f11d5a820bdf81779cee8e24aae8397843a8c8b8b88d64",
          "blockNumber": "0x143e675",
          "transactionHash": "0xc97b7a5947ef33b5cc58860359eda7c56ebccd50d078ba56ca7b4ba04d05c88a",
          "transactionIndex": "0x20",
          "logIndex": "0x6b",
          "removed": false
        },
        {
          "address": "0x14f2a22c97ae2890e73cb15b1c0e42a8a0821223",
          "topics": [
            "0xc2ec7dd88a6dab4eecfd7a57fb0879a881a03e12b94dc49c5fec5d5faa8792ce",
            "0x0000000000000000000000000000000000000000000000000000000000000008"
          ],
          "data": "0x00000000000000000000000000000000000000000000000000000000679b2bca0000000000000000000000000000000000000000000000001a33213bcedef97d0000000000000000000000000000000000000000000000001a33213bcedef97d",
          "blockHash": "0x056543ff3a5356bde7f11d5a820bdf81779cee8e24aae8397843a8c8b8b88d64",
          "blockNumber": "0x143e675",
          "transactionHash": "0xc97b7a5947ef33b5cc58860359eda7c56ebccd50d078ba56ca7b4ba04d05c88a",
          "transactionIndex": "0x20",
          "logIndex": "0x6c",
          "removed": false
        },
        {
          "address": "0x14f2a22c97ae2890e73cb15b1c0e42a8a0821223",
          "topics": [
            "0x2bbaa179fabbdbc2ed8c301faf6fca674ce9b4db55373c36bda89901d2fcfb6c",
            "0x5611645c7b7387fb8499426a4c76a74c7241f751aca035dcabb5e9b0ed7cf68b",
            "0x0000000000000000000000000000000000000000000000000000000000000008"
          ],
          "data": "0x00000000000000000000000000000000000000000000000b7e174cc69ecffe66000000000000000000000000000000000000000000000001263587ad7647ffd700000000000000000000000000000000000000000000000000000000000000000000000000000000000000000000000000000000000000000000000000000000",
          "blockHash": "0x056543ff3a5356bde7f11d5a820bdf81779cee8e24aae8397843a8c8b8b88d64",
          "blockNumber": "0x143e675",
          "transactionHash": "0xc97b7a5947ef33b5cc58860359eda7c56ebccd50d078ba56ca7b4ba04d05c88a",
          "transactionIndex": "0x20",
          "logIndex": "0x6d",
          "removed": false
        },
        {
          "address": "0x14f2a22c97ae2890e73cb15b1c0e42a8a0821223",
          "topics": [
            "0x949314518006833d597b4acd80e6cc367fa5461d9a4f80373e136688b6aad142",
            "0x0000000000000000000000008c9c001f821c04513616fd7962b2d8c62f925fd2",
            "0x5611645c7b7387fb8499426a4c76a74c7241f751aca035dcabb5e9b0ed7cf68b",
            "0x0000000000000000000000000000000000000000000000000000000000000008"
          ],
          "data": "0x000000000000000000000000000000000000000000000000000000000000000000000000000000000000000000000000000000000000000000000000000000000000000000000000000000000000000000000000000000000000000000000000",
          "blockHash": "0x056543ff3a5356bde7f11d5a820bdf81779cee8e24aae8397843a8c8b8b88d64",
          "blockNumber": "0x143e675",
          "transactionHash": "0xc97b7a5947ef33b5cc58860359eda7c56ebccd50d078ba56ca7b4ba04d05c88a",
          "transactionIndex": "0x20",
          "logIndex": "0x6e",
          "removed": false
        },
        {
          "address": "0x14f2a22c97ae2890e73cb15b1c0e42a8a0821223",
          "topics": [
            "0xc2ec7dd88a6dab4eecfd7a57fb0879a881a03e12b94dc49c5fec5d5faa8792ce",
            "0x0000000000000000000000000000000000000000000000000000000000000009"
          ],
          "data": "0x00000000000000000000000000000000000000000000000000000000679b2bca00000000000000000000000000000000000000000000000016f086292c046f5500000000000000000000000000000000000000000000000016f086292c046f55",
          "blockHash": "0x056543ff3a5356bde7f11d5a820bdf81779cee8e24aae8397843a8c8b8b88d64",
          "blockNumber": "0x143e675",
          "transactionHash": "0xc97b7a5947ef33b5cc58860359eda7c56ebccd50d078ba56ca7b4ba04d05c88a",
          "transactionIndex": "0x20",
          "logIndex": "0x6f",
          "removed": false
        },
        {
          "address": "0x14f2a22c97ae2890e73cb15b1c0e42a8a0821223",
          "topics": [
            "0x2bbaa179fabbdbc2ed8c301faf6fca674ce9b4db55373c36bda89901d2fcfb6c",
            "0x5611645c7b7387fb8499426a4c76a74c7241f751aca035dcabb5e9b0ed7cf68b",
            "0x0000000000000000000000000000000000000000000000000000000000000009"
          ],
          "data": "0x00000000000000000000000000000000000000000000000b7e174cc69ecffe66000000000000000000000000000000000000000000000001263587ad7647ffd700000000000000000000000000000000000000000000000000000000000000000000000000000000000000000000000000000000000000000000000000000000",
          "blockHash": "0x056543ff3a5356bde7f11d5a820bdf81779cee8e24aae8397843a8c8b8b88d64",
          "blockNumber": "0x143e675",
          "transactionHash": "0xc97b7a5947ef33b5cc58860359eda7c56ebccd50d078ba56ca7b4ba04d05c88a",
          "transactionIndex": "0x20",
          "logIndex": "0x70",
          "removed": false
        },
        {
          "address": "0x14f2a22c97ae2890e73cb15b1c0e42a8a0821223",
          "topics": [
            "0x949314518006833d597b4acd80e6cc367fa5461d9a4f80373e136688b6aad142",
            "0x0000000000000000000000008c9c001f821c04513616fd7962b2d8c62f925fd2",
            "0x5611645c7b7387fb8499426a4c76a74c7241f751aca035dcabb5e9b0ed7cf68b",
            "0x0000000000000000000000000000000000000000000000000000000000000009"
          ],
          "data": "0x000000000000000000000000000000000000000000000000000000000000000000000000000000000000000000000000000000000000000000000000000000000000000000000000000000000000000000000000000000000000000000000000",
          "blockHash": "0x056543ff3a5356bde7f11d5a820bdf81779cee8e24aae8397843a8c8b8b88d64",
          "blockNumber": "0x143e675",
          "transactionHash": "0xc97b7a5947ef33b5cc58860359eda7c56ebccd50d078ba56ca7b4ba04d05c88a",
          "transactionIndex": "0x20",
          "logIndex": "0x71",
          "removed": false
        },
        {
          "address": "0x14f2a22c97ae2890e73cb15b1c0e42a8a0821223",
          "topics": [
            "0xc2ec7dd88a6dab4eecfd7a57fb0879a881a03e12b94dc49c5fec5d5faa8792ce",
            "0x000000000000000000000000000000000000000000000000000000000000000a"
          ],
          "data": "0x00000000000000000000000000000000000000000000000000000000679b2bca0000000000000000000000000000000000000000000000000daef3a6c274b3480000000000000000000000000000000000000000000000000daef3a6c274b348",
          "blockHash": "0x056543ff3a5356bde7f11d5a820bdf81779cee8e24aae8397843a8c8b8b88d64",
          "blockNumber": "0x143e675",
          "transactionHash": "0xc97b7a5947ef33b5cc58860359eda7c56ebccd50d078ba56ca7b4ba04d05c88a",
          "transactionIndex": "0x20",
          "logIndex": "0x72",
          "removed": false
        },
        {
          "address": "0x14f2a22c97ae2890e73cb15b1c0e42a8a0821223",
          "topics": [
            "0x2bbaa179fabbdbc2ed8c301faf6fca674ce9b4db55373c36bda89901d2fcfb6c",
            "0x5611645c7b7387fb8499426a4c76a74c7241f751aca035dcabb5e9b0ed7cf68b",
            "0x000000000000000000000000000000000000000000000000000000000000000a"
          ],
          "data": "0x00000000000000000000000000000000000000000000000b7e174cc69ecffe66000000000000000000000000000000000000000000000001263587ad7647ffd700000000000000000000000000000000000000000000000000000000000000000000000000000000000000000000000000000000000000000000000000000000",
          "blockHash": "0x056543ff3a5356bde7f11d5a820bdf81779cee8e24aae8397843a8c8b8b88d64",
          "blockNumber": "0x143e675",
          "transactionHash": "0xc97b7a5947ef33b5cc58860359eda7c56ebccd50d078ba56ca7b4ba04d05c88a",
          "transactionIndex": "0x20",
          "logIndex": "0x73",
          "removed": false
        },
        {
          "address": "0x14f2a22c97ae2890e73cb15b1c0e42a8a0821223",
          "topics": [
            "0x949314518006833d597b4acd80e6cc367fa5461d9a4f80373e136688b6aad142",
            "0x0000000000000000000000008c9c001f821c04513616fd7962b2d8c62f925fd2",
            "0x5611645c7b7387fb8499426a4c76a74c7241f751aca035dcabb5e9b0ed7cf68b",
            "0x000000000000000000000000000000000000000000000000000000000000000a"
          ],
          "data": "0x000000000000000000000000000000000000000000000000000000000000000000000000000000000000000000000000000000000000000000000000000000000000000000000000000000000000000000000000000000000000000000000000",
          "blockHash": "0x056543ff3a5356bde7f11d5a820bdf81779cee8e24aae8397843a8c8b8b88d64",
          "blockNumber": "0x143e675",
          "transactionHash": "0xc97b7a5947ef33b5cc58860359eda7c56ebccd50d078ba56ca7b4ba04d05c88a",
          "transactionIndex": "0x20",
          "logIndex": "0x74",
          "removed": false
        },
        {
          "address": "0x14f2a22c97ae2890e73cb15b1c0e42a8a0821223",
          "topics": [
            "0xc2ec7dd88a6dab4eecfd7a57fb0879a881a03e12b94dc49c5fec5d5faa8792ce",
            "0x000000000000000000000000000000000000000000000000000000000000000b"
          ],
          "data": "0x00000000000000000000000000000000000000000000000000000000679b2bca00000000000000000000000000000000000000000000000005cf1d9ee103121900000000000000000000000000000000000000000000000005cf1d9ee1031219",
          "blockHash": "0x056543ff3a5356bde7f11d5a820bdf81779cee8e24aae8397843a8c8b8b88d64",
          "blockNumber": "0x143e675",
          "transactionHash": "0xc97b7a5947ef33b5cc58860359eda7c56ebccd50d078ba56ca7b4ba04d05c88a",
          "transactionIndex": "0x20",
          "logIndex": "0x75",
          "removed": false
        },
        {
          "address": "0x14f2a22c97ae2890e73cb15b1c0e42a8a0821223",
          "topics": [
            "0x2bbaa179fabbdbc2ed8c301faf6fca674ce9b4db55373c36bda89901d2fcfb6c",
            "0x5611645c7b7387fb8499426a4c76a74c7241f751aca035dcabb5e9b0ed7cf68b",
            "0x000000000000000000000000000000000000000000000000000000000000000b"
          ],
          "data": "0x00000000000000000000000000000000000000000000000b7e174cc69ecffe66000000000000000000000000000000000000000000000001263587ad7647ffd700000000000000000000000000000000000000000000000000000000000000000000000000000000000000000000000000000000000000000000000000000000",
          "blockHash": "0x056543ff3a5356bde7f11d5a820bdf81779cee8e24aae8397843a8c8b8b88d64",
          "blockNumber": "0x143e675",
          "transactionHash": "0xc97b7a5947ef33b5cc58860359eda7c56ebccd50d078ba56ca7b4ba04d05c88a",
          "transactionIndex": "0x20",
          "logIndex": "0x76",
          "removed": false
        },
        {
          "address": "0x14f2a22c97ae2890e73cb15b1c0e42a8a0821223",
          "topics": [
            "0x949314518006833d597b4acd80e6cc367fa5461d9a4f80373e136688b6aad142",
            "0x0000000000000000000000008c9c001f821c04513616fd7962b2d8c62f925fd2",
            "0x5611645c7b7387fb8499426a4c76a74c7241f751aca035dcabb5e9b0ed7cf68b",
            "0x000000000000000000000000000000000000000000000000000000000000000b"
          ],
          "data": "0x000000000000000000000000000000000000000000000000000000000000000000000000000000000000000000000000000000000000000000000000000000000000000000000000000000000000000000000000000000000000000000000000",
          "blockHash": "0x056543ff3a5356bde7f11d5a820bdf81779cee8e24aae8397843a8c8b8b88d64",
          "blockNumber": "0x143e675",
          "transactionHash": "0xc97b7a5947ef33b5cc58860359eda7c56ebccd50d078ba56ca7b4ba04d05c88a",
          "transactionIndex": "0x20",
          "logIndex": "0x77",
          "removed": false
        },
        {
          "address": "0x14f2a22c97ae2890e73cb15b1c0e42a8a0821223",
          "topics": [
            "0xc2ec7dd88a6dab4eecfd7a57fb0879a881a03e12b94dc49c5fec5d5faa8792ce",
            "0x000000000000000000000000000000000000000000000000000000000000000c"
          ],
          "data": "0x00000000000000000000000000000000000000000000000000000000679b2bca00000000000000000000000000000000000000000000000002d4e5aa9aa7cc4800000000000000000000000000000000000000000000000002d4e5aa9aa7cc48",
          "blockHash": "0x056543ff3a5356bde7f11d5a820bdf81779cee8e24aae8397843a8c8b8b88d64",
          "blockNumber": "0x143e675",
          "transactionHash": "0xc97b7a5947ef33b5cc58860359eda7c56ebccd50d078ba56ca7b4ba04d05c88a",
          "transactionIndex": "0x20",
          "logIndex": "0x78",
          "removed": false
        },
        {
          "address": "0x14f2a22c97ae2890e73cb15b1c0e42a8a0821223",
          "topics": [
            "0x2bbaa179fabbdbc2ed8c301faf6fca674ce9b4db55373c36bda89901d2fcfb6c",
            "0x5611645c7b7387fb8499426a4c76a74c7241f751aca035dcabb5e9b0ed7cf68b",
            "0x000000000000000000000000000000000000000000000000000000000000000c"
          ],
          "data": "0x00000000000000000000000000000000000000000000000af35029c214e7fe700000000000000000000000000000000000000000000000011854d0f9cee3ffd800000000000000000000000000000000000000000000000000000000000000000000000000000000000000000000000000000000000000000000000000000000",
          "blockHash": "0x056543ff3a5356bde7f11d5a820bdf81779cee8e24aae8397843a8c8b8b88d64",
          "blockNumber": "0x143e675",
          "transactionHash": "0xc97b7a5947ef33b5cc58860359eda7c56ebccd50d078ba56ca7b4ba04d05c88a",
          "transactionIndex": "0x20",
          "logIndex": "0x79",
          "removed": false
        },
        {
          "address": "0x14f2a22c97ae2890e73cb15b1c0e42a8a0821223",
          "topics": [
            "0x949314518006833d597b4acd80e6cc367fa5461d9a4f80373e136688b6aad142",
            "0x0000000000000000000000008c9c001f821c04513616fd7962b2d8c62f925fd2",
            "0x5611645c7b7387fb8499426a4c76a74c7241f751aca035dcabb5e9b0ed7cf68b",
            "0x000000000000000000000000000000000000000000000000000000000000000c"
          ],
          "data": "0x000000000000000000000000000000000000000000000000000000000000000000000000000000000000000000000000000000000000000000000000000000000000000000000000000000000000000000000000000000000000000000000000",
          "blockHash": "0x056543ff3a5356bde7f11d5a820bdf81779cee8e24aae8397843a8c8b8b88d64",
          "blockNumber": "0x143e675",
          "transactionHash": "0xc97b7a5947ef33b5cc58860359eda7c56ebccd50d078ba56ca7b4ba04d05c88a",
          "transactionIndex": "0x20",
          "logIndex": "0x7a",
          "removed": false
        },
        {
          "address": "0x14f2a22c97ae2890e73cb15b1c0e42a8a0821223",
          "topics": [
            "0x4e7bac5695f40fad0768f0f3b8c118c3d4d29e043511b9fa823003fe60027275",
            "0x0000000000000000000000008c9c001f821c04513616fd7962b2d8c62f925fd2",
            "0x5611645c7b7387fb8499426a4c76a74c7241f751aca035dcabb5e9b0ed7cf68b"
          ],
          "data": "0x000000000000000000000000000000000000000000000004e1003b28d9280000",
          "blockHash": "0x056543ff3a5356bde7f11d5a820bdf81779cee8e24aae8397843a8c8b8b88d64",
          "blockNumber": "0x143e675",
          "transactionHash": "0xc97b7a5947ef33b5cc58860359eda7c56ebccd50d078ba56ca7b4ba04d05c88a",
          "transactionIndex": "0x20",
          "logIndex": "0x7b",
          "removed": false
        },
        {
          "address": "0x8528c2df4ed0cf397a31b3f0ff0b96719a1be2c6",
          "topics": [
            "0xddf252ad1be2c89b69c2b068fc378daa952ba7f163c4a11628f55a4df523b3ef",
            "0x0000000000000000000000008c9c001f821c04513616fd7962b2d8c62f925fd2",
            "0x00000000000000000000000014f2a22c97ae2890e73cb15b1c0e42a8a0821223"
          ],
          "data": "0x000000000000000000000000000000000000000000000004e1003b28d9280000",
          "blockHash": "0x056543ff3a5356bde7f11d5a820bdf81779cee8e24aae8397843a8c8b8b88d64",
          "blockNumber": "0x143e675",
          "transactionHash": "0xc97b7a5947ef33b5cc58860359eda7c56ebccd50d078ba56ca7b4ba04d05c88a",
          "transactionIndex": "0x20",
          "logIndex": "0x7c",
          "removed": false
        }
      ],
      "logsBloom": "0x040000080000000000000040000008000000020000000000000000000000000000000008000002000000000000000400080010000606800000200000002400000000300000004000000000080040000000000000000400000000000000000000080000000200000010000000000008000000000000100000000000180000000000a0000400000004010000000000001000001800000000001000000000000000000000000200000000000100000020001000000042800000002080480000408040000002000000000000000000000000002200008000010000000100000060200000000000000000000000000000000000000000008000040000000000800000",
      "type": "0x2",
      "transactionHash": "0xc97b7a5947ef33b5cc58860359eda7c56ebccd50d078ba56ca7b4ba04d05c88a",
      "transactionIndex": "0x20",
      "blockHash": "0x056543ff3a5356bde7f11d5a820bdf81779cee8e24aae8397843a8c8b8b88d64",
      "blockNumber": "0x143e675",
      "gasUsed": "0x16d6de",
      "effectiveGasPrice": "0x138d925",
      "from": "0x8c9c001f821c04513616fd7962b2d8c62f925fd2",
      "to": "0x14f2a22c97ae2890e73cb15b1c0e42a8a0821223",
      "contractAddress": null,
      "l1BaseFeeScalar": "0x44d",
      "l1BlobBaseFee": "0x1",
      "l1BlobBaseFeeScalar": "0xa118b",
      "l1Fee": "0x7b226d98",
      "l1GasPrice": "0x45e633d6",
      "l1GasUsed": "0x640"
    },
    {
      "status": "0x1",
      "cumulativeGasUsed": "0x569bc3",
      "logs": [
        {
          "address": "0x14f2a22c97ae2890e73cb15b1c0e42a8a0821223",
          "topics": [
            "0x764e98ff8f133fd79086bf24b413507d9b7e83977b31f35a16b80680f38f7072",
            "0x000000000000000000000000000000000000000000000000000000000000000d"
          ],
          "data": "0x00000000000000000000000000000000000000000000000000000000679b2bce000000000000000000000000000000000000000000000000000000006811d2ce0000000000000000000000000000000000000000000000000de0b6b3a76400000000000000000000000000000000000000000000000000000de0b6b3a7640000",
          "blockHash": "0x056543ff3a5356bde7f11d5a820bdf81779cee8e24aae8397843a8c8b8b88d64",
          "blockNumber": "0x143e675",
          "transactionHash": "0x9de1d6bd1e0725b03f66398aa0962a7d51685ca531bf33795be0cfc61d989893",
          "transactionIndex": "0x22",
          "logIndex": "0x81",
          "removed": false
        },
        {
          "address": "0x264541e2dc34875943a746174e862ac594164aa2",
          "topics": [
            "0x554c94cb64d410104e2b06cc56052e30bc29a1307df890d30eb124045d4ae680",
            "0x000000000000000000000000000000000000000000000000000000000000000d"
          ],
          "data": "0x00000000000000000000000000000000000000000000000000000000000075e800000000000000000000000058bde6071db4a9b006fdabe75a2eeb43decb779b",
          "blockHash": "0x056543ff3a5356bde7f11d5a820bdf81779cee8e24aae8397843a8c8b8b88d64",
          "blockNumber": "0x143e675",
          "transactionHash": "0x9de1d6bd1e0725b03f66398aa0962a7d51685ca531bf33795be0cfc61d989893",
          "transactionIndex": "0x22",
          "logIndex": "0x82",
          "removed": false
        }
      ],
      "logsBloom": "0x00000000000000000040000000000000000000000000000000000000000000000000000800000000100000000000000000000000000400000000000000000000000000000000000000000002000000000002000000400000000000000000000000000000000000000000000000000000000000000000020000000000000000000000000000000000000000000000000000000000000000000000000000000000000000200000000000000000000020000000000000000000000000000000000000000000000000020000000000000000000000000000000000000000000020020000000000000000000000000000000000000020000000000000001000000000",
      "type": "0x2",
      "transactionHash": "0x9de1d6bd1e0725b03f66398aa0962a7d51685ca531bf33795be0cfc61d989893",
      "transactionIndex": "0x22",
      "blockHash": "0x056543ff3a5356bde7f11d5a820bdf81779cee8e24aae8397843a8c8b8b88d64",
      "blockNumber": "0x143e675",
      "gasUsed": "0x44372",
      "effectiveGasPrice": "0x138d925",
      "from": "0x8c9c001f821c04513616fd7962b2d8c62f925fd2",
      "to": "0x14f2a22c97ae2890e73cb15b1c0e42a8a0821223",
      "contractAddress": null,
      "l1BaseFeeScalar": "0x44d",
      "l1BlobBaseFee": "0x1",
      "l1BlobBaseFeeScalar": "0xa118b",
      "l1Fee": "0x8e3c7889",
      "l1GasPrice": "0x45e633d6",
      "l1GasUsed": "0x738"
    },
    {
      "status": "0x1",
      "cumulativeGasUsed": "0x57d17b",
      "logs": [
        {
          "address": "0x58bde6071db4a9b006fdabe75a2eeb43decb779b",
          "topics": [
            "0xddf252ad1be2c89b69c2b068fc378daa952ba7f163c4a11628f55a4df523b3ef",
            "0x0000000000000000000000008c9c001f821c04513616fd7962b2d8c62f925fd2",
            "0x000000000000000000000000264541e2dc34875943a746174e862ac594164aa2"
          ],
          "data": "0x000000000000000000000000000000000000000000000004e1003b28d9280000",
          "blockHash": "0x056543ff3a5356bde7f11d5a820bdf81779cee8e24aae8397843a8c8b8b88d64",
          "blockNumber": "0x143e675",
          "transactionHash": "0x73b59a0adf35a9085525df24708400d243b4c7335a6aadeea08b958a0dc4d3f6",
          "transactionIndex": "0x23",
          "logIndex": "0x83",
          "removed": false
        },
        {
          "address": "0x264541e2dc34875943a746174e862ac594164aa2",
          "topics": [
            "0x90e9c021de092ced915ba783260374f129aeeedec753ab3fb564631601ff9589",
            "0x000000000000000000000000000000000000000000000000000000000000000d",
            "0x0000000000000000000000008c9c001f821c04513616fd7962b2d8c62f925fd2"
          ],
          "data": "0x00000000000000000000000000000000000000000000000000000000000075e8000000000000000000000000000000000000000000000004e1003b28d9280000",
          "blockHash": "0x056543ff3a5356bde7f11d5a820bdf81779cee8e24aae8397843a8c8b8b88d64",
          "blockNumber": "0x143e675",
          "transactionHash": "0x73b59a0adf35a9085525df24708400d243b4c7335a6aadeea08b958a0dc4d3f6",
          "transactionIndex": "0x23",
          "logIndex": "0x84",
          "removed": false
        }
      ],
      "logsBloom": "0x00000000000000000040000000001800000000000000000000000000000000000000000000000000000000000000000000000000000000000000000000000000000000200000000000000008004000000002000000400000000000000000000000000000000000000000000000000000000000000000000000000010020000000000000000000000000000000000000000000000000000000000000000400020000000000000000000000000000000000000000000000000000080000000000000000002000000000000000000000000000000000000100000000000000000020000000000000000000000008000000800000020008000000000001000000000",
      "type": "0x2",
      "transactionHash": "0x73b59a0adf35a9085525df24708400d243b4c7335a6aadeea08b958a0dc4d3f6",
      "transactionIndex": "0x23",
      "blockHash": "0x056543ff3a5356bde7f11d5a820bdf81779cee8e24aae8397843a8c8b8b88d64",
      "blockNumber": "0x143e675",
      "gasUsed": "0x135b8",
      "effectiveGasPrice": "0x138d925",
      "from": "0x8c9c001f821c04513616fd7962b2d8c62f925fd2",
      "to": "0x264541e2dc34875943a746174e862ac594164aa2",
      "contractAddress": null,
      "l1BaseFeeScalar": "0x44d",
      "l1BlobBaseFee": "0x1",
      "l1BlobBaseFeeScalar": "0xa118b",
      "l1Fee": "0x7b226d98",
      "l1GasPrice": "0x45e633d6",
      "l1GasUsed": "0x640"
    }
  ],
  "libraries": [],
  "pending": [],
  "returns": {},
  "timestamp": 1738222538,
  "chain": 84532,
  "commit": "786270f"
}