{
  "transactions": [
    {
      "hash": "0x087ad48bdd51e74d18ede4b539137a9953f7f5f9081ba03e153a61f70dd3bbe0",
      "transactionType": "CALL",
      "contractName": "StakingPro",
      "contractAddress": "0x14f2a22c97ae2890e73cb15b1c0e42a8a0821223",
      "function": "stakeTokens(bytes32,uint256)",
      "arguments": [
        "0x5611645c7b7387fb8499426a4c76a74c7241f751aca035dcabb5e9b0ed7cf68b",
        "90000000000000000000"
      ],
      "transaction": {
        "from": "0x8c9c001f821c04513616fd7962b2d8c62f925fd2",
        "to": "0x14f2a22c97ae2890e73cb15b1c0e42a8a0821223",
        "gas": "0x1fdb5e",
        "value": "0x0",
        "input": "0xe6587ea25611645c7b7387fb8499426a4c76a74c7241f751aca035dcabb5e9b0ed7cf68b000000000000000000000000000000000000000000000004e1003b28d9280000",
        "nonce": "0x83",
        "chainId": "0x14a34"
      },
      "additionalContracts": [],
      "isFixedGasLimit": false
    },
    {
      "hash": "0x50cb42bca64083b07bedf9545b2d01eea102a1298f432e1c50dd751f74149f40",
      "transactionType": "CALL",
      "contractName": "StakingPro",
      "contractAddress": "0x14f2a22c97ae2890e73cb15b1c0e42a8a0821223",
      "function": "setupDistribution(uint256,uint256,uint256,uint256,uint256,uint32,bytes32)",
      "arguments": [
        "14",
        "1738223814",
        "1745999814",
        "1000000000000000000",
        "1000000000000000000",
        "30184",
        "0x00000000000000000000000058bde6071db4a9b006fdabe75a2eeb43decb779b"
      ],
      "transaction": {
        "from": "0x8c9c001f821c04513616fd7962b2d8c62f925fd2",
        "to": "0x14f2a22c97ae2890e73cb15b1c0e42a8a0821223",
        "gas": "0x63c3c",
        "value": "0x0",
        "input": "0x0b6d6c99000000000000000000000000000000000000000000000000000000000000000e00000000000000000000000000000000000000000000000000000000679b30c6000000000000000000000000000000000000000000000000000000006811d7c60000000000000000000000000000000000000000000000000de0b6b3a76400000000000000000000000000000000000000000000000000000de0b6b3a764000000000000000000000000000000000000000000000000000000000000000075e800000000000000000000000058bde6071db4a9b006fdabe75a2eeb43decb779b",
        "nonce": "0x84",
        "chainId": "0x14a34"
      },
      "additionalContracts": [],
      "isFixedGasLimit": false
    },
    {
      "hash": "0x40b7a1aab1c7b3b47459853e7f820e5f5fbcbd22cb4a989675134fe94535dfe4",
      "transactionType": "CALL",
      "contractName": "RewardsVaultV1",
      "contractAddress": "0x264541e2dc34875943a746174e862ac594164aa2",
      "function": "deposit(uint256,uint256,address)",
      "arguments": [
        "14",
        "90000000000000000000",
        "0x8C9C001F821c04513616fd7962B2D8c62f925fD2"
      ],
      "transaction": {
        "from": "0x8c9c001f821c04513616fd7962b2d8c62f925fd2",
        "to": "0x264541e2dc34875943a746174e862ac594164aa2",
        "gas": "0x1abcb",
        "value": "0x0",
        "input": "0x8dbdbe6d000000000000000000000000000000000000000000000000000000000000000e000000000000000000000000000000000000000000000004e1003b28d92800000000000000000000000000008c9c001f821c04513616fd7962b2d8c62f925fd2",
        "nonce": "0x85",
        "chainId": "0x14a34"
      },
      "additionalContracts": [],
      "isFixedGasLimit": false
    }
  ],
  "receipts": [
    {
      "status": "0x1",
      "cumulativeGasUsed": "0x8b60b6",
      "logs": [
        {
          "address": "0x14f2a22c97ae2890e73cb15b1c0e42a8a0821223",
          "topics": [
            "0x949314518006833d597b4acd80e6cc367fa5461d9a4f80373e136688b6aad142",
            "0x0000000000000000000000008c9c001f821c04513616fd7962b2d8c62f925fd2",
            "0x5611645c7b7387fb8499426a4c76a74c7241f751aca035dcabb5e9b0ed7cf68b",
            "0x0000000000000000000000000000000000000000000000000000000000000000"
          ],
          "data": "0x000000000000000000000000000000000000000000000000000000000000000000000000000000000000000000000000000000000000000000000000000000000000000000000000000000000000000000000000000000000000000000000000",
          "blockHash": "0xfe7d1ba4b7aed89a1763386d51f1b080e19390378243659d1163a831e5cbddd2",
          "blockNumber": "0x143e8ec",
          "transactionHash": "0x087ad48bdd51e74d18ede4b539137a9953f7f5f9081ba03e153a61f70dd3bbe0",
          "transactionIndex": "0x3b",
          "logIndex": "0xc4",
          "removed": false
        },
        {
          "address": "0x14f2a22c97ae2890e73cb15b1c0e42a8a0821223",
          "topics": [
            "0xc2ec7dd88a6dab4eecfd7a57fb0879a881a03e12b94dc49c5fec5d5faa8792ce",
            "0x0000000000000000000000000000000000000000000000000000000000000001"
          ],
          "data": "0x00000000000000000000000000000000000000000000000000000000679b30b800000000000000000000000000000000000000000000000378459c8aa795a72a00000000000000000000000000000000000000000000000378459c8aa795a72a",
          "blockHash": "0xfe7d1ba4b7aed89a1763386d51f1b080e19390378243659d1163a831e5cbddd2",
          "blockNumber": "0x143e8ec",
          "transactionHash": "0x087ad48bdd51e74d18ede4b539137a9953f7f5f9081ba03e153a61f70dd3bbe0",
          "transactionIndex": "0x3b",
          "logIndex": "0xc5",
          "removed": false
        },
        {
          "address": "0x14f2a22c97ae2890e73cb15b1c0e42a8a0821223",
          "topics": [
            "0x2bbaa179fabbdbc2ed8c301faf6fca674ce9b4db55373c36bda89901d2fcfb6c",
            "0x5611645c7b7387fb8499426a4c76a74c7241f751aca035dcabb5e9b0ed7cf68b",
            "0x0000000000000000000000000000000000000000000000000000000000000001"
          ],
          "data": "0x000000000000000000000000000000000000000000000038cfebef75415ffdbc000000000000000000000000000000000000000000000005ae6464beecefffc600000000000000000000000000000000000000000000000000000000000000000000000000000000000000000000000000000000000000000000000000000000",
          "blockHash": "0xfe7d1ba4b7aed89a1763386d51f1b080e19390378243659d1163a831e5cbddd2",
          "blockNumber": "0x143e8ec",
          "transactionHash": "0x087ad48bdd51e74d18ede4b539137a9953f7f5f9081ba03e153a61f70dd3bbe0",
          "transactionIndex": "0x3b",
          "logIndex": "0xc6",
          "removed": false
        },
        {
          "address": "0x14f2a22c97ae2890e73cb15b1c0e42a8a0821223",
          "topics": [
            "0x949314518006833d597b4acd80e6cc367fa5461d9a4f80373e136688b6aad142",
            "0x0000000000000000000000008c9c001f821c04513616fd7962b2d8c62f925fd2",
            "0x5611645c7b7387fb8499426a4c76a74c7241f751aca035dcabb5e9b0ed7cf68b",
            "0x0000000000000000000000000000000000000000000000000000000000000001"
          ],
          "data": "0x000000000000000000000000000000000000000000000000000000000000000000000000000000000000000000000000000000000000000000000000000000000000000000000000000000000000000000000000000000000000000000000000",
          "blockHash": "0xfe7d1ba4b7aed89a1763386d51f1b080e19390378243659d1163a831e5cbddd2",
          "blockNumber": "0x143e8ec",
          "transactionHash": "0x087ad48bdd51e74d18ede4b539137a9953f7f5f9081ba03e153a61f70dd3bbe0",
          "transactionIndex": "0x3b",
          "logIndex": "0xc7",
          "removed": false
        },
        {
          "address": "0x14f2a22c97ae2890e73cb15b1c0e42a8a0821223",
          "topics": [
            "0xc2ec7dd88a6dab4eecfd7a57fb0879a881a03e12b94dc49c5fec5d5faa8792ce",
            "0x0000000000000000000000000000000000000000000000000000000000000002"
          ],
          "data": "0x00000000000000000000000000000000000000000000000000000000679b30b8000000000000000000000000000000000000000000000000be5f968a044618f1000000000000000000000000000000000000000000000000be5f968a044618f1",
          "blockHash": "0xfe7d1ba4b7aed89a1763386d51f1b080e19390378243659d1163a831e5cbddd2",
          "blockNumber": "0x143e8ec",
          "transactionHash": "0x087ad48bdd51e74d18ede4b539137a9953f7f5f9081ba03e153a61f70dd3bbe0",
          "transactionIndex": "0x3b",
          "logIndex": "0xc8",
          "removed": false
        },
        {
          "address": "0x14f2a22c97ae2890e73cb15b1c0e42a8a0821223",
          "topics": [
            "0x2bbaa179fabbdbc2ed8c301faf6fca674ce9b4db55373c36bda89901d2fcfb6c",
            "0x5611645c7b7387fb8499426a4c76a74c7241f751aca035dcabb5e9b0ed7cf68b",
            "0x0000000000000000000000000000000000000000000000000000000000000002"
          ],
          "data": "0x000000000000000000000000000000000000000000000038cfebef75415ffdbc000000000000000000000000000000000000000000000005ae6464beecefffc600000000000000000000000000000000000000000000000000000000000000000000000000000000000000000000000000000000000000000000000000000000",
          "blockHash": "0xfe7d1ba4b7aed89a1763386d51f1b080e19390378243659d1163a831e5cbddd2",
          "blockNumber": "0x143e8ec",
          "transactionHash": "0x087ad48bdd51e74d18ede4b539137a9953f7f5f9081ba03e153a61f70dd3bbe0",
          "transactionIndex": "0x3b",
          "logIndex": "0xc9",
          "removed": false
        },
        {
          "address": "0x14f2a22c97ae2890e73cb15b1c0e42a8a0821223",
          "topics": [
            "0x949314518006833d597b4acd80e6cc367fa5461d9a4f80373e136688b6aad142",
            "0x0000000000000000000000008c9c001f821c04513616fd7962b2d8c62f925fd2",
            "0x5611645c7b7387fb8499426a4c76a74c7241f751aca035dcabb5e9b0ed7cf68b",
            "0x0000000000000000000000000000000000000000000000000000000000000002"
          ],
          "data": "0x000000000000000000000000000000000000000000000000000000000000000000000000000000000000000000000000000000000000000000000000000000000000000000000000000000000000000000000000000000000000000000000000",
          "blockHash": "0xfe7d1ba4b7aed89a1763386d51f1b080e19390378243659d1163a831e5cbddd2",
          "blockNumber": "0x143e8ec",
          "transactionHash": "0x087ad48bdd51e74d18ede4b539137a9953f7f5f9081ba03e153a61f70dd3bbe0",
          "transactionIndex": "0x3b",
          "logIndex": "0xca",
          "removed": false
        },
        {
          "address": "0x14f2a22c97ae2890e73cb15b1c0e42a8a0821223",
          "topics": [
            "0xc2ec7dd88a6dab4eecfd7a57fb0879a881a03e12b94dc49c5fec5d5faa8792ce",
            "0x0000000000000000000000000000000000000000000000000000000000000003"
          ],
          "data": "0x00000000000000000000000000000000000000000000000000000000679b30b8000000000000000000000000000000000000000000000000868dc8bd19093564000000000000000000000000000000000000000000000000868dc8bd19093564",
          "blockHash": "0xfe7d1ba4b7aed89a1763386d51f1b080e19390378243659d1163a831e5cbddd2",
          "blockNumber": "0x143e8ec",
          "transactionHash": "0x087ad48bdd51e74d18ede4b539137a9953f7f5f9081ba03e153a61f70dd3bbe0",
          "transactionIndex": "0x3b",
          "logIndex": "0xcb",
          "removed": false
        },
        {
          "address": "0x14f2a22c97ae2890e73cb15b1c0e42a8a0821223",
          "topics": [
            "0x2bbaa179fabbdbc2ed8c301faf6fca674ce9b4db55373c36bda89901d2fcfb6c",
            "0x5611645c7b7387fb8499426a4c76a74c7241f751aca035dcabb5e9b0ed7cf68b",
            "0x0000000000000000000000000000000000000000000000000000000000000003"
          ],
          "data": "0x000000000000000000000000000000000000000000000038cfebef75415ffdbc000000000000000000000000000000000000000000000005ae6464beecefffc600000000000000000000000000000000000000000000000000000000000000000000000000000000000000000000000000000000000000000000000000000000",
          "blockHash": "0xfe7d1ba4b7aed89a1763386d51f1b080e19390378243659d1163a831e5cbddd2",
          "blockNumber": "0x143e8ec",
          "transactionHash": "0x087ad48bdd51e74d18ede4b539137a9953f7f5f9081ba03e153a61f70dd3bbe0",
          "transactionIndex": "0x3b",
          "logIndex": "0xcc",
          "removed": false
        },
        {
          "address": "0x14f2a22c97ae2890e73cb15b1c0e42a8a0821223",
          "topics": [
            "0x949314518006833d597b4acd80e6cc367fa5461d9a4f80373e136688b6aad142",
            "0x0000000000000000000000008c9c001f821c04513616fd7962b2d8c62f925fd2",
            "0x5611645c7b7387fb8499426a4c76a74c7241f751aca035dcabb5e9b0ed7cf68b",
            "0x0000000000000000000000000000000000000000000000000000000000000003"
          ],
          "data": "0x000000000000000000000000000000000000000000000000000000000000000000000000000000000000000000000000000000000000000000000000000000000000000000000000000000000000000000000000000000000000000000000000",
          "blockHash": "0xfe7d1ba4b7aed89a1763386d51f1b080e19390378243659d1163a831e5cbddd2",
          "blockNumber": "0x143e8ec",
          "transactionHash": "0x087ad48bdd51e74d18ede4b539137a9953f7f5f9081ba03e153a61f70dd3bbe0",
          "transactionIndex": "0x3b",
          "logIndex": "0xcd",
          "removed": false
        },
        {
          "address": "0x14f2a22c97ae2890e73cb15b1c0e42a8a0821223",
          "topics": [
            "0xc2ec7dd88a6dab4eecfd7a57fb0879a881a03e12b94dc49c5fec5d5faa8792ce",
            "0x0000000000000000000000000000000000000000000000000000000000000004"
          ],
          "data": "0x00000000000000000000000000000000000000000000000000000000679b30b8000000000000000000000000000000000000000000000000757d431af9aab0a6000000000000000000000000000000000000000000000000757d431af9aab0a6",
          "blockHash": "0xfe7d1ba4b7aed89a1763386d51f1b080e19390378243659d1163a831e5cbddd2",
          "blockNumber": "0x143e8ec",
          "transactionHash": "0x087ad48bdd51e74d18ede4b539137a9953f7f5f9081ba03e153a61f70dd3bbe0",
          "transactionIndex": "0x3b",
          "logIndex": "0xce",
          "removed": false
        },
        {
          "address": "0x14f2a22c97ae2890e73cb15b1c0e42a8a0821223",
          "topics": [
            "0x2bbaa179fabbdbc2ed8c301faf6fca674ce9b4db55373c36bda89901d2fcfb6c",
            "0x5611645c7b7387fb8499426a4c76a74c7241f751aca035dcabb5e9b0ed7cf68b",
            "0x0000000000000000000000000000000000000000000000000000000000000004"
          ],
          "data": "0x000000000000000000000000000000000000000000000038cfebef75415ffdbc000000000000000000000000000000000000000000000005ae6464beecefffc600000000000000000000000000000000000000000000000000000000000000000000000000000000000000000000000000000000000000000000000000000000",
          "blockHash": "0xfe7d1ba4b7aed89a1763386d51f1b080e19390378243659d1163a831e5cbddd2",
          "blockNumber": "0x143e8ec",
          "transactionHash": "0x087ad48bdd51e74d18ede4b539137a9953f7f5f9081ba03e153a61f70dd3bbe0",
          "transactionIndex": "0x3b",
          "logIndex": "0xcf",
          "removed": false
        },
        {
          "address": "0x14f2a22c97ae2890e73cb15b1c0e42a8a0821223",
          "topics": [
            "0x949314518006833d597b4acd80e6cc367fa5461d9a4f80373e136688b6aad142",
            "0x0000000000000000000000008c9c001f821c04513616fd7962b2d8c62f925fd2",
            "0x5611645c7b7387fb8499426a4c76a74c7241f751aca035dcabb5e9b0ed7cf68b",
            "0x0000000000000000000000000000000000000000000000000000000000000004"
          ],
          "data": "0x000000000000000000000000000000000000000000000000000000000000000000000000000000000000000000000000000000000000000000000000000000000000000000000000000000000000000000000000000000000000000000000000",
          "blockHash": "0xfe7d1ba4b7aed89a1763386d51f1b080e19390378243659d1163a831e5cbddd2",
          "blockNumber": "0x143e8ec",
          "transactionHash": "0x087ad48bdd51e74d18ede4b539137a9953f7f5f9081ba03e153a61f70dd3bbe0",
          "transactionIndex": "0x3b",
          "logIndex": "0xd0",
          "removed": false
        },
        {
          "address": "0x14f2a22c97ae2890e73cb15b1c0e42a8a0821223",
          "topics": [
            "0xc2ec7dd88a6dab4eecfd7a57fb0879a881a03e12b94dc49c5fec5d5faa8792ce",
            "0x0000000000000000000000000000000000000000000000000000000000000005"
          ],
          "data": "0x00000000000000000000000000000000000000000000000000000000679b30b80000000000000000000000000000000000000000000000005b11f2ac50cfe00f0000000000000000000000000000000000000000000000005b11f2ac50cfe00f",
          "blockHash": "0xfe7d1ba4b7aed89a1763386d51f1b080e19390378243659d1163a831e5cbddd2",
          "blockNumber": "0x143e8ec",
          "transactionHash": "0x087ad48bdd51e74d18ede4b539137a9953f7f5f9081ba03e153a61f70dd3bbe0",
          "transactionIndex": "0x3b",
          "logIndex": "0xd1",
          "removed": false
        },
        {
          "address": "0x14f2a22c97ae2890e73cb15b1c0e42a8a0821223",
          "topics": [
            "0x2bbaa179fabbdbc2ed8c301faf6fca674ce9b4db55373c36bda89901d2fcfb6c",
            "0x5611645c7b7387fb8499426a4c76a74c7241f751aca035dcabb5e9b0ed7cf68b",
            "0x0000000000000000000000000000000000000000000000000000000000000005"
          ],
          "data": "0x000000000000000000000000000000000000000000000038cfebef75415ffdbc000000000000000000000000000000000000000000000005ae6464beecefffc600000000000000000000000000000000000000000000000000000000000000000000000000000000000000000000000000000000000000000000000000000000",
          "blockHash": "0xfe7d1ba4b7aed89a1763386d51f1b080e19390378243659d1163a831e5cbddd2",
          "blockNumber": "0x143e8ec",
          "transactionHash": "0x087ad48bdd51e74d18ede4b539137a9953f7f5f9081ba03e153a61f70dd3bbe0",
          "transactionIndex": "0x3b",
          "logIndex": "0xd2",
          "removed": false
        },
        {
          "address": "0x14f2a22c97ae2890e73cb15b1c0e42a8a0821223",
          "topics": [
            "0x949314518006833d597b4acd80e6cc367fa5461d9a4f80373e136688b6aad142",
            "0x0000000000000000000000008c9c001f821c04513616fd7962b2d8c62f925fd2",
            "0x5611645c7b7387fb8499426a4c76a74c7241f751aca035dcabb5e9b0ed7cf68b",
            "0x0000000000000000000000000000000000000000000000000000000000000005"
          ],
          "data": "0x000000000000000000000000000000000000000000000000000000000000000000000000000000000000000000000000000000000000000000000000000000000000000000000000000000000000000000000000000000000000000000000000",
          "blockHash": "0xfe7d1ba4b7aed89a1763386d51f1b080e19390378243659d1163a831e5cbddd2",
          "blockNumber": "0x143e8ec",
          "transactionHash": "0x087ad48bdd51e74d18ede4b539137a9953f7f5f9081ba03e153a61f70dd3bbe0",
          "transactionIndex": "0x3b",
          "logIndex": "0xd3",
          "removed": false
        },
        {
          "address": "0x14f2a22c97ae2890e73cb15b1c0e42a8a0821223",
          "topics": [
            "0xc2ec7dd88a6dab4eecfd7a57fb0879a881a03e12b94dc49c5fec5d5faa8792ce",
            "0x0000000000000000000000000000000000000000000000000000000000000006"
          ],
          "data": "0x00000000000000000000000000000000000000000000000000000000679b30b80000000000000000000000000000000000000000000000004c1ce97e998ec39d0000000000000000000000000000000000000000000000004c1ce97e998ec39d",
          "blockHash": "0xfe7d1ba4b7aed89a1763386d51f1b080e19390378243659d1163a831e5cbddd2",
          "blockNumber": "0x143e8ec",
          "transactionHash": "0x087ad48bdd51e74d18ede4b539137a9953f7f5f9081ba03e153a61f70dd3bbe0",
          "transactionIndex": "0x3b",
          "logIndex": "0xd4",
          "removed": false
        },
        {
          "address": "0x14f2a22c97ae2890e73cb15b1c0e42a8a0821223",
          "topics": [
            "0x2bbaa179fabbdbc2ed8c301faf6fca674ce9b4db55373c36bda89901d2fcfb6c",
            "0x5611645c7b7387fb8499426a4c76a74c7241f751aca035dcabb5e9b0ed7cf68b",
            "0x0000000000000000000000000000000000000000000000000000000000000006"
          ],
          "data": "0x000000000000000000000000000000000000000000000038cfebef75415ffdbc000000000000000000000000000000000000000000000005ae6464beecefffc600000000000000000000000000000000000000000000000000000000000000000000000000000000000000000000000000000000000000000000000000000000",
          "blockHash": "0xfe7d1ba4b7aed89a1763386d51f1b080e19390378243659d1163a831e5cbddd2",
          "blockNumber": "0x143e8ec",
          "transactionHash": "0x087ad48bdd51e74d18ede4b539137a9953f7f5f9081ba03e153a61f70dd3bbe0",
          "transactionIndex": "0x3b",
          "logIndex": "0xd5",
          "removed": false
        },
        {
          "address": "0x14f2a22c97ae2890e73cb15b1c0e42a8a0821223",
          "topics": [
            "0x949314518006833d597b4acd80e6cc367fa5461d9a4f80373e136688b6aad142",
            "0x0000000000000000000000008c9c001f821c04513616fd7962b2d8c62f925fd2",
            "0x5611645c7b7387fb8499426a4c76a74c7241f751aca035dcabb5e9b0ed7cf68b",
            "0x0000000000000000000000000000000000000000000000000000000000000006"
          ],
          "data": "0x000000000000000000000000000000000000000000000000000000000000000000000000000000000000000000000000000000000000000000000000000000000000000000000000000000000000000000000000000000000000000000000000",
          "blockHash": "0xfe7d1ba4b7aed89a1763386d51f1b080e19390378243659d1163a831e5cbddd2",
          "blockNumber": "0x143e8ec",
          "transactionHash": "0x087ad48bdd51e74d18ede4b539137a9953f7f5f9081ba03e153a61f70dd3bbe0",
          "transactionIndex": "0x3b",
          "logIndex": "0xd6",
          "removed": false
        },
        {
          "address": "0x14f2a22c97ae2890e73cb15b1c0e42a8a0821223",
          "topics": [
            "0xc2ec7dd88a6dab4eecfd7a57fb0879a881a03e12b94dc49c5fec5d5faa8792ce",
            "0x0000000000000000000000000000000000000000000000000000000000000007"
          ],
          "data": "0x00000000000000000000000000000000000000000000000000000000679b30b800000000000000000000000000000000000000000000000036a60c5b14f418f300000000000000000000000000000000000000000000000036a60c5b14f418f3",
          "blockHash": "0xfe7d1ba4b7aed89a1763386d51f1b080e19390378243659d1163a831e5cbddd2",
          "blockNumber": "0x143e8ec",
          "transactionHash": "0x087ad48bdd51e74d18ede4b539137a9953f7f5f9081ba03e153a61f70dd3bbe0",
          "transactionIndex": "0x3b",
          "logIndex": "0xd7",
          "removed": false
        },
        {
          "address": "0x14f2a22c97ae2890e73cb15b1c0e42a8a0821223",
          "topics": [
            "0x2bbaa179fabbdbc2ed8c301faf6fca674ce9b4db55373c36bda89901d2fcfb6c",
            "0x5611645c7b7387fb8499426a4c76a74c7241f751aca035dcabb5e9b0ed7cf68b",
            "0x0000000000000000000000000000000000000000000000000000000000000007"
          ],
          "data": "0x000000000000000000000000000000000000000000000038cfebef75415ffdbc000000000000000000000000000000000000000000000005ae6464beecefffc600000000000000000000000000000000000000000000000000000000000000000000000000000000000000000000000000000000000000000000000000000000",
          "blockHash": "0xfe7d1ba4b7aed89a1763386d51f1b080e19390378243659d1163a831e5cbddd2",
          "blockNumber": "0x143e8ec",
          "transactionHash": "0x087ad48bdd51e74d18ede4b539137a9953f7f5f9081ba03e153a61f70dd3bbe0",
          "transactionIndex": "0x3b",
          "logIndex": "0xd8",
          "removed": false
        },
        {
          "address": "0x14f2a22c97ae2890e73cb15b1c0e42a8a0821223",
          "topics": [
            "0x949314518006833d597b4acd80e6cc367fa5461d9a4f80373e136688b6aad142",
            "0x0000000000000000000000008c9c001f821c04513616fd7962b2d8c62f925fd2",
            "0x5611645c7b7387fb8499426a4c76a74c7241f751aca035dcabb5e9b0ed7cf68b",
            "0x0000000000000000000000000000000000000000000000000000000000000007"
          ],
          "data": "0x000000000000000000000000000000000000000000000000000000000000000000000000000000000000000000000000000000000000000000000000000000000000000000000000000000000000000000000000000000000000000000000000",
          "blockHash": "0xfe7d1ba4b7aed89a1763386d51f1b080e19390378243659d1163a831e5cbddd2",
          "blockNumber": "0x143e8ec",
          "transactionHash": "0x087ad48bdd51e74d18ede4b539137a9953f7f5f9081ba03e153a61f70dd3bbe0",
          "transactionIndex": "0x3b",
          "logIndex": "0xd9",
          "removed": false
        },
        {
          "address": "0x14f2a22c97ae2890e73cb15b1c0e42a8a0821223",
          "topics": [
            "0xc2ec7dd88a6dab4eecfd7a57fb0879a881a03e12b94dc49c5fec5d5faa8792ce",
            "0x0000000000000000000000000000000000000000000000000000000000000008"
          ],
          "data": "0x00000000000000000000000000000000000000000000000000000000679b30b800000000000000000000000000000000000000000000000029615a6d37d3791f00000000000000000000000000000000000000000000000029615a6d37d3791f",
          "blockHash": "0xfe7d1ba4b7aed89a1763386d51f1b080e19390378243659d1163a831e5cbddd2",
          "blockNumber": "0x143e8ec",
          "transactionHash": "0x087ad48bdd51e74d18ede4b539137a9953f7f5f9081ba03e153a61f70dd3bbe0",
          "transactionIndex": "0x3b",
          "logIndex": "0xda",
          "removed": false
        },
        {
          "address": "0x14f2a22c97ae2890e73cb15b1c0e42a8a0821223",
          "topics": [
            "0x2bbaa179fabbdbc2ed8c301faf6fca674ce9b4db55373c36bda89901d2fcfb6c",
            "0x5611645c7b7387fb8499426a4c76a74c7241f751aca035dcabb5e9b0ed7cf68b",
            "0x0000000000000000000000000000000000000000000000000000000000000008"
          ],
          "data": "0x000000000000000000000000000000000000000000000038cfebef75415ffdbc000000000000000000000000000000000000000000000005ae6464beecefffc600000000000000000000000000000000000000000000000000000000000000000000000000000000000000000000000000000000000000000000000000000000",
          "blockHash": "0xfe7d1ba4b7aed89a1763386d51f1b080e19390378243659d1163a831e5cbddd2",
          "blockNumber": "0x143e8ec",
          "transactionHash": "0x087ad48bdd51e74d18ede4b539137a9953f7f5f9081ba03e153a61f70dd3bbe0",
          "transactionIndex": "0x3b",
          "logIndex": "0xdb",
          "removed": false
        },
        {
          "address": "0x14f2a22c97ae2890e73cb15b1c0e42a8a0821223",
          "topics": [
            "0x949314518006833d597b4acd80e6cc367fa5461d9a4f80373e136688b6aad142",
            "0x0000000000000000000000008c9c001f821c04513616fd7962b2d8c62f925fd2",
            "0x5611645c7b7387fb8499426a4c76a74c7241f751aca035dcabb5e9b0ed7cf68b",
            "0x0000000000000000000000000000000000000000000000000000000000000008"
          ],
          "data": "0x000000000000000000000000000000000000000000000000000000000000000000000000000000000000000000000000000000000000000000000000000000000000000000000000000000000000000000000000000000000000000000000000",
          "blockHash": "0xfe7d1ba4b7aed89a1763386d51f1b080e19390378243659d1163a831e5cbddd2",
          "blockNumber": "0x143e8ec",
          "transactionHash": "0x087ad48bdd51e74d18ede4b539137a9953f7f5f9081ba03e153a61f70dd3bbe0",
          "transactionIndex": "0x3b",
          "logIndex": "0xdc",
          "removed": false
        },
        {
          "address": "0x14f2a22c97ae2890e73cb15b1c0e42a8a0821223",
          "topics": [
            "0xc2ec7dd88a6dab4eecfd7a57fb0879a881a03e12b94dc49c5fec5d5faa8792ce",
            "0x0000000000000000000000000000000000000000000000000000000000000009"
          ],
          "data": "0x00000000000000000000000000000000000000000000000000000000679b30b8000000000000000000000000000000000000000000000000261ebf5a94f8eef7000000000000000000000000000000000000000000000000261ebf5a94f8eef7",
          "blockHash": "0xfe7d1ba4b7aed89a1763386d51f1b080e19390378243659d1163a831e5cbddd2",
          "blockNumber": "0x143e8ec",
          "transactionHash": "0x087ad48bdd51e74d18ede4b539137a9953f7f5f9081ba03e153a61f70dd3bbe0",
          "transactionIndex": "0x3b",
          "logIndex": "0xdd",
          "removed": false
        },
        {
          "address": "0x14f2a22c97ae2890e73cb15b1c0e42a8a0821223",
          "topics": [
            "0x2bbaa179fabbdbc2ed8c301faf6fca674ce9b4db55373c36bda89901d2fcfb6c",
            "0x5611645c7b7387fb8499426a4c76a74c7241f751aca035dcabb5e9b0ed7cf68b",
            "0x0000000000000000000000000000000000000000000000000000000000000009"
          ],
          "data": "0x000000000000000000000000000000000000000000000038cfebef75415ffdbc000000000000000000000000000000000000000000000005ae6464beecefffc600000000000000000000000000000000000000000000000000000000000000000000000000000000000000000000000000000000000000000000000000000000",
          "blockHash": "0xfe7d1ba4b7aed89a1763386d51f1b080e19390378243659d1163a831e5cbddd2",
          "blockNumber": "0x143e8ec",
          "transactionHash": "0x087ad48bdd51e74d18ede4b539137a9953f7f5f9081ba03e153a61f70dd3bbe0",
          "transactionIndex": "0x3b",
          "logIndex": "0xde",
          "removed": false
        },
        {
          "address": "0x14f2a22c97ae2890e73cb15b1c0e42a8a0821223",
          "topics": [
            "0x949314518006833d597b4acd80e6cc367fa5461d9a4f80373e136688b6aad142",
            "0x0000000000000000000000008c9c001f821c04513616fd7962b2d8c62f925fd2",
            "0x5611645c7b7387fb8499426a4c76a74c7241f751aca035dcabb5e9b0ed7cf68b",
            "0x0000000000000000000000000000000000000000000000000000000000000009"
          ],
          "data": "0x000000000000000000000000000000000000000000000000000000000000000000000000000000000000000000000000000000000000000000000000000000000000000000000000000000000000000000000000000000000000000000000000",
          "blockHash": "0xfe7d1ba4b7aed89a1763386d51f1b080e19390378243659d1163a831e5cbddd2",
          "blockNumber": "0x143e8ec",
          "transactionHash": "0x087ad48bdd51e74d18ede4b539137a9953f7f5f9081ba03e153a61f70dd3bbe0",
          "transactionIndex": "0x3b",
          "logIndex": "0xdf",
          "removed": false
        },
        {
          "address": "0x14f2a22c97ae2890e73cb15b1c0e42a8a0821223",
          "topics": [
            "0xc2ec7dd88a6dab4eecfd7a57fb0879a881a03e12b94dc49c5fec5d5faa8792ce",
            "0x000000000000000000000000000000000000000000000000000000000000000a"
          ],
          "data": "0x00000000000000000000000000000000000000000000000000000000679b30b80000000000000000000000000000000000000000000000001cdd2cd82b6932ea0000000000000000000000000000000000000000000000001cdd2cd82b6932ea",
          "blockHash": "0xfe7d1ba4b7aed89a1763386d51f1b080e19390378243659d1163a831e5cbddd2",
          "blockNumber": "0x143e8ec",
          "transactionHash": "0x087ad48bdd51e74d18ede4b539137a9953f7f5f9081ba03e153a61f70dd3bbe0",
          "transactionIndex": "0x3b",
          "logIndex": "0xe0",
          "removed": false
        },
        {
          "address": "0x14f2a22c97ae2890e73cb15b1c0e42a8a0821223",
          "topics": [
            "0x2bbaa179fabbdbc2ed8c301faf6fca674ce9b4db55373c36bda89901d2fcfb6c",
            "0x5611645c7b7387fb8499426a4c76a74c7241f751aca035dcabb5e9b0ed7cf68b",
            "0x000000000000000000000000000000000000000000000000000000000000000a"
          ],
          "data": "0x000000000000000000000000000000000000000000000038cfebef75415ffdbc000000000000000000000000000000000000000000000005ae6464beecefffc600000000000000000000000000000000000000000000000000000000000000000000000000000000000000000000000000000000000000000000000000000000",
          "blockHash": "0xfe7d1ba4b7aed89a1763386d51f1b080e19390378243659d1163a831e5cbddd2",
          "blockNumber": "0x143e8ec",
          "transactionHash": "0x087ad48bdd51e74d18ede4b539137a9953f7f5f9081ba03e153a61f70dd3bbe0",
          "transactionIndex": "0x3b",
          "logIndex": "0xe1",
          "removed": false
        },
        {
          "address": "0x14f2a22c97ae2890e73cb15b1c0e42a8a0821223",
          "topics": [
            "0x949314518006833d597b4acd80e6cc367fa5461d9a4f80373e136688b6aad142",
            "0x0000000000000000000000008c9c001f821c04513616fd7962b2d8c62f925fd2",
            "0x5611645c7b7387fb8499426a4c76a74c7241f751aca035dcabb5e9b0ed7cf68b",
            "0x000000000000000000000000000000000000000000000000000000000000000a"
          ],
          "data": "0x000000000000000000000000000000000000000000000000000000000000000000000000000000000000000000000000000000000000000000000000000000000000000000000000000000000000000000000000000000000000000000000000",
          "blockHash": "0xfe7d1ba4b7aed89a1763386d51f1b080e19390378243659d1163a831e5cbddd2",
          "blockNumber": "0x143e8ec",
          "transactionHash": "0x087ad48bdd51e74d18ede4b539137a9953f7f5f9081ba03e153a61f70dd3bbe0",
          "transactionIndex": "0x3b",
          "logIndex": "0xe2",
          "removed": false
        },
        {
          "address": "0x14f2a22c97ae2890e73cb15b1c0e42a8a0821223",
          "topics": [
            "0xc2ec7dd88a6dab4eecfd7a57fb0879a881a03e12b94dc49c5fec5d5faa8792ce",
            "0x000000000000000000000000000000000000000000000000000000000000000b"
          ],
          "data": "0x00000000000000000000000000000000000000000000000000000000679b30b800000000000000000000000000000000000000000000000014fd56d049f791bb00000000000000000000000000000000000000000000000014fd56d049f791bb",
          "blockHash": "0xfe7d1ba4b7aed89a1763386d51f1b080e19390378243659d1163a831e5cbddd2",
          "blockNumber": "0x143e8ec",
          "transactionHash": "0x087ad48bdd51e74d18ede4b539137a9953f7f5f9081ba03e153a61f70dd3bbe0",
          "transactionIndex": "0x3b",
          "logIndex": "0xe3",
          "removed": false
        },
        {
          "address": "0x14f2a22c97ae2890e73cb15b1c0e42a8a0821223",
          "topics": [
            "0x2bbaa179fabbdbc2ed8c301faf6fca674ce9b4db55373c36bda89901d2fcfb6c",
            "0x5611645c7b7387fb8499426a4c76a74c7241f751aca035dcabb5e9b0ed7cf68b",
            "0x000000000000000000000000000000000000000000000000000000000000000b"
          ],
          "data": "0x000000000000000000000000000000000000000000000038cfebef75415ffdbc000000000000000000000000000000000000000000000005ae6464beecefffc600000000000000000000000000000000000000000000000000000000000000000000000000000000000000000000000000000000000000000000000000000000",
          "blockHash": "0xfe7d1ba4b7aed89a1763386d51f1b080e19390378243659d1163a831e5cbddd2",
          "blockNumber": "0x143e8ec",
          "transactionHash": "0x087ad48bdd51e74d18ede4b539137a9953f7f5f9081ba03e153a61f70dd3bbe0",
          "transactionIndex": "0x3b",
          "logIndex": "0xe4",
          "removed": false
        },
        {
          "address": "0x14f2a22c97ae2890e73cb15b1c0e42a8a0821223",
          "topics": [
            "0x949314518006833d597b4acd80e6cc367fa5461d9a4f80373e136688b6aad142",
            "0x0000000000000000000000008c9c001f821c04513616fd7962b2d8c62f925fd2",
            "0x5611645c7b7387fb8499426a4c76a74c7241f751aca035dcabb5e9b0ed7cf68b",
            "0x000000000000000000000000000000000000000000000000000000000000000b"
          ],
          "data": "0x000000000000000000000000000000000000000000000000000000000000000000000000000000000000000000000000000000000000000000000000000000000000000000000000000000000000000000000000000000000000000000000000",
          "blockHash": "0xfe7d1ba4b7aed89a1763386d51f1b080e19390378243659d1163a831e5cbddd2",
          "blockNumber": "0x143e8ec",
          "transactionHash": "0x087ad48bdd51e74d18ede4b539137a9953f7f5f9081ba03e153a61f70dd3bbe0",
          "transactionIndex": "0x3b",
          "logIndex": "0xe5",
          "removed": false
        },
        {
          "address": "0x14f2a22c97ae2890e73cb15b1c0e42a8a0821223",
          "topics": [
            "0xc2ec7dd88a6dab4eecfd7a57fb0879a881a03e12b94dc49c5fec5d5faa8792ce",
            "0x000000000000000000000000000000000000000000000000000000000000000c"
          ],
          "data": "0x00000000000000000000000000000000000000000000000000000000679b30b800000000000000000000000000000000000000000000000012031edc039c4bea00000000000000000000000000000000000000000000000012031edc039c4bea",
          "blockHash": "0xfe7d1ba4b7aed89a1763386d51f1b080e19390378243659d1163a831e5cbddd2",
          "blockNumber": "0x143e8ec",
          "transactionHash": "0x087ad48bdd51e74d18ede4b539137a9953f7f5f9081ba03e153a61f70dd3bbe0",
          "transactionIndex": "0x3b",
          "logIndex": "0xe6",
          "removed": false
        },
        {
          "address": "0x14f2a22c97ae2890e73cb15b1c0e42a8a0821223",
          "topics": [
            "0x2bbaa179fabbdbc2ed8c301faf6fca674ce9b4db55373c36bda89901d2fcfb6c",
            "0x5611645c7b7387fb8499426a4c76a74c7241f751aca035dcabb5e9b0ed7cf68b",
            "0x000000000000000000000000000000000000000000000000000000000000000c"
          ],
          "data": "0x000000000000000000000000000000000000000000000038cfebef75415ffdbc000000000000000000000000000000000000000000000005ae6464beecefffc600000000000000000000000000000000000000000000000000000000000000000000000000000000000000000000000000000000000000000000000000000000",
          "blockHash": "0xfe7d1ba4b7aed89a1763386d51f1b080e19390378243659d1163a831e5cbddd2",
          "blockNumber": "0x143e8ec",
          "transactionHash": "0x087ad48bdd51e74d18ede4b539137a9953f7f5f9081ba03e153a61f70dd3bbe0",
          "transactionIndex": "0x3b",
          "logIndex": "0xe7",
          "removed": false
        },
        {
          "address": "0x14f2a22c97ae2890e73cb15b1c0e42a8a0821223",
          "topics": [
            "0x949314518006833d597b4acd80e6cc367fa5461d9a4f80373e136688b6aad142",
            "0x0000000000000000000000008c9c001f821c04513616fd7962b2d8c62f925fd2",
            "0x5611645c7b7387fb8499426a4c76a74c7241f751aca035dcabb5e9b0ed7cf68b",
            "0x000000000000000000000000000000000000000000000000000000000000000c"
          ],
          "data": "0x000000000000000000000000000000000000000000000000000000000000000000000000000000000000000000000000000000000000000000000000000000000000000000000000000000000000000000000000000000000000000000000000",
          "blockHash": "0xfe7d1ba4b7aed89a1763386d51f1b080e19390378243659d1163a831e5cbddd2",
          "blockNumber": "0x143e8ec",
          "transactionHash": "0x087ad48bdd51e74d18ede4b539137a9953f7f5f9081ba03e153a61f70dd3bbe0",
          "transactionIndex": "0x3b",
          "logIndex": "0xe8",
          "removed": false
        },
        {
          "address": "0x14f2a22c97ae2890e73cb15b1c0e42a8a0821223",
          "topics": [
            "0xc2ec7dd88a6dab4eecfd7a57fb0879a881a03e12b94dc49c5fec5d5faa8792ce",
            "0x000000000000000000000000000000000000000000000000000000000000000d"
          ],
          "data": "0x00000000000000000000000000000000000000000000000000000000679b30b80000000000000000000000000000000000000000000000000f2110b1b157af0a0000000000000000000000000000000000000000000000000f2110b1b157af0a",
          "blockHash": "0xfe7d1ba4b7aed89a1763386d51f1b080e19390378243659d1163a831e5cbddd2",
          "blockNumber": "0x143e8ec",
          "transactionHash": "0x087ad48bdd51e74d18ede4b539137a9953f7f5f9081ba03e153a61f70dd3bbe0",
          "transactionIndex": "0x3b",
          "logIndex": "0xe9",
          "removed": false
        },
        {
          "address": "0x14f2a22c97ae2890e73cb15b1c0e42a8a0821223",
          "topics": [
            "0x2bbaa179fabbdbc2ed8c301faf6fca674ce9b4db55373c36bda89901d2fcfb6c",
            "0x5611645c7b7387fb8499426a4c76a74c7241f751aca035dcabb5e9b0ed7cf68b",
            "0x000000000000000000000000000000000000000000000000000000000000000d"
          ],
          "data": "0x000000000000000000000000000000000000000000000038cfebef75415ffdbc000000000000000000000000000000000000000000000005ae6464beecefffc600000000000000000000000000000000000000000000000000000000000000000000000000000000000000000000000000000000000000000000000000000000",
          "blockHash": "0xfe7d1ba4b7aed89a1763386d51f1b080e19390378243659d1163a831e5cbddd2",
          "blockNumber": "0x143e8ec",
          "transactionHash": "0x087ad48bdd51e74d18ede4b539137a9953f7f5f9081ba03e153a61f70dd3bbe0",
          "transactionIndex": "0x3b",
          "logIndex": "0xea",
          "removed": false
        },
        {
          "address": "0x14f2a22c97ae2890e73cb15b1c0e42a8a0821223",
          "topics": [
            "0x949314518006833d597b4acd80e6cc367fa5461d9a4f80373e136688b6aad142",
            "0x0000000000000000000000008c9c001f821c04513616fd7962b2d8c62f925fd2",
            "0x5611645c7b7387fb8499426a4c76a74c7241f751aca035dcabb5e9b0ed7cf68b",
            "0x000000000000000000000000000000000000000000000000000000000000000d"
          ],
          "data": "0x000000000000000000000000000000000000000000000000000000000000000000000000000000000000000000000000000000000000000000000000000000000000000000000000000000000000000000000000000000000000000000000000",
          "blockHash": "0xfe7d1ba4b7aed89a1763386d51f1b080e19390378243659d1163a831e5cbddd2",
          "blockNumber": "0x143e8ec",
          "transactionHash": "0x087ad48bdd51e74d18ede4b539137a9953f7f5f9081ba03e153a61f70dd3bbe0",
          "transactionIndex": "0x3b",
          "logIndex": "0xeb",
          "removed": false
        },
        {
          "address": "0x14f2a22c97ae2890e73cb15b1c0e42a8a0821223",
          "topics": [
            "0x4e7bac5695f40fad0768f0f3b8c118c3d4d29e043511b9fa823003fe60027275",
            "0x0000000000000000000000008c9c001f821c04513616fd7962b2d8c62f925fd2",
            "0x5611645c7b7387fb8499426a4c76a74c7241f751aca035dcabb5e9b0ed7cf68b"
          ],
          "data": "0x000000000000000000000000000000000000000000000004e1003b28d9280000",
          "blockHash": "0xfe7d1ba4b7aed89a1763386d51f1b080e19390378243659d1163a831e5cbddd2",
          "blockNumber": "0x143e8ec",
          "transactionHash": "0x087ad48bdd51e74d18ede4b539137a9953f7f5f9081ba03e153a61f70dd3bbe0",
          "transactionIndex": "0x3b",
          "logIndex": "0xec",
          "removed": false
        },
        {
          "address": "0x8528c2df4ed0cf397a31b3f0ff0b96719a1be2c6",
          "topics": [
            "0xddf252ad1be2c89b69c2b068fc378daa952ba7f163c4a11628f55a4df523b3ef",
            "0x0000000000000000000000008c9c001f821c04513616fd7962b2d8c62f925fd2",
            "0x00000000000000000000000014f2a22c97ae2890e73cb15b1c0e42a8a0821223"
          ],
          "data": "0x000000000000000000000000000000000000000000000004e1003b28d9280000",
          "blockHash": "0xfe7d1ba4b7aed89a1763386d51f1b080e19390378243659d1163a831e5cbddd2",
          "blockNumber": "0x143e8ec",
          "transactionHash": "0x087ad48bdd51e74d18ede4b539137a9953f7f5f9081ba03e153a61f70dd3bbe0",
          "transactionIndex": "0x3b",
          "logIndex": "0xed",
          "removed": false
        }
      ],
      "logsBloom": "0x040000080000000000400040000008000000020000000000000000000000000000000008000002000000000000000400080010000606800000200000002400000000300000004000000000080040000000020000000400000000000000000000080000000200000010000000000008000000000000100000000000180000000000a0000400000004010000000000001000001800000000001000000000000000000000000200000000000100000020001000000042800000002080480000408040000002000000000000000000000000002200008000010000000100000060220000000000000000000000000000000000000000008000040000000000800000",
      "type": "0x2",
      "transactionHash": "0x087ad48bdd51e74d18ede4b539137a9953f7f5f9081ba03e153a61f70dd3bbe0",
      "transactionIndex": "0x3b",
      "blockHash": "0xfe7d1ba4b7aed89a1763386d51f1b080e19390378243659d1163a831e5cbddd2",
      "blockNumber": "0x143e8ec",
      "gasUsed": "0x171057",
      "effectiveGasPrice": "0x125306d",
      "from": "0x8c9c001f821c04513616fd7962b2d8c62f925fd2",
      "to": "0x14f2a22c97ae2890e73cb15b1c0e42a8a0821223",
      "contractAddress": null,
      "l1BaseFeeScalar": "0x44d",
      "l1BlobBaseFee": "0x1",
      "l1BlobBaseFeeScalar": "0xa118b",
      "l1Fee": "0x8cfca22f",
      "l1GasPrice": "0x50088d37",
      "l1GasUsed": "0x640"
    },
    {
      "status": "0x1",
      "cumulativeGasUsed": "0x3e1841",
      "logs": [
        {
          "address": "0x14f2a22c97ae2890e73cb15b1c0e42a8a0821223",
          "topics": [
            "0x764e98ff8f133fd79086bf24b413507d9b7e83977b31f35a16b80680f38f7072",
            "0x000000000000000000000000000000000000000000000000000000000000000e"
          ],
          "data": "0x00000000000000000000000000000000000000000000000000000000679b30c6000000000000000000000000000000000000000000000000000000006811d7c60000000000000000000000000000000000000000000000000de0b6b3a76400000000000000000000000000000000000000000000000000000de0b6b3a7640000",
          "blockHash": "0xafafd5c7e036e7872e146bb3c1efb7cb67bc9c8a98ee5c063c333430d09897d4",
          "blockNumber": "0x143e8ed",
          "transactionHash": "0x50cb42bca64083b07bedf9545b2d01eea102a1298f432e1c50dd751f74149f40",
          "transactionIndex": "0x1e",
          "logIndex": "0x48",
          "removed": false
        },
        {
          "address": "0x264541e2dc34875943a746174e862ac594164aa2",
          "topics": [
            "0x554c94cb64d410104e2b06cc56052e30bc29a1307df890d30eb124045d4ae680",
            "0x000000000000000000000000000000000000000000000000000000000000000e"
          ],
          "data": "0x00000000000000000000000000000000000000000000000000000000000075e800000000000000000000000058bde6071db4a9b006fdabe75a2eeb43decb779b",
          "blockHash": "0xafafd5c7e036e7872e146bb3c1efb7cb67bc9c8a98ee5c063c333430d09897d4",
          "blockNumber": "0x143e8ed",
          "transactionHash": "0x50cb42bca64083b07bedf9545b2d01eea102a1298f432e1c50dd751f74149f40",
          "transactionIndex": "0x1e",
          "logIndex": "0x49",
          "removed": false
        }
      ],
      "logsBloom": "0x00000000000000000000000000000000000000000000000000000000000000000000000800000000100000000000000000000000000400000000000000000000000000000000000800000002000000000000000000400000000000000000000000000000000000000000000000000000000000000000020000000000000000000000000000000000000000000000000008000000000000000000000000000000000000200000000000000000000020000000000000000020000000000000000000000000000000020000000000000000000000000000000000000000000020000000000000000000000000000000000000000020000000000000001000000000",
      "type": "0x2",
      "transactionHash": "0x50cb42bca64083b07bedf9545b2d01eea102a1298f432e1c50dd751f74149f40",
      "transactionIndex": "0x1e",
      "blockHash": "0xafafd5c7e036e7872e146bb3c1efb7cb67bc9c8a98ee5c063c333430d09897d4",
      "blockNumber": "0x143e8ed",
      "gasUsed": "0x44372",
      "effectiveGasPrice": "0x125d95d",
      "from": "0x8c9c001f821c04513616fd7962b2d8c62f925fd2",
      "to": "0x14f2a22c97ae2890e73cb15b1c0e42a8a0821223",
      "contractAddress": null,
      "l1BaseFeeScalar": "0x44d",
      "l1BlobBaseFee": "0x1",
      "l1BlobBaseFeeScalar": "0xa118b",
      "l1Fee": "0xa4099004",
      "l1GasPrice": "0x50088d37",
      "l1GasUsed": "0x745"
    },
    {
      "status": "0x1",
      "cumulativeGasUsed": "0x3f4df9",
      "logs": [
        {
          "address": "0x58bde6071db4a9b006fdabe75a2eeb43decb779b",
          "topics": [
            "0xddf252ad1be2c89b69c2b068fc378daa952ba7f163c4a11628f55a4df523b3ef",
            "0x0000000000000000000000008c9c001f821c04513616fd7962b2d8c62f925fd2",
            "0x000000000000000000000000264541e2dc34875943a746174e862ac594164aa2"
          ],
          "data": "0x000000000000000000000000000000000000000000000004e1003b28d9280000",
          "blockHash": "0xafafd5c7e036e7872e146bb3c1efb7cb67bc9c8a98ee5c063c333430d09897d4",
          "blockNumber": "0x143e8ed",
          "transactionHash": "0x40b7a1aab1c7b3b47459853e7f820e5f5fbcbd22cb4a989675134fe94535dfe4",
          "transactionIndex": "0x1f",
          "logIndex": "0x4a",
          "removed": false
        },
        {
          "address": "0x264541e2dc34875943a746174e862ac594164aa2",
          "topics": [
            "0x90e9c021de092ced915ba783260374f129aeeedec753ab3fb564631601ff9589",
            "0x000000000000000000000000000000000000000000000000000000000000000e",
            "0x0000000000000000000000008c9c001f821c04513616fd7962b2d8c62f925fd2"
          ],
          "data": "0x00000000000000000000000000000000000000000000000000000000000075e8000000000000000000000000000000000000000000000004e1003b28d9280000",
          "blockHash": "0xafafd5c7e036e7872e146bb3c1efb7cb67bc9c8a98ee5c063c333430d09897d4",
          "blockNumber": "0x143e8ed",
          "transactionHash": "0x40b7a1aab1c7b3b47459853e7f820e5f5fbcbd22cb4a989675134fe94535dfe4",
          "transactionIndex": "0x1f",
          "logIndex": "0x4b",
          "removed": false
        }
      ],
      "logsBloom": "0x00000000000000000000000000001800000000000000000000000000000000000000000000000000000000000000000000000000000000000000000000000000000000200000000800000008004000000000000000400000000000000000000000000000000000000000000000000000000000000000000000000010020000000000000000000000000000000000000008000000000000000000000000400020000000000000000000000000000000000000000000000020000080000000000000000002000000000000000000000000000000000000100000000000000000000000000000000000000000008000000800000020008000000000001000000000",
      "type": "0x2",
      "transactionHash": "0x40b7a1aab1c7b3b47459853e7f820e5f5fbcbd22cb4a989675134fe94535dfe4",
      "transactionIndex": "0x1f",
      "blockHash": "0xafafd5c7e036e7872e146bb3c1efb7cb67bc9c8a98ee5c063c333430d09897d4",
      "blockNumber": "0x143e8ed",
      "gasUsed": "0x135b8",
      "effectiveGasPrice": "0x125d95d",
      "from": "0x8c9c001f821c04513616fd7962b2d8c62f925fd2",
      "to": "0x264541e2dc34875943a746174e862ac594164aa2",
      "contractAddress": null,
      "l1BaseFeeScalar": "0x44d",
      "l1BlobBaseFee": "0x1",
      "l1BlobBaseFeeScalar": "0xa118b",
      "l1Fee": "0x8cfca22f",
      "l1GasPrice": "0x50088d37",
      "l1GasUsed": "0x640"
    }
  ],
  "libraries": [],
  "pending": [],
  "returns": {},
  "timestamp": 1738223802,
  "chain": 84532,
  "commit": "786270f"
}